:02000000ff00ff
:080002004c6174746963650030
:17000a00694345637562653220323031342e30342e32363432350073
:16002100506172743a2069434534304858384b2d435432353600ff
:1a003700446174653a204d6172203720323031352031323a31323a353600b3
:0200510000ffae
:040053007eaa997e6a
:02005700510056
:0200590001059f
:03005b00920020f0
:03005e00620367d3
:0300610072011019
:0300640082000017
:02006700110086
:02006900010193
:20006b00000000000000000000000000000000000000000000000000000000000000000075
:20008b00000000000000000000000000000000000000000000000000000000000000000055
:2000ab00000000000000000000000000000000000000000000000000000000000000000035
:0d00cb000000000000000000000000000028
:2000d800000000000000000000000000000000000000000000000000000000000000000008
:2000f8000000000000000000000000000000000000000000000000000000000000000000e8
:200118000000000000000000000000000000000000000000000000000000000000000000c7
:0d01380000000000000000000000000000ba
:2001450000000000000000000000000000000000000000000000000000000000000000009a
:2001650000000000000000000000000000000000000000000000000000000000000000007a
:2001850000000000000000000000000000000000000000000000000000000000000000005a
:0d01a5000000000000000400000000000049
:2001b20000000000000000000000000000000000000000000000000000000000000000002d
:2001d20000000000000000000000000000000000000000000000000000000000000000000d
:2001f2000000000000000000000000000000000000000000000000000000000000000000ed
:0d02120000000000000000000000000000df
:20021f000000000000000000000000000000000000000000000000000000000000000000bf
:20023f0000000000000000000000000000000000000000000000000000000000000000009f
:20025f0000000000000000000000000000000000000000000000000000000000000000007f
:0d027f000000000000000000000000000072
:20028c00000000000000000000000000000000000000000000000000000000000000000052
:2002ac00000000000000000000000000000000000000000000000000000000000000000032
:2002cc00000000000000000000000000000000000000000000000000000000000000000012
:0d02ec000000000000000000000000000005
:2002f9000000000000000000000000000000000000000000000000000000000000000000e5
:200319000000000000000000000000000000000000000000000000000000000000000000c4
:20033900000000000000000000000000000000000000000340000000000000000000000061
:0d0359000000000000000000000000000097
:20036600000000000000000000000000000000000000000000000000000000000000000077
:20038600000000000000000000000000000000000000000000000000000000000000000057
:2003a600000000000000000000000000000000000000000000000000000000000000000037
:0d03c600000000000000000000000000002a
:2003d30000000000000000000000000000000000000000000000000000000000000000000a
:2003f3000000000000000000000000000000000000000000000000000000000000000000ea
:200413000000000000000000000000000000000000000000000000000000000000000000c9
:0d04330000000000000000000000000000bc
:2004400000000000000000000000000000000000000000000000000000000000000000009c
:2004600000000000000000000000000000000000000000000000000000000000000000007c
:2004800000000000000000000000000000000000000000000000000000000001000000005b
:0d04a000000000000000000000000000004f
:2004ad0000000000000000000000000000000000000000000000000000000000000000002f
:2004cd0000000000000000000000000000000000000000000000000000000000000000000f
:2004ed000000000000000000000000000000000000000000000020000000000100000000ce
:0d050d0000000400000000000000000000dd
:20051a000000000000000000000000000000000000000000000000000000000000000000c1
:20053a000000000000000000000000000000000000000000000000000000000000000000a1
:20055a0000000000000000000000000000000000000000000000100000000003000000006e
:0d057a000000000000000000000000000074
:20058700000000000000000000000000000000000000000000000000000000000000000054
:2005a700000000000000000000000000000000000000000000000000000000000000000034
:2005c700000000000000000000000000000000000000000000000000000000010000000013
:0d05e70000000800000000000010000000ef
:2005f4000000000000000000000000000000000000000000000000000000000000000000e7
:200614000000000000000000000000000000000000000000000000000000000000000000c6
:200634000000000000000000000000000000000000000000000000000000000000000000a6
:0d0654000000040000000000000000000095
:20066100000000000000000000000000000000000000000000000000000000000000000079
:20068100000000000000000000000000000000000000000000000000000000000000000059
:2006a100000000000000000000000000000000000000000000000000000000000000000039
:0d06c100000000000000000000000000002c
:2006ce0000000000000000000000000000000000000000000000000000000000000000000c
:2006ee000000000000000000000000000000000000000000000000000000000000000000ec
:20070e000000000000000000000000000000000000000000000000000000000000000000cb
:0d072e0000000800000000000000000000b6
:20073b0000000000000000000000000000000000000000000000000000000000000000009e
:20075b0000000000000000000000000000000000000000000000000000000000000000007e
:20077b0000000000000000000000000000000000000000000000000000000000000000005e
:0d079b00000000000000000000018f0000c1
:2007a800000000000000000000000000000000000000000000000000000000000000000031
:2007c8000000000000000000000000000000000000001400034000000000000000000000ba
:2007e8000000000000000000000000000000000000000000000000000000000000000000f1
:0d080800000000000000000000010f0008cb
:200815000000000000000000000000000000000000000000000000000000000000000000c3
:2008350000000000000000000000000000000000000e000002000000000000000000008013
:2008550000000000000000000000000400000000000040000000000000000000000000003f
:0d0875000000000000000000020000000074
:20088200000000000000000000000000000000000000000000000000000000000000000056
:2008a200000000000000000000000000000000000000000003c00000000000000000004033
:2008c200000000000000000000000002000000000000000000000000000000000000000014
:0d08e2000000000000000000000000000009
:2008ef000000000000000000000000000000000000000000000000000000000000000000e9
:20090f00000000000000000000000000000000000000000e7c00000000000000000000003e
:20092f00000000000000000000000010000000000000000000000000010000000000000097
:0d094f00000000000000000000000000009b
:20095c0000000000000000000000000000000000000000000000000000000000000000007b
:20097c00000000000000000000000000000000000000003c2d4000000000000000000000b2
:20099c0000000000000000000000000000000000000000000000000000000000000000003b
:0d09bc00000000000000000000000000002e
:2009c90000000000000000000000000000000000000000000000000000000000000000000e
:2009e9000000000000000000000000000000000000000000300000000000000000000000be
:200a09000000000000000000000000000000000000000000000000000000000000000000cd
:0d0a290000000000000000000000000000c0
:200a36000000000000000000000000000000000000000000000000000000000000000000a0
:200a5600000000000000000000000000000000000000000025c0000000000000000000009b
:200a7600000000000000000000000000000000000000000000000000000000000000000060
:0d0a96000000000000000000000000000053
:200aa300000000000000000000000000000000000000000000000000000000000000000033
:200ac3000000000000000000000000000000000000000004034010000000000000000000bc
:200ae3000000000000000000000000000000000000000000000000000000000000000000f3
:0d0b030000000000000000000000000000e5
:200b10000000000000000000000000000000000000000000000000000000000000000000c5
:200b300000000000000000000000000000000000000000003fe00000000000000000000086
:200b5000000000000000000000000000000000000000000000000000000000000000000085
:0d0b70000000000000000000000000000078
:200b7d00000000000000000000000000000000000000000000000000000000000000000058
:200b9d000000000000000000000000000000000000000020000000000000000000000e000a
:200bbd00000000000000000000000000000000000000000000000000000000000000000018
:0d0bdd00000000000000000000000000000b
:200bea000000000000000000000000000000000000000000000000000000000000000000eb
:200c0a00000000000000000000000000000000000000000c03ca00000000000000000000f1
:200c2a000000000000000000000000000000000000000000000000000000000000000000aa
:0d0c4a00000000000000000000000000009d
:200c570000000000000000000000000000000000000000000000000000000000000000007d
:200c77000000000000000000000000400000000000000020060000200000000000000000d7
:200c97000000000000000000000000000000000000004000000000000100000000000000fc
:0d0cb70000000000000040000000000000f0
:200cc400000000000000000000000000000000000000000000000000000000000000000010
:200ce400000000000000000000000000000000000000000c374d0000000000000000000060
:200d04000000000000000000000000000000000000000000000000000000000000000000cf
:0d0d24000000000000008000000000000042
:200d31000000000000000000000000000000000000000000000000000000000000000000a2
:200d510000000000000000000000000000000000000c00003e000000000000000000000038
:200d71000000000000000000000000000800000000000000000000000000800000000000da
:0d0d91000000000000000000000000000055
:200d9e00000000000000000000000000000000000000000000000000000000000000000035
:200dbe000000000000000000000000000000000000040000734c0000000000000000000052
:200dde000000000000000000000000001400000000000000000000000001400000000000a0
:0d0dfe0000000000000000000000000000e8
:200e0b000000000000000000000000000000000000000000000000000000000000000000c7
:200e2b00000000000000000000000000000000000000100402000000000000000000000091
:200e4b00000000000000000000000000000000000000000000000000000000000000000087
:0d0e6b00000000000000000000000000007a
:200e780000000000000000000000000000000000000000000000000000000000000000005a
:200e98000000000000000000000000000000000000001000024000000000000000000000e8
:200eb80000000000000000000000000000000000000000000000000000000000000000001a
:0d0ed800000000000000000000000000000d
:200ee5000000000000000000000000000000000000000000000000000000000000000000ed
:200f050000000000000000000000000000000000000e1000040000000000000000000000aa
:200f25000000000000000000000000000000000000000000000000000100000000000000ab
:0d0f4500000000000000000000000000009f
:200f520000000000000000000000000000000000000000000000000000000000000000007f
:200f7200000000000000000000000000000000000000100c3940000000000000000040008a
:200f920000000000000000000000000000000000000000000000000000000000000000003f
:0d0fb2000000000000000000000000000032
:200fbf00000000000000000000000000000000000000000000000000000000000000000012
:200fdf0000000000002000000000000000000000000000207800000000000000000000003a
:200fff000000000000000000000000000000000000000000000000000100000000000000d1
:0d101f0000000000000000000000000000c4
:20102c000000000000000000000000000000000000000000000000000000000000000000a4
:20104c00000000000000000000000000000000000000003c03c00000000000000000000085
:20106c00000000000000000000000000000000000000000000000000000000000000000064
:0d108c000000000000000000000000000057
:20109900000000000000000000000000000000000000000000000000000000000000000037
:2010b900000000000000000000000000000000000000000000000000000000000000000017
:2010d9000000000000020000000000000000000000000000000000000000000000000000f5
:0d10f90000000000000000000000000000ea
:201106000000000000000000000000000000000000000000000000000000000000000000c9
:20112600000000000000000000000000000000000000000000400000000000000000000069
:20114600000000000005000000000000000000000000000000000000000000000000000084
:0d116600000000000000000000000000007c
:2011730000000000000000000000000000000000000000000000000000000000000000005c
:20119300000000000000000000000000000000000000000001e0000000000000000000005b
:2011b30000000000000000000000000000000000000000000000000000000000000000001c
:0d11d300000000000000000000000000000f
:2011e0000000000000000000000000000000000000000000000000000000000000000000ef
:2012000000000000000000000000000000000000000000000360400000000000000000002b
:201220000000000000000000000000000000000000000000000000000000000000000000ae
:0d12400000000000000000000000000000a1
:20124d00000000000000000000000000000000000000000000000000000000000000000081
:20126d0000000000000000000000000000000000000000042200000020000000000000001b
:20128d00000000000000000000000000000000000000000000000000000000000000000041
:0d12ad000000000000000000000000000034
:2012ba00000000000000000000000000000000000000000000000000000000000000000014
:2012da00000000000000000000000000000000000000003e42cf0000400000000000000065
:2012fa000000000000000000000000000000000000000000000000000000000000000000d4
:0d131a0000000000000000000000000000c6
:201327000000000000000000000000000000000000000000000000000000000000000000a6
:2013470000000000000000000000000000000000000000006a01000000000000000000001b
:20136700000000000000000000000000000000000000000000000000000000000000000066
:0d1387000000000000000000000000000059
:20139400000000000000000000000000000000000000000000000000000000000000000039
:2013b4000000000000000000000000000000000000000004604c0000000000000000000069
:2013d4000000000000000000000000000000000000000000000000000000000000000000f9
:0d13f40000000000000000000000000000ec
:201401000000000000000000000000000000000000000000000000000000000000000000cb
:2014210000000000000000000000000000000000000c005e0200000000000000000000003f
:20144100000000000000000000000000080000000000000000000000000000000000000083
:0d146100000000000000000000000000007e
:20146e0000000000000000000000000000000000000000000000000000000000000000005e
:20148e0000000000000000000000000000000000000c008320ce00000000000000000000c1
:2014ae0000000000000000000000000010000000000000000000000000000000000000000e
:0d14ce000000000000000000000000000011
:2014db000000000000000000000000000000000000000000000000000000000000000000f1
:2014fb00000000000000000000000000000000000001801e00000000000000000000000032
:20151b000000000000000000000000000000000000000000000000000000000000000000b0
:0d153b0000000000000000000000000000a3
:20154800000000000000000000000000000000000000000000000000000000000000000083
:20156800000000000000000000000000000000000000100202c0000000400000000000004f
:20158800000000000000000000000000000000000000000000000000000000000000000043
:0d15a8000000000000000000000000000036
:2015b500000000000000000000000000000000000000000000000000000000000000000016
:2015d50000000000000000000000000000000000000e001c3200000000000000000040005a
:2015f500000000000000000000000000000000000000400000000000000000000000000096
:0d16150000000000000000000000000000c8
:201622000000000000000000000000000000000000000000000000000000000000000000a8
:20164200000000000000000000000000000000000000003e02400000000000000000a00068
:20166200000000000000000000000000000000000000000000000000000000000000000068
:0d168200000000000000000000000000005b
:20168f0000000000000000000000000000000000000000000000000000000000000000003b
:2016af000000000000000000000000000000000000000420000000001000000000000000e7
:2016cf000000000000000000000000000000000000004000000000000000000000000000bb
:0d16ef0000000000000000000000000000ee
:2016fc000000000000000000000000000000000000000000000000000000000000000000ce
:20171c00000000000000000000000000000000000000080c01c000000000000000000000d8
:20173c0000000000000000000000000000000000000000000000000000000000000000008d
:0d175c000000000000000000000000000080
:20176900000000000000000000000000000000000000000000000000000000000000000060
:20178900000000000000000000000000000000000000000000000000000000000000000040
:2017a9000000000000380000000000000800000000000000000000000000000000000000e0
:0d17c9000000000000000000000000000013
:2017d6000000000000000000000000000000000000000000000000000000000000000000f3
:2017f600000000000000000000000000000000000000000021400000000000000000014031
:2018160000000000000000000000001014000000000000000000000000000000000000008e
:0d18360000000000000000000000000000a5
:20184300000000000000000000000000000000000000000000000000000000000000000085
:20186300000000000000000000000000000000000000200404400068000000000000000095
:20188300000000000000000000000000000000000000000000000000000000000000000045
:0d18a3000000000000000000000000000038
:2018b000000000000000000000000000000000000000000000000000000000000000000018
:2018d000000000000000000000000000000000000000403e34c020038000000000000000e3
:2018f0000000000000000000000000000000000000000000000000000000000000000000d8
:0d19100000000000000000000000000000ca
:20191d000000000000000000000000000000000000000000000000000000000000000000aa
:20193d00000000000000000000000000000000000000000002010000000000000000000087
:20195d0000000000000000000000000000000000000000000000000000000000000000006a
:0d197d00000000000000000000000000005d
:20198a0000000000000000000000000000000000000000000000000000000000000000003d
:2019aa000000000000000000000000000000000000000000004f00010000000000000000cd
:2019ca000000000000000000000000000000000000000000000000000000000000000000fd
:0d19ea0000000000000000000000000000f0
:2019f7000000000000000000000000000000000000000000000000000000000000000000d0
:201a1700000000000000000000000000000000000000000e70010000100000000000000020
:201a370000000000000000000000000000000000000000000000000000000000000000008f
:0d1a57000000000000000020000000000062
:201a6400000000000000000000000000000000000000000000000000000000000000000062
:201a8400000000000000100000000000000000000000020043ce000000000000000000001f
:201aa400000000000000000000000000000000000000000000000000000000000000000022
:0d1ac4000000000000000000000000000015
:201ad1000000000000000000000000000000000000000000000000000000000000000000f5
:201af100000000000000000000000000000000000004001c060000000000000000000000af
:201b1100000000000000000000000000000000000000000000000000004000000000000074
:0d1b310000000000000000000000000000a7
:201b3e00000000000000000000000000000000000000000000000000000000000000000087
:201b5e000000000000000000000000000000000000040002334c00000000000000000000e2
:201b7e0000000000000000000000000000000000000000000000000000a0000000000000a7
:0d1b9e00000000000000000000000000003a
:201bab0000000000000000000000000000000000000000000000000000000000000000001a
:201bcb000000000000000000000000000000000000001000000000000000000000000000ea
:201beb000000000000000000000000000000000000000000000000000000000000000000da
:0d1c0b0000000000000000000000000000cc
:201c18000000000000000000000000000000000000000000000000000000000000000000ac
:201c3800000000000000000000000000000000000000100002c000000000000000000000ba
:201c580000000000000000000000000000000000000000000000000000000000000000006c
:0d1c7800000000000000000000000000005f
:201c850000000000000000000000000000000000000000000000000000000000000000003f
:201ca50000000000000000000000000000000000000e100c02000003800000000000400030
:201cc5000000000000000000000000000000000000000000000000000000000000000000ff
:0d1ce50000000000000000000000000000f2
:201cf2000000000000000000000000000000000000000000000000000000000000000000d2
:201d1200000000000000000000000000000000000000160003400000000000000000a000b8
:201d3200000000000000000000000000000000000000000000000000000000000000000091
:0d1d52000000000000000000000000000084
:201d5f00000000000000000000000000000000000000000000000000000000000000000064
:201d7f00000000000000000000000000000000000000000002000000000000000000000042
:201d9f00000000000000000000000000000000000000000000000000000000000000000024
:0d1dbf000000000000000000000000000017
:201dcc000000000000000000000000000000000000000000000000000000000000000000f7
:201dec00000000000000000000000000000000000000000003c00000000000000000000014
:201e0c000000000000000000000000000000000000000000000000000000010000000000b5
:0d1e2c0000000000000000000000000000a9
:201e3900000000000000000000000000000000000000000000000000000000000000000089
:201e5900000000000000000000000000000000000000000006000000000000000000000063
:201e7900000000000100000000000000000000000000000000000000000000000000000048
:0d1e9900000000000000000000000000003c
:201ea60000000000000000000000000000000000000000000000000000000000000000001c
:201ec600000000000000000000000000000000000000000038400000000000000000000084
:201ee60000000000008000000000001000000000000000000000000000000000000000004c
:0d1f060000000000000000000000000000ce
:201f13000000000000000000000000000000000000000000000000000000000000000000ae
:201f330000000000000000000000000000000000000000000400000000000000000000008a
:201f530000000000000000000000000000000000000000000000000000000000000000006e
:0d1f73000000000000000000000000000061
:201f8000000000000000000000000000000000000000000000000000000000000000000041
:201fa000000000000000000000000000000000000000003c3bc020000000000000000000ca
:201fc000000000000000000000000000000000000000000000000000000000000000000001
:0d1fe00000000000000000000000000000f4
:201fed000000000000000000000000000000000000000000000000000000000000000000d4
:20200d0000000000000000000000000000000000000000240200000000000000000000008d
:20202d00000000000000000000000000000000000000000000000000010000000000000092
:0d204d000000000000000000000000000086
:20205a00000000000000000000000000000000000000000000000000000000000000000066
:20207a00000000000000000000000000000000000000001c01cf000000000000000000005a
:20209a00000000000000000000000000000000000000000000000000000000000000000026
:0d20ba000000000000000000000000000019
:2020c7000000000000000000000000000000000000000000000000000000000000000000f9
:2020e700000000000000000000000000000000000000001e7000000000000000000000004b
:202107000000000000000000000000000000000000000000000000000100000000000000b7
:0d21270000000000000000000000000000ab
:2021340000000000000000000000000000000000000000000000000000000000000000008b
:20215400000000000000000000000000000000000000002464ce0000000000000000000015
:2021740000000000000000000000000000000000000000000000000000000000000000004b
:0d219400000000000000000000000000003e
:2021a10000000000000000000000000000000000000000000000000000000000000000001e
:2021c10000000000000000000000000000000000000c000032000000000000000000480078
:2021e100000000000000000000000000000000000000000000000000000c000000000000d2
:0d22010000000000000000000000000000d0
:20220e000000000000000000000000000000000000000000000000000000000000000000b0
:20222e00000000000000000000000000000000000004002440ce000000000000000020003a
:20224e00000000000000000000000000000000000000000000000000000000000000000070
:0d226e000000000000000000000000000063
:20227b00000000000000000000000000000000000000000000000000000000000000000043
:20229b000000000000000000000000000000000000000004060000281000000000000000e1
:2022bb000000000000000000000000080000000000000000000000000000000000000000fb
:0d22db0000000000000000000000000000f6
:2022e8000000000000000000000000000000000000000000000000000000000000000000d6
:202308000000000000000000000000000000000000001a022d400000000000000000040028
:20232800000000000000000000000000000000000000000000000000000000000000000095
:0d2348000000000000000000000000000088
:20235500000000000000000000000000000000000000000000000000000000000000000068
:2023750000000000000000000000000000000000000e0000000000030000000000000080b7
:202395000000000000000000000000000000000000004000000000000100000000000000e7
:0d23b500000000000000000000000000001b
:2023c2000000000000000000000000000000000000000000000000000000000000000000fb
:2023e200000000000000000000000000000000000000000c02c0000000000000000001000c
:202402000000000000000000000000000000000000000000000000000000000000000000ba
:0d24220000000000000000000000000000ad
:20242f0000000000000000000000000000000000000000000000000000000000000000008d
:20244f00000000000000000000000000000000000000000038000000000000000000000035
:20246f00000000000000000000000000040000000000400000000000030000000000000402
:0d248f000000000000001000000000000030
:20249c00000000000000000000000000000000000000000000000000000000000000000020
:2024bc000000000000000000000000000000000000008000434000000000000000000000fd
:2024dc000000000000000000000000000000000000000000000000000000000000000000e0
:0d24fc0000000000000000000000000000d3
:202509000000000000000000000000000000000000000000000000000000000000000000b2
:20252900000000000000000000000000000000000000001c30000000000000000000000046
:2025490000000000000000000000000008000000000000000000000000000000000000006a
:0d2569000000000000000000000000000065
:20257600000000000000000000000000000000000000000000000000000000000000000045
:2025960000000000000000000000000000000000000000023dc00000000000000000000026
:2025b6000000000000000000000000001000000000000000000000000000000000000000f5
:0d25d60000000000000000000000000000f8
:2025e3000000000000000000000000000000000000000000000000000000000000000000d8
:20260300000000000000000000000000000000000000000073c04000000000000000000044
:20262300000000000000000000000000000000000000000000000000000000000000000097
:0d264300000000000000000000000000008a
:2026500000000000000000000000000000000000000000000000000000000000000000006a
:202670000000000000000000000000000000000000004000006000000000000000000000aa
:2026900000000000000000000000000000000000000000000000000000000000000000002a
:0d26b000000000000000000000000000001d
:2026bd000000000000000000000000000000000000000000000000000000000000000000fd
:2026dd00000000000000000000000000000000000000002e020100000000000000000000ac
:2026fd000000000000000000000000040000000000000000000000000000000000000000b9
:0d271d0000000000000000000000000000af
:20272a0000000000000000000000000000000000000000000000000000000000000000008f
:20274a00000000000000100000000000000000000000000c00cb0000000000000000000088
:20276a0000000000000000000000000a001000000000000000000000000000000000000035
:0d278a000000000000000000000000000042
:20279700000000000000000000000000000000000000000000000000000000000000000022
:2027b7000000000000000000000000000000000000000120020000280000000000000000b7
:2027d7000000000000000000000000000000000000000000000000000000000000000000e2
:0d27f70000000000000000000000000000d5
:202804000000000000000000000000000000000000000000000000000000000000000000b4
:20282400000000000000000000000000000000000000028c3f49000000000000000000007e
:20284400000000000000000000000000000000000000000000000000000000000000000074
:0d2864000000000000000000000000000067
:20287100000000000000000000000000000000000000000000000000000000000000000047
:2028910000000000000000000000000000000000000c0020000100000000000000000000fa
:2028b100000000000000000000000000000000000000000000000000000000000000000007
:0d28d10000000000000000000000000000fa
:2028de000000000000000000000000000000000000000000000000000000000000000000da
:2028fe00000000000000000000000000000000000004001c004e000000000000000000004c
:20291e00000000000000000000000000000000000000000000000000000000000000000099
:0d293e00000000000000000000000000008c
:20294b0000000000000000000000000000000000000000000000000000000000000000006c
:20296b00000000000000000000000000000000000000101e0200000000000000000000001c
:20298b0000000000000000000000000000000000000000000000000000000000000000002c
:0d29ab00000000000000000000000000001f
:2029b8000000000000000000000000000000000000000000000000000000000000000000ff
:2029d80000000000000000000000000000000000000010020040000000000000000000008d
:2029f8000000000000000000000000000000000000000000000000000000000000000000bf
:0d2a180000000000000000000000000000b1
:202a2500000000000000000000000000000000000000000000000000000000000000000091
:202a450000000000000000000000000000000000000e111e02000000000000000000000032
:202a6500000000000000000000000000000000000000000000000000010000000000000050
:0d2a85000000000000000000000000000044
:202a9200000000000000000000000000000000000000000000000000000000000000000024
:202ab200000000000000000000000000000000000000108e00400000000000000000000026
:202ad2000000000000000000000000000000000000000000000000000000010000000000e3
:0d2af20000000000000000000000000000d7
:202aff000000000000000000000000000000000000000000000000000000000000000000b7
:202b1f00000000000000000000000000000000000000000070000000000000000000000026
:202b3f00000000000000000000000000000000000000000000000000010000000000000075
:0d2b5f000000000000000000000000000069
:202b6c00000000000000000000000000000000000000000000000000000000000000000049
:202b8c00000000000000000000000000000000000000000043c00000000000000000000026
:202bac00000000000000000000000000000000000000000000000000000000000000000009
:0d2bcc0000000000000000001000000000ec
:202bd9000000000000000000000000000000000000000000000000000000000000000000dc
:202bf90000000000000000000000000000000000000000000000000000000000000020009c
:202c1900000000000038000000000000000000000000000000000000000000000000000063
:0d2c3900000000000000000000000000008e
:202c460000000000000000000000000000000000000000000000000000000000000000006e
:202c6600000000000000000000000000000000000000000000c0000000000000000040004e
:202c860000000000000000000000000000000000000000000000000000000000000000002e
:0d2ca6000000000000000000000000000021
:202cb300000000000000000000000000000000000000000000000000000000000000000001
:202cd300000000000000000000000000000000000000000404401000100000000000000079
:202cf3000000000000000000000000000000000000000000000000000000000000000000c1
:0d2d130000000000000000000000000000b3
:202d2000000000000000000000000000000000000000000000000000000000000000000093
:202d400000000000000000000000000000000000000000023b4000000040000000000000b6
:202d6000000000000000000000000000000000000000000000000000000000000000000053
:0d2d80000000000000000000000000000046
:202d8d00000000000000000000000000000000000000000000000000000000000000000026
:202dad000000000000000000000000000000000000000000020000002000000000000000e4
:202dcd000000000000020000000000000000000000000000000000000000000000000000e4
:0d2ded0000000000000000000000000000d9
:202dfa000000000000000000000000000000000000000000000000000000000000000000b9
:202e1a00000000000000000000000000000000000000000027cf0000400000000000000062
:202e3a00000000000004000000000000000000000000000000000000000000000000000074
:0d2e5a00000000000000000000000000006b
:202e670000000000000000000000000000000000000000000000000000000000000000004b
:202e87000000000000000000000000000000000000000000300100000000000000000000fa
:202ea700000000000004000000000000000000000000000000000000000000000000000007
:0d2ec70000000000000000000000000000fe
:202ed4000000000000000000000000000000000000000000000000000000000000000000de
:202ef400000000000000000000000000000000000000000462cd000000000000000000008b
:202f140000000000000200000000000000000000000000000000000000000000000000009b
:0d2f34000000000000000000000000000090
:202f4100000000000000000000000000000000000000000000000000000000000000000070
:202f610000000000000000000000000000000000000c001e020000000000000000000e0016
:202f8100000000000000000000000000000000000000000000000000000000000000000030
:0d2fa1000000000000000000000000000023
:202fae00000000000000000000000000000000000000000000000000000000000000000003
:202fce0000000000000000000000000000000000000c002625ce00000000000000000000be
:202fee000000000000000000000000000000000000000000000000000000000000000000c3
:0d300e0000000000000000000000000000b5
:20301b00000000000000000000000000000000000000000000000000000000000000000095
:20303b0000000000000000000000000000000000000000047a0000000000000000000000f7
:20305b00000000000000000000000000000000000000000000000000000000000000000055
:0d307b000000000000000000000000000048
:20308800000000000000000000000000000000000000000000000000000000000000000028
:2030a800000000000000000000000000000000000000d00040c00000000000000000000038
:2030c8000000000000000000000000000000000000000000000000000000000000000000e8
:0d30e80000000000000000000000000000db
:2030f5000000000000000000000000000000000000000000000000000000000000000000bb
:2031150000000000000000000000000000000000000e001c3200000020000000000000001e
:2031350000000000000000000000000000000000000040000000000000000000000000003a
:0d315500000000000000000000000000006d
:2031620000000000000000000000000000000000000000000000000000000000000000004d
:20318200000000000000000000000000000000000000003e0240000040000000000000006d
:2031a20000000000000000000000000000000000000000000000000000000000000000000d
:0d31c2000000000000000000000000000000
:2031cf000000000000000000000000000000000000000000000000000000000000000000e0
:2031ef00000000000000000000000000000000000000200000000000100000000000000090
:20320f0000000000040000000000000000000000000040000000000000000000000000005b
:0d322f000000000000000000000000000092
:20323c00000000000000000000000000000000000000000000000000000000000000000072
:20325c0000000000000000000000000000000000000048bc02c0000000000000000000008c
:20327c00000000000000000000000000000000000000000000000000000000000000000032
:0d329c000000000000000000000000000025
:2032a900000000000000000000000000000000000000000000000000000000000000000005
:2032c9000000000000000000000000000000000000000000000000000000000000004001a4
:2032e900000000000000000000000000e8000000000000000000000000400000000000009d
:0d33090000000000000000000000000000b7
:20331600000000000000000000000000000000000000000000000000000000000000000097
:20333600000000000000000000000000000000000000000001400000000000000000200016
:20335600000000000000000000000010140000000000000000000000000000000000000033
:0d337600000000000000000000000000004a
:2033830000000000000000000000000000000000000000000000000000000000000000002a
:2033a300000000000000000000000000000000000000002e04400000000000000000200078
:2033c3000000000000000000000000000000000000000000000000000000000000000000ea
:0d33e30000000000000000000000000000dd
:2033f0000000000000000000000000000000000000000000000000000000000000000000bd
:20341000000000000000000000000000000000000000002e37e020000040000000004001b6
:2034300000000000000000000000000000000000000000000000000000000000000000007c
:0d345000000000000000000000000000006f
:20345d0000000000000000000000000000000000000000000000000000000000000000004f
:20347d0000000000000000000000000000000000000000207a000000000000000000400055
:20349d0000000000010000000000000000000000000000000000000000000100000000000d
:0d34bd000000000000000000000000000002
:2034ca000000000000000000000000000000000000000000000000000000000000000000e2
:2034ea00000000000000000000000000000000000000000c3c4c00010000000000008000ad
:20350a00000000000080000000000000000000000000000000000000000000000000000021
:0d352a000000000000000000000000000094
:20353700000000000000000000000000000000000000000000000000000000000000000074
:2035570000000000000000000000000000000000000000003801000010000000000000000b
:20357700000000000000000000000000040000000000000000000000000000000000000030
:0d3597000000000000000000000000000027
:2035a400000000000000000000000000000000000000000000000000000000000000000007
:2035c400000000000000000000000000000000000000000040cd0001800000000000000059
:2035e40000000000002800000000000000000000000000000000000000000000000000009f
:0d36040000000000000000000000000000b9
:20361100000000000000000000000000000000000000000000000000000000000000000099
:20363100000000000000000000000000000000000004000002000000000000000000000073
:20365100000000000000000000000000000000000000000000000000000000000000000059
:0d367100000000000000000000000000004c
:20367e0000000000000000000000000000000000000000000000000000000000000000002c
:20369e00000000000000000000000000000000000004000002c8000000000000000000003e
:2036be000000000000000000000000000000000000000000000000000000000000000000ec
:0d36de0000000000000000000000000000df
:2036eb000000000000000000000000000000000000000000000000000000000000000000bf
:20370b00000000000000000000000000000000000000100078000000000000000000000016
:20372b0000000000000000000000000000000000000000000000000000000000000000007e
:0d374b000000000000000000000000000071
:20375800000000000000000000000000000000000000000000000000000000000000000051
:20377800000000000000000000000000000000000000100043c0000000000000000000001e
:20379800000000000000000000000000000000000000000000000000000000000000000011
:0d37b8000000000000000000000000000004
:2037c5000000000000000000000000000000000000000000000000000000000000000000e4
:2037e50000000000000000000000000000000000000e1000000000000000000000000000a6
:203805000000000000000000000000000000000000000000000000000000000000000000a3
:0d3825000000000000000000000000000096
:20383200000000000000000000000000000000000000000000000000000000000000000076
:2038520000000000000000000000000000000000000014240240000000400000000000009c
:20387200000000000000000000000000200000000000000000000000000000000000000016
:0d3892000000000000000000000000000029
:20389f00000000000000000000000000000000000000000000000000000000000000000009
:2038bf000000000000000000000000000000000000000000020000000000000000000000e7
:2038df00000000000080000000000000000000000000000000000000000000000000000049
:0d38ff0000000000000000000000000000bc
:20390c0000000000000000000000000000000000000000000000000000000000000000009b
:20392c00000000000000000000000000000000000000000003c000000000000000000000b8
:20394c0000000000010000000000000000000000000000000000000000000000000000005a
:0d396c00000000000000000000000000004e
:2039790000000000000000000000000000000000000000000000000000000000000000002e
:2039990000000000000000000000000000000000000000000000000000000000000000000e
:2039b9000000000000000000000000000000000000000000000000000000000000000000ee
:0d39d90000000000000000000000000000e1
:2039e6000000000000000000000000000000000000000000000000000000000000000000c1
:203a0600000000000000000000000000000000000000000024c000000000000000000000bc
:203a2600000000000000000000000000000000000000000000000000008000000000000000
:0d3a46000000000000000000000000000073
:203a5300000000000000000000000000000000000000000000000000000000000000000053
:203a73000000000000000000000000000000000000000004056000000000000000000000ca
:203a9300000000000000000000000000000000000000000000000000010000000000000012
:0d3ab3000000000000000100000000000005
:203ac0000000000000000000000000000000000000000000000000000000000000000000e6
:203ae000000000000000000000000000000000000000000032e080018000000000000000b3
:203b00000000000000000000000000000000000000000000000000000100000000000000a4
:0d3b20000000000000000000000000000098
:203b2d00000000000000000000000000000000000000000000000000000000000000000078
:203b4d000000000000000000000000000000000000000000220000000000000000004000f6
:203b6d00000000000100000000000000000000000000000000000000000000000000000037
:0d3b8d00000000000000000000000000002b
:203b9a0000000000000000000000000000000000000000000000000000000000000000000b
:203bba0000000000000000000000000000000000000000003ecf00000000000000000000de
:203bda00000000000280000000000000000000000000000000000000000000000000000049
:0d3bfa0000000000000000000000000000be
:203c070000000000000000000000000000000000000000000000000000000000000000009d
:203c2700000000000000000000000000000000000000001e7a0000000000000000000000e5
:203c470000000000000000000000000000000000000040000000000001000000000000001c
:0d3c67000000000000000000000000000050
:203c7400000000000000000000000000000000000000000000000000000000000000000030
:203c9400000000000000000000000000000000000000002426ce00000000000000000000f8
:203cb4000000000000000000000000000000000000000000000000000000000000000000f0
:0d3cd40000000000000000000000000000e3
:203ce1000000000000000000000000000000000000000000000000000000000000000000c3
:203d010000000000000000000000000000000000000400003200002000000000000040000c
:203d2100000000000000000000000000000000000000000000000000000000000000000082
:0d3d41000000000000000000000000000075
:203d4e00000000000000000000000000000000000000000000000000000000000000000055
:203d6e00000000000000000000000000000000000004100401ce000000000000000001400d
:203d8e00000000000000000000000000000000000000000000000000000000000000000015
:0d3dae000000000000000000000000000008
:203dbb000000000000000000000000000000000000000000000000000000000000000000e8
:203ddb00000000000000000000000000000000000000002004000000400000000000014023
:203dfb0000000000000000000000000a00000000000000000000000000000000000000009e
:0d3e1b00000000000000000000000000009a
:203e280000000000000000000000000000000000000000000000000000000000000000007a
:203e4800000000000000000000000000000000000000101c3b400001a0000000000004000e
:203e680000000000000000000000000000000000000000000000000000000000000000003a
:0d3e8800000000000000000000000000002d
:203e950000000000000000000000000000000000000000000000000000000000000000000d
:203eb50000000000000000000000000000000000000e0000300000000000000000000000af
:203ed50000000000010000000000000000000000000040000000000001000000000000008b
:0d3ef50000000000000000000000000000c0
:203f020000000000000000000000000000000000000000000000000000000000000000009f
:203f2200000000000000000000000000000000000000000c01c000000000000000000000b2
:203f42000000000000800000000000000000000000000000000000000000000000000000df
:0d3f62000000000000000000000000000052
:203f6f00000000000000000000000000000000000000000000000000000000000000000032
:203f8f00000000000000000000000000000000000000008078000000000000000000000119
:203faf000000000000000000000000000400000000004000000000000100000000000000ad
:0d3fcf0000000000000000000000000000e5
:203fdc000000000000000000000000000000000000000000000000000000000000000000c5
:203ffc000000000000000000000000000000000000000300264000028000000000000000ba
:20401c00000000000000000000000000000000000000000000000000000000000000000084
:0d403c000000000000000000000000000077
:20404900000000000000000000000000000000000000000000000000000000000000000057
:20406900000000000000000000000000000000000000001e02000000000000000000000017
:20408900000000000000000000000000c00000000000000000000000000000000000000057
:0d40a900000000000000000000000000000a
:2040b6000000000000000000000000000000000000000000000000000000000000000000ea
:2040d600000000000000000000000000000000000000003c02c000000000000000000000cc
:2040f6000000000000000000000000000000000000000000000000000000000000000000aa
:0d411600000000000000000000000000009c
:2041230000000000000000000000000000000000000000000000000000000000000000007c
:20414300000000000000000000000000000000000000000002e00800000000000000000072
:20416300000000000000000000000000080000000000000000000000000000000000000034
:0d418300000000000000000000000000002f
:2041900000000000000000000000000000000000000000000000000000000000000000000f
:2041b00000000000000000000000000000000000000000800040000000000000000000002f
:2041d0000000000000000000000000000400000000000000000000000000000000000000cb
:0d41f00000000000000000000000000000c2
:2041fd000000000000000000000000000000000000000000000000000000000000000000a2
:20421d00000000000000000000000000000000000000000e72010000000000000000000000
:20423d00000000000000000000000000080000000000000000000000000000000000000059
:0d425d000000000000000000000000000054
:20426a00000000000000000000000000000000000000000000000000000000000000000034
:20428a00000000000000000000000000000000000000000201ca0000000000000000000047
:2042aa000000000000000000000000001000000000000000000000000000000000000000e4
:0d42ca0000000000000000080000000000df
:2042d7000000000000000000000000000000000000000000000000000000000000000000c7
:2042f70000000000000000000000000000000000000022200001002810000000000000002c
:20431700000000000000000000000000000000000000000000000000000000000000000086
:0d4337000000000000000000000000000079
:20434400000000000000000000000000000000000000000000000000000000000000000059
:20436400000000000000000000000000000000000000080c004a00000000000000000000db
:20438400000000000000000000000000000000000000000000000000000000000000000019
:0d43a400000000000000000000000000000c
:2043b1000000000000000000000000000000000000000000000000000000000000000000ec
:2043d10000000000000000000000000000000000000c002e00010000000000000000000091
:2043f1000000000000000000000000000800000000000000000000000000000000000000a4
:0d441100000000000000000000000000009e
:20441e0000000000000000000000000000000000000000000000000000000000000000007e
:20443e0000000000000000000000000000000000000c100c034900040000000000001000d6
:20445e000000000000400000000000011400000000000400000000000010000000000000d5
:0d447e0040000000000001000000000000f0
:20448b00000000000000000000000000000000000000000000000000000000000000000011
:2044ab0000000000000000000000000000000000000012007c000000000000000000000063
:2044cb000000000000000000000000000000000000000000000000000000000000000000d1
:0d44eb0000000000000000000000000000c4
:2044f8000000000000000000000000000000000000000000000000000000000000000000a4
:20451800000000000000000000000000000000000000100072c00000000000000000000041
:2045380000000000000000000000000000000000000000000000000000003400000000002f
:0d4558000000000000000000000000000056
:20456500000000000000000000000000000000000000000000000000000000000000000036
:2045850000000000000000000000000000000000000e1000000000000001000000000000f7
:2045a500000000000000000000000000000000000000000000000000000080000000000076
:0d45c50000000000000000000000000000e9
:2045d2000000000000000000000000000000000000000000000000000000000000000000c9
:2045f200000000000000000000000000000000000000100002400000000b0000000001004b
:20461200000000000000000000000000000000000000000000000000000140000000000047
:0d463200000000000000000000000000007b
:20463f0000000000000000000000000000000000000000000000000000000000000000005b
:20465f00000000000000000000000000000000000000000022000000000800000000000011
:20467f0000000000000000000000000000000000000000000000000000000000000000001b
:0d469f00000000000000000000000000000e
:2046ac000000000000000000000000000000000000000000000000000000000000000000ee
:2046cc00000000000000000000000000000000000000000043c0000080000000000000004b
:2046ec000000000000000000000000000000000000000000000000000000000000000000ae
:0d470c0000000000000000000000000000a0
:20471900000000000000000000000000000000000000000000000000000000000000000080
:20473900000000000000000000000000000000000000003e000000005800000000000400c6
:20475900000000000800000000000000000000000000000000000000000000004f003101b7
:0d4779000000000000000000000000000033
:20478600000000000000000000000000000000000000000000000000000000000000000013
:2047a600000000000000000000000000000000000000003c00c000002700000000000000d0
:2047c60000000000000000000000000000000000000000000000000000000003dc020002f0
:0d47e6008000000000000000000000000046
:2047f3000000000000000000000000000000000000000000000000000000000000000000a6
:2048130000000000000000000000000000000000000000040160006040005869400000007f
:20483300000000000004000000000000000000000000000000000000000000000000000061
:0d4853000000000000001000000000000048
:20486000000000000000000000000000000000000000000000000000000000000000000038
:2048800000000000000000000000000000000000000000023e4000002000d26640100000f0
:2048a0000000000000000000000000000000000000000000000000000000000000000000f8
:0d48c00000000000000000000000000000eb
:2048cd000000000000000000000000000000000000000000000000000000000000000000cb
:2048ed00000000000000000000000000000000000000000022000000000000000000800009
:20490d0000000000010000000000000000000000000000000000000000000e00000000007b
:0d492d00000000000000100000000000006d
:20493a0000000000000000000000000000000000000000000000000000000000000000005d
:20495a00000000000000000000000000000000000000003c43cf00000000000000004000af
:20497a00000000000200000000000000000000000000000000000000000002000000000019
:0d499a000000000000000000000000000010
:2049a7000000000000000000000000000000000000000000000000000000000000000000f0
:2049c70000000000000000000000000000000000000000010200004000000000000000008d
:2049e70000000000000000000000000000000000000040000000000000000034000000003c
:0d4a070000000000000000000000000000a2
:204a1400000000000000000000000000000000000000000000000000000000000000000082
:204a3400000000000000000000000000000000000000000420cb0000000000000000000073
:204a54000000000000180000000000000000000000000000000000000000003400000000f6
:0d4a74000000000000000000000000000035
:204a8100000000000000000000000000000000000000000000000000000000000000000015
:204aa10000000000000000000000000000000000000400007200000000000000000000007f
:204ac1000000000001000000000000000000000000000000000000000000000000000000d4
:0d4ae10000000000000000000000000000c8
:204aee000000000000000000000000000000000000000000000000000000000000000000a8
:204b0e0000000000000000000000000000000000000c000066ce0000000000000000000047
:204b2e000000000000800000000000000000000000000040000000000000000000000000a7
:0d4b4e00000000000000000000000000005a
:204b5b0000000000000000000000000000000000000000000000000000000000000000003a
:204b7b0000000000000000000000000000000000000000007a00000310000000000000008d
:204b9b000260f0008000000000000000000000000000000000f070d040000002c01840801e
:0d4bbb0000000000000000000000000000ed
:204bc8000000000000000000000000000000000000000000000000000000000000000000cd
:204be800000000000000000000000000000000000000500400400000000000000000000019
:204c080003eef0004000000000000000000000000000000000f2206000000003ce00010027
:0d4c2800000000000000000000000000007f
:204c350000000000000000000000000000000000000000000000000000000000000000005f
:204c550000000000000000000000000000000000000e0004380000002700b869440e40001b
:204c750022c0a51000000000000000040000000000038000000000000f00000000000000f2
:0d4c95000000000000000000000000000012
:204ca2000000000000000000000000000000000000000000000000000000000000000000f2
:204cc200000000000000000000000000000000000000000e4140000040807226400020008b
:204ce200654a9900000000000000000a000000000000000900000000000000000000000057
:0d4d020000000000000000000000000000a4
:204d0f00000000000000000000000000000000000000000000000000000000000000000084
:204d2f000000000000000000000000000000000000000000020000001000000000002034fe
:204d4f000000000000000000000000000000000000030000000000000500007800000000c4
:0d4d6f000000000000000000000000000037
:204d7c00000000000000000000000000000000000000000000000000000000000000000017
:204d9c0000000000000000000000000000000000000002bc01c00000000000000000403efa
:204dbc000000000000000000000000000000000000030000000000000c00000000000000c8
:0d4ddc0000000000000000000000000000ca
:204de9000000000000000000000000000000000000000000000000000000000000000000aa
:204e0900000000000000000000000000000000000000001c0200000000000000000000a0cb
:204e29000000000000000000000000000800000000004027000000000000000000000000fa
:0d4e4900000000000000000000000000005c
:204e560000000000000000000000000000000000000000000000000000000000000000003c
:204e7600000000000000000000000000000000000000000202400000000000000000011cbb
:204e96002c00000000000000000000001000000000000010000000000000000000000000b0
:0d4eb60000000000000000000000000000ef
:204ec3000000000000000000000000000000000000000000000000000000000000000000cf
:204ee300000000000000000000000000000000000000040e00e00000000000000000002e8f
:204f030000000000028000000000000000000000000000000000000000001c0000000000f0
:0d4f23000000000000000002038c1a501076
:204f3000000000000000000000000000000000000000000000000000000000000000000061
:204f5000000000000000000000000000000000000000083c00c08000000000000000001e9f
:204f70000000000000280000000000000000000000000000000000000000000000000000f9
:0d4f90000000000000000002c00ef99000bb
:204f9d000000000000000000000000000000000000000000000000000000000000000000f4
:204fbd00000000000000000000000000000000000000003c78000000000000000000000020
:204fdd00000000000000000000000000000000000000000000000000004000000000000074
:0d4ffd0000000000000000000000000000a7
:20500a00000000000000000000000000000000000000000000000000000000000000000086
:20502a00000000000000000000000000000000000000000e024c00000d00000000000000fd
:20504a0000000000000000000000000000000000000000000000000000201c00000000000a
:0d506a000000000000000000000000000039
:20507700000000000000000000000000000000000000000000000000000000000000000019
:20509700000000000000000000000000000000000000000002000000500000000000001c8b
:2050b70000000000000000000000000004000000000000081e00000001000c0000000000a2
:0d50d70000000000000000000000000000cc
:2050e4000000000000000000000000000000000000000000000000000000000000000000ac
:20510400000000000000000000000000000000000000000000c800000000000000000000c3
:20512400000000000000000000000000a00000000000000510000000000042000000000074
:0d514400000000000000000000000000005e
:2051510000000000000000000000000000000000000000000000000000000000000000003e
:20517100000000000000000000000000000000000004000e02010000080000000000000001
:20519100386bc35000000000000000000800000000010000080000000c000020000000000b
:0d51b100000000000000000007800000006a
:2051be000000000000000000000000000000000000000000000000000000000000000000d1
:2051de0000000000000000000000000000000000000c000002c800000900000000000000d2
:2051fe0000ebd101000000000000000010000000000300000000000004000040000000007d
:0d521e000000000000001000000000000073
:20522b00000000000000000000000000000000000000000000000000000000000000000063
:20524b00000000000000000000000000000000000000100000000000000a00000000000425
:20526b0003fdc34000800019bbc00000000000000000100000d63c000000000000000000ea
:0d528b001000000000000000000000000006
:205298000000000000000000000000000000000000000000000000000000000000000000f6
:2052b800000000000000000000000000000000000000500002c000000010000000000002b2
:2052d800005ed1104000008777c00400000000000000000000f3ac001000140000000000b2
:0d52f80000000000000000000000000000a9
:20530500000000000000000000000000000000000000000000000000000000000000000088
:2053250000000000000000000000000000000000000e1001000003a800005806080e000624
:2053450000e1c30038005809ff0c000008000000000000018e000000000000000000000069
:0d5365000000000000000001402c0a500074
:2053720000000000000000000000000000000000000000000000000000000000000000001b
:2053920000000000000000000000000000000000000010000340001000009b800200001c5f
:2053b20000685a000000d0016d68000014000000000000001000000000000000000000004f
:0d53d200000000000000000020040000109a
:2053df000000000000000000000000000000000000000000000000000000000000000000ae
:2053ff00000000000000000000000000000000000000002406000020000000000000000044
:20541f0000000000000000e9bb0c02000000000000000008000000000000000400000000af
:0d543f000000000000000000000000000060
:20544c00000000000000000000000000000000000000000000000000000000000000000040
:20546c00000000000000000000000000000000000000001e3fc00000000000000000000003
:20548c002c000000000000077568000a0000000000000009000000000000003800000000a5
:0d54ac0000000000000000000000000000f3
:2054b9000000000000000000000000000000000000000000000000000000000000000000d3
:2054d900000000000000000000000000000000000000000000000010000a00000000000693
:2054f900040000000000581d3f0d4008000000000000000100000000000000000000000085
:0d5519000000000000000000000000000085
:20552600000000000000000000000000000000000000000000000000000000000000000065
:205546000000000000000000000000000000000000000a0000c00008001000000000001c47
:20556600200000000000d08bbb440004000000000000000080000000000000000000000027
:0d5586000000000000000000000000000018
:205593000000000000000000000000000000000000000000000000000000000000000000f8
:2055b300000000000000000000000000000000000000000401400000010100000000000091
:2055d30003ebc3610000181dbfc00000f4000000000000d00000000000000000000000002e
:0d55f30000000000000000000000000000ab
:2056000000000000000000000000000000000000000000000000000000000000000000008a
:20562000000000000000000000000000000000000000000025c00000008e000000000000f7
:20564000245fd100000010d577c00000080000000000000b000000000000000000000000c7
:0d5660000000000000000001c0000000007c
:20566d0000000000000000000000000000000000000000000000000000000000000000001d
:20568d00000000000000000000000000000000000000002426000000004000000000000073
:2056ad0077cfc3000020b1fd230d4000000000000000100000db70c000000000000000007b
:0d56cd003800000000000000000000000098
:2056da000000000000000000000000000000000000000000000000000000000000000000b0
:2056fa00000000000000000000000000000000000000003e38cf000000000000000000004b
:20571a00696bd1000000188bfb4404000000000000002000007274c010000000000000000e
:0d573a0000000000000000800000000000e2
:20574700000000000000000000000000000000000000000000000000000000000000000042
:20576700000000000000000000000000000000000000000e000100004f800000000002063c
:2057870021e1f00000009803b70c0400a0000000000040038000000000080004000000003f
:0d57a70000000000000000000000000000f5
:2057b4000000000000000000000000000000000000000000000000000000000000000000d5
:2057d4000000000000000000000000000000000000000024254d00000b0000000000000014
:2057f40002eaf0000000109333440000000000000000000000000000000c0038000000005b
:0d5814000000000000001000000000000077
:20582100000000000000000000000000000000000000000000000000000000000000000067
:2058410000000000000000000000000000000000000c00006a0000100000f330d040002c62
:205861003c0000000130f0800000000000000000000000001e00000000000e005e001000b0
:0d588100000000000000000000000000001a
:20588e000000000000000000000000000000000000000000000000000000000000000000fa
:2058ae00000000000000000000000000000000000004000042ce0020000df7344040003cb2
:2058ce00280000000280110000000000000000000000000310000000000002034f40210037
:0d58ee0000000000000000000000000000ad
:2058fb0000000000000000000000000000000000000000000000000000000000000000008d
:20591b0000000000000000000000000000000000000000000600002850017225b000023470
:20593b0062c8c300408001e7070c000001606f8c34104000009abdc001a02001edf7000007
:0d595b00000000000000000006458bf00079
:2059680000000000000000000000000000000000000000000000000000000000000000001f
:20598800000000000000000000000000000000000000923c3d400000a00d0025a0c002067a
:2059a80003fed1010000d101b96820000002af9d101000000c367fc040400400dbff0000ac
:0d59c80000d000000000000342069ff01018
:2059d5000000000000000000000000000000000000000000000000000000000000000000b2
:2059f50000000000000000000000000000000000000e00400200038050007225b40e00a076
:205a150001e0f0000000801f83c000e00216beac340b802f000000000e0006000000003822
:0d5a3500000000000000e00a63860ff00092
:205a4200000000000000000000000000000000000000000000000000000000000000000044
:205a6200000000000000000000000000000000000000000001c00000200000258000012c71
:205a8200014ef000000010872bc0000003403f8d10000051000000000000000000000000d3
:0d5aa2000000b00000000010401c05a00036
:205aaf000000000000000000000000000000000000000000000000000000000000000000d7
:205acf0000000000000000000000000000000000000001207800010010187225b00000149a
:205aef006141c300000071e507c000000406efec35034000005f5dc00d0000027c08480061
:0d5b0f0000000f3615004001478d82540044
:205b1c00000000000000000000000000000000000000000000000000000000000000000069
:205b3c00000000000000000000000000000000000000025c24400100200008258040003643
:205b5c0000cc5a010000d10723c000006803aefd108100000df6f74014001c03c80000006b
:0d5b7c00000007e50024c0000425f8040027
:205b89000000000000000000000000000000000000000000000000000000000000000000fc
:205ba900000000000000000000000000000000000000001c0200000020195225b00000005e
:205bc90001e0c3000005980f830c000000004000000000001c000000000000280000000356
:0d5be9008000000000000000600cb15400be
:205bf60000000000000000000000000000000000000000000000000000000000000000008f
:205c1600000000000000000000000000000000000000000202c000001008082580000000e5
:205c3600014e5a00000050b729680000000280000000000910000000000600400000000329
:0d5c560080000000000000000024ea84002f
:205c6300000000000000000000000000000000000000000000000000000000000000000021
:205c8300000000000000000000000040000000000000000e01c0400000007a25b04000061d
:205ca30079e1f01002003817f30c000010002fbc3500400001f0599040000030000000007d
:0d5cc3001001cfb215c220026004ff721460
:205cd0000000000000000000000000000000000000000000000000000000000000000000b4
:205cf000000000000000000000000040000000000000000003e00000000000258000802c20
:205d1000406ef0000010088df744000008002f8d100000000dba16805000347c00000002c2
:0d5d300080000761000000004007aff00494
:205d3d00000000000000000000000000000000000000000000000000000000000000000046
:205d5d0000000000000000000000000000000000000000007000000000007a25b40000164d
:205d7d003b41f02001200193e70c00000a070000000028080800000000a09401c0a50000ef
:0d5d9d003000000000000000002df1540057
:205daa000000000000000000000000000000000000000000000000000000000000000000d9
:205dca00000000000000000000000000000000000000000000ca0000470000258000001ce7
:205dea0000cff000008000d9eb44000011c7c000000010571a0000000041020140ff0000b6
:0d5e0a0000000000000000024004ea8400d7
:205e170000000000000000000000000000000000000000000000000000000000000000006b
:205e370000000000000000000000000000000000000000207800000019815a25b000ae2616
:205e57007a41c30000003805870c0000a0038000000040000f00000000080400000000005f
:0d5e770000001000000000020640000000c6
:205e84000000000000000000000000000000000000000000000000000000000000000000fe
:205ea400000000000000000000000000000000000000003c3f490000010808258040000420
:205ec40041c85a20800008b5a968000000000000000000001a0000000000020000000000d1
:0d5ee40000008000000000004200000000ef
:205ef100000000000000000000000000000000000000000000000000000000000000000091
:205f110000000000000000000000000000000000000c002e0000030009805a25b0000096e5
:205f31003bcac3500000d011070c00000a073fcc35030003800000000c000630000000002b
:0d5f5100309000000000c002e000000000e1
:205f5e00000000000000000000000000000000000000000000000000000000000000000023
:205f7e0000000000000000000000000000000000000c000c034e0102810008258000004029
:205f9e002afcd101000018d33968000016c7febd10030000800000000c00364000000000b2
:0d5fbe00001800000000400040000000003e
:205fcb000000000000000000000000000000000000000000000000000000000000000000b6
:205feb00000000000000000000000000000000000000103e0200000000007225b0230000dc
:20600b003af9c300000000b1a30c0000001000000000104000d31dc000001e05788551009e
:0d602b0000d805a25a0000020056b424005f
:20603800000000000000000000000000000000000000000000000000000000000000000048
:20605800000000000000000000000000000000000000121c004000020000002581010814f5
:206078006cfdd100000090a1eb44000000000000000003af005777400000003e5e400000d2
:0d609800005000025808000043c4fb848043
:2060a5000000000000000000000000000000000000000000000000000000000000000000db
:2060c50000000000000000000000000000000000000e103e0200038000007225b000401c37
:2060e50067f8c300390058a9ff0c0000060040000000000388907fc00e0014215c855080a0
:0d610500008001225a00e0000000000000b0
:2061120000000000000000000000000000000000000000000000000000000000000000006d
:20613200000000000000000000000000000000000000103400400001800000258800203447
:2061520031ead1000200d10f7968040000420000000000009b322f420000026f58400000f1
:0d6172000050000258000000000000000076
:20617f00000000000000000000000000000000000000000000000000000000000000000000
:20619f0000000000000000000000000000000000000000042200030000187225b000000058
:2061bf0002fac3084000d00dbfc080000000000000000005000000000001063e6ff7080025
:0d61df00000001225a804000000000000076
:2061ec00000000000000000000000000000000000000000000000000000000000000000093
:20620c00000000000000000000000000000000000000000067c00300000008258000003467
:20622c002cefd1000000b00b73c00000000000000000000d8b0000000000b47f49ff000065
:0d624c000000a002580040014000000000ca
:20625900000000000000000000000000000000000000000000000000000000000000000025
:2062790000000000100000000000000000000000000000040000000011995225b0010024fb
:2062990004000000000038a5ef0d040002002e1f0008000500000000010026280000000059
:0d62b9000000a5a25a0000004000000000f7
:2062c6000000000000000000000000000000000000000000000000000000000000000000b8
:2062e60000000000100000000000000000000000000000000340000020080825804100042b
:20630600300000000000d1fbb744000001401eff0000000d8000000001003c400000000018
:0d63260000510082580000016000000000de
:2063330000000000000000000000000000000000000000000000000000000000000000004a
:2063530000000000000000000000000000000000000001c00040104100007a25b000002069
:2063730006e0c30001001891b30c00000000161f0200025d8e5e1dc000401605f8855980e8
:0d639300105003225a040200000000000018
:2063a0000000000000000000000000000000000000000000000000000000000000000000dd
:2063c000000000000000000000000000000000000000000000400040000000258200000492
:2063e00021cd5a004280b181b744000000001c9f000000250a5737400020002a5b400800c1
:0d6400000008b0025800000000000000007d
:20640d0000000000000000000000000000000000000000000000000000000000000000006f
:20642d0000000000000000000000000000000000000000002200000000005a25b000a03628
:20644d002ffac30000008195b30c04000002800000000001001b9dc000002038dd77008043
:0d646d00000003225a000010000000000093
:20647a00000000000000000000000000000000000000000000000000000000000000000002
:20649a00000000000000000000000000000000000000000043cf0000000000258000402cbf
:2064ba0021e9d108003810abab442000000780000000000080db374000002c20efdd00006c
:0d64da0000000082580000080000000000d3
:2064e700000000000000000000000000000000000000000000000000000000000000000095
:20650700000000000000000000000000000000000000000000000000098d5a25b00000208f
:20652700307af00000008001ef0c000001c70efc30104007800000000000362fc118000126
:0d654700000005225a0400000000000000c2
:20655400000000000000000000000000000000000000000000000000000000000000000027
:206574000000000000000000000000000000000000000004214b00008118082580104005fc
:20659400025cf00040001081fb44800003443e8d120028000000000000000c61ea00000066
:0d65b4009800008258000000000000000068
:2065c1000000000000000000000000000000000000000000000000000000000000000000ba
:2065e1000000000000000000000000000000000000040000720003400f805a25900000261d
:206601002858c3000200989107c0000400004000000000000000000000002c2bde77000153
:0d662100000001a25a0440000380000000a8
