:02000000ff00ff
:080002004c6174746963650030
:17000a00694345637562653220323031342e30342e32363432350073
:16002100506172743a2069434534304858384b2d435432353600ff
:1a003700446174653a20417072203420323031352032333a35333a313100b5
:0200510000ffae
:040053007eaa997e6a
:02005700510056
:0200590001059f
:03005b00920020f0
:03005e00620367d3
:0300610072011019
:0300640082000017
:02006700110086
:02006900010193
:20006b00000000000000000000000000000000000000000000000000000000000000000075
:20008b00000000000000000000000000000000000000000000000000000000000000000055
:2000ab00000000000000000000000000000000000000000200000000000000000000000033
:0d00cb000000000000000000000000000028
:2000d800000000000000000000000000000000000000000000000000000000000000000008
:2000f8000000000000000000000000000000000000000000000000000000000000000000e8
:20011800000000000000000000000000000000000000000340000000000000000000000084
:0d01380000000000000000000000000000ba
:2001450000000000000000000000000000000000000000000000000000000000000000009a
:2001650000000000000000000000000000000000000000000000000000000000000000007a
:2001850000000000000000000000000000000000000000000000000000000000000000005a
:0d01a5000000000000000400000000000049
:2001b20000000000000000000000000000000000000000000000000000000000000000002d
:2001d20000000000000000000000000000000000000000000000000000000000000000000d
:2001f2000000000000000000000000000000000000000000000000000000000000000000ed
:0d02120000000000000000000000000000df
:20021f000000000000000000000000000000000000000000000000000000000000000000bf
:20023f0000000000000000000000000000000000000000000000000000000000000000009f
:20025f0000000000000000000000000000000000000000000000000000000000000000007f
:0d027f000000000000000000000000000072
:20028c00000000000000000000000000000000000000000000000000000000000000000052
:2002ac00000000000000000000000000000000000000000000000000000000000000000032
:2002cc00000000000000000000000000000000000000000000000000000000000000000012
:0d02ec000000000000000000000000000005
:2002f9000000000000000000000000000000000000000000000000000000000000000000e5
:200319000000000000000000000000000000000000000000000000000000000000000000c4
:200339000000000000000000000000000000000000000000000000000000000000000000a4
:0d0359000000000000000000000000000097
:20036600000000000000000000000000000000000000000000000000000000000000000077
:20038600000000000000000000000000000000000000000000000000000000000000000057
:2003a600000000000000000000000000000000000000000000000000000000000000000037
:0d03c600000000000000000000000000002a
:2003d30000000000000000000000000000000000000000000000000000000000000000000a
:2003f3000000000000000000000000000000000000000000000000000000000000000000ea
:200413000000000000000000000000000000000000000000000000000000000000000000c9
:0d04330000000000000000000000000000bc
:2004400000000000000000000000000000000000000000000000000000000000000000009c
:2004600000000000000000000000000000000000000000000000000000000000000000007c
:2004800000000000000000000000000000000000000000000000000000000001000000005b
:0d04a000000000000000000000000000004f
:2004ad0000000000000000000000000000000000000000000000000000000000000000002f
:2004cd0000000000000000000000000000000000000000000000000000000000000000000f
:2004ed000000000000000000000000000000000000000000000030000000000100000000be
:0d050d0000000400000000000000000000dd
:20051a000000000000000000000000000000000000000000000000000000000000000000c1
:20053a000000000000000000000000000000000000000000000000000000000000000000a1
:20055a0000000000000000000000000000000000000000000000300000000003000000004e
:0d057a000000000000000000000000000074
:20058700000000000000000000000000000000000000000000000000000000000000000054
:2005a700000000000000000000000000000000000000000000000000000000000000000034
:2005c700000000000000000000000000000000000000000000000000000000010000000013
:0d05e70000000800000000000010000000ef
:2005f4000000000000000000000000000000000000000000000000000000000000000000e7
:200614000000000000000000000000000000000000000000000000000000000000000000c6
:200634000000000000000000000000000000000000000000000000000000000000000000a6
:0d0654000000040000000000000000000095
:20066100000000000000000000000000000000000000000000000000000000000000000079
:20068100000000000000000000000000000000000000000000000000000000000000000059
:2006a100000000000000000000000000000000000000000000000000000000000000000039
:0d06c100000000000000000000000000002c
:2006ce0000000000000000000000000000000000000000000000000000000000000000000c
:2006ee000000000000000000000000000000000000000000000000000000000000000000ec
:20070e000000000000000000000000000000000000000000000000000000000000000000cb
:0d072e0000000800000000000000000000b6
:20073b0000000000000000000000000000000000000000000000000000000000000000009e
:20075b0000000000000000000000000000000000000000000000000000000000000000007e
:20077b0000000000000000000000000000000000000000000000000000000000000000005e
:0d079b000000000000000000000000000051
:200fff00000000000000000000000000000000000000400000000000000000000000000092
:0d101f0000000000000000000000000000c4
:20102c000000000000000000000000000000000000000000000000000000000000000000a4
:20104c00000000000000000000000000000000000000000000000000000000000000000084
:20106c00000000000000000000000000000000000000000000000000000000000000000064
:201f530000000000000000000000000000000000000040000000000000000000000000002e
:0d1f73000000000000000000000000000061
:201f8000000000000000000000000000000000000000000000000000000000000000000041
:201fa000000000000000000000000000000000000000000000000000000000000000000021
:201fc0000000000000000000000000000000000000004000000000000000000000000000c1
:0d1fe00000000000000000000000000000f4
:201fed000000000000000000000000000000000000000000000000000000000000000000d4
:20200d000000000000000000000000000000000000000000000000000000000000000000b3
:20202d00000000000000000000000000000000000000000000000000000000000000000093
:0d271d0000040000000000000000000000ab
:20272a0000000000000000000000000000000000000000000000000000000000000000008f
:20274a0000000000000000000000000000000000000000000000000000000000000000006f
:20276a0000000000000000000000000000000000000000000000000000000000000000004f
:0d278a000000000000000000000000000042
:0d2af20028000000000000000000000000af
:202aff000000000000000000000000000000000000000000000000000000000000000000b7
:202b1f00000000000000000000000000000000000000000000000000000000000000000096
:202b3f00000000000000000000000000000000000000000000000000000000000000000076
:0d2b5f000000000000000000000000000069
:2033c3000000000000000000000000000010000000000000000000000000000000000000da
:0d33e30000000000000000000000000000dd
:2033f0000000000000000000000000000000000000000000000000000000000000000000bd
:2034100000000000000000000000000000000000000000000000000000000000000000009c
:2034300000000000000000000000000000000000000000000000000000000000000000007c
:0d345000000000000000000000000000006f
:20345d0000000000000000000000000000000000000000000000000000000000000000004f
:20347d0000000000000000000000000000000000000000000000000000000000000000002f
:20349d0000000000000000000000000000000000000000000000000000000000000000000f
:0d34bd000000000000000000000000000002
:2034ca000000000000000000000000000000000000000000000000000000000000000000e2
:2034ea000000000000000000000000000000000000000000000000000000000000000000c2
:20350a000000000000000000000000000000000000000000000000000000000000000000a1
:0d352a000000000000000000000000000094
:20353700000000000000000000000000000000000000000000000000000000000000000074
:20355700000000000000000000000040000000000000000000000000000000000000000014
:20357700000000000000000000000000000000000000000000000000000000000000000034
:0d3597000000000000000000000000000027
:2035a400000000000000000000000000000000000000000000000000000000000000000007
:2035c4000000000000000000000000000000000000000000000000000000000000000000e7
:2035e4000000000000000000000000000000000000000000000000000000000000000000c7
:0d36040000000000000000000000000000b9
:20361100000000000000000000000000000000000000000000000000000000000000000099
:20363100000000000000000000000000000000000000000000000000000000000000000079
:20365100000000000000000000000000000000000000000000000000000000000000000059
:0d367100000000000000000000000000004c
:20367e0000000000000000000000000000000000000000000000000000000000000000002c
:20369e0000000000000000000000000000000000000000000000000000000000000000000c
:2036be000000000000000000000000000000000000000000000000000000000000000000ec
:0d36de0000000000000000000000000000df
:2036eb000000000000000000000000000000000000000000000000000000000000000000bf
:20370b0000000000000000000000000000000000000000000000000000000000000000009e
:20372b0000000000000000000000000401e664f85000000919df4500000400214c65004883
:0d374b0000818fe214000009c07d9650003f
:20375800000000000000000000000000000000000000000000000000000000000000000051
:20377800000000000000000000000000000000000000000000000000000000000000000031
:20379800000000000000000000000000006216db90002001087fcb0000000064e959000015
:0d37b8000010eb26e4000001c3c6d590040c
:2037c5000000000000000000000000000000000000000000000000000000000000000000e4
:2037e5000000000000000000000000000000000000000000000000000000000000000000c4
:203805000000000000000000000000e000600ed65003a8018092194000000401e0000038fb
:0d3825000010113e1400000b42a41c3000e6
:20383200000000000000000000000000000000000000000000000000000000000000000076
:20385200000000000000000000000000000000000000000000000000000000000000000056
:2038720000000000000000000000000003c024f5900010070076164000000201c0ff000025
:0d3892000008d73ed4000011641493c0104c
:20389f00000000000000000000000000000000000000000000000000000000000000000009
:2038bf000000000000000000000000000000000000000000000000000000000000000000e9
:2038df0000000000000000000000000441e00dda40000000097aa14000000007e0c320004f
:0d38ff0000180f3214000080003c0c300057
:20390c0000000000000000000000000000000000000000000000000000000000000000009b
:20392c0000000000000000000000000000000000000000000000000000000000000000007b
:20394c00000000000000000000000000000004b9800000071ff32e40000000234d3c0000eb
:0d396c00009003ea0000000003dcc3c0006f
:2039790000000000000000000000000000000000000000000000000000000000000000002e
:203999000000000000000000000000400000000000000000000000200000000000000000ae
:2039b9000000000000000000000000000163b48a1400000f8ef6a90000004075ef33200005
:0d39d90038980b621400000a0384000010ef
:2039e6000000000000000000000000000000000000000000000000000000000000000000c1
:203a0600000000000000000000000040000000000000000000000010000000000000000050
:203a26000000000000000000000000000027358e2590000f1916e60000009c7fcdcc000009
:0d3a4600005005ea24000085c41e0ff000aa
:203a5300000000000000000000000000000000000000000000000000000000000000000053
:203a7300000000000000000000000000000000000000000000000000000000000000000033
:203a930000000000000000000000000002601f9620000083005a68506000467d60a500001f
:0d3ab3000801dba285010020e00c1a520082
:203ac0000000000000000000000000000000000000000000000000000000000000000000e6
:203ae0000000000000000000000000000000000000000000000000000000000000000000c6
:203b000000000000000000000000000000401cf52000000180d738980000243be99900002b
:0d3b20000001857f89840002c2a4b99000d5
:203b2d00000000000000000000000000000000000000000000000000000000000000000078
:203b4d00000000000000000000000000000000000000000000000000000000000000000058
:203b6d0000000000000000000000000003e01e00000000200e9f100000a03c7dc1a500405b
:0d3b8d000091ff86940000c040440a5010d3
:203b9a0000000000000000000000000000000000000000000000000000000000000000000b
:203bba000000000000000000000000000000000000000000000000000000000000000000eb
:203bda000000000000000000000000000063bc05a000005f4e771280004016626c99000094
:0d3bfa000018e7b664000000035eb99000fb
:203c070000000000000000000000000000000000000000000000000000000000000000009d
:203c270000000000000000000000000000000000000000000000000000000000000000007d
:203c470000000000000800000000000000400000000000018e00000000001c2761c300001f
:0d3c67000010900000000003425fd65010d6
:203c7400000000000000000000000000000000000000000000000000000000000000000030
:203c9400000000000000000000000000000000000000000000000000000000000000000010
:203cb40000000000000000000000000004638000000000000000000000001c7bcc3c00006a
:0d3cd40000f9c00000000003c63cd59000c0
:203ce1000000000000000000000000000000000000000000000000000000000000000000c3
:203d01000000000000000000000000000000000000000000000000000000000000000000a2
:203d210000000000000000000000004010e20000000100090800000000002e79dd65003025
:0d3d410000f9f000000004c3e04cf6500053
:203d4e00000000000000000000000000000000000000000000000000000000000000000055
:203d6e00000000000000000000000000000000000000000000000000000000000000000035
:203d8e000000000000000000000000410a660000000304019000000000001442d85900b095
:0d3dae004011d00000000203e346f59080b4
:203dbb000000000000000000000000000000000000000000000000000000000000000000e8
:203ddb00000000000000000000000000000000000000000000000000000a0000000040007e
:203dfb0000000000000000000000000401604000000000079853a40000075e057985000401
:0d3e1b000099976991400009e02da4000472
:203e280000000000000000000000000000000000000000000000000000000000000000007a
:203e480000000000000000000000000000000000000000000000000000100000000000004a
:203e6800000000000000000000000000002380000000000980ffa7c000008222fbb9000050
:0d3e8800801081b960000006423ce4a000fb
:203e950000000000000000000000000000000000000000000000000000000000000000000d
:203eb5000000000000000000000000000000000000000000000000000500000000000000e8
:203ed5000000000002000000000000e0000000000003808780b721400e00207aed65003a15
:0d3ef5008199833191020003e384d33000f2
:203f020000000000000000000000000000000000000000000000000000000000000000009f
:203f22000000000000000000000000000000000000000000000000000080000000000000ff
:203f4200000000000100000000000000000000000000000f8072a000000004036a590000f3
:0d3f6200001001b160400015e245dcc00018
:203f6f00000000000000000000000000000000000000000000000000000000000000000032
:203f8f00000000000000000000000000000000000000000000000000000000000001000011
:203faf000000000000000000000000400000000000000059897fe1400000803adda40002f3
:0d3fcf008000073991000404007e0000000e
:203fdc000000000000000000000000000000000000000000000000000000000000000000c5
:203ffc000000000000000000000000000000000000000000000000000000000000000000a5
:20401c0000000000000000000000004000000000000000011817ae40000000405f980001ee
:0d403c00000009b9600408a402d60ff000ce
:20404900000000000000000000000000000000000000000000000000000000000000000057
:20406900000000000000000000000000000000000000000000000000000e000000000040e9
:2040890000000000040200000000000000001c1a5410000700d621400000be24e9a170005d
:0d40a90000800321912000c0400d965000c2
:2040b6000000000000000000000000000000000000000000000000000000000000000000ea
:2040d60000000000000000000000000000000000000000000000000000100000000000803a
:2040f600000000000405000000000000000006d9901000408012224000012e3edfe2404040
:0d41160000b009f1600000026036a5908045
:2041230000000000000000000000000000000000000000000000000000000000000000007c
:20414300000000000000000000000004000000000000000000000000000000000000040054
:204163000000000000000000000000000000000000000020003a285c000026384f40000071
:0d41830000b81f21910000a1e05d865000f2
:2041900000000000000000000000000000000000000000000000000000000000000000000f
:2041b0000000000000000000000000000000000000000000000000000000000000000040af
:2041d00000000000000000000000000800000000000000170fbef89240a1443fce4a0000dd
:0d41f0001818f1f960400001e227f5920077
:2041fd000000000000000000000000000000000000000000000000000000000000000000a2
:20421d0000000000000000000000000000000000000000000000000000005fd00000000052
:20423d00000000000000000000000000000380000000018388f8694800400427cb330000c0
:0d425d0000001b6191000061e36e00000095
:20426a00000000000000000000000000000000000000000000000000000000000000000034
:20428a0000000000000000000000000000000000000000000000000000009a1280000000e8
:2042aa000000000000000000000000000004000000000001907b264000a01e31dccc0000e7
:0d42ca00000081b16000000403ce0ff00081
:2042d7000000000000000000000000000000000000000000000000000000000000000000c7
:2042f700000000000000000000000000000000000000000000000000000000000000440063
:2043170000000000000000000000000008020000000008039f00000000801c6000000004d2
:0d43370008b81f619100040067641c30008d
:20434400000000000000000000000000000000000000000000000000000000000000000059
:20436400000000000000000000000000000000000000000000000000000000000000000039
:2043840000000000020000000000000010040000000028009d00000000c00400000000007a
:0d43a40000d8fbb960010803c21c93c200e1
:2043b1000000000000000000000000000000000000000000000000000000000000000000ec
:2043d1000000000000000000000000000000000000000000000000000700000000000000c5
:2043f1000000000000000000000000c014e00000000100091f0000000400263c0000000069
:0d44110080000b71914200c1e24c1c300094
:20441e0000000000000000000000000000000000000000000000000000000000000000007e
:20443e000000000000000000000000000000000000000000000000040080000000001000ca
:20445e000000000000400000000000c1e8200000000307019d0000000c10242c0000000120
:0d447e00400009f16000010007dc83c00070
:20448b00000000000000000000000000000000000000000000000000000000000000000011
:2044ab000000000000000000000000000000000000000000000000000019962140000000e1
:2044cb00076e85004002580b7ccc800040062cf6500000079f7f1002000420607bc00000bc
:0d44eb00130189ff00000282061ea8500088
:2044f8000000000000000000000000000000000000000000000000000000000000000000a4
:2045180000000000000000000000000000000000000000000000000009081a2e40000024c6
:204538002278b9000000989b2b300000004275959010000f883f928000045c01ee3f000020
:0d4558000000073cfc0004044035fb90000f
:20456500000000000000000000000000000000000000000000000000000000000000000036
:204585000000000000000000000000000000000000000000000003800f800000000e802056
:2045a5003a6f6500383001e780000000e2007e1c300000080e7a0cc00e00063ddd65003c41
:0d45c500305087f59400e01a67c5c900006a
:2045d2000000000000000000000000000000000000000000000000000000000000000000c9
:2045f200000000000000000000000000000000000000000000000000078c000000004c04c6
:20461200674959000000910103fc04000043dcd3c00000211016730000200161cf590004d0
:0d4632000091073d6400001c43fde9f0000d
:20463f0000000000000000000000000000000000000000000000000000000000000000005b
:20465f000000000000000000000000400000000000000000000000100788d3a900000020c0
:20467f0078dea4003000700b02940000c1c7bfa33000000018b870c0002106234c850000ab
:0d469f000901cd6a140000040366c8500034
:2046ac000000000000000000000000000000000000000000000000000000000000000000ee
:2046cc000000000000000000000000000000000000000000000000000d9057e60000003cb8
:2046ec00434d98001000b803aa6404002263cfbcc00008000033cf0000000060fa800000f5
:0d470c000070f3ba000000140786e80000fa
:20471900000000000000000000000000000000000000000000000000000000000000000080
:204739000000000000000000000000000000000000000000000000005501d26858208000d8
:2047590004c9a160000091fb86950000d607741c3000002001f8000000402e06ce8500004e
:0d47790000040b361400040bc02df8500096
:20478600000000000000000000000000000000000000000000000000000000000000000013
:2047a600000000000000000000000000000000000000000000000000200e7ef8900040007f
:2047c6003edce2494000198da66400021dc77eb3c000004008383fc0008006387f89000082
:0d47e60000f003a624000211e007d89000a7
:2047f3000000000000000000000000000000000000000000000000000000000000000000a6
:20481300000000000000000000000000000000000000000000000000271c0000000040a65c
:204833003fcab500000218e78695000002679493300001071a368cc000228e3ec8a161016e
:0d4853000810132685800401c07e9a16000f
:20486000000000000000000000000000000000000000000000000000000000000000000038
:20488000000000000000000000000000000000000000000000000000000000000000000c0c
:2048a00036cfb900000000ff2e64000001c027dcc000200710d63300004042225be24002c2
:0d48c00080788d7789a008036227ae240060
:2048cd000000000000000000000000000000000000000000000000000000000000000000cb
:2048ed000000000000000000000000000000000000000000000000000800560cc000003c45
:20490d0004000000010000190695400a09e2061a500000070e986940000e210241a50000bf
:0d492d0038b8bf0294000002072c1a500099
:20493a0000000000000000000000000000000000000000000000000000000000000000005d
:20495a000000000000000000000000000000000000000000000000000300b7330000000e42
:20497a003c000000008050f5266400040667eca9900008091f936640000004014e990000a7
:0d499a008019ebaa64000000c21ca9900067
:2049a7000000000000000000000000000000000000000000000000000000000000000000f0
:2049c700000000000000000000000000000000000000000000000000001d000000000004af
:2049e700780000000000018f0695000000004e0a500000218cb030c000002c3761a50002ad
:0d4a0700ab98e0000000102063800000006c
:204a1400000000000000000000000000000000000000000000000000000000000000000082
:204a3400000000000000000000000000000000000000000000000000001c00000000002422
:204a5400640000000000049fae640000100214899100000000bbcf0200000674ef99000259
:0d4a7400011000000000001243c00000000f
:204a8100000000000000000000000000000000000000000000000000000000000000000015
:204aa10000000000000000000000000000000000000000000000032008000000000c00219d
:204ac10000000000128239810695000001e02c0a500000038d700002040c3c3800000010ef
:0d4ae1000298e0000000c402024000000046
:204aee000000000000000000000000000000000000000000000000000000000000000000a8
:204b0e000000000000000000000000000000000000000000000001100b0000000004001c4b
:204b2e000000000011055805a664000001624ca9920000009db83fc00c015e24000000100d
:0d4b4e000510e00000004a004700000000d4
:204b5b0000000000000000000000000000000000000000000000000000000000000000003a
:204b7b00000000000000000000000000000000000000000000000000000c12994000001e05
:204b9b0062ec65000010918fbe14000216067ec85000400919fb6140008400254e714100ea
:0d4bbb002271c1b4cc000ae2e676f8500089
:204bc8000000000000000000000000000000000000000000000000000000000000000000cd
:204be8000000000000000000000000000000000000000000000000000000db9640000026d6
:204c0800014859080000180126e4000400420cbb900000018d126e4000001c61c9f000009e
:0d4c280001019967300000006214db90006c
:204c350000000000000000000000000000000000000000000000000000000000000000005f
:204c55000000000000000000000000000000000000000000000000000000000000000046f9
:204c750001c1c30038050009324000e0034024d6000393051d9224000e0020004000403871
:0d4c9500007811869402f003e764a6000089
:204ca2000000000000000000000000000000000000000000000000000000000000000000f2
:204cc2000000000000000000000000030000000000000000000000008000000000000080cf
:204ce20001cd3c00028230ed327c00000043f5c6f000080f1ff767c001012c00c0ff20000a
:0d4d02000008fdb6640000006705c6f00063
:204d0f00000000000000000000000000000000000000000000000000000000000000000084
:204d2f00000000000000000000000000000000000000000000000000000a000000000080da
:204d4f002840a50000001013721400004007bdc850000020089ea1400c01000140664134a2
:0d4d6f00830099829500004a0237e8500049
:204d7c00000000000000000000000000000000000000000000000000000000000000000017
:204d9c000000000000000000000000000000000000000000000000000500000000000140b1
:204dbc0025e89900000008a5fa000000000385e800000100003fa0000c085c01c9c300310c
:0d4ddc000001f33a640004c0c387e8000042
:204de90000000000000000000010000000000000000000000000000000000000000000009a
:204e0900000000000000000000000000000000000000000000000000000000000000017c0c
:204e290071fb3300000038037214000002e265b85000118700b7a14000080002c0a5100108
:0d4e490020f195029500000bc044c85000f8
:204e560000000000000000000010000000000000000000000000000000000000000000002c
:204e76000000000000000000000000000000000000000000000000038000000000000cbcd1
:204e9600405acc00000008fda224000002e787f890002010491fe24000000001e9e7080040
:0d4eb60080908fb264200a144347b890002a
:204ec3000000000000000000000000000000000000000000000000000000000000000000cf
:204ee300000000000000000000000000000000000000000000000000000000000000002689
:204f030071f865000000f1df268501000040349a140423838dba285010838601e18100003d
:0d4f230002508d8295000809c0149a1600f6
:204f3000000000000000000000000000000000000000000000000000000000000000000061
:204f5000000000000000000000000000000000000000000000000000000000000000802c95
:204f700040c8590040007c87ff89800041e21f9e24041000987ef8981040e434ecff010261
:0d4f90000099073a64000004227d9e24145d
:204f9d000000000000000000000000000000000000000000000000000000000000000000f4
:204fbd0000000000000000000000000000000000000000000000000020000000000000367e
:204fdd0024eb33000000908f0694000001e72c1a5000006808f0294000a00000c1c300004e
:0d4ffd0000808b029500040a536e1a5000cc
:20500a00000000000000000000000000000000000000000000000000000000000000000086
:20502a00000000000000000000000000000000000000000000000000100000000000000e48
:20504a0077dfcc0000003907b264000001c41ca990002871007a264000402c026e18010244
:0d506a0080100d3264000216671499900446
:20507700000000000000000000000000000000000000000000000000000000000000000019
:20509700000000000000000000000000000000000000000000000000010000000001002ec9
:2050b70077c0a500000099e00000000000600000000060519c78000040016639e00001009e
:0d50d7008451d90295001008622e000200dd
:2050e4000000000000000000000000000000000000000000000000000000000000000000ac
:20510400000000000000000000000000000000000000000100000000008000000000002cde
:2051240072cf99004001b08000000000084000000000018018f03fc400000440cd3c0003fc
:0d51440080088dba64001805c4040ff00047
:2051510000000000000000000000000000000000000000000000000000000000000000003e
:20517100000000000000000000000000000000000000000000000028000000000000803e38
:2051910004e0a500100098800000004002600000000112a99c00000004008004c1c3101027
:0d51b100001887829500c009c0261a50081a
:2051be000000000000000000000000000000000000000000000000000000000000000000d1
:2051de0000000000000000000000000000000000000000000000001000000000000040342d
:2051fe00376d990130001000000000c000420000000320510800000004016c366e810030cf
:0d521e00000101b26400c01423ac9990009f
:20522b00000000000000000000000000000000000000000000000000000000000000000063
:20524b00000000000000000000000000000000000000000000000000818f32614000a106b9
:20526b00665a85000080000fe614000200e61dd60000021818dae14000000465effb0803ef
:0d528b0002f017e8758300040617d85000e4
:205298000000000000000000000000000000000000000000000000000000000000000000f6
:2052b80000000000000000000000000000000000000000000000000020187f6e40204040d1
:2052d80021ffb9000101100b26e4000e20403fc6f00000010fd36e400007c423dca5000152
:0d52f8000010b7657b430800c004fb900068
:20530500000000000000000000000000000000000000000000000000000000000000000088
:205325000000000000000000000000000000000000000000000003801b8c3299400e002005
:20534500246c6500380071ede18c00e0a7c07ec8500380279f97e4000e4a3c05e04250b8ec
:0d5365003c5805849000e00203bccc3000f1
:2053720000000000000000000000000000000000000000000000000000000000000000001b
:205392000000000000000000000000000000000000000000000000002180b31640000c0441
:2053b2007e4c59000000f1ffb8d80000e8639fe80000004f9df7a7c000001e2dcd004900bb
:0d53d200120005b36c000090441ee930008d
:2053df000000000000000000000000000000000000000000000000000000000000000000ae
:2053ff00000000000000000000000000800000000000020000000000011e92a90000200092
:20541f003a4ba400010170032a1400001607fec850005ac001d6a14004400038e0a500800b
:0d543f0080f1838294000a02062ec85000fe
:20544c00000000000000000000000000000000000000000000000000000000000000000040
:20546c00000000000000000000000000000000000000000000000001800f16e6000004246c
:20548c0043499800028000937a000000cac7a5bb9000782f0c3fa0000c882464c0ff00005f
:0d54ac0020100180000000094407e8000006
:2054b9000000000000000000000000000000000000000000000000000000000000000000d3
:2054d9000000000000000000000000000000000000000000000000005301f2685830011c60
:2054f9003d69a140840099bb2e14800a04639dc85000128f0e366140024c0461c81000003b
:0d5519001c01993a00002007600dc85000e9
:20552600000000000000000000000000000000000000000000000000000000000000000065
:20554600000000000000000000000000000000000000000000000003200e7ef89000003fcf
:205566007bdde250050071f3aa24000e094415b89000200199be624000a142015800000056
:0d5586000000a7fc940010a8403fa8900072
:205593000000000000000000000000000000000000000000000000000000000000000000f8
:2055b30000000000000000000000000000000000000000000000000021199fd00000002e01
:2055d3000378910000a839f9ee85440a0007669a148880181bba285a4100407defef0002a1
:0d55f300a58001b969410a2be76c9a1708e1
:2056000000000000000000000000000000000000000000000000000000000000000000008a
:20562000000000000000000000000000000000000000000000000000078e579280000086e6
:2056400003dba10000007185ff890200e00315be2408102d187e789001065c787aff0040fa
:0d56600002f00d70974300b5c61dae24107a
:20566d0000000000000000000000000000000000000000000000000000000000000000001d
:20568d000000000000000000000000000000000000000000000000000000b030c0008100dc
:2056ad00380000000000b80f029400048002240a500000581eb06940004a1c6161a50005a3
:0d56cd0000799b83fce3000ae2341a5000d0
:2056da000000000000000000000000000000000000000000000000000000000000000000b0
:2056fa000000000000000000000000000000000000000000000000000f0f9b8f00006ebc1e
:20571a00400000000080f8d7b664000a03c61c89900000211f522640002144366899000426
:0d573a008008878294e10015c21699900046
:20574700000000000000000000000000000000000000000000000000000000000000000042
:20576700000000000000000000000040004000000000000000000000031e00000000004041
:205787007c000000040498ef829400100262760000800111805870c0004a047ee891000018
:0d57a7000099ff29dc02000262560002009a
:2057b4000000000000000000000000000000000000000000000000000000000000000000d5
:2057d4000000000000000000000000000000000000000000000000002110000000000a007a
:2057f400740000000000100722640010c046040ff018002000328f0c00c21c63fd20000008
:0d58140000308f2bdc00000447340ff00043
:20582100000000000000000000000000000000000000000000000000000000000000000067
:2058410000000000000000000000000000000000000000000000034001810000000c001c5a
:2058610020000000301291ff800004c663e78000000100299c000000050b5c6c7d200030b6
:0d58810000f8c7820400c0e2638000000050
:20588e000000000000000000000000000000000000000000000000000000000000000000fa
:2058ae00000000000000000000000000000000000000000000000140070d000000040c0075
:2058ce0000000000100511c703fc00c2086000000001003b1a0000000500a43f7e50003068
:0d58ee00011101b800004022c000000000c0
:2058fb0000000000000000000000000000000000000000000000000000000000000000008d
:20591b0000000000000000000000000008183825b000000000000008001a9f9000012020ad
:20593b0005fd85000000f187ae14000223e61eb85000801f9afb994040040066dac0000009
:0d595b000058133294000001c63fec00001c
:2059680000000000000000000000000000000000000000000000000000000000000000001f
:2059880000000000000000000000000001000a25800000000000000110103f92800042c4d7
:2059a80022cdb900000010d52ee4000400620deb900000279d97d64000000421cb3f0000b2
:0d59c8001008d572dc040054202ef3f0000e
:2059d5000000000000000000000000000000000000000000000000000000000000000000b2
:2059f50000000000000000000000008009980225b0000000000000200f0f3b4cc00e0a00fd
:205a15003a4f90003801b8012d8000e0126224890000000019178cc00e002479eb65000140
:0d5a350002700b000042e003e04f965000ad
:205a4200000000000000000000000000000000000000000000000000000000000000000044
:205a620000000000000000000000020001000325800400000000001001185ef300000000fb
:205a8200425b9f000012180369bc000008440589f00000090f72730401200e41cf59000211
:0d5aa20085000336040100004356b5900056
:205aaf000000000000000000000000000000000000000000000000000000000000000000d7
:205acf0000000000000800000000000000000225b0000000000000000000f0000a00062eaa
:205aef0006da8500000490e9ea14000040026ec8500028379f5030c00144a478fc850001ce
:0d5b0f0089781981080008520226c850004c
:205b1c00000000000000000000000000000000000000000000000000000000000000000069
:205b3c000000000000000000000000000000036580000000000000000300703fc0000b1cc8
:205b5c0038ce8000011078917a00000a000387e8000001a00f5acf04000d26416e80000054
:0d5b7c001058c5396800040043c5e800005a
:205b89000000000000000000001000000000000000000000000000000000000000000000ec
:205ba90000000000000000000000000000000225b000000000000000071a37ccc000401cc5
:205bc900065e85000800b0f37a14000001600cb8500000079a5b4cc0404026065c8500018f
:0d5be90028501b0294000000664ca85000dc
:205bf60000000000000000000010000000000000000000000000000000000000000000007f
:205c1600000000000000000000000000000002658000000000000000091b5e330010801e24
:205c36003eff89010000f9e1fe24000000203ff89000300f901f3300002006227a89000236
:0d5c560004f8e3366404000003c7c89000a2
:205c6300000000000000000000000000000000000000000000000000000000000000000021
:205c830000000000000000000000000001810265b00002000000000021015b0cc001001efe
:205ca3003adea1600080f01526858400e203fc8a140001514d582944002c9c3cc9a1404340
:0d5cc3000199d7bb00000a05c3ee9a160830
:205cd0000000000000000000000000000000000000000000000000000000000000000000b4
:205cf0000000000000000000000000000008022580000000000000000b88f3730000001ece
:205d100035fce24801127089f389010876c62dfe258001208812664000400e37fae2480071
:0d5d300001318ba4fc00000806179e240022
:205d3d00000000000000000000000000000000000000000000000000000000000000000046
:205d5d00000000000000000000000000000f0265b000000000000000000198694000a03ee0
:205d7d003340a5000000100b069420000012760a50004b03813869400082ac264d150005cc
:0d5d9d001a381b3d9400100063f60a5000f8
:205daa000000000000000000000000000000000000000000000000000000000000000000d9
:205dca00000000000000000000000000000802258000000000000000010e73e64800000654
:205dea0079cb9900008498073264000001c6640ff000000708dbe64800402e3f4e1a0002aa
:0d5e0a00850887e964000083639ef990001d
:205e170000000000000000000000000000000000000000000000000000000000000000006b
:205e370000000000000000000000000000000265b0000000000000000188d830c00081065c
:205e5700234000000004980f070c401000620000000028481db64cc000002675c1c30004e6
:0d5e77000318816e1400181477fe000090cf
:205e84000000000000000000000000000000000000000000000000000000000000000000fe
:205ea4000000000000000000000000000000036580000000000000000b005b0f0000000081
:205ec40038c0ff204018709128f0000201c740000000002b0e1f3300000804746cdb1000ca
:0d5ee40018510f7a0000042807b40ff004d5
:205ef100000000000000000000000000000000000000000000000000000000000000000091
:205f110000000000000000000000000000000265b000000000000000011c5e59401400260b
:205f31007c000000323890e0000000c013c000000000002f00580000044826024d720002ab
:0d5f51000298f3fa1400c0eae39fda15008d
:205f5e00000000000000000000000000000000000000000000000000000000000000000023
:205f7e00000000000000000000000000000002658000000000000003030f9fd6400c000442
:205f9e0074000000311811000000004008424000000000578f303fc014202c25d834200085
:0d5fbe000511bdea2400c0146276ce24084f
:205fcb000000000000000000000000000000000000000000000000000000000000000000b6
:205feb0000000000000000000000000008180225b0000000000000000119fbd0000040007a
:20600b00636ac00000858181bd91820a04065da4000020000130695040a1207a4ac00003ea
:0d602b008379817a54000008631dca1408af
:20603800000000000000000000000000000000000000000000000000000000000000000048
:206058000000000000000000000000000100022581000000000000200988fa468000201cd2
:20607800016f3f000012f001bd600000c0c37ee4a00800000c72e640000acc6c7f3f000008
:0d60980018d00776a4040004061f9e240003
:2060a5000000000000000000000000000000000000000000000000000000000000000000db
:2060c50000000000000000000000008009800225b0000000000003800788b259400e006010
:2060e5003d786500380099e5b9910200020265c33003a88008f069502e0c34007a650001f9
:0d610500180007829400e814634c000000ad
:2061120000000000000000000000000000000000000000000000000000000000000000006d
:20613200000000000000000000000200010003258000000000000003899e76164000008428
:2061520075cd590000811103bd60000010461decc000030010da66400000462d5d59000005
:0d61720080900503fc000098c39c0ff00016
:20617f00000000000000000000000000000000000000000000000000000000000000000000
:20619f0000000000000000000000000000000225b0004000000000082380fea1400200201d
:2061bf003bda850000000001b591010003e025f65001404000f076c010a02006fe85000888
:0d61df0001001179182004140324d650008b
:2061ec00000000000000000000000000000000000000000000000000000000000000000093
:20620c000000000000000000000000000000036580000000000000100580362e4000083415
:20622c00786e80000002000bbd60000405e00fb590050060007b7fc00080043f5e800000c5
:0d624c0001d0a7f5280002100425b591002f
:20625900000000000000000000000000000000000000000000000000000000000000000025
:2062790000000000000000000000000000000225b000000000000000010173e90001004689
:206299003cde8500048001e5b1910000024796000000005109b00000404e147d60422000d0
:0d62b900200007879c80040007ae1c300009
:2062c6000000000000000000000000000000000000000000000000000000000000000000b8
:2062e600000000000000000000000000000002658000000000000000008f5666000120bc89
:206306007f7c890006800109fd60020001e40c0ff00000209b38168000a00221cc99000162
:0d6326000500053ffc040a00441ca3c00054
:2063330000000000000000000000000000000000000000000000000000000000000000004a
:2063530000000000000000000000000001810265b000000000000000080a12685400000ea3
:2063730077e9a15002801819a591000405c30e833000000700f8294000a01c2360a50009ee
:0d6393002f000d3e140000e20666000080a1
:2063a0000000000000000000000000000000000000000000000000000000000000000000dd
:2063c000000000000000000000000000000802258000000000000000010fb6b892104000ae
:2063e000627ee24801080081fd60020801e427ccc00001800a78000800011479e9990000ef
:0d6400000000b3a224000203c3860ff08049
:20640d0000000000000000000000000000000000000000000000000000000000000000006f
:20642d0000000000000000000000000000190265b0000000000000004001b8000020017e87
:20644d00236b04000aba019de1912208ba07c61a5000001500b80008104c1e6160e70000b7
:0d646d000a50078508020a02460cb33000f1
:20647a00000000000000000000000000000000000000000000000000000000000000000002
:20649a000000000000000000000000000008022580000000000000002308783fc000000c85
:2064ba0040fd0c0001040081bd60000015c654a9920003200a383fc000a00201cc7e01001a
:0d64da0005f8b53f0c000414441f9cc000e1
:2064e700000000000000000000000000000000000000000000000000000000000000000095
:2065070000000000000000000000000080000265b000000000000010218e136854402026c9
:206527007c7c130000027899f59180100067060c3000505188f82944200e06386100190003
:0d6547000b18038598000412c3cf96501066
:20655400000000000000000000000000000000000000000000000000000000000000000027
:206574000000000000000000000000000000036580000000000000000f1056b89810040442
:206594003c6b12080000f1fbfd60010003c256c3c00008211a783fce1000147cc9180900ec
:0d65b4000070013568040028437cb590009c
:2065c1000000000000000000000000000000000000000000000000000000000000000000ba
:2065e10000000000000000000000000000000265b000000000000100081f0000000c860ebb
:2066010074000000000001edb991000a020247f65001020500786040400e06064c645000b8
:0d662100205007860400c00a40061c300807
:20662e0000000000000000000000000000000000000000000000000000000000000000004c
:20664e00000000000000000000000000000003658000000000000103811e0000000440005d
:20666e00700000000030000bfd600104d5d22fa5908300000a73e64010000036df58080049
:0d668e000008b53c9020c017e02493c00028
:20669b000000000000000000000000000000000000000000000000000000000000000000df
:2066bb0000000000000000000000000008180225b0000080000000000718feb00000003c3f
:2066db0079fb850002000185fe140000100625f8500408480072c94000cec001cc0000005f
:0d66fb0000b8a16461e00000000fe150084c
:20670800000000000000000000000000000000000000000000000000000000000000000071
:20672800000000000000000000000000010002258100000000000000000072cfc000a00601
:206748002ce9b900003800ef3ae40000e1c3b6ab90004007007f4a8400414001dd10100076
:0d676800001101ef89460a03c01c81a0004a
:20677500000000000000000000000000000000000000000000000000000000000000000004
:2067950000000000000000000000008009800225b0000000000003a00f9c7f59400001dcc1
:2067b500724e60003819f087f0d800e400000ef6500010500090490c0e040628c0bd0038a2
:0d67d5008481f18294821200002c08128051
:2067e200000000000000000000000000000000000000000000000000000000000000000097
:206802000000000000000000000002010100032580000000000000110f107316400000a62b
:2068220078586f00001f1907e98c000801c324d5900020200033e64000000041edff000048
:0d6842000070a783fc810000000eae700402
:20684f00000000000000000000000000000000000000000000000000000000000000000029
:20686f0000000000002000000000000080000225b000000000000020078d9fa140008800d6
:20688f006afc850000008089f214000402e00caa4000090f813800000c000601792561b47c
:0d68af0000788d86040018b0000e0a51001c
:2068bc000000000000000000000000000000000000000000000000000000000000000000bc
:2068dc000000000000000000000000200000036580000000000000002f0b3fa0000040003b
:2068fc007aee8000000011e17a00000283e3cc99800011870c103fc00c0e80015d4048f0b8
:0d691c000009933d6880040bc02c89900099
:2069290000000000000000000000000000000000000000000000000000000000000000004e
:2069490000000000000000000000000000000225b0000000000000000f0037a14000a00090
:2069690022d885000404f80b3214000a03c744da160c00200eb2c94020002e06dd500101be
:0d6989002a79c78694800200102c000100be
:206996000000000000000000000000000000000000000000000000000000000000000000e1
:2069b6000000000000000000000000000000026580000000000000000100fe224000480c25
:2069d60079eb89000402100fbe240004c2c61dae24100050107bca8000083f214bb8000092
:0d69f6008410013664000040000ea6600011
:206a0300000000000000000000000000000000000000000000000000000000000000000073
:206a230000000000000000000000000101810265b00040000000000000011a685a600040fc
:206a43000461a50008808013a6852208006056b62000000001d059840000202c61a500022b
:0d6a63008001e78294800020007c0e70000e
:206a7000000000000000000000000000000000000000000000000000000000000000000006
:206a90000000000000000000000000000008022580000000000000028008f6389000001cd3
:206ab000226f99000100308d7389000023423fe52000110008735684000a1424cd7e010243
:0d6ad000290005ae64000a00039e83c20089
:206add00000000000000000000000000000000000000000000000000000000000000000099
:206afd0000000000001400000000002800190265b00000000000002819005019800080243f
:206b1d00245b85010201788906940100b7f7740000000215815f244000482004de157980df
:0d6b3d009d049f0694040c01e02c0c301008
:206b4a0000000000000000000000000000000000000000000000000000000000000000002b
:206b6a00000000000008000000000010000802258000000000000012a100d2968000401e4b
:206b8a00667bb900010a11f5a664000008463c0ff00408700afee84800010421edaa68c212
:0d6baa003ab0d73664000000200ea3c000f2
:206bb7000000000000000000000000000000000000000000000000000000000000000000be
:206bd70000000000000000000000000000000265b000000000000000098f000000000206e7
:206bf70023ce6000000019ed00008002a0425e1a5004200181b8204010a03e3ad933718612
:0d6c170082f0cd02942004e0607c0e70003d
:206c2400000000000000000000000000000000000000000000000000000000000000000050
:206c4400000000000000000000000000000003658000000000000000211d000000000024e6
:206c640078eb6f000000718183fc000001c6969db300109008b2294000209603fd1249c18b
:0d6c840001190bae64000860039e85a0049a
:206c91000000000000000000000000000000000000000000000000000000000000000000e3
:206cb10000000000000000000000000000000265b000000000000120019c000000002620a8
:206cd10024000000100110e00000004c01f04eb76000202d817879c025008631e1420090ce
:0d6cf1001811a58294001a17c02c0c301049
:206cfe00000000000000000000000000000000000000000000000000000000000000000076
:206d1e000000000000000000000000000040036580000000000003138f0900000000080473
:206d3e0064000000300091b00000004c01c3fec7a00411910a53e6400d014001cb7e001218
:0d6d5e0002718b0000011cf3e00eaa500032
:206d6b00000000000000000000000000000000000000000000000000000000000000000008
:206d8b0000000000000000000000000008180225b0000000000000000f99faa1400020a4aa
:206dab00204b8500000071d13900000202063cc85000001009f2b0000000a06160a500043a
:0d6dcb0020b019b614000ee7c63ea8500017
:206dd800000200000000000000000000000000000000000000000000000000000000000099
:206df800000000000000000000000000510002258100000000000000118b326e40000144c1
:206e180026c980000004b08361280000004034bb9000100f093a0fc000e12429c9990004a7
:0d6e38000018f126e4000c146275bb9000f8
:206e450000000000000000000000000000000000000000000000000000000000000000002d
:206e650000000000080000000000008000000225b0000000000003a08b9f13a4000e814655
:206e8500724f85000005f885000000e090e385f600000081803e59400e093400ee64503c56
:0d6ea5001918f1369000e0820204e90000a7
:206eb2000000000000000000000000000000000000000000000000000000000000000000c0
:206ed200000000000400000000000200000003258000000000000012011fd727c0004e2490
:206ef2002b4989001002190703fc0000480435a6f00008008b77d6400000bc28df580800f8
:0d6f12002870f5729c020044443dc9f00057
:206f1f00000000000000000000000000000000000000000000000000000000000000000052
:206f3f0000000000000000000000000100000225b0000480000000002700dea140000000f0
:206f5f00254da1400028f00de0cc000001c3dce85000428101da2140000da003e9646000ba
:0d6f7f0022709732140000e006a4e85000d4
:206f8c000000000000000000000000000000000000000000000000000000000000000000e5
:206fac000000000000000000000000000000036580000140000000001f8917a00000082411
:206fcc003beae2410008b8017b3000000027d5e4000000290997a000000164005f5800028a
:0d6fec000458856e0000000002c4e800009b
:206ff900000200000000000000000000000000000000000000000000000000000000000076
:20701900000000000000000000000000000002259440000000000028198037e14000000e35
:2070390000e0a500020500e10294000802c3edc85000b0098f36a14001017478fa64400077
:0d7059000079f7f3dce30244c32dd85000aa
:2070660000000000000000000000000000000000000000000000000000000000000000000a
:2070860000000000000000000000000000000265801000000000001107091e2240000a0048
:2070a6003fed9900000050abbe64200ec3c2b6d890003827893f624041888c6a5f58008058
:0d70c6001809ef6bfce10043e03ed890009c
:2070d30000000000000000000000000000000000000000000000000000000000000000009d
:2070f3000000000000000000000000000181000000000000000000405101fa2850000006f1
:207113003dc00001000080e10000000012e2668a1600082389df1c8000a1060061811880b3
:0d7133000011dd621400000c60769a141447
:2071400000000000000000000000000000000000000000000000000000000000000000002f
:2071600000000000000000000000000010080000000000400000004020885eb898600000c1
:207180006360ff004028b1db83fc0000c1e21dfe26181090085a4e000080800049660000bf
:0d71a00000099de624000068221dde250088
:2071ad000000000000000000000000000000000000000000000000000000000000000000c2
:2071cd00000000000000000000000010000000168c7000000000000010009869400000002f
:2071ed0002c1c30002009809f8cc000874000c1a500010199cf84000404aa0016100010811
:0d720d003098f7768502002003e41a500047
:20721a00000000000000000000000000000000000000000000000000000000000000000054
:20723a00000000000000000000000028000090294220000000000003af007a6640000e0011
:20725a0033ee3c00013830e12b3000040a401c999000000110da0600402b0c014bbd00020c
:0d727a0029199137898000a0479e99900046
:207287000000000000000000000000000000000000000000000000000000000000000000e7
:2072a700000000000000000000000040504000000000000000000000018e00000000000464
:2072c70066696500020099db86940000e067c00000000289809a84c0000a067461420104c7
:0d72e7000411f5b614000002720000000052
:2072f4008000000000000000000000000000000000000000000000000000000000000000fa
:207314000000000000000000000000000000000000000000000000000000000000000080d9
:2073340023d859000000b1dd3264001003c70000000000010ff68b4010800270496608005d
:0d735400007c9fa6e440080ac7c0000000ae
:2073610000000000000000000000000000000000000000000000000000000000000000000c
:207381000000000010000000000000000000000000000000000003000f9d0000000da05c24
:2073a1007041c3010020f80f74cc004a68620000000000401dda4580402c602160a50011dd
:0d73c100a218000000004002600000000162
:2073ce0000000000000000000000000000000000000000000000000000000000000000009f
:2073ee00000000001000000000000003000000000000000000000300011f0000000d4ad61c
:20740e0073ef3c000030180dfb3020c41404000000000ba01fb6c74000410c4140000032bd
:0d742e00840800000000c000438000000240
:02743b0000004f
:02743d0011013b
:02743f00010149
:20744100000000000000000000000000000000000000000000000080000002800002000027
:20746100000a00000800000028000020000000a00000000000000000000000000000000011
:207481000000000000000000000000000000000000000000000000000000000000000000eb
:0d74a10000000000000000000000000000de
:2074ae0000000000000000000000000000000000000000000000000000000040000000007e
:2074ce00000100000000000004000000000000100000000000000000000000000000000089
:2074ee0000000000000000000000000000000000000000000000000000000000000000007e
:0d750e000000000000000000000000000070
:20751b0000000000000000000000000000000000000000000000004000000000000100000f
:20753b0000000000040000000000001000000000000000000000000000000000000000001c
:20755b00000000000000000000000000000000000000000000000000000000000000000010
:0d757b000000000000000000000000000003
:207588000000000000000000000000000000000000000000000000000000000000000000e3
:2075a8000000000000000000000000000000000000000000000000000000000000000000c3
:2075c8000000000000000000000000000000000000000000000000000000000000000000a3
:0d75e8000000000000000000000000000096
:2075f500000000000000000000000000000000000000000000000040000000c00001000075
:207615000003000004000000040000100000007000000000000000000000000000000000ca
:20763500000000000000000000000000000000000000000000000000000000000000000035
:0d7655000000000000000000000000000028
:20766200000000000000000000000000000000000000000000000000000001800000000087
:20768200000600000000000038000000000000e000000000000000000000000000000000ca
:2076a2000000000000000000000000000000000000000000000000000000000000000000c8
:0d76c20000000000000000000000000000bb
:2076cf0000000000000000000000000000000000000000000000000000000000000000009b
:2076ef0000000000000000000000000000000000000000000000000000000000000000007b
:20770f0000000000000000000000000000000000000000000000000000000000000000005a
:0d772f00000000000000000000000000004d
:20773c0000000000000000000000000000000000000000000000000000000000000000002d
:20775c0000000000000000000000000000000000000000000000000000000000000000000d
:20777c000000000000000000000000000000000000000000000000000000000000000000ed
:0d779c0000000000000000000000000000e0
:2077a9000000000000000000000000000000000000000000000000000002000000000000be
:2077c90000000000000000000000000000c0000000000000000000000000000000000000e0
:2077e900000000000000000000000000000000000000000000000000000000000000000080
:0d7809000000000000000000000000000072
:20781600000000000000000000000000000000000000000000000000000000000000000052
:20783600000000000000000000000000002000000000000000000000000000000000000012
:20785600000000000000000000000000000000000000000000000000000000000000000012
:0d7876000000000000000000000000000005
:20788300000000000000000000000000000000000000000000000000008001000000000064
:2078a3000000000000000000000000000000000000000000000000000000000000000000c5
:2078c3000000000000000000000000000000000000000000000000000000000000000000a5
:0d78e3000000000000000000000000000098
:2078f000000000000000000000000000000000000000000000000080078000000000000c65
:2079100000000000000000000000000001e000000000000000000000000000000000000076
:20793000000000000000000000000000000000000000000000000000000000000000000037
:0d795000000000000000000000000000002a
:20795d0000000000000000000000000000000000000000000000000000000000000000000a
:20797d00000000000000f000000000000000000000000000000000000000000000000000fa
:20799d000000000000000000000000000000000000000000000000000000000000000000ca
:0d79bd0000000000000000000000000000bd
:2079ca0000000000000000000000000000100000000000000000004000000000000000004d
:2079ea00000000000000780000000000000000000000000000000000000000000000000005
:207a0a0000000000000000000000000000000000000000000000000000000000000000005c
:0d7a2a00000000000000000000000000004f
:207a3700000000000000000000000000000000000000000000000000050100000000000029
:207a57000400000000000010000000000000400000000000000000000000000000000000bb
:207a77000000000000000000000000000000000000000000000000000000000000000000ef
:0d7a970000000000000000000000000000e2
:207aa4000000000000000000000000000000000000000000000000800d8000000000000ea7
:207ac400000000000000000060000000000000000000000000000000000000000000000042
:207ae400000000000000000000000000000000000000000000000000000000000000000082
:0d7b04000000000000000000000000000074
:207b1100000000000000000000000000000000000000000000000000000000000010000044
:207b3100003658810000000000000000000000000000000000000000000000000000000025
:207b5100000000000000000000000000000000000000000000000000000000000000000014
:0d7b71000000000000000000000000000007
:207b7e000000000000000000000000000000000000000000000000000000000000300000b7
:207b9e000026598200000000000000000000000000000000000000000000000000000000c6
:207bbe000000000000000000000000000000000000000000000000000000000000000000a7
:0d7bde00000000000000000000000000009a
:207beb0000000000000000000000000000000000000000000000000000000000000000007a
:207c0b000036580000000000000000000000000000000000000000000000000000000000cb
:207c2b00000000000000000000000000000000000000000000000000000000000000000039
:0d7c4b00000000000000000000000000002c
:207c580000000000000000000000000000000000000000000000000000000000000000000c
:207c780000265b00000000000000000000000000000000000000000000000000000000006b
:207c98000000000000000000000000000000000000000000000000000000000000000000cc
:0d7cb80000000000000000000000000000bf
:207cc50000000000000000000000000000000000000000000000000000000000000000108f
:207ce500802258000000000000000000000000000000000000000000000000000000000085
:207d050000000000000000000000000000000000000000000000000000000000000000005e
:0d7d25000000000000000000000000000051
:207d320000000000000000000000000000000000000000000000000100000000000000012f
:207d520090265b000000000000000000000000000000000000000000000000000000000000
:207d72000000000000000000000000000000000000000000000000000000000000000000f1
:0d7d920000000000000000000000000000e4
:207d9f000000000000000000000000000000000000000000000000000000000000000000c4
:207dbf008022580000000000000000080000000000000000000000000000000000000000a2
:207ddf00000000000000000000000000000000000000000000000000000000000000000084
:0d7dff000000000000000000000000000077
:207e0c0000000000000000000000000000000000000000000000000000000000000000183e
:207e2c0010265b0000000000000000000000000000000000000000000000000000000000a5
:207e4c00000000000000000000000000000000000000000000000000000000000000000016
:0d7e6c000000000000000000000000000009
:207e79000000000000000000000000000000000000000000000000200000000000000000c9
:207e990000265800000000000000000000000000000000000000000000000000000000004b
:207eb9000000000000000000000000000000000000000000000000000000000000000000a9
:0d7ed900000000000000000000000000009c
:207ee60000000000000000000000000000000000000000000000000000000000000000007c
:207f060000225b00000000000000004000000000000000000000000000000000000000009e
:207f260000000000000000000000000000000000000000000000000000000000000000003b
:0d7f4600000000000000000000000000002e
:207f530000000000000000000000000000000000000000000000000000000000000000000e
:207f7300003658000000000000000000000000000000000000000000000000000000000060
:207f93000000000000000000000000000000000000000000000000000000000000000000ce
:0d7fb30000000000000000000000000000c1
:207fc0000000000000000000000000000000000000000000000000000000000000000000a1
:207fe00000225b000000000000000000000000000000000000000000000000000000000004
:20800000000000000000000000000000000000000000000000000000000000000000000060
:0d8020000000000000000000000000000053
:20802d00000000000000000000000000000000000000000000000000000000000000001023
:20804d00003258000000000000000010000000000000000000000000000000000000000079
:20806d000000000000000000000000000000000000000000000000000000000000000000f3
:0d808d0000000000000000000000000000e6
:20809a000000000000000000000000000000000000000000000000000000000000380098f6
:2080ba0000225b000000000000000028000000000000000000000000000000000000000001
:2080da00000000000000000000000000000000000000000000000000000000000000000086
:0d80fa000000000000000000000000000079
:20810700000000000000000000000000000000000000000000000000000000000000001048
:208127000022581000000000000000000000000000000000000000000000000000000000ae
:20814700000000000000000000000000000000000000000000000000000000000000000018
:0d816700000000000000000000000000000b
:2081740000000000000000000000000000000000000000000000000000000000000000816a
:2081940080225b0000000000000000000000000000000000000000000000000000000000ce
:2081b4000000000000000000000000000000000000000000000000000000000000000000ab
:0d81d400000000000000000000000000009e
:2081e10000000000000000000000000000000000000000000000000000000000003000004e
:208201000036580000000000000000000000000000000000000000000000000000000000cf
:2082210000000000000000000000000000000000000000000000000000000000000000003d
:0d8241000000000000000000000000000030
:20824e00000000000000000000000000000000000000000000000000000000000010000000
:20826e0000265b00000000000000000000000000000000000000000000000000000000006f
:20828e000000000000000000000000000000000000000000000000000000000000000000d0
:0d82ae0000000000000000000000000000c3
:2082bb000000000000000000000000000000000000000000000000000000000000000000a3
:2082db000036580000000000000000000000000000000000000000000000000000000000f5
:2082fb00000000000000000000000000000000000000000000000000000000000000000063
:0d831b000000000000000000000000000055
:20832800000000000000000000000000000000000000000000000000000000000000000035
:2083480000265b000000000000000000000000000000000000000000000000000000000094
:208368000000000000000000000000000000000000000000000000000000000000000000f5
:0d83880000000000000000000000000000e8
:2083950000000000000000000000a000000000000000000000000000000000000000000028
:2083b5008022580000000000000000000000000000000000000000000000000000000000ae
:2083d500000000000000000000000000000000000000000000000000000000000000000088
:0d83f500000000000000000000000000007b
:20840200000000000000000000000000000000000000000000000000000000000000000159
:2084220090265b000000000000000000000000000000000000000000000000000000000029
:2084420000000000000000000000000000000000000000000000000000000000000000001a
:0d846200000000000000000000000000000d
:20846f000000000000000000000000000000000000000000000000000000000000000000ed
:20848f008022580000000000000000000000000000000000000000000000000000000000d3
:2084af000000000000000000000000000000000000000000000000000000000000000000ad
:0d84cf0000000000000000000000000000a0
:2084dc00000000000000000000000000000000000000000000000000000000000000001868
:2084fc0010265b0000000000000000000000000000000000000000000000000000000000cf
:20851c0000000000000000000000000000000000000000000000000000000000000000003f
:0d853c000000000000000000000000000032
:20854900000000000000000000000000000000000000000000000000000000000000000012
:20856900002658000400000000000000000000000000000000000000000000000000000070
:208589000000000000000000000000000000000000000000000000000000000000000000d2
:0d85a90000000000000000000000000000c5
:2085b600000000000000000000000000000000000000000000000000000000000000001095
:2085d60000225b000200000000000000000000000000000000000000000000000000000006
:2085f600000000000000000000000000000000000000000000000000000000000000000065
:0d8616000000000000000000000000000057
:20862300000000000000000000000000000000000000000000000000000000000000000037
:20864300003658000000000000000000000000000000000000000000000000000000000089
:208663000000000000000000000000000000000000000000000000000000000000000000f7
:0d86830000000000000000000000000000ea
:208690000000000000000000000000000000000000000000000000000000000000000000ca
:2086b00000225b00000000000000000000000000000000000000000000000000000000002d
:2086d00000000000000000000000000000000000000000000000000000000000000000008a
:0d86f000000000000000000000000000007d
:2086fd0000000000000000000000000000000000000000000000000000000000000000104d
:20871d000032580000000000000000000000000000000000000000000000000000000000b2
:20873d0000000000000000000000000000000000000000000000000000000000000000001c
:0d875d00000000000000000000000000000f
:20876a0000000000000000000000000000000000000000000000000000000000003800981f
:20878a0000225b000000000000000000000000000000000000000000000000000000000052
:2087aa000000000000000000000000000000000000000000000000000000000000000000af
:0d87ca0000000000000000000000000000a2
:2087d700000000000000000000000000000000000000000000000000000000000000001072
:2087f7000022581000000000000000000000000000000000000000000000000000000000d8
:20881700000000000000000000000000000000000000000000000000000000000000000041
:0d8837000000000000000000000000000034
:20884400000000000000000000000000000000000000000000000000000000000000008193
:2088640080225b0000000000000000000000000000000000000000000000000000000000f7
:208884000000000000000000000000000000000000000000000000000000000000000000d4
:0d88a40000000000000000000000000000c7
:2088b100000000000000000000000000000000000000000000000000000000000010000097
:2088d1000036580000000000000000000000000000000000000000000000000000000000f9
:2088f100000000000000000000000000000000000000000000000000000000000000000067
:0d8911000000000000000000000000000059
:20891e00000000000000000000000000000000000000000000000000000000000030000009
:20893e0000265b000000000000000000000000000000000000000000000000000000000098
:20895e000000000000000000000000000000000000000000000000000000000000000000f9
:0d897e0000000000000000000000000000ec
:20898b000000000000000000000000000000000000000000000000000000000000000000cc
:2089ab0000365800000000000000000000000000000000000000000000000000000000001e
:2089cb0000000000000000000000000000000000000000000000000000000000000000008c
:0d89eb00000000000000000000000000007f
:2089f80000000000000000000000000000000000000000000000000000000000000000005f
:208a180000265b0000000000000000000000000000000000000000000000000000000000bd
:208a380000000000000000000000000000000000000000000000000000000000000000001e
:0d8a58000000000000000000000000000011
:208a6500000000000000000000000000000000000000000000000000000000000000009061
:208a85008022580000000000000000000000000000000000000000000000000000000000d7
:208aa5000000000000000000000000000000000000000000000000000000000000000000b1
:0d8ac50000000000000000000000000000a4
:208ad200000000000000000000000000000000000000000000000000000000000000000183
:208af20090265b000000000000000000000000000000000000000000000000000000000053
:208b1200000000000000000000000000000000000000000000000000000000000000000043
:0d8b32000000000000000000000000000036
:208b3f00000000000000000000000000000000000000000000000000000000000000000016
:208b5f008022580000000000000000000000000000000000000000000000000000000000fc
:208b7f000000000000000000000000000000000000000000000000000000000000000000d6
:0d8b9f0000000000000000000000000000c9
:208bac00000000000000000000000000000000000000000000000000000000000000001891
:208bcc0010265b0000000000000000000000000000000000000000000000000000000000f8
:208bec00000000000000000000000000000000000000000000000000000000000000000069
:0d8c0c00000000000000000000000000005b
:208c190000000000000000000000000000000000000000000000000000000000000000003b
:208c390000265800000000000000000000000000000000000000000000000000000000009d
:208c59000000000000000000000000000000000000000000000000000000000000000000fb
:0d8c790000000000000000000000000000ee
:208c86000000000000000000000000000000000000000000000000000000000000000000ce
:208ca60000225b000000000000000000000000000000000000000000000000000000000031
:208cc60000000000000000000000000000000000000000000000000000000000000000008e
:0d8ce6000000000000000000000000000081
:208cf300000000000000000000000000000000000000000000000000000000000000000061
:208d13000036580000000000000000000000000000000000000000000000000000000000b2
:208d3300000000000000000000000000000000000000000000000000000000000000000020
:0d8d53000000000000000000000000000013
:208d60000000000000000000000000100000000000000000000000000000000000000000e3
:208d800000225b000000000000000000000000000000000000000000000000000000000056
:208da0000000000000000000000000000000000000000000000000000000000000000000b3
:0d8dc00000000000000000000000000000a6
:208dcd00000000000000000000000000000000000000000000000000000000000000001076
:208ded000032580000000000000000000000000000000000000000000000000000000000dc
:208e0d00000000000000000000000000000000000000000000000000000000000000000045
:0d8e2d000000000000000000000000000038
:208e3a00000000000000000000000000000000000000000000000000000000000038009848
:208e5a0000225b00000000000000000000000000000000000000000000000000000000007b
:208e7a000000000000000000000000000000000000000000000000000000000000000000d8
:0d8e9a0000000000000000000000000000cb
:208ea70000000000000000000000000000000000000000000000000000000000000000109b
:208ec700002258080000000000000000000000000000000000000000000000000000000009
:208ee70000000000000000000000000000000000000000000000000000000000000000006b
:0d8f0700000000000000000000000000005d
:208f14000000000000000000000000000000000000000000000000000000000000000081bc
:208f340080225b000000000000000000000000000000000000000000000000000000000020
:208f54000000000000000000000000000000000000000000000000000000000000000000fd
:0d8f740000000000000000000000000000f0
:208f81000000000000000000000000000000000000000000000000000000000000000000d0
:208fa1000000000000000000000000000000000000000000000000000000000000000000b0
