:02000000ff00ff
:080002004c6174746963650030
:17000a00694345637562653220323031342e30342e32363432350073
:16002100506172743a2069434534304858384b2d435432353600ff
:1b003700446174653a204d617220313220323031352032313a33333a33320089
:0200520000ffad
:040054007eaa997e69
:02005800510055
:02005a0001059e
:03005c00920020ef
:03005f00620367d2
:0300620072011018
:0300650082000016
:02006800110085
:02006a00010192
:20006c00000000000000000000000000000000000000000000000000000000000000000074
:20008c00000000000000000000000000000000000000000000000000000000000000000054
:2000ac00000000000000000000000000000000000000000000000000000000000000000034
:0d00cc000000000000000000000000000027
:2000d900000000000000000000000000000000000000000000000000000000000000000007
:2000f9000000000000000000000000000000000000000000000000000000000000000000e7
:200119000000000000000000000000000000000000000000000000000000000000000000c6
:0d01390000000000000000000000000000b9
:20014600000000000000000000000000000000000000000000000000000000000000000099
:20016600000000000000000000000000000000000000000000000000000000000000000079
:20018600000000000000000000000000000000000000000000000000000000000000000059
:0d01a6000000000000000400000000000048
:2001b30000000000000000000000000000000000000000000000000000000000000000002c
:2001d30000000000000000000000000000000000000000000000000000000000000000000c
:2001f3000000000000000000000000000000000000000000000000000000000000000000ec
:0d02130000000000000000000000000000de
:200220000000000000000000000000000000000000000000000000000000000000000000be
:2002400000000000000000000000000000000000000000000000000000000000000000009e
:2002600000000000000000000000000000000000000000000000000000000000000000007e
:0d0280000000000000000000000000000071
:20028d00000000000000000000000000000000000000000000000000000000000000000051
:2002ad00000000000000000000000000000000000000000000000000000000000000000031
:2002cd000000000000000000000000000000000000000001c0000000000000000000000050
:0d02ed000000000000000000000000000004
:2002fa000000000000000000000000000000000000000000000000000000000000000000e4
:20031a000000000000000000000000000000000000000000000000000000000000000000c3
:20033a000000000000000000000000000000000000000000000000000000000000000000a3
:0d035a000000000000000000000000000096
:20036700000000000000000000000000000000000000000000000000000000000000000076
:20038700000000000000000000000000000000000000000000000000000000000000000056
:2003a700000000000000000000000000000000000000000000000000000000000000000036
:0d03c7000000000000000000000000000029
:2003d400000000000000000000000000000000000000000000000000000000000000000009
:2003f4000000000000000000000000000000000000000000000000000000000000000000e9
:200414000000000000000000000000000000000000000000000000000000000000000000c8
:0d04340000000000000000000000000000bb
:2004410000000000000000000000000000000000000000000000000000000000000000009b
:2004610000000000000000000000000000000000000000000000000000000000000000007b
:2004810000000000000000000000000000000000000000000000000000000001000000005a
:0d04a100000000000000000000000000004e
:2004ae0000000000000000000000000000000000000000000000000000000000000000002e
:2004ce0000000000000000000000000000000000000000000000000000000000000000000e
:2004ee000000000000000000000000000000000000000000000020000000000100000000cd
:0d050e0000000400000000000000000000dc
:20051b000000000000000000000000000000000000000000000000000000000000000000c0
:20053b000000000000000000000000000000000000000000000000000000000000000000a0
:20055b0000000000000000000000000000000000000000000000300000000003000000004d
:0d057b000000000000000000000000000073
:20058800000000000000000000000000000000000000000000000000000000000000000053
:2005a800000000000000000000000000000000000000000000000000000000000000000033
:2005c800000000000000000000000000000000000000000000000000000000010000000012
:0d05e80000000800000000000010000000ee
:2005f5000000000000000000000000000000000000000000000000000000000000000000e6
:200615000000000000000000000000000000000000000000000000000000000000000000c5
:200635000000000000000000000000000000000000000000000000000000000000000000a5
:0d0655000000040000000000000000000094
:20066200000000000000000000000000000000000000000000000000000000000000000078
:20068200000000000000000000000000000000000000000000000000000000000000000058
:2006a200000000000000000000000000000000000000000000000000000000000000000038
:0d06c200000000000000000000000000002b
:2006cf0000000000000000000000000000000000000000000000000000000000000000000b
:2006ef000000000000000000000000000000000000000000000000000000000000000000eb
:20070f000000000000000000000000000000000000000000000000000000000000000000ca
:0d072f0000000800000000000000000000b5
:20073c0000000000000000000000000000000000000000000000000000000000000000009d
:20075c0000000000000000000000000000000000000000003a00002810000000000000000b
:20077c0000000000000000000000000000000000000000000000000000000000000000005d
:0d079c000000000000000000000000000050
:2007a900000000000000000000000000000000000000000000000000000000000000000030
:2007c90000000000000000000000000000000000000010004240000000000000000000007e
:2007e9000000000000000000000000000000000000000000000000000000000000000000f0
:0d08090000000000000000000000000000e2
:200816000000000000000000000000000000000000000000000000000000000000000000c2
:2008360000000000000000000000000000000000000e000000000000000000000000000094
:20085600000000000000000000000000000000000000000000000000000000000000000082
:0d0876000000000000000000000000000075
:20088300000000000000000000000000000000000000000000000000000000000000000055
:2008a300000000000000000000000000000000000000000026c0000000000000000000004f
:2008c300000000000000000000000000000000000000000000000000000000000000000015
:0d08e3000000000000000000000000000008
:2008f0000000000000000000000000000000000000000000000000000000000000000000e8
:200910000000000000000000000000000000000000000000200000000000000000000000a7
:200930000000000000000000000000000000000000000000000000000000000000000004a3
:0d095000000000000000000000000000009a
:20095d0000000000000000000000000000000000000000000000000000000000000000007a
:20097d00000000000000000000000000000000000000000460c00000000000000000000036
:20099d0000000000000000000000000000000000000000000000000000000000000000003a
:0d09bd00000000000000000000000000002d
:2009ca0000000000000000000000000000000000000000000000000000000000000000000d
:2009ea000000000000000000000000000000000000000000200000000000000000000000cd
:200a0a000000000000000000000000040000000000000000000000000000000000000000c8
:0d0a2a0000000000000000000000000000bf
:200a370000000000000000000000000000000000000000000000000000000000000000009f
:200a570000000000000000000000000000000000000000000340000000000000000000003c
:200a770000000000000000000000000a000000000000000000000000000000000000000055
:0d0a97000000000000000000000000000052
:200aa400000000000000000000000000000000000000000000000000000000000000000032
:200ac400000000000000000000000000000000000000000421e010000000000000000000fd
:200ae4000000000000000000000000000000000000000000000000000000000000000000f2
:0d0b040000000000000000000000000000e4
:200b11000000000000000000000000000000000000000000000000000000000000000000c4
:200b3100000000000000000000000000000000000000000e66e000018000000000000000cf
:200b5100000000000000000000000000000000000000000000000000000000000000000084
:0d0b71000000000000000000000000000077
:200b7e00000000000000000000000000000000000000000000000000000000000000000057
:200b9e00000000000000000000000000000000000000000000000000000000000000000037
:200bbe00000000000000000000000000000000000000000000000000000000000000000017
:0d0bde00000000000000000000000000000a
:200beb000000000000000000000000000000000000000000000000000000000000000000ea
:200c0b0000000000000000000000000000000000000000000149000000000000000000007f
:200c2b000000000000000000000000000000000000000000000000000000000000000000a9
:0d0c4b00000000000000000000000000009c
:200c580000000000000000000000000000000000000000000000000000000000000000007c
:200c780000000000000000000000000000000000000000000200004000000000000000001a
:200c980000000000000000000000000000000000000000000000000000000000000000003c
:0d0cb800000000000000000000000000002f
:200cc50000000000000000000000000000000000000000000000000000000000000000000f
:200ce5000000000000000000000000000000000000000000034b00000000000000000000a1
:200d05000000000000000000000000000000000000000000000000000000000000000000ce
:0d0d250000000000000000000000000000c1
:200d32000000000000000000000000000000000000000000000000000000000000000000a1
:200d520000000000000000000000000000000000000c002e04010000000000000000000042
:200d7200000000000000000000000000000000000000000000000000000000000000000061
:0d0d92000000000000000000000000000054
:200d9f00000000000000000000000000000000000000000000000000000000000000000034
:200dbf0000000000000000000000000000000000000c000e30ce00000000000000000000fc
:200ddf000000000000000000000000000000000000000000000000000000000000000000f4
:0d0dff0000000000000000000000000000e7
:200e0c000000000000000000000000000000000000000000000000000000000000000000c6
:200e2c00000000000000000000000000000000000000100402000000000000000000000090
:200e4c00000000000000000000000000000000000000000000000000000000000000000086
:0d0e6c000000000000000000000000000079
:200e7900000000000000000000000000000000000000000000000000000000000000000059
:200e9900000000000000000000000000000000000000100202c00000000000000000000065
:200eb900000000000000000000000000000000000000000000000000000000000000000019
:0d0ed900000000000000000000000000000c
:200ee6000000000000000000000000000000000000000000000000000000000000000000ec
:200f060000000000000000000000000000000000000e100e0000000000000000000000009f
:200f26000000000000000000000000000000000000000000000000000000000000000004a7
:0d0f4600000000000000000000000000009e
:200f530000000000000000000000000000000000000000000000000000000000000000007e
:200f730000000000000000000000000000000000000010020040000000000000000000000c
:200f930000000000000000000000000000000000000000000000000000000000000000003e
:0d0fb300000000000000000002000000002f
:200fc000000000000000000000000000000000000000000000000000000000000000000011
:200fe0000000000000000000000000000000000000000000300000000000000000000000c1
:201000000000000000000000000000000000000000000000000000000000000000000004cc
:0d10200000000000000010000000000000b3
:20102d000000000000000000000000000000000000000000000000000000000000000000a3
:20104d00000000000000000000000000000000000000001c27400000000000000000000000
:20106d00000000000000000000000000000000000000000000000000000000000000000063
:0d108d000000000000000000000000000056
:20109a00000000000000000000000000000000000000000000000000000000000000000036
:2010ba00000000000000000000000000000000000000000000000010000000000000000006
:2010da000000000000000000000000000000000000000000000000000000000000000000f6
:0d10fa0000000000000000000000000000e9
:201107000000000000000000000000000000000000000000000000000000000000000000c8
:2011270000000000000000000000000000000000000000000140000800000000000000005f
:20114700000000000000000000000010000000000000000000000000000000000000000078
:0d116700000000000000000000000000007b
:2011740000000000000000000000000000000000000000000000000000000000000000005b
:20119400000000000000000000000000000000000000000023e00000000000000000000038
:2011b40000000000000000000000000000000000000000000000000000000000000000001b
:0d11d400000000000000000000000000000e
:2011e1000000000000000000000000000000000000000000000000000000000000000000ee
:2012010000000000000000000000000000000000000000003be02000000000000000000092
:201221000000000000000000000000000000000000000200000000000000000000000000ab
:0d12410000000000000000000000000000a0
:20124e00000000000000000000000000000000000000000000000000000000000000000080
:20126e0000000000000000000000000000000000000000000401000000000000000000005b
:20128e00000000000000000000000000000000000000000000000000000000000000000040
:0d12ae00000000000000400000018f000063
:2012bb00000000000000000000000000000000000000000000000000000000000000000013
:2012db0000000000000000000000000000000000000000243b48000000000000000000004c
:2012fb000000000000000000000000000000000000000000000000000000000000000000d3
:0d131b00000000000000800000010f010034
:201328000000000000000000000000000000000000000000000000000000000000000000a5
:20134800000000000000000000000000000000000000000002000000400000000000000043
:20136800000000000000000000000000000000000000000000000000000000000000000065
:0d1388000000000000000000000000000058
:20139500000000000000000000000000000000000000000000000000000000000000000038
:2013b500000000000000000000000000000000000000001c01cd000020000000000000000e
:2013d5000000000000000000000000000000000000000000000000000000000000000000f8
:0d13f50000000000000000000000000000eb
:201402000000000000000000000000000000000000000000000000000000000000000000ca
:2014220000000000000000000000000000000000000c000474000000200000000000000006
:2014420000000000000000000000000000000000000000000000000000000000000000008a
:0d146200000000000000000000000000007d
:20146f0000000000000000000000000000000000000000000000000000000000000000005d
:20148f0000000000000000000000000000000000000400023dcd00004000000000000000ed
:2014af0000000000000000000000000000000000000000000000000000000000000000001d
:0d14cf000000000000000000000000000010
:2014dc000000000000000000000000000000000000000000000000000000000000000000f0
:2014fc0000000000000000000000000000000000000080007a0000000000000000000000d6
:20151c000000000000000000000000000000000000000000000000000000000000000000af
:0d153c0000000000000000000000000000a2
:20154900000000000000000000000000000000000000000000000000000000000000000082
:20156900000000000000000000000000000000000000102400c0000000000000000000006e
:20158900000000000000000000000000000000000000000000000000000000000000000042
:0d15a9000000000000000000000000000035
:2015b600000000000000000000000000000000000000000000000000000000000000000015
:2015d60000000000000000000000000000000000000e0000020000000000000000000000e5
:2015f6000000000000000000000000000000000000000000000000000100000000000000d4
:0d16160000000000000000000000000000c7
:201623000000000000000000000000000000000000000000000000000000000000000000a7
:20164300000000000000000000000000000000000000000c00c000000000000000000000bb
:20166300000000000000000000000000000000000000000000000000000000000000000067
:0d168300000000000000000000000000005a
:2016900000000000000000000000000000000000000000000000000000000000000000003a
:2016b0000000000000000000000000000000000000000040220000080000000000000000b0
:2016d0000000000000000000000000000000000000004000000000000100000000000000b9
:0d16f00000000000000010000000000000dd
:2016fd000000000000000000000000000000000000000000000000000000000000000000cd
:20171d00000000000000000000000000000000000000020024400010000000000000000036
:20173d0000000000000000000000000000000000000000000000000000000000000000008c
:0d175d00000000000000000000000000007f
:20176a0000000000000000000000000000000000000000000000000000000000000000005f
:20178a00000000000000000000000000000000000000000e00000000000000000000000031
:2017aa0000000000000000000000000000000000000000000000000000000000000000001f
:0d17ca000000000000000000000000000012
:2017d7000000000000000000000000000000000000000000000000000000000000000000f2
:2017f700000000000000000000000000000000000000002603400000000000000000000069
:201817000000000000000000000000000000000000000000000000000000000000000000b1
:0d18370000000000000000000000000000a4
:20184400000000000000000000000000000000000000000000000000000000000000000084
:20186400000000000000000000000000000000000000200471c040080000000000000000c7
:20188400000000000000000000000000000000000000000000000000000000000000000044
:0d18a4000000000000000000000000000037
:2018b100000000000000000000000000000000000000000000000000000000000000000017
:2018d100000000000000000000000000000000000000400062c00010000000000000000085
:2018f1000000000000000000000000000000000000000000000000000000000000000000d7
:0d19110000000000000000000000000000c9
:20191e000000000000000000000000000000000000000000000000000000000000000000a9
:20193e00000000000000000000000000000000000000003e02000000200000000000000029
:20195e00000000000000000000000000000000000000000000000000000000000000000069
:0d197e00000000000000000000000000005c
:20198b0000000000000000000000000000000000000000000000000000000000000000003c
:2019ab00000000000000000000000000000000000000003e014d0000400000000000000050
:2019cb000000000000000000000000000000000000000000000000000000000000000000fc
:0d19eb0000000000000000000000000000ef
:2019f8000000000000000000000000000000000000000000000000000000000000000000cf
:201a1800000000000000000000000000000000000000000000000028400000000000000046
:201a380000000000000000000000000000000000000000000000000000000000000000008e
:0d1a58000000000000001000000000000071
:201a6500000000000000000000000000000000000000000000000000000000000000000061
:201a85000000000000000000000000000000000000000004004b0002a00000000000000050
:201aa500000000000000000000000000000000000000000000000000000000000000000021
:0d1ac5000000000000000000000000000014
:201ad2000000000000000000000000000000000000000000000000000000000000000000f4
:201af2000000000000000000000000000000000000040000000000100000000000000000c0
:201b12000000000000000000000000000800000000000000000000000000000000000000ab
:0d1b320000000000000000000000000000a6
:201b3f00000000000000000000000000000000000000000000000000000000000000000086
:201b5f0000000000000000000000000000000000000c000000c90028000000000000000069
:201b7f00000000000000000000000000140000000000000000000000000000000000000032
:0d1b9f000000000000000000000000000039
:201bac00000000000000000000000000000000000000000000000000000000000000000019
:201bcc000000000000000000000000000000000000009000200000005000000000000000f9
:201bec000000000000000000000000000000000000000000000000000000000000000000d9
:0d1c0c0000000000000000000000000000cb
:201c19000000000000000000000000000000000000000000000000000000000000000000ab
:201c390000000000000000000000000000000000000010007b4000000000000000000000c0
:201c590000000000000000000000000000000000000000000000000000000000000000006b
:0d1c7900000000000000000000000000005e
:201c860000000000000000000000000000000000000000000000000000000000000000003e
:201ca60000000000000000000000000000000000000e10000200000380000000000000007b
:201cc6000000000000000000000000000000000000000000000000000000000000000000fe
:0d1ce60000000000000000000000000000f1
:201cf3000000000000000000000000000000000000000000000000000000000000000000d1
:201d1300000000000000000000000000000000000000103c01c000000000000000000000a3
:201d3300000000000000000000000000000000000000000000000000000000000000000090
:0d1d53000000000000000000000000000083
:201d6000000000000000000000000000000000000000000000000000000000000000000063
:201d800000000000000000000000004000000000000002002200000040000000000000009f
:201da0000000000000000000000000000000000000004000000000000000000000000000e3
:0d1dc0000000000000000000000000000016
:201dcd000000000000000000000000000000000000000000000000000000000000000000f6
:201ded00000000000000000000000000000000000000001c4040000020000000000000001a
:201e0d000000000000000000000000000000000000000000000000000000000000000000b5
:0d1e2d0000000000000000000000000000a8
:201e3a00000000000000000000000000000000000000000000000000000000000000000088
:201e5a00000000000000000000000000000000000000000038000000000000000000000030
:201e7a00000000000000000000000000000000000000000000000000000000000000000048
:0d1e9a00000000000000000000000000003b
:201ea70000000000000000000000000000000000000000000000000000000000000000001b
:201ec700000000000000000000000000000000000000000041c000000000000000000000fa
:201ee7000000000000000000000000000000000000000000000000000000000000000000db
:0d1f070000000000000000000000000000cd
:201f14000000000000000000000000000000000000000000000000000000000000000000ad
:201f340000000000000000000000000000000000000004007bc040000040000000000000ce
:201f540000000000000000000000000000000000000000000000000000000000000000006d
:0d1f74000000000000000000000000000060
:201f8100000000000000000000000000000000000000000000000000000000000000000040
:201fa100000000000000000000000000000000000000080043600000000000000000000075
:201fc100000000000000000000000000000000000000000000000000000000000000000000
:0d1fe10000000000000000000000000000f3
:201fee000000000000000000000000000000000000000000000000000000000000000000d3
:20200e00000000000000000000000000000000000000010e00010010000000000000000092
:20202e00000000000000000000000000000000000000000000000000000000000000000092
:0d204e000000000000000000000000000085
:20205b00000000000000000000000000000000000000000000000000000000000000000065
:20207b00000000000000000000000000000000000000008602cc00080000000000000000e9
:20209b00000000000000000000000000000000000000000000000000000000000000000025
:0d20bb000000000000000000000000000018
:2020c8000000000000000000000000000000000000000000000000000000000000000000f8
:2020e8000000000000000000000000000000000000000000060000000000000000000000d2
:202108000000000000000000000000000000000000000000000000000000000000000000b7
:0d21280000000000000000000000000000aa
:2021350000000000000000000000000000000000000000000000000000000000000000008a
:20215500000000000000000000000000000000000000001c31c900028000000000000000d2
:2021750000000000000000000000000000000000000000000000000000000000000000004a
:0d219500000000000000000000000000003d
:2021a20000000000000000000000000000000000000000000000000000000000000000001d
:2021c20000000000000000000000000000000000000c0024000000000000000000000000cd
:2021e2000000000000000000000000000000000000000000000000000000000000000000dd
:0d22020000000000000000000000000000cf
:20220f000000000000000000000000000000000000000000000000000000000000000000af
:20222f00000000000000000000000000000000000004001c01490000000000000000000025
:20224f0000000000000000000000000000000000000000000000000000000000000000006f
:0d226f000000000000000000000000000062
:20227c00000000000000000000000000000000000000000000000000000000000000000042
:20229c000000000000000000000000000000000000010004200000005000000000000000ad
:2022bc00000000000000000000000000000000000000000000000000000000000000000002
:0d22dc0000000000000000000000000000f5
:2022e9000000000000000000000000000000000000000000000000000000000000000000d5
:2023090000000000000000000000000000000000000010044340000180000000000000009c
:20232900000000000000000000000000000000000000000000000000000000000000000094
:0d2349000000000000000000000000000087
:20235600000000000000000000000000000000000000000000000000000000000000000067
:2023760000000000000000000000000000000000000e000000000000000000000000000039
:20239600000000000000000000000000000000000000000000000000000000000000000027
:0d23b600000000000000000000000000001a
:2023c3000000000000000000000000000000000000000000000000000000000000000000fa
:2023e300000000000000000000000000000000000000000002400000000000000000000098
:202403000000000000000000000000000000000000000000000000000000000000000000b9
:0d24230000000000000000000000000000ac
:2024300000000000000000000000000000000000000000000000000000000000000000008c
:2024500000000000000000000000000000000000000001002000000000000000000000004b
:2024700000000000000000000000000000000000000040000000000000000000000000000c
:0d249000000000000000000000000000003f
:20249d0000000000000000000000000000000000000000000000000000000000000000001f
:2024bd00000000000000000000000000000000000000008074c000028000000000000000c9
:2024dd000000000000000000000000000000000000000000000000000000000000000000df
:0d24fd0000000000000000000000000000d2
:20250a000000000000000000000000000000000000000000000000000000000000000000b1
:20252a00000000000000000000000000000000000000000020000000000000000000000071
:20254a00000000000000000000000000000000000000000000000000000000000000000071
:0d256a000000000000000000000000000064
:20257700000000000000000000000000000000000000000000000000000000000000000044
:2025970000000000000000000000000000000000000000007ec000000000000000000000e6
:2025b700000000000000000000000000000000000000000000000000000000000000000004
:0d25d70000000000000000000000000000f7
:2025e4000000000000000000000000000000000000000000000000000000000000000000d7
:2026040000000000000000000000000000000000000000207b4004000000000000000000d7
:20262400000000000000000000000000000000000000000000000000000000000000000096
:0d2644000000000000000000000000000089
:20265100000000000000000000000000000000000000000000000000000000000000000069
:202671000000000000000000000000000000000000000a3443600000000000000000000068
:20269100000000000000000000000000000000000000000000000000000000000000000029
:0d26b100000000000000000000000000001c
:2026be000000000000000000000000000000000000000000000000000000000000000000fc
:2026de00000000000000000000000000000000000000002000010013800000000000000028
:2026fe000000000004000000000000040000000000000000000000000000000000000000b4
:0d271e0000000000000000000000000000ae
:20272b0000000000000000000000000000000000000000000000000000000000000000008e
:20274b00000000000000000000000000000000000000003c03cb000800000000000000005c
:20276b0000000000000000000000000200000000000000000000000000000000000000004c
:0d278b000000000000000000000000000041
:20279800000000000000000000000000000000000000000000000000000000000000000021
:2027b8000000000000000000000000000000000000000100060000005000000000000000aa
:2027d8000000000004000000000000020000000000000000000000000100000000000000da
:0d27f80000000000000000000000000000d4
:202805000000000000000000000000000000000000000000000000000000000000000000b3
:2028250000000000000000000000000000000000000000003cc8000000000000000000008f
:2028450000000000000000000000000400000000000000000000000000000000000000006f
:0d2865000000000000000000000000000066
:20287200000000000000000000000000000000000000000000000000000000000000000046
:2028920000000000000000000000000000000000000c002e000100100000000000000000db
:2028b200000000000000000000000000000000000000000000000000000000000000000006
:0d28d20000000000000000000000000000f9
:2028df000000000000000000000000000000000000000000000000000000000000000000d9
:2028ff0000000000000000000000000000000000000c000e004e0028000000000000000029
:20291f00000000000000000000000000000000000000000000000000000000000000000098
:0d293f00000000000000000000000000008b
:20294c0000000000000000000000000000000000000000000000000000000000000000006b
:20296c000000000000000000000000000000000000001040000000000000000000000000fb
:20298c0000000000000000000000000000000000000000000000000000000000000000002b
:0d29ac00000000000000000000000000001e
:2029b9000000000000000000000000000000000000000000000000000000000000000000fe
:2029d90000000000000000000000000000000000000010000340000000000000000000008b
:2029f9000000000000000000000000000000000000000000000000000000000000000000be
:0d2a190000000000000000000000000000b0
:202a2600000000000000000000000000000000000000000000000000000000000000000090
:202a460000000000000000000000000000000000000e102e02000010000000000000000012
:202a660000000000000000000000000000000000000000000000000001000000000000004f
:0d2a86000000000000000000000000000043
:202a9300000000000000000000000000000000000000000000000000000000000000000023
:202ab300000000000000000000000000000000000000103e0140000800000000000000006c
:202ad3000000000000000000000000000000000000000000000000000000000000000000e3
:0d2af30000000000000000000000000000d6
:202b00000000000000000000000000000000000000000000000000000000000000000000b5
:202b2000000000000000000000000000000000000000000020000020000000000000000055
:202b4000000000000000000000000000000000000000000000000000010000000000000074
:0d2b60000000000000000000000000000068
:202b6d00000000000000000000000000000000000000000000000000000000000000000048
:202b8d00000000000000000000000000000000000000001c03c00000000000000000000049
:202bad00000000000000000000000000000000000000000000000000000000000000000008
:0d2bcd0000000000000000000000000000fb
:202bda000000000000000000000000000000000000000000000000000000000000000000db
:202bfa000000000000000000000000000000000000000000000000000000000000000000bb
:202c1a0000000000000000000000000000000000000000000000000000000000000000009a
:0d2c3a00000000000000000000000000008d
:202c470000000000000000000000000000000000000000000000000000000000000000006d
:202c6700000000000000000000000000000000000000000c254000000000000000000000dc
:202c870000000000000000000000000000000000000000000000000000000000000000002d
:0d2ca7000000000000000000000000000020
:202cb400000000000000000000000000000000000000000000000000000000000000000000
:202cd400000000000000000000000000000000000000000022c0400050000000000000006e
:202cf4000000000000000000000000000000000000000000000000000000000000000000c0
:0d2d140000000000000000000000000000b2
:202d2100000000000000000000000000000000000000000000000000000000000000000092
:202d4100000000000000000000000000000000000000000003e0000000000000000000008f
:202d6100000000000000000000000000000000000000000000000000000000000000000052
:0d2d81000000000000000000000000000045
:202d8e00000000000000000000000000000000000000000000000000000000000000000025
:202dae00000000000000000000000000000000000000001e72010000000000000000000074
:202dce000000000000000000000000000000000000000000000000000000000000000000e5
:0d2dee0000000000000000000000000000d8
:202dfb000000000000000000000000000000000000000000000000000000000000000000b8
:202e1b0000000000000000000000000000000000000000004348000000000000000000000c
:202e3b00000000000000000000000000000000000000000000000000000000000000000077
:0d2e5b00000000000000000000000000006a
:202e680000000000000000000000000000000000000000000000000000000000000000004a
:202e8800000000000000000000000000000000000000001c7200000040000000000000005c
:202ea80000000000000000000000000000000000000000000000000000000000000000000a
:0d2ec80000000000000000000000000000fd
:202ed5000000000000000000000000000000000000000000000000000000000000000000dd
:202ef500000000000000000000000000000000000000000041ce000020000000000000008e
:202f150000000000000000000000000000000000000000000000000000000000000000009c
:0d2f3500000000000000000000000000008f
:202f420000000000000000000000000000000000000000000000000000000000000000006f
:202f62000000000000000000000000000000000000040004720100000000000000000000d4
:202f820000000000010000000000000000000000000000000000000000000000000000002e
:0d2fa2000000000000000000000000000022
:202faf00000000000000000000000000000000000000000000000000000000000000000002
:202fcf00000000000000000000000000000000000004000202cc000000000000000000000e
:202fef00000000000080000000000000000000000000000000000000000000000000000042
:0d300f0000000000000000000000000000b4
:20301c00000000000000000000000000000000000000000000000000000000000000000094
:20303c0000000000000000000000000000000000000080047a00000800000000000000006e
:20305c00000000000000000000000000000000000000000000000000000000000000000054
:0d307c000000000000000000000000000047
:20308900000000000000000000000000000000000000000000000000000000000000000027
:2030a900000000000000000000000000000000000000100000c000128000000000000000a5
:2030c9000000000000000000000000000000000000000000000000000000000000000000e7
:0d30e90000000000000000000000000000da
:2030f6000000000000000000000000000000000000000000000000000000000000000000ba
:2031160000000000000000000000000000000000000e000002000000200000000000000069
:20313600000000000000000000000000000000000000000000000000010000000000000078
:0d315600000000000000000000000000006c
:2031630000000000000000000000000000000000000000000000000000000000000000004c
:20318300000000000000000000000000000000000000000c02c0000050000000000000000e
:2031a30000000000000000000000000000000000000000000000000001000000000000000b
:0d31c30000000000000000000000000000ff
:2031d0000000000000000000000000000000000000000000000000000000000000000000df
:2031f000000000000000000000000000000000000000204026000020000000000000000019
:20321000000000000000000000000000040000000000400000000000010000000000000059
:0d3230000000000000000000000000000091
:20323d00000000000000000000000000000000000000000000000000000000000000000071
:20325d00000000000000000000000000000000000000020078400000000000000000000097
:20327d00000000000000000000000000000000000000000000000000000000000000000031
:0d329d000000000000000000000000000024
:2032aa00000000000000000000000000000000000000000000000000000000000000000004
:2032ca00000000000000000000000000000000000000000e22000013800000000000000021
:2032ea000000000000000000000000000000000000000000000000000000000000000000c4
:0d330a0000000000000000000000000000b6
:20331700000000000000000000000000000000000000000000000000000000000000000096
:203337000000000000000000000000000000000000000002274000280000000000000000e5
:20335700000000000000000000000000000000000000000000000000000000000000000056
:0d3377000000000000000000000000000049
:20338400000000000000000000000000000000000000000000000000000000000000000029
:2033a400000000000000000000000000000000000000001e73400000100000000000000028
:2033c4000000000000000000000000000000000000000000000000000000000000000000e9
:0d33e40000000000000000000000000000dc
:2033f1000000000000000000000000000000000000000000000000000000000000000000bc
:2034110000000000000000000000000000000000000000024360080280000000000000006c
:2034310000000000000000000000000000000000000000000000000000000000000000007b
:0d345100000000000000000000000000006e
:20345e0000000000000000000000000000000000000000000000000000000000000000004e
:20347e0000000000000000000000000000000000000000207c000000000000000000000092
:20349e0000000000000000000000000000000000000000000000000000000000000000000e
:0d34be000000000000000000000000000001
:2034cb000000000000000000000000000000000000000000000000000000000000000000e1
:2034eb00000000000000000000000000000000000000003c384d0000000000000000000000
:20350b000000000000000000000000000000000000000000000000000000000000000000a0
:0d352b000000000000000000000000000093
:20353800000000000000000000000000000000000000000000000000000000000000000073
:20355800000000000000000000000000000000000000000000010000000000000000000052
:20357800000000000000000000000000000000000000000000000000000000000000000033
:0d3598000000000000000000000000000026
:2035a500000000000000000000000000000000000000000000000000000000000000000006
:2035c5000000000000000000000000000000000000000000034d0000000000000000000096
:2035e5000000000000000000000000000000000000000000000000000000000000000000c6
:0d36050000000000000000000000000000b8
:20361200000000000000000000000000000000000000000000000000000000000000000098
:20363200000000000000000000000000000000000004000000000010000000000000000064
:20365200000000000000000000000000c80000000000000000000000000000000000000090
:0d367200000000000000000000000000004b
:20367f0000000000000000000000000000000000000000000000000000000000000000002b
:20369f0000000000000000000000000000000000000c000000c9002800000000000000000e
:2036bf000000000000000000000000001400000000000000000000000000000000000000d7
:0d36df0000000000000000000000000000de
:2036ec000000000000000000000000000000000000000000000000000000000000000000be
:20370c000000000000000000000000000000000000003080200000001000000000000000bd
:20372c0000000000000000000000000000000000000000000000000000000000000000007d
:0d374c000000000000000000000000000070
:20375900000000000000000000000000000000000000000000000000000000000000000050
:203779000000000000000000000000000000000000005140664000000000000000000000f9
:20379900000000000000000000000000000000000000000000000000000000000000000010
:0d37b9000000000000000000000000000003
:2037c6000000000000000000000000000000000000000000000000000000000000000000e3
:2037e60000000000000000000000000000000000000e100070000000000000000000000035
:203806000000000000000000000000000000000000000000000000000000000000000000a2
:0d3826000000000000000000000000000095
:20383300000000000000000000000000000000000000000000000000000000000000000075
:20385300000000000000000000000000000000000000100040c00000000000000000000045
:20387300000000000000000000000000000000000000000000000000000000000000000035
:0d3893000000000000000000000000000028
:2038a000000000000000000000000000000000000000000000000000000000000000000008
:2038c000000000000000000000000000000000000000001c78000000000000000000000054
:2038e0000000000000000000000000000000000000000000000000000300000000000000c5
:0d39000000000000000000000000000000ba
:20390d0000000000000000000000000000000000000000000000000000000000000000009a
:20392d00000000000000000000000000000000000000002403400000000000000000000013
:20394d0000000000000000000000000000000000000000000000000000000000000000005a
:0d396d00000000000000000000000000004d
:20397a0000000000000000000000000000000000000000000000000000000000000000002d
:20399a00000000000000000000000000000000000000001e380000030000000000000000b4
:2039ba000000000000000000000000000000000000000000000000000000000000000000ed
:0d39da0000000000000000000000000000e0
:2039e7000000000000000000000000000000000000000000000000000000000000000000c0
:203a0700000000000000000000000000000000000000000241c0000000000000000000009c
:203a270000000000000000000000000000000000000000000000000000000000000000007f
:0d3a47000000000000000000000000000072
:203a5400000000000000000000000000000000000000000000000000000000000000000052
:203a7400000000000000000000000000000000000000041e7a4040200000000000000000f6
:203a9400000000000000000000000000000000000000000000000000000000000000000012
:0d3ab4000000000000000100000000000004
:203ac1000000000000000000000000000000000000000000000000000000000000000000e5
:203ae100000000000000000000000000000000000000080243600002800000000000000096
:203b01000000000000000000000000000000000000000000000000000000000000000000a4
:0d3b21000000000000000000000000000097
:203b2e00000000000000000000000000000000000000000000000000000000000000000077
:203b4e00000000000000000000000000000000000000000e00010010000000000000000038
:203b6e00000000000002000000000000000000000000000000000000000000000000000035
:0d3b8e00000000000000000000000000002a
:203b9b0000000000000000000000000000000000000000000000000000000000000000000a
:203bbb00000000000000000000000000000000000000000202cc0008000000000000000012
:203bdb000000000000040000000000000000000000000000000000000000000000000000c6
:0d3bfb0000000000000000000000000000bd
:203c080000000000000000000000000000000000000000000000000000000000000000009c
:203c28000000000000000000000000000000000000000000020000038000000000000000f7
:203c4800000000000000000000000000a0000000000042000000000000000000000000007a
:0d3c6800000000000000000000000000004f
:203c750000000000000000000000000000000000000000000000000000000000000000002f
:203c950000000000000000000000000000000000000000dc01ca0000000000000000000068
:203cb5000000000000000000000000000000000000000000000000000000000000000000ef
:0d3cd50000000000000000000000000000e2
:203ce2000000000000000000000000000000000000000000000000000000000000000000c2
:203d0200000000000000000000000000000000000004000402000000000000000000000097
:203d2200000000000000000000000000000000000000000000000000000000000000000081
:0d3d42000000000000000000000000000074
:203d4f00000000000000000000000000000000000000000000000000000000000000000054
:203d6f0000000000000000000000000000000000000c1000024a00000000000000000000cc
:203d8f00000000000000000000000000000000000000000000000000000000000000000014
:0d3daf000000000000000080000000000087
:203dbc000000000000000000000000000000000000000000000000000000000000000000e7
:203ddc00000000000000000000000000000000000000404420000000000000000000000023
:203dfc000000000000000000000000000000000000000000000000000000000000000000a7
:0d3e1c000000000000000000000000000099
:203e2900000000000000000000000000000000000000000000000000000000000000000079
:203e490000000000000000000000000000000000000010026740000280000000000000001e
:203e6900000000000000000000000002000000000000000000000000000000000000000037
:0d3e89000000000000000002c0000000006a
:203e960000000000000000000000000000000000000000000000000000000000000000000c
:203eb60000000000000000000000000000000000000e00000000001380000000000000004b
:203ed6000000000000000000000000000000000000000000000000000000000000000000cc
:0d3ef600000007b614000000e0000000000e
:203f030000000000000000000000000000000000000000000000000000000000000000009e
:203f23000000000000000000000000000000000000000024024000280000000000000000f0
:203f430000000000000000000000000000000000000000000000000000000000000000005e
:0d3f63000000032ba800000020000000005b
:203f7000000000000000000000000000000000000000000000000000000000000000000031
:203f9000000000000000000000000000000000000001000020000028500000000000000078
:203fb0000000000000000000000000000000000000004000000000000100000000000000b0
:0d3fd0000000000000000001600000000083
:203fdd000000000000000000000000000000000000000000000000000000000000000000c4
:203ffd000000000000000000000000000000000000000a0040c0000000000000000000009a
:20401d00000000000000000000000000000000000000000000000000000000000000000083
:0d403d000000000000000000000000000076
:20404a00000000000000000000000000000000000000000000000000000000000000000056
:20406a000000000000000000000000000000000000000000020000038000000000000000b1
:20408a00000000000000000000000000000000000000000000000000000000000000000016
:0d40aa000000000000000000000000000009
:2040b7000000000000000000000000000000000000000000000000000000000000000000e9
:2040d70000000000000000000000000000000000000000003cc000000000000000000000cd
:2040f7000000000000000000000000000000000000000000000000000000000000000000a9
:0d41170000b00000000000004000000000ab
:2041240000000000000000000000000000000000000000000000000000000000000000007b
:20414400000000000000000000000000000000000000001e72e008201000000000000000b3
:20416400000000000000000000000008000000000000000000000000000000000000000033
:0d41840000f000000000000000178a70002d
:2041910000000000000000000000000000000000000000000000000000000000000000000e
:2041b100000000000000000000000000000000000000002e00600000000000000000000060
:2041d1000000000000000000000000000000000000000000000000000000000000000000ce
:0d41f10000b0000000000000001485120066
:2041fe000000000000000000000000000000000000000000000000000000000000000000a1
:20421e00000000000000000000000000000000000000003e20010000000000000000000021
:20423e0000000000000000000000000400000000000000000000000000000000000000005c
:0d425e000000000000000000000000000053
:20426b00000000000000000000000000000000000000000000000000000000000000000033
:20428b00000000000000000000000000000000000000001c40cb00000000000000000000ec
:2042ab000000000000000000000000020000000000000000000000000000000000000000f1
:0d42cb0000000000000000000000000000e6
:2042d8000000000000000000000000000000000000000000000000000000000000000000c6
:2042f8000000000000000000000000000000000000000100020000000000000000000000a3
:20431800000000000000000000000000000000000000000000000000000000000000000085
:0d4338000000000000000000000000000078
:20434500000000000000000000000000000000000000000000000000000000000000000058
:20436500000000000000000000000000000000000000000000c9000000000000000000006f
:20438500000000000000000000000000000000000000000000000000000000000000000018
:0d43a500000000000000000000000000000b
:2043b2000000000000000000000000000000000000000000000000000000000000000000eb
:2043d20000000000000000000000000000000000000c000e000000000000000000000000b1
:2043f2000000000000000000000000000000000000000000000000000000000000000000ab
:0d4412000078000000000000000000000025
:20441f0000000000000000000000000000000000000000000000000000000000000000007d
:20443f0000000000000000000000000000000000000c1002004d00040000000000000000ee
:20445f000000000000400000000000010000000000000400000000000010000000000000e8
:0d447f0040000000000001000000000000ef
:20448c00000000000000000000000000000000000000000000000000000000000000000010
:2044ac00000000000000000000000000000000000000100078000008000000000000000060
:2044cc000000000000000000000000000000000000000000000000000000000000000000d0
:0d44ec0000000000000002000000000000c1
:2044f9000000000000000000000000000000000000000000000000000000000000000000a3
:2045190000000000000000000000000000000000000010804340001000000000000000005f
:20453900000000000000000000000000000000000000000000000000000000000000000062
:0d4559000000000000000400000000000051
:20456600000000000000000000000000000000000000000000000000000000000000000035
:2045860000000000000000000000000000000000000e100e000000000000000000000000e9
:2045a6000000000000000000000000000800000000000000000000000000000000000000ed
:0d45c60000000000000000000000000000e8
:2045d3000000000000000000000000000000000000000000000000000000000000000000c8
:2045f300000000000000000000000000000000000000103e01c00000000000000000a000f9
:20461300000000000000000000000000140000000000000000000000000000000000000073
:0d463300000000000000000000000000007a
:2046400000000000000000000000000000000000000000000000000000000000000000005a
:20466000000000000000000000000000000000000001000022000000000000000000000017
:204680000000000000000000000000000000000000004000000000000200000000000004d4
:0d46a000000000000000000000000000000d
:2046ad000000000000000000000000000000000000000000000000000000000000000000ed
:2046cd00000000000000000000000000000000000000001c3ec000100000000000000000a3
:2046ed000000000000000000000000000000000000000000000000000000000000000000ad
:0d470d00000000000000000000000000009f
:20471a0000000000000000000000000000000000000000000000000000000000000000007f
:20473a00000000000000000000000000000000000000000000000028000000000000000037
:20475a00000000000000000000000000c00000000000100000000000000c00000000000063
:0d477a000000000000000000000000000032
:20478700000000000000000000000000000000000000000000000000000000000000000012
:2047a7000000000000000000000000000000000000000000014000100000000000000000a1
:2047c7000000000000000000000000000000000000002800000000000000000000000000aa
:0d47e70000000000000000000000000000c5
:2047f4000000000000000000000000000000000000000000000000000000000000000000a5
:20481400000000000000000000000000000000000000000003400000100000000000000031
:20483400000000000000000000000000000000000000000000000000000000000000000064
:0d4854000000000000000000000000000057
:20486100000000000000000000000000000000000000000000000000000000000000000037
:20488100000000000000000000000000000000000000000003e0080000000000000000002c
:2048a1000000000000000000000000000000000000000000000000000000000000000000f7
:0d48c10000000000000000000000000000ea
:2048ce000000000000000000000000000000000000000000000000000000000000000000ca
:2048ee00000000000000000000000000000000000000000074010000000000000000000035
:20490e00000000000000000000000000000000000000000000000000000000000000000089
:0d492e00000000000000000000000000007c
:20493b0000000000000000000000000000000000000000000000000000000000000000005c
:20495b00000000000000000000000000000000000000000072480000000000000000000082
:20497b0000000000028000000000000000000000000000000000000000000000000000009a
:0d499b0000000000000000e000000000002f
:2049a8000000000000000000000000000000000000000000000000000000000000000000ef
:2049c80000000000000000000000000000000000000000003a000000000000000000000095
:2049e80000000000008000000000000000000000000000000000000000000000000000002f
:0d4a080000000000000000000000000000a1
:204a1500000000000000000000000000000000000000000000000000000000000000000081
:204a3500000000000000000000000000000000000000003c01cf0010000000000000000045
:204a5500000000000100000000000000000000000000000000000000000000000000000040
:0d4a75000000000000000000000000000034
:204a8200000000000000000000000000000000000000000000000000000000000000000014
:204aa200000000000000000000000000000000000004002472010010000000000000000049
:204ac2000000000000000000000000000000000000001000000000000000000000000000c4
:0d4ae2003000000000000000000000000097
:204aef000000000000000000000000000000000000000000000000000000000000000000a7
:204b0f00000000000000000000000000000000000004003e02ce000800000000000000006c
:204b2f0000000000000000000000000000000000000008000000000000000000000000005e
:0d4b4f000000000000000000000000000059
:204b5c00000000000000000000000000000000000000000000000000000000000000000039
:204b7c0000000000000000000000000000000000000080043a000003000000000000000058
:204b9c000000000000000000000000000000000000000200000000000000000000000000f7
:0d4bbc0000000000000000000000000000ec
:204bc9000000000000000000000000000000000000000000000000000000000000000000cc
:204be900000000000000000000000000000000000000100240c0000000000000000000009a
:204c090000000000000000000000000000000000000000000000000000000000000000008b
:0d4c2900000000000000000000000000007e
:204c360000000000000000000000000000000000000000000000000000000000000000005e
:204c560000000000000000000000000000000000000e0000000000018000000000000000af
:204c760000000000000000000000000000000000000000000000000000000000000000001e
:0d4c96000000000000000000000000000011
:204ca3000000000000000000000000000000000000000000000000000000000000000000f1
:204cc300000000000000000000000000000000000000001c01c000000000000000000000f4
:204ce3000000000000000000000000000000000000000000000000000000000000000000b1
:0d4d030000000000000000000000000000a3
:204d1000000000000000000000000000000000000000000000000000000000000000000083
:204d3000000000000000000000000000000000000001014400000008000000000000000015
:204d5000000000000000000000000000b4000000000040000000000000000000000000004f
:0d4d700000000000000000800000000000b6
:204d7d00000000000000000000000000000000000000000000000000000000000000000016
:204d9d00000000000000000000000000000000000001400201400002000000000000000070
:204dbd000000000000000000000000000000000000000000000000000000000000000000d6
:0d4ddd0000000000000000000000000000c9
:204dea000000000000000000000000000000000000000000000000000000000000000000a9
:204e0a00000000000000000000000000000000000000000022000000200000000000000046
:204e2a000000000000000000000000040000000000000380000000000000000000000000e1
:0d4e4a00000000000000000000000000005b
:204e570000000000000000000000000000000000000000000000000000000000000000003b
:204e7700000000000000000000000000000000000000000067400003400000000000000031
:204e970000000000000000000000000a0000000000000000000000000000000000000000f1
:0d4eb70000000000000000000000000000ee
:204ec4000000000000000000000000000000000000000000000000000000000000000000ce
:204ee400000000000000000000000000000000000000008005c02000400000000000000009
:204f040000000000000000000000000000000000000000000000000000000000000000008d
:0d4f2400040000000000000000000000007c
:204f3100000000000000000000000000000000000000000000000000000000000000000060
:204f510000000000000000000000000000000000000000003ee00000200000000000000002
:204f7100000000000000000000000000000000000000000000000000000000000000000020
:0d4f91000200000000000000000000000011
:204f9e000000000000000000000000000000000000000000000000000000000000000000f3
:204fbe00000000000000000000000000000000000000003e00010011a000000000000000e3
:204fde000000000000000000000000000000000000000000000000000000000000000000b3
:0d4ffe0000000000000000000000000000a6
:20500b00000000000000000000000000000000000000000000000000000000000000000085
:20502b00000000000000000000000000000000000000001e004e00085000000000000000a1
:20504b00000000000000000000000000000000000000000000000000000000000000000045
:0d506b000000000000000000000000000038
:20507800000000000000000000000000000000000000000000000000000000000000000018
:2050980000000000000000000000000000000000000000207a000008000000000000000056
:2050b8000000000000000000000000000000000000000000000000000000000000000000d8
:0d50d80008000000000000000000000000c3
:2050e5000000000000000000000000000000000000000000000000000000000000000000ab
:20510500000000000000000000000000000000000000003c634f001180000000000000000b
:2051250000000000000000000000000040000000000000000000000000000000000000002a
:0d514500000000000000000000000000005d
:2051520000000000000000000000000000000000000000000000000000000000000000003d
:205172000000000000000000000000000000000000040020020000000000000000000000f7
:2051920000000000000000000000000000000000000003800000000000000000000000007a
:0d51b20000000000000000000000000000f0
:2051bf000000000000000000000000000000000000000000000000000000000000000000d0
:2051df00000000000000000000000000000000000004000c00c900030000000000000000d4
:2051ff00000000000000000000000000000000000000000000000000000000000000000090
:0d521f000000000000000000000000000082
:20522c00000000000000000000000000000000000000000000000000000000000000000062
:20524c000000000000000000000000000000000000003000020000005000000000000000c0
:20526c00000000000000000000000000000000000000000000000000000020014c854000f0
:0d528c00050180000000000000400000004f
:205299000000000000000000000000000000000000000000000000000000000000000000f5
:2052b900000000000000000000000000000000000000500003400000100000000000000032
:2052d900000000000001000000000000000000000000004000000000000004007e80010071
:0d52f9000000000000000000034000000065
:20530600000000000000000000000000000000000000000000000000000000000000000087
:2053260000000000000000000000000000000000000e102c70000028200000000000000065
:205346000000000000200000000000008000000000000000010000000e0000000000003860
:0d53660038700d3a054000000034f850008a
:2053730000000000000000000000000000000000000000000000000000000000000000001a
:205393000000000000000000000000000000000000001c1e41400010500000000000a0003f
:2053b30000000000000000000000000000000000000000000e0000000000242c000000007c
:0d53d30000d8e1b940440000001efea0001b
:2053e0000000000000000000000000000000000000000000000000000000000000000000ad
:20540000000000000000000000000000000000000000001c38000000000000000000000038
:20542000000000000000000000000000a00000000000000000000000000000014c8560009a
:0d5440000200edbe0546000163c000000043
:20544d0000000000000000000000000000000000000000000000000000000000000000003f
:20546d00000000000000000000000000000000000000000e014000020000000000000000ce
:20548d0000000000000000000000000000000000000000000000000000001c22fc80000045
:0d54ad001900b5e54040100002800000002d
:2054ba000000000000000000000000000000000000000000000000000000000000000000d2
:2054da0000000000000000000000000000000000000000163a000000000000000000000062
:2054fa00000000000000000000000000000000000000298000000000000c0005dda140809a
:0d551a00007015ba15000000000000000030
:20552700000000000000000000000000000000000000000000000000000000000000000064
:20554700000000000000000000000000000000000000000201c0000300000000000000007e
:20556700000000000000000000000000000000000000100000000000000000236f4201003f
:0d5587000008d96e00440080000000000004
:205594000000000000000000000000000000000000000000000000000000000000000000f7
:2055b400000000000000000000000000000000000000200002e000000000000000000000d5
:2055d40000000000000500000000000000000000000000000000000000000e27cc77010039
:0d55f4001000a00000000040638ea77010a2
:20560100000000000000000000000000000000000000000000000000000000000000000089
:205621000000000000000000000000000000000000000200016080108000000000000000f6
:2056410000000000000000000000000000000000000000000a000000000014606ddd000081
:0d566100000100000000000002edadd000cf
:20566e0000000000000000000000000000000000000000000000000000000000000000001c
:20568e00000000000000000000000000000000000000014e7a010000000000000001000031
:2056ae0000000000000000000000000000000000000000051a000000000034600000000029
:0d56ce0000001d7a056400014004ea700030
:2056db000000000000000000000000000000000000000000000000000000000000000000af
:2056fb000000000000000000000000000000000000000082004c00000000000000010000c0
:20571b0000000000000000000000000000000000000028000000000000002c00000000001a
:0d573b00000081b540000000200ed51000d8
:20574800000000000000000000000000000000000000000000000000000000000000000041
:2057680000000000000000000000000000000000000080000200000000000000000000009f
:205788000000000000000000000000000000000000004000003f5dc0200014675b81488026
:0d57a8000099d9fe15040000e0000000008b
:2057b5000000000000000000000000000000000000000000000000000000000000000000d4
:2057d500000000000000000000000000000000000000003c01cb00000000000000000000ac
:2057f500000000000000000000000000000000000000000000b6774000000037d9502100a6
:0d58150000b18b62002000002000000000a8
:20582200000000000000000000000000000000000000000000000000000000000000000066
:205842000000000000000000000000000000000000040004020000000040000000000000fc
:2058620000000000000000000000000000000000000000000000000001000e7fff85408054
:0d58820000181000000000000000000000f1
:20588f000000000000000000000000000000000000000000000000000000000000000000f9
:2058af00000000000000000000000000000000000004001c024e00038000000000000000e6
:2058cf0000000000000000000000000000000000000000000000000001000032ec8000001a
:0d58ef000000c000000000024200000000a8
:2058fc0000000000000000000000000000000000000000000000000000000000000000008c
:20591c0000000000000000000000000000000000000000000000004000000000000000002b
:20593c000000000000000000000000000000000000000000005ae05420002604c896804055
:0d595c000000a7225a00000000000000001b
:2059690000000000000000000000000000000000000000000000000000000000000000001e
:205989000000000000000000000000000000000000001a800340004280000000000000005f
:2059a900000000000000000000000000000000000000000009bad400400016242096020411
:0d59c90000000082584900000000000000ae
:2059d6000000000000000000000000000000000000000000000000000000000000000000b1
:2059f60000000000000000000000000000000000000e00040200002800000000000006004f
:205a160000000000000000000000000008000000000380500ef61dc0200000004896a00016
:0d5a3600000003225a8000e0000000000084
:205a4300000000000000000000000000000000000000000000000000000000000000000043
:205a6300000000000000000000000000000000000000002624400013000000000000000086
:205a830000000000000000000000000004000000000000290fbb37400000000000960000ff
:0d5aa3000000b00258010001c0000000002a
:205ab0000000000000000000000000000000000000000000000000000000000000000000d6
:205ad000000000000000000000000000000000000001000430000000000000000000000081
:205af0000000000000000000000000000200341000004008005be0582001000048968042b4
:0d5b1000000001225a800000003dba700024
:205b1d00000000000000000000000000000000000000000000000000000000000000000068
:205b3d000000000000000000000000000000000000000800254000000000000000000000db
:205b5d0000000000000000000000001003c014e42100005100bfd402000080000096000040
:0d5b7d000000008258000000039cd51000bd
:205b8a000000000000000000000000000000000000000000000000000000000000000000fb
:205baa0000000000000000000000000000000000000000000000004000000000000000009b
:205bca0000000000000000000000000a61e00000000000010ebf5dc0000146016896a0009f
:0d5bea00020001a25a800000060000000029
:205bf70000000000000000000000000000000000000000000000000000000000000000008e
:205c17000000000000000000000000000000000000000c3c02c00040000000000000000023
:205c370000000000000000000000000414200000000000001976774010008228009600007f
:0d5c57000400a08258000001c00000000001
:205c6400000000000000000000000000000000000000000000000000000000000000000020
:205c8400000000000000000000000000000000000000a01c7be00040100000000000000099
:205ca40000000000000000000000000200000000000000010b00000000000078e89680005c
:0d5cc400808005a25a04020040000000008c
:205cd1000000000000000000000000000000000000000000000000000000000000000000b3
:205cf100000000000000000000000000000000000000000240402011800000000000000060
:205d110000000000000000000000000000000000000000008c00000000000000009601014e
:0d5d310000900082580400002000000000d7
:205d3e00000000000000000000000000000000000000000000000000000000000000000045
:205d5e00000000000000000000000000000000000000015e0601000020000000000000009f
:205d7e00000000000000000000000000000000000000100b9adfa05040001c0048968000c7
:0d5d9e00020007a25a0000004000000000b3
:205dab000000000000000000000000000000000000000000000000000000000000000000d8
:205dcb00000000000000000000000000000000000000009e3cca00085000000000000000bc
:205deb000000000000000000000000000000000000002b050f335408000c00002096008286
:0d5e0b00047000825880000002400000007a
:205e180000000000000000000000000000000000000000000000000000000000000000006a
:205e380000000000000000000000000000000000000000000201002800000000000000001f
:205e580000000000040000000000000000000000000000000b3be14620001e0168968000fc
:0d5e7800000017a25a00000bc02fba7000e6
:205e85000000000000000000000000000000000000000000000000000000000000000000fd
:205ea500000000000000000000000000000000000000020002c9002180000000000000006f
:205ec50000000000000000000000000000000000000000010892600040000000209600804c
:0d5ee5000000900258050003c034f51000c5
:205ef200000000000000000000000000000000000000000000000000000000000000000090
:205f120000000000000000000000000000000000000c014000000000200000000000000002
:205f320000000000000000000000000001600000000000119a000000008e0001c8968000d6
:0d5f5200000183a25a840009639d8850005d
:205f5f00000000000000000000000000000000000000000000000000000000000000000022
:205f7f0000000000000000000000000000000000000400a4034c00004000000000000000cb
:205f9f000000000000000000000000000000000000000325000000000040000000960000e4
:0d5fbf003091000258000014000cbea0003c
:205fcc000000000000000000000000000000000000000000000000000000000000000000b5
:205fec00000000000000000000000000000000000000100020000000000000000000000065
:20600c0000000000000000000000000002006c0a56080000003816900000a0016896a00081
:0d602c000000a1225a00100000000000003a
:20603900000000000000000000000000000000000000000000000000000000000000000047
:20605900000000000000000000000000000000000000100043400000000000000000000094
:206079000000000000000000000000000043f6899014000000d80020100a040020960400d1
:0d6099000001e0825810100002800000009d
:2060a6000000000000000000000000000000000000000000000000000000000000000000da
:2060c60000000000000000000000000000000000000e100e0000038001000000000000000a
:2060e6000000000038000000000000e0000000000003a000000000000e0020606896a03b78
:0d610600b271e1a25a00e00000241a54001a
:2061130000000000000000000000000000000000000000000000000000000000000000006c
:20613300000000000000000000000000000000000000100201c00000008000000000a00059
:2061530000000000000000000000000000000000000010000000000000003c6400960000e6
:0d6173000400b082584000000036f9900092
:206180000000000000000000000000000000000000000000000000000000000000000000ff
:2061a00000000000000000000000000000000000000100002000000000000000000000803e
:2061c00000000000000000000000005400000000000300000a0000000001000168968004da
:0d61e0000000a1a25a01c000000000000054
:2061ed00000000000000000000000000000000000000000000000000000000000000000092
:20620d00000000000000000000000000000000000001000c01c000000000000000000000a3
:20622d00000000000000000000000050a000000000034000100000000000800000960004f4
:0d624d00000000025804d000000000000016
:20625a00000000000000000000000000000000000000000000000000000000000000000024
:20627a000000000000000000000000000000000000000000060000000000000000000000fe
:20629a00000000000001000073c1070000078000000000110000000000040005e896800405
:0d62ba00040013225a000000000000000044
:2062c7000000000000000000000000000000000000000000000000000000000000000000b7
:2062e700000000000000000000000000000000000000001c3d4000000000000000000000fe
:20630700000000000002000043c0000000040000000003a0800000000006b42000960006d4
:0d6327000000a0825800000002800000006d
:20633400000000000000000000000000000000000000000000000000000000000000000049
:206354000000000000000000000000000000000000000020004004000000063c164000002d
:2063740000000000008000000000000004028000000000000000000000200001c8968040c4
:0d639400800007a25a8004000000000000f5
:2063a1000000000000000000000000000000000000000000000000000000000000000000dc
:2063c100000000000000000000000000000000000000002c00e000000000003c0200000072
:2063e1000000000000000000000000000000000000000000000000000040000000960001c5
:0d6401000000b082580008000000000000fc
:20640e0000000000000000000000000000000000000000000000000000000000000000006e
:20642e00000000000000000000000000000000000000001c0201000000000000000000002f
:20644e0000000000000000100000000002000000000000000800000000000071e896000025
:0d646e00300017225804000000000000005c
:20647b00000000000000000000000000000000000000000000000000000000000000000001
:20649b00000000000000000000000000000000000000002403480000000000000000000072
:2064bb0000000000000000c00000000000c0000000000300100000000000004020960840f0
:0d64db00000080825800000000000000005a
:2064e800000000000000000000000000000000000000000000000000000000000000000094
:20650800000000000000000000000000000000000000000e02010000000000000000000062
:2065280000000000000000000000000000000000000010201c0000000000006efa81488056
:0d6548000581efe215040a000700000000c5
:20655500000000000000000000000000000000000000000000000000000000000000000026
:20657500000000000000000000000000000000000000003c01cf00100000000000000000ea
:20659500000000000000000000000000000000000000018010000000000024267850210022
:0d65b50000100b6e0020040000000000002c
:2065c2000000000000000000000000000000000000000000000000000000000000000000b9
:2065e20000000000000000000000000000000000000c00043a00002000000000000000002f
:206602000000000000000000000000c00000000000010000000000000001067bde770000e0
:0d66220038001525dc0000000040000000dd
