:02000000ff00ff
:080002004c6174746963650030
:17000a00694345637562653220323031342e30342e32363432350073
:16002100506172743a2069434534304858384b2d435432353600ff
:1b003700446174653a204d617220313520323031352031363a32333a33320083
:0200520000ffad
:040054007eaa997e69
:02005800510055
:02005a0001059e
:03005c00920020ef
:03005f00620367d2
:0300620072011018
:0300650082000016
:02006800110085
:02006a00010192
:20006c00000000000000000000000000000000000000000000000000000000000000000074
:20008c00000000000000000000000000000000000000000000000000000000000000000054
:2000ac00000000000000000000000000000000000000000000000000000000000000000034
:0d00cc000000000000000000000000000027
:2000d900000000000000000000000000000000000000000000000000000000000000000007
:2000f9000000000000000000000000000000000000000000000000000000000000000000e7
:200119000000000000000000000000000000000000000000000000000000000000000000c6
:0d01390000000000000000000000000000b9
:20014600000000000000000000000000000000000000000000000000000000000000000099
:20016600000000000000000000000000000000000000000000000000000000000000000079
:200186000000000000000000000000000000000000000000c0000000000000000000000099
:0d01a6000000000000000400000000000048
:2001b30000000000000000000000000000000000000000000000000000000000000000002c
:2001d30000000000000000000000000000000000000000000000000000000000000000000c
:2001f3000000000000000000000000000000000000000002000000000000000000000000ea
:0d02130000000000000000000000000000de
:200220000000000000000000000000000000000000000000000000000000000000000000be
:2002400000000000000000000000000000000000000000000000000000000000000000009e
:2002600000000000000000000000000000000000000000000000000000000000000000007e
:0d0280000000000000000000000000000071
:20028d00000000000000000000000000000000000000000000000000000000000000000051
:2002ad00000000000000000000000000000000000000000000000000000000000000000031
:2002cd00000000000000000000000000000000000000000000000000000000000000000011
:0d02ed000000000000000000000000000004
:2002fa000000000000000000000000000000000000000000000000000000000000000000e4
:20031a000000000000000000000000000000000000000000000000000000000000000000c3
:20033a000000000000000000000000000000000000000000000000000000000000000000a3
:0d035a000000000000000000000000000096
:20036700000000000000000000000000000000000000000000000000000000000000000076
:20038700000000000000000000000000000000000000000000000000000000000000000056
:2003a700000000000000000000000000000000000000000000000000000000000000000036
:0d03c7000000000000000000000000000029
:2003d400000000000000000000000000000000000000000000000000000000000000000009
:2003f4000000000000000000000000000000000000000000000000000000000000000000e9
:200414000000000000000000000000000000000000000000000000000000000000000000c8
:0d04340000000000000000000000000000bb
:2004410000000000000000000000000000000000000000000000000000000000000000009b
:2004610000000000000000000000000000000000000000000000000000000000000000007b
:2004810000000000000000000000000000000000000000000000000000000001000000005a
:0d04a100000000000000000000000000004e
:2004ae0000000000000000000000000000000000000000000000000000000000000000002e
:2004ce0000000000000000000000000000000000000000000000000000000000000000000e
:2004ee000000000000000000000000000000000000000000000030000000000100000000bd
:0d050e0000000400000000000000000000dc
:20051b000000000000000000000000000000000000000000000000000000000000000000c0
:20053b000000000000000000000000000000000000000000000000000000000000000000a0
:20055b0000000000000000000000000000000000000000000000100000000003000000006d
:0d057b000000000000000000000000000073
:20058800000000000000000000000000000000000000000000000000000000000000000053
:2005a800000000000000000000000000000000000000000000000000000000000000000033
:2005c800000000000000000000000000000000000000000000000000000000010000000012
:0d05e80000000800000000000010000000ee
:2005f5000000000000000000000000000000000000000000000000000000000000000000e6
:200615000000000000000000000000000000000000000000000000000000000000000000c5
:200635000000000000000000000000000000000000000000000000000000000000000000a5
:0d0655000000040000000000000000000094
:20066200000000000000000000000000000000000000000000000000000000000000000078
:20068200000000000000000000000000000000000000000000000000000000000000000058
:2006a200000000000000000000000000000000000000000000000000000000000000000038
:0d06c200000000000000000000000000002b
:2006cf0000000000000000000000000000000000000000000000000000000000000000000b
:2006ef000000000000000000000000000000000000000000000000000000000000000000eb
:20070f000000000000000000000000000000000000000000000000000000000000000000ca
:0d072f0000000800000000000000000000b5
:20073c0000000000000000000000000000000000000000000000000000000000000000009d
:20075c0000000000000000000000000000000000000000002200000010000000000000004b
:20077c0000000000000000000000000000000000000000000000000000000000000000005d
:0d079c000000000000000000000000000050
:2007a900000000000000000000000000000000000000000000000000000000000000000030
:2007c90000000000000000000000000000000000000010002540000000000000000000009b
:2007e9000000000000000000000000000000000000000000000000000000000000000000f0
:0d08090000000000000000000000000000e2
:200816000000000000000000000000000000000000000000000000000000000000000000c2
:2008360000000000000000000000000000000000000e000400000000000000000000000090
:20085600000000000000000000000000000000000000000000000000000000000000000082
:0d0876000000000000000000000000000075
:20088300000000000000000000000000000000000000000000000000000000000000000055
:2008a300000000000000000000000000000000000000003e00c000000000000000004000f7
:2008c300000000000000000000000000000000000000000000000000000000000000000015
:0d08e3000000000000000000000000000008
:2008f0000000000000000000000000000000000000000000000000000000000000000000e8
:200910000000000000000000000000000000000000000000000000001000000000000000b7
:20093000000000000000000000000000000000000000400000000000000000000000000067
:0d095000000000000000000000000000009a
:20095d0000000000000000000000000000000000000000000000000000000000000000007a
:20097d000000000000000000000000000000000000000000224000000000000000000000f8
:20099d000000000000000000000000000000000000000080000000000000000000000000ba
:0d09bd00000000000000000000000000002d
:2009ca0000000000000000000000000000000000000000000000000000000000000000000d
:2009ea00000000000000000000000000000000000000000420000000000000000000008049
:200a0a00000000000000000000000000c0000000000000000000000000000000000000000c
:0d0a2a0000000000000000000000000000bf
:200a370000000000000000000000000000000000000000000000000000000000000000009f
:200a5700000000000000000000000000000000000000000002c0000000000000000001407c
:200a770000000000000000000000000000000000000000000000000000000000000000005f
:0d0a97000000000000000000000000000052
:200aa400000000000000000000000000000000000000000000000000000000000000000032
:200ac400000000000000000000000000000000000001000421e0000000000000000000000c
:200ae4000000000000000000000000000000000000000000000000000000000000000000f2
:0d0b040000000000000000000000000000e4
:200b11000000000000000000000000000000000000000000000000000000000000000000c4
:200b3100000000000000000000000000000000000000000001c04001800000000000000022
:200b5100000000000000000000000000000000000000000000000000000000000000000084
:0d0b71000000000000000000000000000077
:200b7e00000000000000000000000000000000000000000000000000000000000000000057
:200b9e00000000000000000000000000000000000000000000000000000000000000000037
:200bbe00000000000000000000000000000000000000000000000000000000000000000017
:0d0bde00000000000000000000000000000a
:200beb000000000000000000000000000000000000000000000000000000000000000000ea
:200c0b0000000000000000000000000000000000000000000349000000000000000000007d
:200c2b000000000000000000000000000000000000000000000000000000000000000000a9
:0d0c4b00000000000000000000000000009c
:200c580000000000000000000000000000000000000000000000000000000000000000007c
:200c78000000000000000000000000000000000000000016020100084000000000000000fb
:200c9800000000000400000000000000000000000000000000000000000000000000000038
:0d0cb800000000000000000000000000002f
:200cc50000000000000000000000000000000000000000000000000000000000000000000f
:200ce500000000000000000000000000000000000000000203480010200000000000000072
:200d05000000000000000000000000000000000000000000000000000000000000000000ce
:0d0d250000000000000000000000000000c1
:200d32000000000000000000000000000000000000000000000000000000000000000000a1
:200d520000000000000000000000000000000000000c003c06010000000000000000000032
:200d7200000000000000000000000000000000000000000000000000000000000000000061
:0d0d92000000000000000000000000000054
:200d9f00000000000000000000000000000000000000000000000000000000000000000034
:200dbf0000000000000000000000000000000000000c000e304f000000000000000000007b
:200ddf000000000000000000000000000000000000000000000000000000000000000000f4
:0d0dff0000000000000000000000000000e7
:200e0c000000000000000000000000000000000000000000000000000000000000000000c6
:200e2c00000000000000000000000000000000000000100030000000000000000000000066
:200e4c00000000000000000000000000000000000000000000000000000000000000000086
:0d0e6c000000000000000000000000000079
:200e7900000000000000000000000000000000000000000000000000000000000000000059
:200e9900000000000000000000000000000000000000101c004000000000000000000000cd
:200eb900000000000000000000000000000000000000000000000000000000000000000019
:0d0ed900000000000000000000000000000c
:200ee6000000000000000000000000000000000000000000000000000000000000000000ec
:200f060000000000000000000000000000000000000e101e06000000000000000000000089
:200f26000000000001000000000000000000000000000000000000000100000000000004a5
:0d0f4600000000000000000000000000009e
:200f530000000000000000000000000000000000000000000000000000000000000000007e
:200f7300000000000000000000000000000000000000100c2ec00000000000000000000054
:200f93000000000000800000000000000000000000000000000000000000000000000000be
:0d0fb3000000000000000000000000000031
:200fc000000000000000000000000000000000000000000000000000000000000000000011
:200fe0000000000000000000000000000000000000000000020000000000000000000000ef
:201000000000000000000000000000000000000000000000000000000100000000000004cb
:0d10200000000000000000000000000000c3
:20102d000000000000000000000000000000000000000000000000000000000000000000a3
:20104d00000000000000000000000000000000000000000000c00001800000000000000042
:20106d00000000000000000000000000000000000000000000000000000000000000000063
:0d108d000000000000000000000000000056
:20109a00000000000000000000000000000000000000000000000000000000000000000036
:2010ba00000000000000000000000000000000000000001e000000000000000000000000f8
:2010da000000000000000000000000000000000000000000000000000000000000000000f6
:0d10fa0000000000000000000000000000e9
:201107000000000000000000000000000000000000000000000000000000000000000000c8
:20112700000000000000000000000000000000000000000602400000000000000000000060
:20114700000000000000000000000000000000000000000000000000000000000000000088
:0d116700000000000000000000000000007b
:2011740000000000000000000000000000000000000000000000000000000000000000005b
:201194000000000000000000000000000000000000000000226010000000000000000000a9
:2011b40000000000000000000000000000000000000000000000000000000000000000001b
:0d11d400000000000000000000000000000e
:2011e1000000000000000000000000000000000000000000000000000000000000000000ee
:2012010000000000000000000000000000000000000000000240000000000000000000008b
:201221000000000000000000000000000000000000000000000000000000000000000000ad
:0d12410000000000000000000000000000a0
:20124e00000000000000000000000000000000000000000000000000000000000000000080
:20126e0000000000000000000000000000000000000000043a010000000000000000000021
:20128e0000000000000200000000000000000000000000000000000000000000000000003e
:0d12ae000000000000000000000000000033
:2012bb00000000000000000000000000000000000000000000000000000000000000000013
:2012db000000000000000000000000000000000000000024254c000000000000000000005e
:2012fb000000000000050000000000000000000000000000000000000000000000000000ce
:0d131b0000000000000000000000000000c5
:201328000000000000000000000000000000000000000000000000000000000000000000a5
:20134800000000000000000000000000000000000000002002010000100000000000000052
:20136800000000000000000000000000000000000000000000000000000000000000000461
:0d1388000000000000000000000000000058
:20139500000000000000000000000000000000000000000000000000000000000000000038
:2013b500000000000000000000000000000000000000000c02c80000000000000000000042
:2013d5000000000000000000000000000000000000000000000000000000000000000000f8
:0d13f50000000000000000000000000000eb
:201402000000000000000000000000000000000000000000000000000000000000000000ca
:201422000000000000000000000000000000000000040000000000000000000000000000a6
:2014420000000000000000000000000000000000000000000000000000000000000000008a
:0d146200000000000000000000000000007d
:20146f0000000000000000000000000000000000000000000000000000000000000000005d
:20148f0000000000000000000000000000000000000c000001cd0000000000000000000063
:2014af0000000000000000000000000000000000000000000000000000000000000000001d
:0d14cf000000000000000000000000000010
:2014dc000000000000000000000000000000000000000000000000000000000000000000f0
:2014fc00000000000000000000000000000000000000001c22000020000000000000000072
:20151c000000000000000000000000000000000000000000000000000000000000000000af
:0d153c0000000000000000000000000000a2
:20154900000000000000000000000000000000000000000000000000000000000000000082
:201569000000000000000000000000000000000000001026414000000000000000000000ab
:20158900000000000000000000000000000000000000000000000000000000000000000042
:0d15a9000000000000000000000000000035
:2015b600000000000000000000000000000000000000000000000000000000000000000015
:2015d60000000000000000000000000000000000000e00007a00000000000000000000006d
:2015f600000000000000000000000000e000000000000000000000000000000000000000f5
:0d16160000000000000000000000000000c7
:201623000000000000000000000000000000000000000000000000000000000000000000a7
:20164300000000000000000000000000000000000000000043400000000000000000000004
:20166300000000000000000000000000000000000000000000000000000000000000000067
:0d168300000000000000000000000000005a
:2016900000000000000000000000000000000000000000000000000000000000000000003a
:2016b00000000000000000000000000000000000000000400000002050000000000000006a
:2016d0000000000000000000000000000000000000000000000000000000000000000004f6
:0d16f00000000000000000000000000000ed
:2016fd000000000000000000000000000000000000000000000000000000000000000000cd
:20171d00000000000000000000000000000000000000020027c000000000000000000000c3
:20173d0000000000000000000000000000000000000000000000000000000000000000008c
:0d175d00000000000000000000000000007f
:20176a0000000000000000000000000000000000000000000000000000000000000000005f
:20178a0000000000000000000000000000000000000000040000000000000000000000003b
:2017aa0000000000000000000000000000000000000000000000000000000000000000001f
:0d17ca000000000000000000000000000012
:2017d7000000000000000000000000000000000000000000000000000000000000000000f2
:2017f70000000000000000000000000000000000000000022640000000000000000000006a
:201817000000000000000000000000000000000000000000000000000000000000000000b1
:0d18370000000000000000000000000000a4
:20184400000000000000000000000000000000000000000000000000000000000000000084
:201864000000000000000000000000000000000000002000226004000000000000000000be
:20188400000000000000000000000000000000000000000000000000000000000000000044
:0d18a4000000000000000000000000000037
:2018b100000000000000000000000000000000000000000000000000000000000000000017
:2018d100000000000000000000000000000000000000000001e00000000000000000000016
:2018f1000000000000000000000000000000000000000000000000000000000000000000d7
:0d19110000000000000000000000000000c9
:20191e000000000000000000000000000000000000000000000000000000000000000000a9
:20193e00000000000000000000000000000000000000000000000010000000000000000079
:20195e00000000000000000000000000000000000000000000000000000000000000000069
:0d197e00000000000000000000000000005c
:20198b0000000000000000000000000000000000000000000000000000000000000000003c
:2019ab00000000000000000000000000000000000000001c034d00080000000000000000a8
:2019cb000000000000000000000000000000000000000000000000000000000000000000fc
:0d19eb0000000000000000000000000000ef
:2019f8000000000000000000000000000000000000000000000000000000000000000000cf
:201a1800000000000000000000000000000000000000000e780000085000000000000000d0
:201a380000000000000000000000001000000000000000000000000001000000000000007d
:0d1a58000000000000000000000000000081
:201a6500000000000000000000000000000000000000000000000000000000000000000061
:201a85000000000000000000000000000000000000000000404e00100000000000000000a3
:201aa500000000000000000000000000000000000000000000000000000000000000000021
:0d1ac5000000000000000000000000000014
:201ad2000000000000000000000000000000000000000000000000000000000000000000f4
:201af20000000000000000000000000000000000000c002c0200001000000000000000008a
:201b120000000000003000000000000008000000000000000000000000000000000000007b
:0d1b320000000000000000000000000000a6
:201b3f00000000000000000000000000000000000000000000000000000000000000000086
:201b5f00000000000000000000000000000000000004003e01c80008000000000000000053
:201b7f00000000000000000000000000100000000000000000000000000000000000000036
:0d1b9f000000000000000000000000000039
:201bac00000000000000000000000000000000000000000000000000000000000000000019
:201bcc00000000000000000000000000000000000000500020000000000000000000000089
:201bec000000000000000000000000000000000000000000000000000000000000000000d9
:0d1c0c0000000000000000000000000000cb
:201c19000000000000000000000000000000000000000000000000000000000000000000ab
:201c3900000000000000000000000000000000000000500040c0000000000000000000003b
:201c590000000000000000000000000000000000000000000000000000000000000000006b
:0d1c7900000000000000000000000000005e
:201c860000000000000000000000000000000000000000000000000000000000000000003e
:201ca60000000000000000000000000000000000000e101e7a0000000000000000000080e8
:201cc6000000000001020000000000000000000000000000000000000000000000000000fb
:0d1ce60000000000000000000000000000f1
:201cf3000000000000000000000000000000000000000000000000000000000000000000d1
:201d1300000000000000000000000000000000000000100000c0000000000000000001409f
:201d3300000000000285000000000000000000000000000000000000000000000000000009
:0d1d53000000000000000000000000000083
:201d6000000000000000000000000000000000000000000000000000000000000000000063
:201d8000000000000000000000000000000000000000000002000000000000000000000041
:201da000000000000000000000000000000000000000000000000000000000000000000023
:0d1dc0000000000000000000000000000016
:201dcd000000000000000000000000000000000000000000000000000000000000000000f6
:201ded00000000000000000000000000000000000000003c00c000000000000000000000da
:201e0d000000000000000000000000000000000000000000000000000000000000000000b5
:0d1e2d0000000000000000000000000000a8
:201e3a00000000000000000000000000000000000000000000000000000000000000000088
:201e5a00000000000000000000000000000000000000000002000000000000000000000066
:201e7a00000000000000000000000000000000000000000000000000000000000000000048
:0d1e9a00000000000000000000000000003b
:201ea70000000000000000000000000000000000000000000000000000000000000000001b
:201ec7000000000000000000000000000000000000000000004000000000000000000000bb
:201ee7000000000000000000000000000000000000000000000000000000000000000000db
:0d1f070000000000000000000000000000cd
:201f14000000000000000000000000000000000000000000000000000000000000000000ad
:201f3400000000000000000000000000000000000000000022600400000000000000000007
:201f540000000000000000000000000000000000000000000000000000000000000000006d
:0d1f74000000000000000000000000000060
:201f8100000000000000000000000000000000000000000000000000000000000000000040
:201fa100000000000000000000000000000000000000001c7fe000000000000000000000a5
:201fc100000000000000000000000000000000000000000000000000000000000000000000
:0d1fe10000000000000000000000000000f3
:201fee000000000000000000000000000000000000000000000000000000000000000000d3
:20200e00000000000000000000000000000000000000000c000000000000000000000000a6
:20202e00000000000000000000000000000000000000000000000000000000000000000092
:0d204e000000000000000000000000000085
:20205b00000000000000000000000000000000000000000000000000000000000000000065
:20207b000000000000000000000000000000000000000006224e00000000000000000001ce
:20209b00000000000000000000000000000000000000000000000000000000000000000025
:0d20bb000000000000000000000000000018
:2020c8000000000000000000000000000000000000000000000000000000000000000000f8
:2020e8000000000000000000000000000000000000000000020000000000000000010000d5
:202108000000000004000000000000000000000000000000000000000000000000000000b3
:0d21280000000000000000000000000000aa
:2021350000000000000000000000000000000000000000000000000000000000000000008a
:20215500000000000000000000000000000000000000002402cd0000000000000000000077
:2021750000000000000000000000000000000000000000000000000000000000000000004a
:0d219500000000000000000000000000003d
:2021a20000000000000000000000000000000000000000000000000000000000000000001d
:2021c20000000000000000000000000000000000000c00047000000000000000000000007d
:2021e2000000000000000000000000000000000000000000000000000000000000000000dd
:0d22020000000000000000000000000000cf
:20220f000000000000000000000000000000000000000000000000000000000000000000af
:20222f0000000000000000000000000000000000000c0002414d00000000000000000000f3
:20224f0000000000000000000000000000000000000000000000000000000000000000006f
:0d226f000000000000000000000000000062
:20227c00000000000000000000000000000000000000000000000000000000000000000042
:20229c00000000000000000000000000000000000000001e220000004000000000000000a2
:2022bc000000000000000000000000000000000000000000000000000000000161a50000fb
:0d22dc0000000000000000000000000000f5
:2022e9000000000000000000000000000000000000000000000000000000000000000000d5
:20230900000000000000000000000000000000000000180203c000012000000000000000b6
:20232900000000000000000000000000000000000000000000000000000000034c9920008c
:0d2349000000000000000000000000000087
:20235600000000000000000000000000000000000000000000000000000000000000000067
:2023760000000000000000000000000000000000000e000002000000200000000000800097
:20239600000000000000000000000000c000000000000000000000000080000000000000e7
:0d23b600000000000000000000000000001a
:2023c3000000000000000000000000000000000000000000000000000000000000000000fa
:2023e30000000000000000000000000000000000000006002740000040000000000000002d
:20240300000000000000000000000000000000000000000000000000004000000000000079
:0d24230000000000000000000000000000ac
:2024300000000000000000000000000000000000000000000000000000000000000000008c
:20245000000000000000000000000000000000000000001c020000284000000000010000e5
:202470000000000000000000000000000000000000000000000000000000006800000000e4
:0d249000000000000000000000000000003f
:20249d0000000000000000000000000000000000000000000000000000000000000000001f
:2024bd0000000000000000000000000000000000000000020240000020000000000000009b
:2024dd00000000000000000000000000a000000000000000000000000000004000000000ff
:0d24fd0000000000000000000000000000d2
:20250a000000000000000000000000000000000000000000000000000000000000000000b1
:20252a00000000000000000000000000000000000000000e00000000000000000000000083
:20254a00000000000038000000000000000000000000000000000000000000000000000039
:0d256a000000000000000000000000000064
:20257700000000000000000000000000000000000000000000000000000000000000000044
:20259700000000000000000000000000000000000000000222c00000000000000000000040
:2025b70000000000000000000000000000000000000000000000000000000c0000000000f8
:0d25d70000000000000000000000000000f7
:2025e4000000000000000000000000000000000000000000000000000000000000000000d7
:2026040000000000000000000000000000000000000000047840402050000000000000004a
:20262400000000000000040000000000000000000000000000000000000000000000000092
:0d2644000000000000000000000000000089
:20265100000000000000000000000000000000000000000000000000000000000000000069
:20267100000000000000000000000000000000000000000241c00000000000000000000046
:20269100000000000000000000000000000000000000000000000000000000000000000029
:0d26b100000000000000000000000000001c
:2026be000000000000000000000000000000000000000000000000000000000000000000fc
:2026de00000000000000000000000000000000000000002c0200001000000000000000009e
:2026fe000000000000000000000000000000000000000000000000000000000000000000bc
:0d271e0000000000000000000000000000ae
:20272b0000000000000000000000000000000000000000000000000000000000000000008e
:20274b00000000000000000000000000000000000000003e03c9002800000000000000003c
:20276b0000000000000000000000000000000000000000000000000000002400000000002a
:0d278b000000000000000000000000000041
:20279800000000000000000000000000000000000000000000000000000000000000000021
:2027b800000000000000000000000000000000000000000c020000005000000000000000a3
:2027d8000000000000000000000000000000000000000000000000000000000000000000e1
:0d27f80000000000000000000000000000d4
:202805000000000000000000000000000000000000000000000000000000000000000000b3
:20282500000000000000000000000000000000000000040200ca00000000000000000000c3
:20284500000000000000000000000000000000000000000000000000000000000000000073
:0d2865000000000000000000000000000066
:20287200000000000000000000000000000000000000000000000000000000000000000046
:2028920000000000000000000000000000000000000400007c010010200000000000000075
:2028b200000000000000000000000000000000000000000000000000000000000000000006
:0d28d20000000000000000000000000000f9
:2028df000000000000000000000000000000000000000000000000000000000000000000d9
:2028ff0000000000000000000000000000000000000c00003ccc002840000000000000003d
:20291f00000000000000000000000000000000000000000000000000000000000000000098
:0d293f00000000000000000000000000008b
:20294c0000000000000000000000000000000000000000000000000000000000000000006b
:20296c00000000000000000000000000000000000000901c0000000000000000000000009f
:20298c00000000000005000dffe12000000000000000000000000000000000000000000019
:0d29ac00000000000000000000000000001e
:2029b9000000000000000000000000000000000000000000000000000000000000000000fe
:2029d900000000000000000000000000000000000000101e00400000000000000000000070
:2029f9000000000000000003347d0400000000000000000000000000000000000000000006
:0d2a190000000000000000000000000000b0
:202a2600000000000000000000000000000000000000000000000000000000000000000090
:202a460000000000000000000000000000000000000e101e32000000000000000000000002
:202a6600000000003800000000000000e00000000000400000000000010e000000000000e9
:0d2a86000000000000000000000000000043
:202a9300000000000000000000000000000000000000000000000000000000000000000023
:202ab300000000000000000000000000000000000000100e02c00000000000000000000023
:202ad3000000000000000000000000000000000000000000000000000000000000000000e3
:0d2af30000000000000000000000000000d6
:202b00000000000000000000000000000000000000000000000000000000000000000000b5
:202b2000000000000000000000000000000000000000000c00000003000000000000000086
:202b4000000000000000000000000000000000000000000000000000010000000000000074
:0d2b60000000000000000000000000000068
:202b6d00000000000000000000000000000000000000000000000000000000000000000048
:202b8d000000000000000000000000000000000000000002014000000000000000000000e5
:202bad00000000000000000000000000000000000000000000000000000000000000000008
:0d2bcd0000000000000000000000000000fb
:202bda000000000000000000000000000000000000000000000000000000000000000000db
:202bfa00000000000000000000000000000000000000000072000000000000000000000049
:202c1a0000000000000080000000000000000000000000000000000000000000000000001a
:0d2c3a00000000000000000000000000008d
:202c470000000000000000000000000000000000000000000000000000000000000000006d
:202c67000000000000000000000000000000000000000000404000000000000000000000cd
:202c87000000000000007000000000000000000000000000000000000000000000000000bd
:0d2ca7000000000000000000000000000020
:202cb400000000000000000000000000000000000000000000000000000000000000000000
:202cd40000000000000000000000000000000000000000000240100010000000000000007e
:202cf4000000000000000000000000000000000000000000000000000000000000000000c0
:0d2d140000000000000000000000000000b2
:202d2100000000000000000000000000000000000000000000000000000000000000000092
:202d410000000000000000000000000000000000000000000340000000000000000000002f
:202d6100000000000000000000000000000000000000000000000000000000000000000052
:0d2d81000000000000000000000000000045
:202d8e00000000000000000000000000000000000000000000000000000000000000000025
:202dae0000000000000000000000000000000000000000043a0100000000000000000000c6
:202dce00000000000002801000000010000000000000000000000000000000000000000043
:0d2dee0000000000000000000000000000d8
:202dfb000000000000000000000000000000000000000000000000000000000000000000b8
:202e1b000000000000000000000000000000000000000000024c0000000000000000000049
:202e3b0000000000000030d000000000000000000000000000000000000000000000000077
:0d2e5b00000000000000000000000000006a
:202e680000000000000000000000000000000000000000000000000000000000000000004a
:202e8800000000000000000000000000000000000000802400010000100000000000000075
:202ea800000000000400000000000000000000000000000000000000000000000000000006
:0d2ec80000000000000000000000000000fd
:202ed5000000000000000000000000000000000000000000000000000000000000000000dd
:202ef500000000000000000000000000000000000000000e01c800000000000000000000e6
:202f150000000000000000000000000000000000000000000000000000000000000000009c
:0d2f3500000000000000000000000000008f
:202f420000000000000000000000000000000000000000000000000000000000000000006f
:202f620000000000000000000000000000000000000c00040401000020000000000000001a
:202f82000000000030003800000000000000000000000800000000000000000000000000bf
:0d2fa2000000000000000000000000000022
:202faf00000000000000000000000000000000000000000000000000000000000000000002
:202fcf0000000000000000000000000000000000000c00003dcf000040000000000000008a
:202fef000000000030009800000000000000000000000000000000000000000000000000fa
:0d300f0000000000000000000000000000b4
:20301c00000000000000000000000000000000000000000000000000000000000000000094
:20303c0000000000000000000000000000000000000000407800002800187e1dc000000021
:20305c0000000000000000000000000402000daba60000000000000000000003cd3300806d
:0d307c000000000000000000000000000047
:20308900000000000000000000000000000000000000000000000000000000000000000027
:2030a9000000000000000000000000000000000000001080224000000d00d63740000000bb
:2030c900000000000000000000000000004005da248000000000000000000001cdcc00008a
:0d30e90000000000000000000000000000da
:2030f6000000000000000000000000000000000000000000000000000000000000000000ba
:2031160000000000000000000000000000000000000e800002000093890a5ac200000000c7
:20313600000000003800b007870d022408003cc6a60280000100000000000000000000009d
:0d315600000000000000000000000000006c
:2031630000000000000000000000000000000000000000000000000000000000000000004c
:2031830000000000000000000000000000000000000040800340028801907a000000000094
:2031a300000000000000b00738f104aa100034f5640680000a000000000000000000000051
:0d31c30000000000000000000000000000ff
:2031d0000000000000000000000000000000000000000000000000000000000000000000df
:2031f0000000000000000000000000000000000000000100220000281198f25a90000000ef
:20321000000000000000000000000000024000000000400d8053f310000000040000000035
:0d3230000000000000000000000000000091
:20323d00000000000000000000000000000000000000000000000000000000000000000071
:20325d00000000000000000000000000000000000000002442c0000000007e1590400000c8
:20327d00000000000000000000000000006000000000000500564cd04000002800000000f2
:0d329d000000000000000000000000000024
:2032aa00000000000000000000000000000000000000000000000000000000000000000004
:2032ca00000000000000000000000000000000000000000000000010079e37ee900000007a
:2032ea000000000000000400000000000000400000000807800000000000000000000000f1
:0d330a0000000000000000000000000000b6
:20331700000000000000000000000000000000000000000000000000000000000000000096
:2033370000000000000000000000000000000000000000002540000800809ba890000000b6
:20335700000000000000000000000000000200000000000000000000000000000000000054
:0d3377000200000000000000000000000047
:20338400000000000000000000000000000000000000000000000000000000000000000029
:2033a400000000000000000000000000000000000000000021c04008100117f310000000b5
:2033c40000000000000000a00000000002604000000000000000000000042404000000007b
:0d33e40000000000000020000000000000bc
:2033f1000000000000000000000000000000000000000000000000000000000000000000bc
:20341100000000000000000000000000000000000000000043e000100008bb8cd000000049
:2034310000000000000000a00000000060428000000000000000000000003e3c000000003f
:0d345100000000000000000000000000006e
:20345e0000000000000000000000000000000000000000000000000000000000000000004e
:20347e00000000000000000000000000000000000000003e040100000180b2e29000000046
:20349e00000000000000000b030d000008004000000000000000000001000002cc6a090069
:0d34be000000000000000000000000000001
:2034cb000000000000000000000000000000000000000000000000000000000000000000e1
:2034eb00000000000000000000000000000000000000000c3ace000000003fab9010000023
:20350b000000000000000001b4f1220015c20000000000000000000000000021eb5600009f
:0d352b000000000000000000000000000093
:20353800000000000000000000000000000000000000000000000000000000000000000073
:20355800000000000000000000000000000000000000000074010023880100000000000032
:2035780000000000000000000000000000606ca8a40800070100000000000000000000000b
:0d3598000000000000000000000000000026
:2035a500000000000000000000000000000000000000000000000000000000000000000006
:2035c50000000000000000000000000000000000000000003b4c0000010800000000000056
:2035e5000000000000005000000000000002acdae6000000080000000000040000000000fc
:0d36050000000000000000000000000000b8
:20361200000000000000000000000000000000000000000000000000000000000000000494
:2036320000000000000000000000000000000000000c002e020001000980000000000c00a6
:203652000000000010005000000000c0080000000001000000000000000026000000000009
:0d367200000000000000000000000000004b
:20367f0000000000000000000000000000000000000000000000000000000000000000002b
:20369f0000000000000000000000000000000000000c001e00c90300010000000000000014
:2036bf0000000000100070000000004010000000000300000000000000001c0000000000fc
:0d36df0000000000000000000000000000de
:2036ec000000000000000000000000000000000000000000000000000000000000000000be
:20370c00000000000000000000000000000000000000300022000000000a779740000000f3
:20372c0000000000000000000000000001405df6a00800081bb71dc000000000000000008a
:0d374c000000000000000000000000000070
:20375900000000000000000000000000000000000000000000000000000000000000000050
:20377900000000000000000000000000000000000000100041c00000000aff914000200025
:2037990000000000000800b00000000000026cd5600000010ab3b74000202c0000000000b4
:0d37b90018000000000000000000000000eb
:2037c6000000000000000000000000000000000000000000000000000000000000000000e3
:2037e60000000000000000000000000000000000000e10203a0000000500567300000c0071
:2038060000000000383800000000000000000000000000018017d9800e0000000000000033
:0d3826000000000000000000000000000095
:20383300000000000000000000000000000000000000000000000000000000000000000075
:20385300000000000000000000000000000000000000101c40c000000500da0cc04000003e
:203873000000000000007000000000000002800000000000809e268000000000000000007f
:0d3893000000000000000000000000000028
:2038a000000000000000000000000000000000000000000000000000000000000000000008
:2038c000000000000000000000000000000000000000000002000000000ad25a8000000030
:2038e000000000000000000000000000014064a8a30040001b1ad740000000040000000246
:0d3900008500000000000000000000000035
:20390d0000000000000000000000000000000000000000000000000000000000000000009a
:20392d00000000000000000000000000000000000000000000c00000000a5e1580000000bd
:20394d0000000000000800b0000000000142649ae08000000ad7d1400000002800000001e6
:0d396d00020000000000000000000000004b
:20397a0000000000000000000000000000000000000000000000000000000000000000002d
:20399a00000000000000000000000000000000000000000006000000050016ee800000007e
:2039ba000000000000000000000000000000158ba200000181000000000014000000000015
:0d39da0000000000000000000000000000e0
:2039e7000000000000000000000000000000000000000000000000000000000000000000c0
:203a070000000000000000000000000000000000000000003f40000005009aa88000000059
:203a2700000000000000000000000000000015ba2000000088000000000000000000000008
:0d3a47000000000000000000000000000072
:203a5400000000000000000000000000000000000000000000000000000000000000000052
:203a7400000000000000000000000000000000000000021c22c0000001810000000001406f
:203a940060000000000080000000000002004000000000018000000000000005cb77000028
:0d3ab4000000000000000000000000000005
:203ac1000000000000000000000000000000000000000000000000000000000000000000e5
:203ae100000000000000000000000000000000000000000243c04000000800000000000078
:203b010040000000000150000000000002c34000000000008000000000000026dfdd0000ac
:0d3b21000000000000000000000000000097
:203b2e00000000000000000000000000000000000000000000000000000000000000000077
:203b4e00000000000000000000000000000000000000000c000000000000000000004020eb
:203b6e0000000000000158e937c1020012000dd8a00000098b16c0c0000000025bf04100ac
:0d3b8e00000000000000000000000000002a
:203b9b0000000000000000000000000000000000000000000000000000000000000000000a
:203bbb0000000000000000000000000000000000000000043e4e0000000000000000a02496
:203bdb000000000000020003b4fd00000ac37cfae0040005199b4fc000000003ce3f4000d5
:0d3bfb0000000000000000000000000000bd
:203c080000000000000000000000000000000000000000000000000000000000000000009c
:203c280000000000000000000000000000000000000000040001000001997b1980000000c9
:203c480007cd8a0000000003f3cd40000200400000004009805bc20000000003fef350008f
:0d3c6800000000000000000000000000004f
:203c750000000000000000000000000000000000000000000000000000000000000000002f
:203c9500000000000000000000000000000000000000002401cd00000008fb6680400000f4
:203cb50025fcae000000000367f1010002c3400000000007001b00024000240168fc400092
:0d3cd50000000000000000000000000000e2
:203ce2000000000000000000000000000000000000000000000000000000000000000000c2
:203d0200000000000000000000000000000000000004000e72000000000173ccc000000617
:203d220000000000100058037fe1410002000000000000000a0000000c001e34000000000b
:0d3d42000000000000000000000000000074
:203d4f00000000000000000000000000000000000000000000000000000000000000000054
:203d6f000000000000000000000000000000000000041002424d0000000afbf30000000295
:203d8f00000000001041000d347d000002c3400000000000100000000c10063c0000000092
:0d3daf000000000000000000000000000007
:203dbc000000000000000000000000000000000000000000000000000000000000000000e7
:203ddc00000000000000000000000000000000000000000006000020150a00000000000082
:203dfc0000000000020080000000000002027787700000000000000000000000ebf0408018
:0d3e1c000000000000000000000000000099
:203e2900000000000000000000000000000000000000000000000000000000000000000079
:203e4900000000000000000000000000000000000000100039c00001000a00000000000045
:203e6900000000000100900000000000a04694bdd00000000000000000000002ebd10000e3
:0d3e8900000000000000000000000000002c
:203e960000000000000000000000000000000000000000000000000000000000000000000c
:203eb60000000000000000000000000000000000000e001e20000380000fd200c00e00006e
:203ed6000000000001000000000000000060000000038021000000000e001c60000000003d
:0d3ef60000000000000000000000000000bf
:203f030000000000000000000000000000000000000000000000000000000000000000009e
:203f2300000000000000000000000000000000000000003e40c000000009de0fc00000008a
:203f43000000000002800000000000000002400000000057800000000000020000000000c1
:0d3f63000000000000000000000000000051
:203f7000000000000000000000000000000000000000000000000000000000000000000031
:203f9000000000000000000000000000000000000000200020000020070a5b1dc000000068
:203fb0000160c3608000019ff2e800000006400000014000080000000c0020680000000050
:0d3fd00000000000000000000000000000e4
:203fdd000000000000000000000000000000000000000000000000000000000000000000c4
:203ffd000000000000000000000000000000000000000824434000038000f2b74020000069
:20401d0002ef3c400100008b3a88200a0142800000030000100000000c000c0000000000b0
:0d403d000000000000000000000000000076
:20404a00000000000000000000000000000000000000000000000000000000000000000056
:20406a00000000000000000000000000000000000000000e0000001388010000000001008b
:20408a00000000000000980169740000e14786c66000000001f069500000006800000000ba
:0d40aa000000000000000000000000000009
:2040b7000000000000000000000000000000000000000000000000000000000000000000e9
:2040d700000000000000000000000000000000000000000202c000080b09000000000000e9
:2040f700280000000001180d3d140000636676a9a00000000eda2640000000000000000034
:0d411700000000000000100000000000008b
:2041240000000000000000000000000000000000000000000000000000000000000000007b
:204144000000000000000000000000000000000000000e1e7860002801800000000040006e
:2041640004000000000050053ccc0000a0021ef0800000001e00000000000000000000008c
:0d418400000000000000000000000000002e
:2041910000000000000000000000000000000000000000000000000000000000000000000e
:2041b100000000000000000000000000000000000000000242404000800000000000a0000a
:2041d1002400000000000001eb300000024005b000800000100000000000003400000000d3
:0d41f10000000000000000000000000000c1
:2041fe000000000000000000000000000000000000000000000000000000000000000000a1
:20421e000000000000000000000000000000000000000000760100102000d23c14000000b7
:20423e000000000000025003addc0000000025e0300000080000000000000038000000000d
:0d425e00000000000000001400000000003f
:20426b00000000000000000000000000000000000000000000000000000000000000000033
:20428b0000000000000000000000000000000000000000003bc900285000de0fd0000000da
:2042ab0000000000000500a3eb74800000403793f000000b00000000000000000000000067
:0d42cb0000000000000000080000000000de
:2042d8000000000000000000000000000000000000000000000000000000000000000000c6
:2042f80000000000000000000000000000000000000002800201000010085e3cd00000009f
:2043180060000000008050100000000000004000000040001c00000000000020f8f0480257
:0d43380080000000000000000000000000f8
:20434500000000000000000000000000000000000000000000000000000000000000000058
:20436500000000000000000000000000000000000000074002c8000000009eff101000006a
:2043850040000000010000d00000000000c30000000000000000000000002442fbd1000111
:0d43a500000000000000000000000000000b
:2043b2000000000000000000000000000000000000000000000000000000000000000000eb
:2043d200000000000000000000000000000000000005001e04010322a700167e106c001ea9
:2043f20000000000000000000000000003c31fccc0030000001869500000003be0a50000a6
:0d441200000000000000000000000000009d
:20441f0000000000000000000000000000000000000000000000000000000000000000007d
:20443f0000000000010000000000000400000000000d10023d4d031440809e47d00c100007
:20445f0000000000004050000000000100402ce33201040000b22640001000406e990000b7
:0d447f0040000000000001000000000000ef
:20448c00000000000000000000000000000000000000000000000000000000000000000010
:2044ac0000000000000000000000000000000000000030007a000000000000000000000046
:2044cc000000000000000000000000000000000000000000000000000000000000000000d0
:0d44ec0000000000000000000000000000c3
:2044f9000000000000000000000000000000000000000000000000000000000000000000a3
:204519000000000000000000000000000000000000005000414000000000000000000000b1
:20453900000000000000000000000000000000000000000000000000000000000000000062
:0d4559000000000000000000000000000055
:20456600000000000000000000000000000000000000000000000000000000000000000035
:2045860000000000000000000000000000000000000e1020020000000800000000000000cd
:2045a6000000000000000000000000a0c2602ebcc40800000000000000000000000000007d
:0d45c60000000000000000000000000000e8
:2045d3000000000000000000000000000000000000000000000000000000000000000000c8
:2045f300000000000000000000000000000000000000103c02c00000070000000000000093
:204613000000000000000000000000a000c01e833400000000000000000000000000000052
:0d463300000000000000000000000000007a
:2046400000000000000000000000000000000000000000000000000000000000000000005a
:2046600000000000000000000000000000000000000000000200000000195f9dc000000063
:2046800000000000000000000000000000600000000040000000000000000000000000007a
:0d46a000000000000000000000000000000d
:2046ad000000000000000000000000000000000000000000000000000000000000000000ed
:2046cd00000000000000000000000000000000000000000000c000000008b3f7400000001b
:2046ed00000000000000000000000000a0000000000000000000000000000000000000000d
:0d470d00000000000000000000000000009f
:20471a0000000000000000000000000000000000000000000000000000000000000000007f
:20473a00000000000000000000000000000000000000000e7200000000001a820020000023
:20475a000000000000000000000000000010400000000000000000000000000000000000ef
:0d477a000000000000000000000000000032
:20478700000000000000000000000000000000000000000000000000000000000000000012
:2047a70000000000000000000000000000000000000000027f4000000d00d7c0000000008d
:2047c7000000000000000000000000000002000000000000000000000000000000000000d0
:0d47e70000000000000000000000000000c5
:2047f4000000000000000000000000000000000000000000000000000000000000000000a5
:2048140000000000000000000000000000000000000000200240080000000000000000001a
:2048340000000000008000000000000000603fa6a4000000000000000000000000000000fb
:0d4854000000000000000000000000000057
:20486100000000000000000000000000000000000000000000000000000000000000000037
:20488100000000000000000000000000000000000000001c0360000020090000000000006f
:2048a10000000000010000000000000000001da56480000000000000000000000000000050
:0d48c10000000000000000000000000000ea
:2048ce000000000000000000000000000000000000000000000000000000000000000000ca
:2048ee00000000000000000000000000000000000000001e7200000000000000000000001a
:20490e0000000000010000000000000402006fc8a400002000000000000080000000000007
:0d492e00000000000000000000000000007c
:20493b0000000000000000000000000000000000000000000000000000000000000000005c
:20495b00000000000000000000000000000000000000002640ce00004000000000000100c7
:20497b00000000000280000000000002004205cae4800040000000000001000000000000e2
:0d499b00000000000000000000000000000f
:2049a8000000000000000000000000000000000000000000000000000000000000000000ef
:2049c800000000000000000000000000000000000000800006000000100a0000000000002f
:2049e80000000000000000000000000a01c03f8ba400400000000000000000000000000036
:0d4a080000000000000000000000000000a1
:204a1500000000000000000000000000000000000000000000000000000000000000000081
:204a3500000000000000000000000000000000000000000431cc0000000a00000000000056
:204a550000000000000000000000000000002caa24800000000000000000000000000000c7
:0d4a75000000000000000000000000000034
:204a8200000000000000000000000000000000000000000000000000000000000000000014
:204aa2000000000000000000000000000000000000040004040100002000000000000000c7
:204ac200000000000100000000000040026000000000000000000000000000000000000031
:0d4ae20000000000000000000000000000c7
:204aef000000000000000000000000000000000000000000000000000000000000000000a7
:204b0f0000000000000000000000000000000000000400023fcf000045000000000000002d
:204b2f00000000000280000000000040004000000000000000000000000000000000000064
:0d4b4f000000000000000000000000000059
:204b5c00000000000000000000000000000000000000000000000000000000000000000039
:204b7c000000000000000000000000000000000000000004000000080018000000000000f5
:204b9c000000000000000000000000081000000000000000000000000000000000000000e1
:0d4bbc0000000000000000000000000000ec
:204bc9000000000000000000000000000000000000000000000000000000000000000000cc
:204be9000000000000000000000000000000000000001002224000100000000000000034f4
:204c09002c0000000000000000000004080000000000000000000000000040000000000013
:0d4c2900000000000000000000000000007e
:204c360000000000000000000000000000000000000000000000000000000000000000005e
:204c560000000000000000000000000000000000000e00000000028009800000000e000017
:204c76002800000000001810000000002800000000000000000000000000000000000000a6
:0d4c96000000000000000000000000000011
:204ca3000000000000000000000000000000000000000000000000000000000000000000f1
:204cc3000000000000000000000000000000000000000c0000400080010000000000000004
:204ce30040000000000008900000000a1400000000000000000000000000000000000000bb
:0d4d030000000000000000000000000000a3
:204d1000000000000000000000000000000000000000000000000000000000000000000083
:204d30000000000000000000000000000000000000000000200000084018f25a98000000ff
:204d500002da77000000180000000000200000000000000000000000018100000000000036
:0d4d70000000000000000000000000000036
:204d7d00000000000000000000000000000000000000000000000000000000000000000016
:204d9d0000000000000000000000000000000000000000247fc00012a0007e1590000000be
:204dbd002fd8dd00000008000000000000000000000000000000000000008000000000006a
:0d4ddd0000000000000000000000000000c9
:204dea000000000000000000000000000000000000000000000000000000000000000000a9
:204e0a00000000000000000000000000000000000000200000000000078037ee9010001408
:204e2a0003695d00000080000000000000000000000000000000000000000000000000001f
:0d4e4a00000000000000000000000000005b
:204e570000000000000000000000000000000000000000000000000000000000000000003b
:204e770000000000000000000000000000000000000040000140000000009ba89000003691
:204e97002d59450000009000000000000000000000000000000000000000000000000000a0
:0d4eb70000000000000000000000000000ee
:204ec4000000000000000000000000000000000000000000000000000000000000000000ce
:204ee400000000000000000000000000000000000000000426c04000100117f31000001e3b
:204f040003783300000000000000000000000000000000500000000000000000000000008f
:0d4f24000000000000002000000000000060
:204f3100000000000000000000000000000000000000000000000000000000000000000060
:204f5100000000000000000000000000000000000000020275c000018708bb8cd000000060
:204f71000159cc0000000000000000000000000000000020000000000000000000000000da
:0d4f91000000000000000000000000000013
:204f9e000000000000000000000000000000000000000000000000000000000000000000f3
:204fbe000000000000000000000000000000000000000000000100100000b2e29800000096
:204fde0000fbf04080000009af30800000000000000000000000000000000100000000009f
:0d4ffe0000000000000000000000000000a6
:20500b00000000000000000000000000000000000000000000000000000000000000000085
:20502b00000000000000000000000000000000000000001c02cf002800001fab90000024d2
:20504b0003493f4800000005a0cc20000000000000000000000000000000000000000000e1
:0d506b000000000000000000000000000038
:20507800000000000000000000000000000000000000000000000000000000000000000018
:2050980000000000000000000000000000000000000000007800002000010000000000005f
:2050b8000359f3408000000000000000100000000000400000000000000000000000000079
:0d50d80000000000000000000000000000cb
:2050e5000000000000000000000000000000000000000000000000000000000000000000ab
:205105000000000000000000000000000000000000000000434d00000008000000000000f2
:20512500017cfc4800000000000000000800000000000000000000000000000000000000a1
:0d514500000000000000000000000000005d
:2051520000000000000000000000000000000000000000000000000000000000000000003d
:2051720000000000000000000000000000000000000c002e0600011029800000000c000413
:205192007b69f84100000000000000000000000000000000000000000000000000000000e0
:0d51b20000000000000000000000000000f0
:2051bf000000000000000000000000000000000000000000000000000000000000000000d0
:2051df00000000000000000000000000000000000004003c3dcb030841000000000c000010
:2051ff0001591f4800000000000000000000000000000000000000000000000000000000cf
:0d521f000000000000000000000000000082
:20522c00000000000000000000000000000000000000000000000000000000000000000062
:20524c0000000000000000000000000000000000000010047a0000000000000000000000b4
:20526c00075d660000000000000000000002b7c0860000000000000000002065ce6a60003c
:0d528c0000d9b00000000000061eb7700041
:205299000000000000000000000000000000000000000000000000000000000000000000f5
:2052b900000000000000000000000000000000000000108042c00000000000000000400003
:2052d900207a9a00000000000000000000060de0000001800000000000000421db56400077
:0d52f9000050a0000000000000349dd00017
:20530600000000000000000000000000000000000000000000000000000000000000000087
:2053260000000000000000000000000000000000000e10160000000000000000000000260d
:205346000000000000000000000000e0020007af70038000000000000a408000488a6000c0
:0d53660000800121a800a002001de08000d1
:2053730000000000000000000000000000000000000000000000000000000000000000001a
:20539300000000000000000000000000000000000000103e02400000000000000000210445
:2053b30000000000000000000000000003c267bff00000000000000002210000d9ae500005
:0d53d300001001655801a00042dcc0000080
:2053e0000000000000000000000000000000000000000000000000000000000000000000ad
:2054000000000000000000000000000000000000000000000200000000000000000000008a
:2054200007cd8a00020000000000004000000000000000001800000000000061ccba60006d
:0d5440002d0000000000000006000000002c
:20544d0000000000000000000000000000000000000000000000000000000000000000003f
:20546d00000000000000000000000000000000000000000000c0000000000000000000005f
:20548d0021fcae0100000000000000400002c0000000000000000000000000024ba2400002
:0d54ad0000000000000000034000000000af
:2054ba000000000000000000000000000000000000000000000000000000000000000000d2
:2054da0000000000000000000000000000000000000000000200000000000000000000268a
:2054fa00600000000000000000000000e00280000000000000d3a154200000004acc600072
:0d551a0000000000000002000007f8a400df
:20552700000000000000000000000000000000000000000000000000000000000000000064
:20554700000000000000000000000000000000000000000003c000028000000000000004fb
:205567000000000000000000000000000244000000000007005b900000000001fc3340007c
:0d55870002000000000000000025fae40012
:205594000000000000000000000000000000000000000000000000000000000000000000f7
:2055b400000000000000000000000000000000000000001e20c04000000000000000000099
:2055d40065ddba01400000000000000001c02ce7700000000000000000000600000000022e
:0d55f400800003bc20000001401fd6a40071
:20560100000000000000000000000000000000000000000000000000000000000000000089
:20562100000000000000000000000000000000000000003c3ee0000000000000000000000f
:2056410067eca200001900000000000003c03ccdd00000000000000000000400000000009b
:0d56610000000160402000000035d564000d
:20566e0000000000000000000000000000000000000000000000000000000000000000001c
:20568e00000000000000000000000000000000000000014024010000000000000000006630
:2056ae0062cf6a01010000000000000002038000000000000000000000400000000000007a
:0d56ce00007800000000000806c000000089
:2056db000000000000000000000000000000000000000000000000000000000000000000af
:2056fb000000000000000000000000000000000000000084744d0000000000000000002624
:20571b0000fe5600008000000000000000400000000000000000000000200000000000003a
:0d573b0000080000000000140280000000c3
:20574800000000000000000000000000000000000000000000000000000000000000000041
:2057680000000000000000000000000000000000000000000200000000000000000000001f
:20578800657903000000000000000000006000000000000100000000000026040000000095
:0d57a8000000000000000002600000000092
:2057b5000000000000000000000000000000000000000000000000000000000000000000d4
:2057d500000000000000000000000000000000000000000001cc00000000000000000000e7
:2057f500664b3f000200000000000000024000000000000580000000008004200000000037
:0d58150000009000000000004000000000b6
:20582200000000000000000000000000000000000000000000000000000000000000000066
:20584200000000000000000000000000000000000004000406000000004000000000416651
:2058620001ddcc0000000000000000400007000000000000000000000c001e00000000000b
:0d588200000000000000c003c6c0000000d0
:20588f000000000000000000000000000000000000000000000000000000000000000000f9
:2058af000000000000000000000000000000000000040000304c00000000000000008026b3
:2058cf0003ec330000000000000000400004000000000000000000000c0002000000000045
:0d58ef00000000000000c00042800000002a
:2058fc0000000000000000000000000000000000000000000000000000000000000000008c
:20591c0000000000000000000000000000000000000001000000000000000000000000006a
:20593c0000000000000100000000000000428000000000039893a14c40040000c89680004b
:0d595c0000801db3c10000a0028ed03000fd
:2059690000000000000000000000000000000000000000000000000000000000000000001e
:20598900000000000000000000000000000000000000108400c00011200000000000000079
:2059a900000000000000000000000000034640000000000d8092200010000000209602400e
:0d59c90000108f3344000000001fc3f000e9
:2059d6000000000000000000000000000000000000000000000000000000000000000000b1
:2059f60000000000000000000000000000000000000e800002000028000000000000000ecb
:205a16000000000000000000000000e0026007f77003902181536144200e2000689680388f
:0d5a36000000cf86940000000626bba000f3
:205a4300000000000000000000000000000000000000000000000000000000000000000043
:205a6300000000000000000000000000000000000000401c00c00013800000000000000074
:205a83000000000000000000000000000042dfedd01008400eb2e000000014000096004043
:0d5aa3000000093a640000014425ba200407
:205ab0000000000000000000000000000000000000000000000000000000000000000000d6
:205ad000000000000000000000000000000000000000011600000008000000000000000097
:205af00000000000000800000000000001e624c7700000038000000000000001e896a0307a
:0d5b100000000df3c1000000028000000045
:205b1d00000000000000000000000000000000000000000000000000000000000000000068
:205b3d000000000000000000000000000000000000000002344000000000000000000000d2
:205b5d000000000000000000000000080247eeadd00000078000000000000000009600103f
:0d5b7d0000000f6344000000000000000065
:205b8a000000000000000000000000000000000000000000000000000000000000000000fb
:205baa00000000000000000000000000000000000000005c0200001020000000000000004d
:205bca0002c0a52000000000000000000002a4b7700012a0015321500000940168968000dd
:0d5bea0000800000000000020647b6a20087
:205bf70000000000000000000000000000000000000000000000000000000000000000008e
:205c1700000000000000000000000000000000000000008203c000201000000000000000f8
:205c3700004c9900000000000000000010042d8dd000085908f260024001420000960100f3
:0d5c570000700000000000004665b560040c
:205c6400000000000000000000000000000000000000000000000000000000000000000020
:205c840000000000000000000000000000000000000100a421404000000000000000002e8c
:205ca40000000000020000000000000001c01eb8541002880a7ea15420001e65e89680003b
:0d5cc40000180dfbc10000006627acc004f5
:205cd1000000000000000000000000000000000000000000000000000000000000000000b3
:205cf100000000000000000000000000000000000001003e41600000200000000000001e75
:205d110000000000000000000000000000e006880010000b1053900a0000027820960000bc
:0d5d31000010ef67440000000007b33000d1
:205d3e00000000000000000000000000000000000000000000000000000000000000000045
:205d5e00000000000000000000000000000000000000001e020000283000000000000000ad
:205d7e0000000000000000000000000001c73e88550810051953615040000000c896a100a9
:0d5d9e000000e00000000002069fc330007e
:205dab000000000000000000000000000000000000000000000000000000000000000000d8
:205dcb00000000000000000000000000000000000000000201cd00103000000000000000a8
:205deb000000000004000000000000000027bdb4030008408852200000002c0020960000d5
:0d5e0b000001000000000000402eccc0008f
:205e180000000000000000000000000000000000000000000000000000000000000000006a
:205e38000000000000000000000000000000000000000020020100004040000000000000a7
:205e5800000000000000000000000000000000000000280d8b13e15000040000c896800044
:0d5e78000000000000000000660fa66000a2
:205e85000000000000000000000000000000000000000000000000000000000000000000fd
:205ea500000000000000000000000000000000000000022c03ca0000800000000000000062
:205ec500000000000000000000000000204000000000100b1cf360001000000000960840e5
:0d5ee5000000000000000000001ef9a000f9
:205ef200000000000000000000000000000000000000000000000000000000000000000090
:205f120000000000000000000000000000000000000500207c00001250000000000000006c
:205f32000000000000000000000000000062d6d77000238800d3615040000000e8968080e3
:0d5f52000071c00000000400068000000087
:205f5f00000000000000000000000000000000000000000000000000000000000000000022
:205f7f00000000000000000000000000000000000005003c78ce0023a000000000000000b8
:205f9f00000000000000000000000000014786cdd0001001003360001000342c00960000cd
:0d5fbf000078d00000000a00000000000083
:205fcc000000000000000000000000000000000000000000000000000000000000000000b5
:205fec0000000000000000000000000000000000000010160200000000000000000000006d
:20600c00000000000600000000000000000016896800002d9ff7215001000028e89680000c
:0d602c0000818000000000604737c6600062
:20603900000000000000000000000000000000000000000000000000000000000000000047
:20605900000000000000000000000000000000000000100202c00002000000000000000051
:20607900000000000400000000000000a00000096024005119b620004100002c209604046b
:0d60990000700000000000026655b9a00074
:2060a6000000000000000000000000000000000000000000000000000000000000000000da
:2060c60000000000000000000000000000000000000e10206c00002800000000000e0120b9
:2060e60000000000380000000000000080605689680780899f737d020e042028689680388a
:0d61060000000000000000194236b030001b
:2061130000000000000000000000000000000000000000000000000000000000000000006c
:206133000000000000000000000000000000000000001c346c40001000000000000000ac94
:2061530000000000000000f000000000002240096000000908567c000000044000960000b4
:0d617300005000000000001f6415d3f080f4
:206180000000000000000000000000000000000000000000000000000000000000000000ff
:2061a0000000000000000000000000000000000000000000020000001000000000000000cd
:2061c00000000000020000000000000002060689680000080077ff4200000001e8968000ff
:0d61e00028000000000000004765b5d00059
:2061ed00000000000000000000000000000000000000000000000000000000000000000092
:20620d00000000000000000000000000000000000000000030c00000000000000000001c65
:20622d00380000000000000000000000034400096008000f0ffabfc00000002c0096000008
:0d624d0000000000000000002796b4500083
:20625a00000000000000000000000000000000000000000000000000000000000004000020
:20627a00000000001000000000000000000000000000003e060000000000000000000000b0
:20629a00000000000400818000000000e146068968000007817e5dc201002661e896000096
:0d62ba000080073b890200094607b3300051
:2062c7000000000000000000000000000000000000000000000000000000000000040000b3
:2062e700000000001000000000000000000000000000002e334000000000000000000000e6
:2063070000000000040070000000000001640209600000058a16b7400100040000960040bb
:0d632700001007676c00001760258cc00097
:20633400000000000000000000000000000000000000000000000000000000000000000049
:20635400000000000000000000000000000000000001200003604000000000000001000064
:2063740000000000000000000000000608000e896a00000100532156200000016a85588047
:0d6394000201ffef450220004046e77000c7
:2063a1000000000000000000000000000000000000000000000000000000000000000000dc
:2063c100000000000000000000000000000000000001000002400000000000000000000079
:2063e10000000000000100000000000200000009600000078a3a500200000003de400904e5
:0d6401000000efa3c00100002206fdd00046
:20640e0000000000000000000000000000000000000000000000000000000000000000006e
:20642e00000000000000000000000000000000000000000026010000000000000000000027
:20644e0000000000000000000000000001601689680010078bb7e15000002e6768855981e0
:0d646e0000818903fc000002060ecb7000c7
:20647b00000000000000000000000000000000000000000000000000000000000000000001
:20649b000000000000000000000000000000000000000024364d0003800000000000003c7b
:2064bb0000000000003400000000000000000209601020000c36200800001c20d940110220
:0d64db0080910f3ef40100004035cff0101d
:2064e800000000000000000000000000000000000000000000000000000000000000000094
:20650800000000000000000000000000000000000000802002010000400000000000000090
:2065280000000000000000000000000040001489680000210813615620002622f9855000e5
:0d6548000078cbb1dc0400820600000000ea
:20655500000000000000000000000000000000000000000000000000000000000000000026
:20657500000000000000000000000000000000000000002c01c80000000000000000000011
:2065950000000000000000e00000000000000009620020479c3a100800000440dd80004065
:0d65b5000071e3f7742000004000000000ba
:2065c2000000000000000000000000000000000000000000000000000000000000000000b9
:2065e20000000000000000000000000000000000000500040000000000000000000c000084
:206602000060c34080000005e615440000001489680000078bb7e144400014036885590041
:0d6622000000f000000000000004bcc000fb
