:02000000ff00ff
:080002004c6174746963650030
:17000a00694345637562653220323031342e30342e32363432350073
:16002100506172743a2069434534304858384b2d435432353600ff
:1a003700446174653a204d6172203820323031352031313a34363a343000b3
:0200510000ffae
:040053007eaa997e6a
:02005700510056
:0200590001059f
:03005b00920020f0
:03005e00620367d3
:0300610072011019
:0300640082000017
:02006700110086
:02006900010193
:20006b00000000000000000000000000000000000000000000000000000000000000000075
:20008b00000000000000000000000000000000000000000000000000000000000000000055
:2000ab00000000000000000000000000000000000000000000000000000000000000000035
:0d00cb000000000000000000000000000028
:2000d800000000000000000000000000000000000000000000000000000000000000000008
:2000f8000000000000000000000000000000000000000000000000000000000000000000e8
:200118000000000000000000000000000000000000000000000000000000000000000000c7
:0d01380000000000000000000000000000ba
:2001450000000000000000000000000000000000000000000000000000000000000000009a
:2001650000000000000000000000000000000000000000000000000000000000000000007a
:2001850000000000000000000000000000000000000000000000000000000000000000005a
:0d01a5000000000000000400000000000049
:2001b20000000000000000000000000000000000000000000000000000000000000000002d
:2001d20000000000000000000000000000000000000000000000000000000000000000000d
:2001f2000000000000000000000000000000000000000000000000000000000000000000ed
:0d02120000000000000000000000000000df
:20021f000000000000000000000000000000000000000000000000000000000000000000bf
:20023f0000000000000000000000000000000000000000000000000000000000000000009f
:20025f0000000000000000000000000000000000000000000000000000000000000000007f
:0d027f000000000000000000000000000072
:20028c00000000000000000000000000000000000000000000000000000000000000000052
:2002ac00000000000000000000000000000000000000000000000000000000000000000032
:2002cc00000000000000000000000000000000000000000000000000000000000000000012
:0d02ec000000000000000000000000000005
:2002f9000000000000000000000000000000000000000000000000000000000000000000e5
:200319000000000000000000000000000000000000000000000000000000000000000000c4
:200339000000000000000000000000000000000000000000000000000000000000000000a4
:0d0359000000000000000000000000000097
:20036600000000000000000000000000000000000000000000000000000000000000000077
:20038600000000000000000000000000000000000000000000000000000000000000000057
:2003a600000000000000000000000000000000000000000000000000000000000000000037
:0d03c600000000000000000000000000002a
:2003d30000000000000000000000000000000000000000000000000000000000000000000a
:2003f3000000000000000000000000000000000000000000000000000000000000000000ea
:200413000000000000000000000000000000000000000000000000000000000000000000c9
:0d04330000000000000000000000000000bc
:2004400000000000000000000000000000000000000000000000000000000000000000009c
:2004600000000000000000000000000000000000000000000000000000000000000000007c
:2004800000000000000000000000000000000000000000000000000000000001000000005b
:0d04a000000000000000000000000000004f
:2004ad0000000000000000000000000000000000000000000000000000000000000000002f
:2004cd0000000000000000000000000000000000000000000000000000000000000000000f
:2004ed000000000000000000000000000000000000000000200010000000000100000000be
:0d050d0000000400000000000000000000dd
:20051a000000000000000000000000000000000000000000000000000000000000000000c1
:20053a000000000000000000000000000000000000000000000000000000000000000000a1
:20055a0000000000000000000000000000000000000000014000100000000003000000002d
:0d057a000000000000000000000000000074
:20058700000000000000000000000000000000000000000000000000000000000000000054
:2005a700000000000000000000000000000000000000000000000000000000000000000034
:2005c700000000000000000000000000000000000000000000000000000000010000000013
:0d05e70000000800000000000010200000cf
:2005f4000000000000000000000000000000000000000000000000000000000000000000e7
:200614000000000000000000000000000000000000000000000000000000000000000000c6
:200634000000000000000000000000000000000000000000000000000000000000000000a6
:0d0654000000040000000000000000000095
:20066100000000000000000000000000000000000000000000000000000000000000000079
:20068100000000000000000000000000000000000000000000000000000000000000000059
:2006a100000000000000000000000000000000000000000000000000000000000000000039
:0d06c100000000000000000000000000002c
:2006ce0000000000000000000000000000000000000000000000000000000000000000000c
:2006ee000000000000000000000000000000000000000000000000000000000000000000ec
:20070e000000000000000000000000000000000000000000000000000000000000000000cb
:0d072e0000000800000000000000000000b6
:20073b0000000000000000000000000000000000000000000000000000000000000000009e
:20075b00000000000000000000000000000000000000001c2400000010000000000000002e
:20077b0000000000000000000000000000000000000000000000000000000000000000005e
:0d079b000000000000000000000000000051
:2007a800000000000000000000000000000000000000000000000000000000000000000031
:2007c80000000000000000000000000000000000000010027fc000000000000000000000c0
:2007e8000000000000000000000000000000000000000000000000000000000000000000f1
:0d08080000000000000000000000000000e3
:200815000000000000000000000000000000000000000000000000000000000000000000c3
:2008350000000000000000000000000000000000000e000000000000000000000000000095
:20085500000000000000000000000000e000000000000000000000000000000000000000a3
:0d0875000000000000000000000000000076
:20088200000000000000000000000000000000000000000000000000000000000000000056
:2008a200000000000000000000000000000000000000001c024000000000000000000000d8
:2008c200000000000000000000000000000000000000000000000000000000000000000016
:0d08e2000000000000000000000000000009
:2008ef000000000000000000000000000000000000000000000000000000000000000000e9
:20090f00000000000000000000000000000000000000000c020000000000000000000000ba
:20092f000000000000000000000000000000000000000000000000000100000000000004a3
:0d094f00000000000000000000000000009b
:20095c0000000000000000000000000000000000000000000000000000000000000000007b
:20097c000000000000000000000000000000000000000000204000000000000000000000fb
:20099c0000000000000000000000000000000000000000000000000000000000000000003b
:0d09bc00000000000000000000000000002e
:2009c90000000000000000000000000000000000000000000000000000000000000000000e
:2009e9000000000000000000000000000000000000000000000000000000000000000000ee
:200a09000000000000000000000000000000000000000000000000000000000000000000cd
:0d0a290000000000000000000000000000c0
:200a36000000000000000000000000000000000000000000000000000000000000000000a0
:200a560000000000000000000000000000000000000000002340000000000000000000001d
:200a7600000000000000000000000000000000000000000000000000000000000000000060
:0d0a96000000000000000000000000000053
:200aa300000000000000000000000000000000000000000000000000000000000000000033
:200ac30000000000000000000000000000000000000000002040042000000000000000008f
:200ae3000000000000000000000000000000000000000000000000000000000000000000f3
:0d0b030000000000000000000000000000e5
:200b10000000000000000000000000000000000000000000000000000000000000000000c5
:200b3000000000000000000000000000000000000000000002400000000000000000000063
:200b5000000000000000000000000000000000000000000000000000000000000000000085
:0d0b70000000000000000000000000000078
:200b7d00000000000000000000000000000000000000000000000000000000000000000058
:200b9d00000000000000000000000000000000000000002000000000000000000000000018
:200bbd000000000000300000000000000000000000000000000000000000000000000000e8
:0d0bdd0000000000000010000000000000fb
:200bea000000000000000000000000000000000000000000000000000000000000000000eb
:200c0a00000000000000000000000000000000000000000c01cd00000000000000000000f0
:200c2a000000000000000000000000000000000000000000000000000000000000000000aa
:0d0c4a00000000000000000000000000009d
:200c570000000000000000000000000000000000000000000000000000000000000000007d
:200c77000000000000000000000000000000000000000000200100004000000000000000fc
:200c97000000000000000000000000000000000000004000000000000100000000000000fc
:0d0cb7000000000000001000000000000020
:200cc400000000000000000000000000000000000000000000000000000000000000000010
:200ce4000000000000000000000000000000000000000004414f000020000000000000003c
:200d04000000000000000000000000000000000000000000000000000000000000000000cf
:0d0d240000000000000000000000000000c2
:200d31000000000000000000000000000000000000000000000000000000000000000000a2
:200d510000000000000000000000000000000000000c00002601000000000000000000004f
:200d7100000000000000000000000000000000000000000000000000000000000000000062
:0d0d91000000000000000000000000000055
:200d9e00000000000000000000000000000000000000000000000000000000000000000035
:200dbe00000000000000000000000000000000000004000033cb0000000000000000000013
:200dde000000000000000000000000000000000000000000000000000000000000000000f5
:0d0dfe0000000000000000000000000000e8
:200e0b000000000000000000000000000000000000000000000000000000000000000000c7
:200e2b00000000000000000000000000000000000000b004000000000000000000000000f3
:200e4b00000000000000000000000000000000000000000000000000000000000000000087
:0d0e6b00000000000000000000000000007a
:200e780000000000000000000000000000000000000000000000000000000000000000005a
:200e9800000000000000000000000000000000000000100e01c0000000000000000000005b
:200eb80000000000000000000000000000000000000000000000000000000000000000001a
:0d0ed800000000000000000000000000000d
:200ee5000000000000000000000000000000000000000000000000000000000000000000ed
:200f050000000000000000000000000000000000000e101c00000000000000000000000092
:200f25000000000000000000000000000000000000000000000000000000000000000000ac
:0d0f4500000000000000100000018f0000ff
:200f520000000000000000000000000000000000000000000000000000000000000000007f
:200f7200000000000000000000000000000000000000100233c0000000000000000000005a
:200f920000000000000000000000000000000000000000000000000000000000000000003f
:0d0fb200000000000000000002010f0080a0
:200fbf00000000000000000000000000000000000000000000000000000000000000000012
:200fdf000000000000000000000000000000000000000020000000001000000000000000c2
:200fff000000000000000000000000000000000000000000000000000000000000000000d2
:0d101f0000000000000010080000000000ac
:20102c000000000000000000000000000000000000000000000000000000000000000000a4
:20104c00000000000000000000000000000000000000000c00400000000000000000000038
:20106c00000000000000000000000000000000000000000000000000000000000000000064
:0d108c000000000000000000000000000057
:20109900000000000000000000000000000000000000000000000000000000000000000037
:2010b9000000000000000000000000000000000000000000200000000000000000000000f7
:2010d9000000000000000000000000000000000000000000000000000000000000000000f7
:0d10f90000000000000000080000000000e2
:201106000000000000000000000000000000000000000000000000000000000000000000c9
:20112600000000000000000000000000000000000000000040c000000000000000000000a9
:20114600000000000000000000000000100000000000000000000000000000000000000079
:0d116600000000000000001000000000006c
:2011730000000000000000000000000000000000000000000000000000000000000000005c
:20119300000000000000000000000000000000000000001c20e0040000000000000000001c
:2011b30000000000000000000000000000000000000000000000000000000000000000001c
:0d11d300000000000000000000000000000f
:2011e0000000000000000000000000000000000000000000000000000000000000000000ef
:20120000000000000000000000000000000000000000000043e000000000000000000000ab
:201220000000000000000000000000000000000000000000000000000000000000000000ae
:0d12400000000000000000000000000000a1
:20124d00000000000000000000000000000000000000000000000000000000000000000081
:20126d0000000000000000000000000000000000000000002200000000000000000000003f
:20128d00000000000000000000000000000000000000400000000000000000000000000001
:0d12ad0000000000000040000000000000f4
:2012ba00000000000000000000000000000000000000000000000000000000000000000014
:2012da00000000000000000000000000000000000000001c00480000000000000000000090
:2012fa000000000000000000000000000000000000000000000000000000000000000000d4
:0d131a000000000000008000000000000046
:201327000000000000000000000000000000000000000000000000000000000000000000a6
:20134700000000000000000000000000000000000000800e260100000000000000000000d1
:20136700000000000000000000000000000000000000400000000000000000000000000026
:0d1387000000000000000000000000000059
:20139400000000000000000000000000000000000000000000000000000000000000000039
:2013b40000000000000000000000000000000000000000022e4b000180000000000000001d
:2013d4000000000000000000000000000000000000000000000000000000000000000000f9
:0d13f40000000000000000000000000000ec
:201401000000000000000000000000000000000000000000000000000000000000000000cb
:2014210000000000000000000000000000000000000c01400000000000000000000000005e
:2014410000000000000000000000000000000000000000000000000000000000000000008b
:0d146100000000000000000000000000007e
:20146e0000000000000000000000000000000000000000000000000000000000000000005e
:20148e000000000000000000000000000000000000040080014d000000000000000000006c
:2014ae0000000000000000000000000000000000000000000000000000000000000000001e
:0d14ce000000000000000000000000000011
:2014db000000000000000000000000000000000000000000000000000000000000000000f1
:2014fb00000000000000000000000000000000000000001c20000000400000000000000055
:20151b000000000000000000000000000000000000000000000000000000000000000000b0
:0d153b0000000000000000000000000000a3
:20154800000000000000000000000000000000000000000000000000000000000000000083
:2015680000000000000000000000000000000000000010026540000020000000000000008c
:20158800000000000000000000000000000000000000000000000000000000000000000043
:0d15a8000000000000000000000000000036
:2015b500000000000000000000000000000000000000000000000000000000000000000016
:2015d50000000000000000000000000000000000000e00006a00000000000000000000007e
:2015f500000000000000000000000000e000000000000000000000000000000000000000f6
:0d16150000000000000000000000000000c8
:201622000000000000000000000000000000000000000000000000000000000000000000a8
:20164200000000000000000000000000000000000000003c424000000000000000000000ca
:20166200000000000000000000000000000000000000000000000000000000000000000068
:0d168200000000000000000000000000005b
:20168f0000000000000000000000000000000000000000000000000000000000000000003b
:2016af00000000000000000000000000000000000000040402000000000000000000000011
:2016cf000000000000000000000000000000000000004000000000000000000000000000bb
:0d16ef0000000000000000000000000000ee
:2016fc000000000000000000000000000000000000000000000000000000000000000000ce
:20171c00000000000000000000000000000000000000080224c000000000000000000000bf
:20173c0000000000000000000000001000000000000000000000000000000000000000007d
:0d175c000000000000000000000000000080
:20176900000000000000000000000000000000000000000000000000000000000000000060
:201789000000000000000000000000000000000000000000000000000000000000000080c0
:2017a900000000000000000000000000000000000000000000000000000000000000000020
:0d17c9000000000000000000000000000013
:2017d6000000000000000000000000000000000000000000000000000000000000000000f3
:2017f60000000000000000000000000000000000000000002740000000000000000001402b
:201816000000000000000000000000000000000000000000000000000000000000000000b2
:0d18360000000000000000000000000000a5
:20184300000000000000000000000000000000000000000000000000000000000000000085
:20186300000000000000000000000000000000000001200002e00020100000000000000032
:20188300000000000000000000000000000000000000000000000000000000000000000045
:0d18a3000000000000000000000000000038
:2018b000000000000000000000000000000000000000000000000000000000000000000018
:2018d000000000000000000000000000000000000000000003c02000000000000000000015
:2018f0000000000000000000000000000000000000000000000000000000000000000000d8
:0d19100000000000000000000000000000ca
:20191d000000000000000000000000000000000000000000000000000000000000000000aa
:20193d00000000000000000000000000000000000000001c000000000000000000000c0062
:20195d0000000000000000000000000000000000000000000000000000000000000000006a
:0d197d00000000000000000000000000005d
:20198a0000000000000000000000000000000000000000000000000000000000000000003d
:2019aa00000000000000000000000000000000000000001e01c90000000000000000000035
:2019ca000000000000000000000000000000000000000000000000000000000000000000fd
:0d19ea0000000000000000000000000000f0
:2019f7000000000000000000000000000000000000000000000000000000000000000000d0
:201a170000000000000000000000000000000000000000002000000000000000000000008f
:201a370000000000000000000000001000000000000040000000000001000000000000003e
:0d1a57000000000000000000000000000082
:201a6400000000000000000000000000000000000000000000000000000000000000000062
:201a84000000000000000000000000000000000000000024424f000000000000000000008d
:201aa400000000000000000000000000000000000000000000000000000000000000000022
:0d1ac4000000000000000000000000000015
:201ad1000000000000000000000000000000000000000000000000000000000000000000f5
:201af100000000000000000000000000000000000004000038010000000000000000000098
:201b11000000000000000000000000000000000000000000000000000000000000000000b4
:0d1b310000000000000000000000000000a7
:201b3e00000000000000000000000000000000000000000000000000000000000000000087
:201b5e000000000000000000000000000000000000040000404b00000000000000000000d8
:201b7e00000000000000000000000000000000000000000000000000000000000000000047
:0d1b9e00000000000000000000000000003a
:201bab0000000000000000000000000000000000000000000000000000000000000000001a
:201bcb00000000000000000000000000000000000000101c7a000000000000000000000054
:201beb000000000000000000000000000000000000000000000000000000000000000000da
:0d1c0b0000000000000000000000000000cc
:201c18000000000000000000000000000000000000000000000000000000000000000000ac
:201c38000000000000000000000000000000000000001000404000000000000000000000fc
:201c580000000000000000000000000000000000000000000000000000000000000000006c
:0d1c7800000000000000000000000000005f
:201c850000000000000000000000000000000000000000000000000000000000000000003f
:201ca50000000000000000000000000000000000000e1000020000102000000000000000cf
:201cc5000000000000000000000000000000000000000000000000000100000000000000fe
:0d1ce50000000000000000000000000000f2
:201cf2000000000000000000000000000000000000000000000000000000000000000000d2
:201d1200000000000000000000000000000000000000100c03c0000850000000000000007a
:201d3200000000000000000000000000000000000000000000000000000000000000000091
:0d1d52000000000000000000000000000084
:201d5f00000000000000000000000000000000000000000000000000000000000000000064
:201d7f00000000000000000000000000000000000000001e00000000000000000000000026
:201d9f00000000000000000000000000000000000000000000000000010000000000000023
:0d1dbf000000000000000000000000000017
:201dcc000000000000000000000000000000000000000000000000000000000000000000f7
:201dec00000000000000000000000000000000000000000001400000000000000000000096
:201e0c000000000000000000000000000000000000000000000000000000000000000000b6
:0d1e2c0000000000000000000000000000a9
:201e3900000000000000000000000000000000000000000000000000000000000000000089
:201e5900000000000000000000000000000000000000000e2000000000000000000000003b
:201e7900000000000000000000000000000000000000400000000000000000000000000009
:0d1e9900000000000000000000000000003c
:201ea60000000000000000000000000000000000000000000000000000000000000000001c
:201ec6000000000000000000000000000000000000000002004000000000000000000000ba
:201ee60000000000000000000000000000100000000040000000000000000000000000008c
:0d1f060000000000000000000000000000ce
:201f13000000000000000000000000000000000000000000000000000000000000000000ae
:201f33000000000000000000000000000000000000000000704010200000000000000000ae
:201f530000000000000000000000000000000000000000000000000000000000000000006e
:0d1f73000000000000000000000000000061
:201f8000000000000000000000000000000000000000000000000000000000000000000041
:201fa000000000000000000000000000000000000000000043e0000280000000000000007c
:201fc000000000000000000000000000000000000000000000000000000000000000000001
:0d1fe00000000000000000000000000000f4
:201fed000000000000000000000000000000000000000000000000000000000000000000d4
:20200d00000000000000000000000000000000000000001e7801000000000000000000001c
:20202d00000000000100000000000000000000000000000000000000000000000000000092
:0d204d000000000000000000000000000086
:20205a00000000000000000000000000000000000000000000000000000000000000000066
:20207a00000000000000000000000000000000000000000002cc0000000000000000000078
:20209a000000000000800000000000000000000000000000000000000000000000000000a6
:0d20ba000000000000000000000000000019
:2020c7000000000000000000000000000000000000000000000000000000000000000000f9
:2020e700000000000000000000000000000000000000a00022010003d00000000000000043
:202107000000000000000000000000000000000000000200000000000000000000000000b6
:0d21270000000000000000000000000000ab
:2021340000000000000000000000000000000000000000000000000000000000000000008b
:20215400000000000000000000000000000000000000000043cb00028000000000000000db
:2021740000000000000000000000000000000000000000000000000000000000000000004b
:0d219400000000000000000000000000003e
:2021a10000000000000000000000000000000000000000000000000000000000000000001e
:2021c1000000000000000000000000000000000000040020220100000000000000000000b7
:2021e1000000000000000000000000040000000000000000000000000000000000000000da
:0d22010000000000000000000000000000d0
:20220e000000000000000000000000000000000000000000000000000000000000000000b0
:20222e0000000000000000000000000000000000000c000c75cd0000000000000000000036
:20224e0000000000000000000000000200000000000000000000000000000000000000006e
:0d226e000000000000000000000000000063
:20227b00000000000000000000000000000000000000000000000000000000000000000043
:20229b00000000000000000000000000000000000000802020000000400000000000000023
:2022bb00000000000000000000000000000000000000000000000000000000000000000003
:0d22db0000000000000000000000000000f6
:2022e8000000000000000000000000000000000000000000000000000000000000000000d6
:20230800000000000000000000000000000000000000103c43c00001a000000000000000c5
:20232800000000000000000000000000000000000000000000000000000000000000000095
:0d2348000000000000000000000000000088
:20235500000000000000000000000000000000000000000000000000000000000000000068
:2023750000000000000000000000000000000000000e00002000000000000000000000001a
:20239500000000000000000000000000000000000000000000000000000000000000000028
:0d23b500000000000000000000000000001b
:2023c2000000000000000000000000000000000000000000000000000000000000000000fb
:2023e200000000000000000000000000000000000000001c4240000000000000000000003d
:202402000000000000000000000000000000000000000000000000000000000000000000ba
:0d24220000000000000000000000000000ad
:20242f0000000000000000000000000000000000000000000000000000000000000000008d
:20244f0000000000000000000000000000000000000000000200000000000000000000006b
:20246f00000000000000000000000000000000000000400000000000000000000000000409
:0d248f000000000000000000000000000040
:20249c00000000000000000000000000000000000000000000000000000000000000000020
:2024bc000000000000000000000000000000000000000a00004000000000000000000000b6
:2024dc000000000000000000000000000000000000000000000000000000000000000000e0
:0d24fc0000000000000000001000000000c3
:202509000000000000000000000000000000000000000000000000000000000000000000b2
:20252900000000000000000000000000000000000000000002000010000000000000000080
:20254900000000000002000000000000000000000000000000000000000000000000000070
:0d2569000000000000000000000000000065
:20257600000000000000000000000000000000000000000000000000000000000000000045
:20259600000000000000000000000000000000000000000003c00029000000000000000039
:2025b600000000000005000000000000000000000000000000000000000000000000000000
:0d25d60000000000000000000000000000f8
:2025e3000000000000000000000000000000000000000000000000000000000000000000d8
:20260300000000000000000000000000000000000000000e78601028500000000000000049
:20262300000000000000000000000000000000000000000000000000000000000000000097
:0d264300000000000000000000000000008a
:2026500000000000000000000000000000000000000000000000000000000000000000006a
:202670000000000000000000000000000000000000000002406000000000000000000000a8
:20269000000000000018000000000000000000000000000000000000000000000000000012
:0d26b000000000000000000000000000001d
:2026bd000000000000000000000000000000000000000000000000000000000000000000fd
:2026dd0000000000000000000000000000000000000000207c000010000000000000000031
:2026fd000000000000000000000000000000000000000000000000000000000000000000bd
:0d271d0000000000000000000000000000af
:20272a0000000000000000000000000000000000000000000000000000000000000000008f
:20274a00000000000000000000000000000000000000000c79cd00280000000000000000f5
:20276a0000000000000000000000000000000000000000000000000000000000000000004f
:0d278a000000000000000000000000000042
:20279700000000000000000000000000000000000000000000000000000000000000000022
:2027b70000000000000000000000000000000000000020042200002000000000000000009c
:2027d7000000000000000000000000000000000000000000000000000000000000000000e2
:0d27f70000000000000000000000000000d5
:202804000000000000000000000000000000000000000000000000000000000000000000b4
:20282400000000000000000000000000000000000000400442ce0000000000000000000040
:20284400000000000000000000000000000000000000000000000000000000000000000074
:0d2864000000000000000000000000000067
:20287100000000000000000000000000000000000000000000000000000000000000000047
:2028910000000000000000000000000000000000000c0000040100032000000000000000f3
:2028b100000000000000000000000000000000000000000000000000000000000000000007
:0d28d10000000000000000000000000000fa
:2028de000000000000000000000000000000000000000000000000000000000000000000da
:2028fe0000000000000000000000000000000000000400003ccd000040000000000000006d
:20291e00000000000000000000000000000000000000000000000000000000000000000099
:0d293e00000000000000000000000000008c
:20294b0000000000000000000000000000000000000000000000000000000000000000006c
:20296b00000000000000000000000000000000000000101c78000000504000000000000018
:20298b0000000000000000000000000000000000000000000000000000000000000000002c
:0d29ab00000000000000000000000000001f
:2029b8000000000000000000000000000000000000000000000000000000000000000000ff
:2029d800000000000000000000000000000000000000100201c0000000000000000000000c
:2029f8000000000000000000000000000000000000000000000000000000000000000000bf
:0d2a180000000000000000000000000000b1
:202a2500000000000000000000000000000000000000000000000000000000000000000091
:202a450000000000000000000000000000000000000e10040000000000000000000000004f
:202a6500000000000100000000000000a000000000000000000000000000000000000000b0
:0d2a85000000000000000000000000000044
:202a9200000000000000000000000000000000000000000000000000000000000000000024
:202ab200000000000000000000000000000000000000102603c0000000000000000000000b
:202ad2000000000002000000000000000000000000000000000000000000000000000000e2
:0d2af20000000000000000000000000000d7
:202aff000000000000000000000000000000000000000000000000000000000000000000b7
:202b1f00000000000000000000000000000000000000000000000000400000000000000056
:202b3f00000000000000000000000000000000000000000000000000000000000000000076
:0d2b5f000000000000000000000000000069
:202b6c00000000000000000000000000000000000000000000000000000000000000000049
:202b8c00000000000000000000000000000000000000022400c00001200000000000000022
:202bac00000000000000000000000000000000000000000000000000000000000000000009
:0d2bcc0000000000000000000000000000fc
:202bd9000000000000000000000000000000000000000000000000000000000000000000dc
:202bf900000000000000000000000000000000000000001e0200000000000000000000009c
:202c190000000000000000000000000000000000000000000000000000000000000000009b
:0d2c39000000000000000008000000000086
:202c460000000000000000000000000000000000000000000000000000000000000000006e
:202c6600000000000000000000000000000000000000000001c0000000000000000000008d
:202c860000000000000000000000000000000000000000000000000000000000000000002e
:0d2ca6000000000000000000000000000021
:202cb300000000000000000000000000000000000000000000000000000000000000000001
:202cd300000000000000000000000000000000000000002000e010200000000000000000b1
:202cf3000000000000000000000000000000000000000000000000000000000000000000c1
:0d2d130000000000000000000000000000b3
:202d2000000000000000000000000000000000000000000000000000000000000000000093
:202d4000000000000000000000000000000000000000000c03c000000000000000000000a4
:202d6000000000000000000000000000000000000000000000000000000040000000000013
:0d2d80000100000000000000000000000045
:202d8d00000000000000000000000000000000000000000000000000000000000000000026
:202dad00000000000000000000000000000000000000000400000000000000000000000002
:202dcd000000000000000000000000000000000000000000000000000000000000000000e6
:0d2ded0000000000000000000000000000d9
:202dfa000000000000000000000000000000000000000000000000000000000000000000b9
:202e1a000000000000000000000000000000000000000e00004a000000000000000000013f
:202e3a00000000000000000000000000000000000000000000000000000000000000000078
:0d2e5a00000000000000000000000000006b
:202e670000000000000000000000000000000000000000000000000000000000000000004b
:202e8700000000000000000000000000000000000000208e2201000000000000000000005a
:202ea70000000000000000000000000000000000000000000000000000000000000000000b
:0d2ec70000000000000000000000000000fe
:202ed4000000000000000000000000000000000000000000000000000000000000000000de
:202ef400000000000000000000000000000000000000400037c8000000000000000000007f
:202f140000000000000000000000000000000000000000000000000000000000000000009d
:0d2f34000000000000000000000000000090
:202f4100000000000000000000000000000000000000000000000000000000000000000070
:202f610000000000000000000000000000000000000400202001000000000000000000000b
:202f810000000000000000000000000000000000000000000000000000000000000000012f
:0d2fa1000000000000000000000000000023
:202fae00000000000000000000000000000000000000000000000000000000000000000003
:202fce0000000000000000000000000000000000000c002c02480000000000000000000061
:202fee000000000000000000000000000000000000000000000000000000000000000002c1
:0d300e008000000000000000000000000035
:20301b00000000000000000000000000000000000000000000000000000000000000000095
:20303b0000000000000000000000000000000000000000040200004000000000000000002f
:20305b00000000000000000000000000000000000000000000000000000000000000000055
:0d307b000000000000000000000000000048
:20308800000000000000000000000000000000000000000000000000000000000000000028
:2030a800000000000000000000000000000000000000100225400000000000000000000091
:2030c8000000000000000000000000000000000000000000000000000000000000000000e8
:0d30e80000000000000000000000000000db
:2030f5000000000000000000000000000000000000000000000000000000000000000000bb
:2031150000000000000000000000000000000000000e00200200000000000000000000006a
:2031350000000000000000000000000000000000000000000000000000000000000000007a
:0d315500000000000000000000000000006d
:2031620000000000000000000000000000000000000000000000000000000000000000004d
:20318200000000000000000000000000000000000000060c00c000028000000000000000d9
:2031a20000000000000000000000000000000000000000000000000000000000000000000d
:0d31c2000000000000000000000000000000
:2031cf000000000000000000000000000000000000000000000000000000000000000000e0
:2031ef000000000000000000000000000000000000000000000000000000000000000000c0
:20320f0000000000000000000000001000000000000040000000000000000000000000004f
:0d322f000000000000000000000000000092
:20323c00000000000000000000000000000000000000000000000000000000000000000072
:20325c00000000000000000000000000000000000000042403c00000000000000000000067
:20327c00000000000000000000000000000000000000000000000000000000000000000032
:0d329c000000000000000000000000000025
:2032a900000000000000000000000000000000000000000000000000000000000000000005
:2032c9000000000000000000000000000000000000000004040000000000000000000000dd
:2032e900000000000000000000000000c00000000000000000000000000000000000000005
:0d33090000000000000000000000000000b7
:20331600000000000000000000000000000000000000000000000000000000000000000097
:20333600000000000000000000000000000000000000003e2ec0000000000000000000004b
:20335600000000000000000000000000000000000000000000000000000000000000000057
:0d337600000000000000000000000000004a
:2033830000000000000000000000000000000000000000000000000000000000000000002a
:2033a300000000000000000000000000000000000000000023604020100000000000000017
:2033c3000000000000000000000000000000000000000000000000000000000000000000ea
:0d33e30000000000000000000000000000dd
:2033f0000000000000000000000000000000000000000000000000000000000000000000bd
:20341000000000000000000000000000000000000000000043e000018000000000000400f4
:20343000000000000000000000000000a000000000000000000000000000000000000000dc
:0d345000000000000000000000000000006f
:20345d0000000000000000000000000000000000000000000000000000000000000000004f
:20347d00000000000000000000000000000000000000001e220000002000000000000c00c3
:20349d0000000000000000000000000000000000000000000000000000000000000000000f
:0d34bd000000000000000000000000000002
:2034ca000000000000000000000000000000000000000000000000000000000000000000e2
:2034ea00000000000000000000000000000000000000002642ca0000400000000000000050
:20350a000000000000000000000000000000000000000000000000000000000000000000a1
:0d352a000000000000000000000000000094
:20353700000000000000000000000000000000000000000000000000000000000000000074
:203557000000000000000000000000000000000000002000380100005000000000000000ab
:20357700000000000000000000000000000000000000000000000000000000000000000034
:0d3597000000000000000000000000000027
:2035a400000000000000000000000000000000000000000000000000000000000000000007
:2035c4000000000000000000000000000000000000000000024c0001800000000000000018
:2035e4000000000000000000000000000000000000000000000000000000000000000000c7
:0d36040000000000000000000000000000b9
:20361100000000000000000000000000000000000000000000000000000000000000000099
:2036310000000000000000000000000000000000000400003a00000000000000000000003b
:20365100000000000000000000000000000000000000000000000000000000000000000059
:0d367100000000000000000000000000004c
:20367e0000000000000000000000000000000000000000000000000000000000000000002c
:20369e0000000000000000000000000000000000000400004148000000000000000000007f
:2036be000000000000000000000000000000000000000000000000000000000000000000ec
:0d36de0000000000000000000000000000df
:2036eb000000000000000000000000000000000000000000000000000000000000000000bf
:20370b00000000000000000000000000000000000000320000000028000000000000000044
:20372b00000000000000000000000000080000000000000000000000000000000000000076
:0d374b000000000000000000000000000071
:20375800000000000000000000000000000000000000000000000000000000000000000051
:203778000000000000000000000000000000000000001800014000000000000000000000d8
:2037980000000000000000000000000004000000000000000000000000000000000000000d
:0d37b8000000000000000000000000000004
:2037c5000000000000000000000000000000000000000000000000000000000000000000e4
:2037e50000000000000000000000000000000000000e1000020000000000000000000000a4
:203805000000000000000000000000000000000000000000000000000e0000000000000095
:0d3825000000000000000000000000000096
:20383200000000000000000000000000000000000000000000000000000000000000000076
:20385200000000000000000000000000000000000000100003c0000800000000000000007b
:2038720000000000000000000000000000000000000028000000000000000000000000000e
:0d3892000000000000000008000000000021
:20389f00000000000000000000000000000000000000000000000000000000000000000009
:2038bf00000000000000000000000000000000000000001c0200000050000000000000007b
:2038df0000000000000000000000000000000000000040000000000002000000efd1400087
:0d38ff0000000000000000000000000000bc
:20390c0000000000000000000000000000000000000000000000000000000000000000009b
:20392c00000000000000000000000000000000000000000203400012200000000000000004
:20394c0000000000000000000000000000000000000000000000000000000000daf0084049
:0d396c00000000000000000000000000004e
:2039790000000000000000000000000000000000000000000000000000000000000000002e
:2039990000000000000000000000000000000000000000203a0000030000000000000000b1
:2039b90000000000000000000000000000000000000013000000000000001c0000000000bf
:0d39d90000000000000000c0000000000021
:2039e6000000000000000000000000000000000000000000000000000000000000000000c1
:203a0600000000000000000000000000000000000000002c414000005000000000000000a3
:203a2600000000000000000000000000000000000000080000000000000002000000000076
:0d3a46000000000000000000000000000073
:203a5300000000000000000000000000000000000000000000000000000000000000000053
:203a7300000000000000000000000000000000000000001e74e04000400000000000000041
:203a9300000000000080000000000000000000000000000000000000000020000000000073
:0d3ab3000000000000000100000000000005
:203ac0000000000000000000000000000000000000000000000000000000000000000000e6
:203ae00000000000000000000000000000000000000000027fc000128000000000000000f3
:203b000000000000010000000000000000000000000000000000000000002c000000000276
:0d3b20000000000000000000000000000098
:203b2d00000000000000000000000000000000000000000000000000000000000000000078
:203b4d00000000000000000000000000000000000000000472000001800000000000000061
:203b6d0000000000000000000000000060000000000010000000000000001c0000000000ac
:0d3b8d0000000000000000e000000000004b
:203b9a0000000000000000000000000000000000000000000000000000000000000000000b
:203bba00000000000000000000000000000000000000002602cc00020000000000000000f5
:203bda000000000000000000000000000000000000000800000000000000000000000000c3
:0d3bfa00000000000000008000000000003e
:203c070000000000000000000000000000000000000000000000000000000000000000009d
:203c270000000000000000000000000000000000000000a0220000000000000000000000bb
:203c4700000000000000000000000002000000000000400000000000000000040000000017
:0d3c67000000000000000000000000000050
:203c7400000000000000000000000000000000000000000000000000000000000000000030
:203c9400000000000000000000000000000000000000017c40cd0000000000000000000086
:203cb4000000000000000000000000000000000000000000000000000000002000000000d0
:0d3cd40000000000000000000000000000e3
:203ce1000000000000000000000000000000000000000000000000000000000000000000c3
:203d010000000000000000000000000000000000000c001e00000000000000000000000078
:203d2100000000000000000000000000000000000000100000000000000000000000000072
:0d3d41000000000000000000000000000075
:203d4e00000000000000000000000000000000000000000000000000000000000000000055
:203d6e0000000000000000000000000000000000000c100032ce0000d00000000000000049
:203d8e000000000000000000000000000000000000002800000000000010000000000000dd
:0d3dae000000000000000000000000000008
:203dbb000000000000000000000000000000000000000000000000000000000000000000e8
:203ddb0000000000000000000000000000000000000020202000002080007225b020000061
:203dfb00280000000020700be0cd002002005fa3300001800100000000060000c05a6000e2
:0d3e1b0000180f6ddc00200000000000000a
:203e280000000000000000000000000000000000000000000000000000000000000000007a
:203e4800000000000000000000000000000000000000583c40c0000000000025a08000047d
:203e68007c000000000078ebbb320100004216ccc00000000b00000000000001c00000407d
:0d3e880000000b3f7401000000000000006e
:203e950000000000000000000000000000000000000000000000000000000000000000000d
:203eb50000000000000000000000000000000000000e00000000038000007225b0000056bf
:203ed500027af700383899efb0cd00e00267840c350b8009000000000e40000000000038bd
:0d3ef50001180566150000016000000000c6
:203f020000000000000000000000000000000000000000000000000000000000000000009f
:203f220000000000000000000000000000000000000008000240000380000025804000b419
:203f4200005bff0100001103a332030001c6dea3c810000f80000000002040000000000009
:0d3f62000200bb7d00a00000000000000078
:203f6f00000000000000000000000000000000000000000000000000000000000000000032
:203f8f0000000000000000000000000000000000000100003800030000187225b000001c5b
:203faf000000000030009985000000d0036074f33400000009b2f450400000000000000097
:0d3fcf000099876a15400000068000000080
:203fdc000000000000000000000000000000000000000000000000000000000000000000c5
:203ffc00000000000000000000000000000000000000000037400300200008258010003e10
:20401c002c0000003000d0f503fc20c00043c5dcc804000018763c044000000000000000c6
:0d403c0000500ff1008400000000000000a3
:20404900000000000000000000000000000000000000000000000000000000000000000057
:2040690000000000000000000000000000000000000000000200004000195225b0000c00a9
:204089006c0000000002580934cc0008034205b3340003b101f030c000000e00000000006c
:0d40a9000098073800800000004000000073
:2040b6000000000000000000000000000000000000000000000000000000000000000000ea
:2040d600000000000000000000000000000000000000000003c00040400808258040000092
:2040f6002c0000000005d005e7300000ebe4358cc810007d8e53cf020000020000000000f4
:0d41160030f0b5610000000003c0000000a3
:2041230000000000000000000000000000000000000000000000000000000000000000007c
:20414300000000000100000000000000000000000000202e7d40100000007a25b0400600ab
:204163000040ff00001080f3030d000001e6aec3341000039cff4cc040001c0000000000c8
:0d41830002b9c000000010000000000000a4
:2041900000000000000000000000000000000000000000000000000000000000000000000f
:2041b000000000000000000000000000000000000000403e7c6000000000002580000000f0
:2041d0000060a50000001081acf240000243a78cc8000000905bf30000000000000000003d
:0d41f00001b0000000000000000000000011
:2041fd000000000000000000000000000000000000000000000000000000000000000000a2
:20421d00000000000000000000000000000000000000013e22000011a8007a25b000e140f7
:20423d00034833200400b8e5e0cd04000143ec0c340000079fb800084000800000000000db
:0d425d00007095e6158600000000000000ce
:20426a00000000000000000000000000000000000000000000000000000000000000000034
:20428a000000000000000000000000000000000000000e8e02cd0028550000258000e08027
:2042aa00035acc20000058ef2f320000002626c3c90000009c183fc0000f40000000000029
:0d42ca000010fb710000000000000000006b
:2042d7000000000000000000000000000000000000000000000000000000000000000000c7
:2042f70000000000000000000000000000000000000000040000000b99895a25b000400007
:20431700000000000009389000000000a0032ff33408000380b6b45440001400000000001f
:0d4337000079dbfc20a00000000000000069
:20434400000000000000000000000000000000000000000000000000000000000000000455
:20436400000000000000000000000000000000000000000002ce0001815808258040800022
:2043840000000000020001800000000002465cfcc800000009767c000080000000000000b3
:0d43a400019083b800000000000000000040
:2043b1000000000000000000000000000000000000000000000000000000000000040000e8
:2043d10000000000000000000000000000000000000c00000401030029805a25b0000000e0
:2043f10000000000300051c770cd004a0246c000000000011fd030c0048040000000000031
:0d4411000050cd020400000800341240806d
:20441e0000000000000000000000000000000000000000000000000000000000000400007a
:20443e0000000000010000000000000400000000000410003ccc0107c100082580001000b7
:20445e00000000003040000d3f3221c501e28000000004005cbb4f000c1080000000000001
:0d447e0060f491b0002103140006b00004aa
:20448b00000000000000000000000000000000000000000000000000000000000000000011
:2044ab0000000000000000000000000000000000000010040000001040017225b000001431
:2044cb007c0000000008399f7e140000021015d2530800001bbf8cc000a020620884c000fb
:0d44eb000050000000000004000000000070
:2044f8000000000000000000000000000000000000000000000000000000000000000000a4
:20451800000000000000000000000000000000000000100e00c00001200f0025814000008f
:2045380068000000002808d3ffa8000004401ef2408000000892730200400400481243004d
:0d4558000000d0000000006b4200000000d9
:20456500000000000000000000000000000000000000000000000000000000000000000036
:2045850000000000000000000000000000000000000e10007000038008001225b80000000e
:2045a5000000000038001815729c00e002e65fae2403818501ff0cd00f0806020884c03802
:0d45c50000000302950010000305bc30004b
:2045d2000000000000000000000000000000000000000000000000000000000000000000c9
:2045f200000000000000000000000000000000000000100c03c00000090008258000000014
:204612000000000000000087e944010000625ecdb00000050f16b32050003c014c1240006e
:0d463200007007b264400000041ca83200b4
:20463f0000000000000000000000000000000000000000000000000000000000000000005b
:20465f0000000000000000000000000000000000000000000000030000187225b000008059
:20467f006160a5001104b981f0cd000400000f8e240140080d5b4cd00c2400020884c03069
:0d469f0000000000000010020600000000f6
:2046ac000000000000000000000000000000000000000000000000000000000000000000ee
:2046cc0000000000000000000000000000000000000000000040030280000825800000005c
:2046ec0003e0ff00128070e36b320000000246ddb00700010a3ef3201c4040004d1248309f
:0d470c000004d00000000001c0000000000b
:20471900000000000000000000000000000000000000000000000000000000000000000080
:2047390000000000000000000000000000000000000000002200000000195225b800e020f6
:204759006cde0000040098eb30cd0000016027d33000038d8bfb8cd0000004020884c00023
:0d4779000001d383fc000002c025ed90007c
:20478600000000000000000000000000000000000000000000000000000000000000000013
:2047a60000000000000000000000000000000000000000247ec00000000808258000e014e8
:2047c60028c820200400b105a33200000003b6ecc00402050d16f32040003e014912400054
:0d47e60000718d32f4000401602ec520002a
:2047f3000000000000000000000000000000000000000000000000000000000000000000a6
:20481300000000000000000000000000000000000000a02038c0042000007a25b00000b4a6
:20483300037cf70000005811030d041000664efe2408008f89b030d8000046060984c0001b
:0d4853000018076fd0410001e7cfcae00058
:20486000000000000000000000000000000000000000000000000000000000000000000038
:20488000000000000000000000000000000000000000002c43e000000000002580000026fe
:2048a0000359ff000020f08fb8f280000006078db000000b1ed34f20000040204c12400021
:0d48c0000050b7efc000000003e5e3420028
:2048cd000000000000000000000000000000000000000000000000000000000000000000cb
:2048ed0000000000000000000000000000000000000000003a01000000007a25b0000024fd
:20490d0038e00000028581b5830c000001c3de0000000807817e4cd8002020020984400043
:0d492d003800000000000414e3aeaee0000e
:20493a0000000000000000000000000000000000000000000000000000000000000000005d
:20495a000000000000000000000000000000000000000004024a0000000000258000002c1c
:20497a004240a5010102b0d5acf0800200421e05a00028008d7ab3200000040148124000a9
:0d499a001090000000000208e025abb00006
:2049a7000000000000000000000000000000000000000000000000000000000000000000f0
:2049c700000000001000000000000000000000000000010022010000081f5a25b000000046
:2049e70078000000010091f930cd001003e00ede2400400f0e138cd00040807000000004ad
:0d4a070000198f00f0000001e70000000022
:204a1400000000000000000000000000000000000000000000000000000000000000000082
:204a3400000000000000000000000000000000000000000030cb00000108082580000000b1
:204a5400000000000288188533320000046207ddb000000b993fb3242000000000000000e2
:0d4a740000549125f80700024400000000e6
:204a8100000000000000000000000000000000000000000000000000000000000000000015
:204aa10000000000000000000000000000000000000400000200010009805a259000000650
:204ac10000ebfc003000d9b9f214000003c39ffe240108651c0000000400000000000030e1
:0d4ae10000380b2000060000e03cc7700408
:204aee000000000000000000000000000000000000000000000000000000000000000000a8
:204b0e00000000000000000000000000000000000004000003480100010008258000000089
:204b2e00025cfd113000b0d7f3a8000001601e9db0030009100000000c0000000000003085
:0d4b4e000000056040800001e01fddd00088
:204b5b0000000000000000000000000000000000000000000000000000000000000000003a
:204b7b000000000000000000000000000000000000000c0002000020580f32389000200665
:204b9b0065e0c3000200b08928cd000000065598500000201a900f100000043978ef0000f2
:0d4bbb00050003a25a0000000226e085005c
:204bc8000000000000000000000000000000000000000000000000000000000000000000cd
:204be8000000000000000000000000200000000000001000024000002f1d1f36c04040005a
:204c08002e6d3c008100f899a732001000462d9ea0000380107b4924408002434aff01003f
:0d4c28001a0000825809000007a5a0000432
:204c350000000000000000000000000000000000000000000000000000000000000000005f
:204c550000000000000000000000000000000000000e0020000003801701da7dc00e000e43
:204c750001eed1607a0030ab3a9c00e0020216ba70039280000000000e001400ee33300127
:0d4c9500020003a25a02e00146bcc77000f5
:204ca2000000000000000000000000000000000000000000000000000000000000000000f2
:204cc200000000000000000000000000000000000000000c30c00000200d3ebfc0000c00e0
:204ce20000caf000010000a97544000016469ea510006800000000000001402c59cc0800e4
:0d4d0200050000825800000022e79dd0004f
:204d0f00000000000000000000000000000000000000000000000000000000000000000084
:204d2f00000000000000000000000000000000000001000000000008a00000000000032098
:204d4f0030493320310079813e9000c060405dfa40036820000000000081542beaf700021a
:0d4d6f00000003225a004000e015f8500437
:204d7c00000000000000000000000000000000000000000000000000000000000000000017
:204d9c00000000000000000000000000000000000000042424c00010070000000000008c48
:204dbc0043dacc10120099077a6001c041e25ea980031040000000000060b4024cff000132
:0d4ddc000000000258014002e02cbea000c3
:204de9000000000000000000000000000000000000000000000000000000000000000000aa
:204e09000000000000000000000000000000000000000000000000028d1800000002810c53
:204e290005ffd150410098ed68cdc000df53e41a540000010000000000000402efd16000de
:0d4e4900008007225a8002080700000000c8
:204e560000000000000000000000000000000000000000000000000000000000000000003c
:204e7600000000000000000000000000000000000000003c02c00000030000000000401cbf
:204e960020daf00000801903fb322000026226c9901000008000000000005424fdf0200031
:0d4eb60000b000025800049004000000004d
:204ec3000000000000000000000000000000000000000000000000000000000000000000cf
:204ee300000000000000000000000000000000000000001e22e00020080e7f001020002e7c
:204f0300045b33010000f191030c0000a0007c0000003050010000000001c070000000009c
:0d4f2300005005a25a000000000000000030
:204f3000000000000000000000000000000000000000000000000000000000000000000061
:204f5000000000000000000000000000000000000000001e67c04000211877480000081ca0
:204f700033dccc01003818f52cf000000003060ff01012200a00000000001c400000000034
:0d4f90000000a00258200000038000000077
:204f9d000000000000000000000000000000000000000000000000000000000000000000f4
:204fbd00000000000000000000000000000000000000014e02000000010800000000094031
:204fdd0006c0a5000000f0fdf4cd8000a84000000000402000000000000c1c7dc000080066
:0d4ffd000000a3225a010000000000000087
:20500a00000000000000000000000000000000000000000000000000000000000000000086
:20502a0000000000000000000000000000000000000000a403ca000050000000000000b4f1
:20504a00304000200000588beb3201000420000000000040000000000000243a60ff110083
:0d506a0000d0f0825800008000000000001f
:20507700000000000000000000000000000000000000000000000000000000000000000019
:20509700000000000000000000000000800000000000200000010000418000000000002671
:2050b70027c00008000099c9fccd00000a6345885000680008000000000000600000000065
:0d50d700007807225a8100000280000000ce
:2050e4000000000000000000000000000000000000000000000000000000000000000000ac
:20510400000000000000000000000000000000000000000002cc0000200000000000002c71
:205124007ac0ff01000010ef333280001443ef8ea000202010000000000000000000000089
:0d5144000000f0825800000006000000008e
:2051510000000000000000000000000000000000000000000000000000000000000000003e
:2051710000000000000000000000000000000000000400003a00000000005e7dc000005ee7
:2051910025400000500050e9030d000048023eaa7011080380000000008040016100208000
:0d51b100000003a25a00c003c0000000006f
:2051be000000000000000000000000000000000000000000000000000000000000000000d1
:2051de000000000000000000000000030000000000040000654b00000300563fc000008022
:2051fe0033e0ff207000100530f28000124036b510030380000000000008b402cb180000c4
:0d521e00000000025800c001c000000000a8
:20522b00000000000000000000000000000000000000000000000000000000000000000063
:20524b0000000000000000000000000000000000000010200000000000085b6140000024eb
:20526b000258000002385000000000000006f6e85000000f1b33ddc00080247c5877000022
:0d528b00000003225a000001664ea77100ca
:205298000000000000000000000000000000000000000000000000000000000000000000f6
:2052b800000000000000000000000000000000000000101c00400000001f3a3a8000003c1b
:2052d800385e0400010008b00000000001c2b58ea00000110833b74000801e6cd9dd0000ba
:0d52f800000000825830000003ed9dd00042
:20530500000000000000000000000000000000000000000000000000000000000000000088
:2053250000000000e00060000000000000000000000e10003a00038008083be9c00e001437
:205345002a60a5203800d8a0000000e014674dda7003a050007000020e0600204ae05080c4
:0d5365000081c3a25a00e00bc6e5a857085e
:2053720000000000000000000000000000000000000000000000000000000000000000001b
:20539200000000000001c000000000000f0000000000100003c000000b1073544000003600
:2053b2006c60ff00000811b0000000001e46dcb51000002d0053d08000000066ccf000420e
:0d53d2000010008258200017c2aee4000059
:2053df000000000000000000000000000000000000000000000000000000000000000000ae
:2053ff00000000000001e00000000000000000000000000020000100098c16690005000073
:20541f006360a500120881a1869481400a079eda400030001a7a395002201603e024008019
:0d543f000400a7225a0000014675985498f9
:20544c00000000000000000000000000000000000000000000000000000000000000000040
:20546c000000000000000000000000000000000000000000774003010f005ea6000400004e
:20548c000140ff003001510ba20400c017c3dce98000028110977642000a0001ef002000b2
:0d54ac000200008258060002423ee40000ab
:2054b9000000000000000000000000000000000000000000000000000000000000000000d3
:2054d9000000000000000000000000000000000000000040260000030301b0695010a01419
:2054f90002c0e7000000819b079c010c0bc76c0a54001001803e2142600004636081008028
:0d5519000079c3225a0200c5c65fc85400c5
:20552600000000000000000000000000000000000000000000000000000000000000000065
:2055460000000000000000000000000000000000000000002e4000000d0e7b264000403665
:205566002f6e180000005087a7fc8404f1e76ea99000085d001b600200000640ce002000d9
:0d5586000051000258000009c367f80080c2
:205593000000000000000000000000000000000000000000000000000000000000000000f8
:2055b3000000000000400000000000000000f03fc040001e78e040000501900008400814b9
:2055d3002cc1e740000000ade7dc0000004066b85088001f9e3fbdc000081e23fb857080cc
:0d55f3000050e1a25a0000020396c77000ac
:2056000000000000000000000000000000000000000000000000000000000000000000008a
:20562000000000000000000000000000100018168000008243e000000508f83fc8400000bb
:20564000236d1800000001b72ffc000021e23c850200202709d63fc000005642cb40000031
:0d5660000079008258200000c2cfbdd000ac
:20566d0000000000000000000000000000000000000000000000000000000000000000001d
:20568d00000000000000003400040000000000000000004030000010039c37bdc0000000f2
:2056ad0075ddb240040080f3800184006002e680009000059cbee05040401e2a6f77000088
:0d56cd00020005a25800040143f59f700083
:2056da000000000000000000000000000000000000000000000000000000000000000000b0
:2056fa0000000000000000040ff004000000000000000080274c00200910f33fc010001447
:20571a0068eff0100420318b83fc010014463f91a01030000e5b680040a00026fedd0001fb
:0d573a000400f082580202c027dd9ff0003d
:20574700000000000000000000000000000000000000000000000000000000000000000042
:205767000000000000000000000000000000000000000000220100000d085a8408002006de
:2057870071ddbf00400000a5779c000a026034da4000010581d8294400021421c977000000
:0d57a70000800dfddc0000026004b7700002
:2057b4000000000000000000000000000000000000000000000000000000000000000000d5
:2057d400000000000000000000000000000e00000000000042cb0000011af24004004014f5
:2057f4007c7fff000000010967940004104216e9800000490fb0000010002425ffdd000282
:0d5814000010f12b74000000e2dc8dd000cc
:20582100000000000000000000000000000000000000000000000000000000000000000067
:2058410000000000400000000000000000000000000c001c060000280d9c0000000ca01e3e
:205861003c00000030009807079d04000e63ae0a5410102b0000000000013e7000000001fc
:0d58810002500579dc00004263b7b8558085
:20588e000000000000000000000000000000000000000000000000000000000000000000fa
:2058ae0000000000400000000000000000000000000c00002f4d001005100000000c40029f
:2058ce006800000010001001ac6080000fc7e6a990000057ca000000004084600000000269
:0d58ee00acd807b374000000642ea40010b5
:2058fb0000000000000000000000000000000000000000000000000000000000000000008d
:20591b000000000000000046a71408000000000000000084300000004000000000000080ef
:20593b0001c896c00010800f7694000014401cef660001818ff33bc000040063dc77000006
:0d595b000001a1225aa0081406560a5400ab
:2059680000000000000000000000000000000000000000000000000000000000000000001f
:20598800000000000000021c9f000000000000000000114002c00010000000000000080017
:2059a8002c009612800010013a84000008025691d410038f889e73c021a00002efdd080461
:0d59c80000000082580800ea431489900096
:2059d5000000000000000000000000000000000000000000000000000000000000000000b2
:2059f50000000000e0014016000410800000fe95d81e00000000000008000000000e2c00fc
:205a150061c896e03a80d809000000e401c054e5b603981b805b44080e002600ca856000e3
:0d5a3500000001a25a00e002006c0a5400bb
:205a4200000000000000000000000000000000000000000000000000000000000000000044
:205a6200000000000003c00c0ff002800000bb0d1000000000400000090000000000003c77
:205a8200400096018100500503fc000209e38cf1a50028a70e138004000004035e800000ef
:0d5aa2001800b082584000004374d99000f5
:205aaf000000000000000000000000000000000000000000000000000000000000000000d7
:205acf0000000000c04200060664080001000000000001000200000000000000000408002d
:205aef0001c896c03008018d8060000001e000000003500f9930001010010034ec854800b8
:0d5b0f00180003225a004001e78c0a5400e0
:205b1c00000000000000000000000000000000000000000000000000000000000000000069
:205b3c00000000004000401c9c300000000000000000403c03400000000000000004a0007e
:205b5c00002096001010000f2204000003e000000003298b8e9829440000047eee800002ff
:0d5b7c00000400825840c0002424899000dd
:205b89000000000000000000000000000000000000000000000000000000000000000000fc
:205ba900000000000001400000000000058000000000000c3a0000100000000000000014ac
:205bc900216896800001d9a7879c000000400000000028dd0170294000000000ca854002c9
:0d5be90084d805a25a000022004c0a540086
:205bf60000000000000000000000000000000000000000000000000000000000000000008f
:205c1600000000000000000000000000008000000000000c334000200000000000008e14ad
:205c360040209608428250a3bbfc000000200000000000218e900000004404225a80180027
:0d5c56000050000258440001c3fed9900028
:205c6300000000000000000000000000000000000000000000000000000000000000000021
:205c83000000000000006000000000000180000000000000074020002000f8294000080030
:205ca300006896800000180d839c000002400000000040279c56000a500a2e6eed856003af
:0d5cc300808085a25a00000262640a54002d
:205cd0000000000000000000000000000000000000000000000000000000000000000000b4
:205cf00000000000000002400000000000000000000000003d4000004000103fc0000e0078
:205d100000209600000100b52060000005e000000000430510d2128001800c206e8000004b
:0d5d300000700002584010c0462689900007
:205d3d00000000000000000000000000000000000000000000000000000000000000000046
:205d5d00000000000000000000000000001c00000000002000010029800000000000000040
:205d7d00016896800004f00d82940000020000000000000d807f214660209c76ca854000da
:0d5d9d00003807225a80000407260a54002f
:205daa000000000000000000000000000000000000000000000000000000000000000000d9
:205dca00000000000000000000000000001000000000000c264f00100000000000000e000a
:205dea00000096000000b00183fc000009400000000000010032e002008854685d80000054
:0d5e0a000008000258040000002cd9901080
:205e170000000000000000000000000000000000000000000000000000000000000000006b
:205e370000000000020060000000000000000000000000002200000380000000000000261e
:205e5700056896800004019bba9c000002e025e8518800019f36e1462006843bfb77000096
:0d5e7700023803a25a040000003e0a540045
:205e84000000000000000000000000000000000000000000000000000000000000000000fe
:205ea400000000000000000000000000000000000000440002cf0000200000000000014464
:205ec400200096004000d19d6160000000e3e4c8001040001e5a200200011428cfdd000037
:0d5ee4000108000258040040023e899200af
:205ef100000000000000000000000000000000000000000000000000000000000000000091
:205f1100000000004000000000000300011a0000000ca0200601002010000000000400000b
:205f310069e89680340099df2d910044020017d85180105b80ff614e30213c27e10030011a
:0d5f5100020003225a04000003c0000000fb
:205f5e00000000000000000000000000000000000000000000000000000000000000000023
:205f7e000000000040000000000003000010000000044a3c394e001ba94000000004000097
:205f9e00002096001400118fee6c004801401488010008270032e0000000967feb18008020
:0d5fbe008000000258040000078000000071
:205fcb000000000000000000000000000000000000000000000000000000000000000000b6
:205feb0000000000000000000000000000000000000010000000000000080000000000007e
:20600b007008f00000008009aa9000000003add85000218819bee14860800002cc004000db
:0d602b00027803225a000002001eb4240077
:206038000000000000000000000000000000000000000000000000000000000000000090b8
:20605800000000000000000000000000000800000000100000c00002001000000000a03c62
:206078002400f0048280108b7660000014439ecea00010070f33e000000000025c02000081
:0d6098001408d0025854000040069b848478
:2060a5000000000000000000000000000000000000000000000000000000000000080000d3
:2060c500077b2d02000000000000038000080000000e1040000000280000329dc00e000c50
:2060e5003ce0ff00380039f1069500e0000785ca7003830000f260581e008001fe020038d6
:0d610500000001225a80f010004000000050
:20611200000000000000000000000000000000000000000000000000000000000008000065
:20613200033695040000000000000000001000000000128033c00010090e96f740100000e2
:2061520036e05a004000f8df3a644010f4001dc5100000050056e800600f5c27dda7008099
:0d617200000000825820000003c000000063
:20617f000000000000000000000000000000000000000000000000000000000000300000d0
:20619f000000000000200000000000008000000000000004020000204019df02c000081404
:2061bf00046ddb00900271ad069500c00000178a400040018af0168800080001e1e7080056
:0d61df00005007225a2154160380000000d2
:2061ec00000000000000000000000000000000000000000000000000000000000030000063
:20620c0000000000000000000000000000000000000040823ec000000008977a8000001405
:20622c00344ee501103410ff326404c000001f99800068108ab83fc000003403e8ff00002e
:0d624c00049000825800c80bc40000000040
:206259000000000000000000000000000000000000000000000000000000000000000178ac
:206279000000000000000000000000000000975bd00000400200000020007e660000001ce1
:206299003f7ba400000078ad0695000002000c1a540000070176615420000c0000000000ec
:0d62b900080003225a201001e00000000040
:2062c6000000000000000000000000000000000000000000000000000000000000000208ae
:2062e6000000000000000000000000000000fa7cd04002a402c00010490ef2f98000002cac
:20630600635d98000000f8edba640400114266a9901003058e93600800003c000000000049
:0d632600020000825840000020000000002e
:20633300000000000000000000000000000000000000000000000000000000000000001832
:20635300e00000000020000000000000000000000000412430c040080f81000000000006f7
:20637300715ed1400000001d8400800000c6c00000004005007369c200002e2541182000d4
:0d639300001817a25a0000000000000000d2
:2063a0000000000000000000000000000000000000000000000000000000000000000000dd
:2063c000000000000000000000000000100000000000202e03e00000078f000000000804da
:2063e0003ae9f008400800f525080400000600000000008000f2944000000e22cfbd00000c
:0d6400000508f082580000c00000000000f8
:20640d0000000000000000000000000000000000000000000000000000000000000000006f
:20642d0000000000000000000000000000000000000000003e010000000800000000000008
:20644d0038000000000080198000000030400000000040879efaa85a100080077e250000d3
:0d646d00801007225880040000000000008d
:20647a00000000000000000000000000000000000000000000000000000000000000000002
:20649a00000000000000000000000000090000000000005c39ca000000100000000000006a
:2064ba0060000000000010f90168000002624000000020051936d08600011c3d4f10084180
:0d64da000070b0825820002000000000007b
:2064e700000000000000000000000000000000000000000000000000000000000000007025
:20650700c00000000000000000000000000000000000000026000000401b000000008000b3
:206527000259a700000200198400010a02670000000040078a3ea14060802077405a00003e
:0d6547000200f93a15040060000000000099
:20655400000000000000000000000000000000000000000000000000000000000000000126
:2065740000000000000000000000000000000000000002002e4a0000001f000000000e0060
:2065940003f951000005009da090000400440000000000039e52200000003c62cd7e100074
:0d65b4000471932a000400000000000000a4
:2065c10000000000000000000000000000000000000000000000000000000000001000703a
:2065e10000000000100000000000030007800000000c0160000000000100703fc0200036cd
:2066010060cb8500000081cd0000400009c00000000000019c0000000c061c39e0ff00008f
:0d6621000001e7f5dc004000000000000073
