:02000000ff00ff
:080002004c6174746963650030
:17000a00694345637562653220323031342e30342e32363432350073
:16002100506172743a2069434534304858384b2d435432353600ff
:1b003700446174653a204d617220323520323031352032323a33313a34340083
:0200520000ffad
:040054007eaa997e69
:02005800510055
:02005a0001059e
:03005c00920020ef
:03005f00620367d2
:0300620072011018
:0300650082000016
:02006800110085
:02006a00010192
:20006c00000000000000000000000000000000000000000000000000000000000000000074
:20008c00000000000000000000000000000000000000000000000000000000000000000054
:2000ac00000000000000000000000000000000000000000000000000000000000000000034
:0d00cc000000000000000000000000000027
:2000d900000000000000000000000000000000000000000000000000000000000000000007
:2000f9000000000000000000000000000000000000000000000000000000000000000000e7
:200119000000000000000000000000000000000000000000000000000000000000000000c6
:0d01390000000000000000000000000000b9
:20014600000000000000000000000000000000000000000000000000000000000000000099
:20016600000000000000000000000000000000000000000000000000000000000000000079
:20018600000000000000000000000000000000000000000000000000000000000000000059
:0d01a6000000000000000400000000000048
:2001b30000000000000000000000000000000000000000000000000000000000000000002c
:2001d30000000000000000000000000000000000000000000000000000000000000000000c
:2001f3000000000000000000000000000000000000000000000000000000000000000000ec
:0d02130000000000000000000000000000de
:200220000000000000000000000000000000000000000000000000000000000000000000be
:2002400000000000000000000000000000000000000000000000000000000000000000009e
:2002600000000000000000000000000000000000000000000000000000000000000000007e
:0d0280000000000000000000000000000071
:20028d00000000000000000000000000000000000000000000000000000000000000000051
:2002ad00000000000000000000000000000000000000000000000000000000000000000031
:2002cd00000000000000000000000000000000000000000000000000000000000000000011
:0d02ed000000000000000000000000000004
:2002fa000000000000000000000000000000000000000000000000000000000000000000e4
:20031a000000000000000000000000000000000000000000000000000000000000000000c3
:20033a000000000000000000000000000000000000000000000000000000000000000000a3
:0d035a000000000000000000000000000096
:20036700000000000000000000000000000000000000000000000000000000000000000076
:20038700000000000000000000000000000000000000000000000000000000000000000056
:2003a700000000000000000000000000000000000000000000000000000000000000000036
:0d03c7000000000000000000000000000029
:2003d400000000000000000000000000000000000000000000000000000000000000000009
:2003f4000000000000000000000000000000000000000000000000000000000000000000e9
:200414000000000000000000000000000000000000000000000000000000000000000000c8
:0d04340000000000000000000000000000bb
:2004410000000000000000000000000000000000000000000000000000000000000000009b
:2004610000000000000000000000000000000000000000000000000000000000000000007b
:2004810000000000000000000000000000000000000000000000000000000001000000005a
:0d04a100000000000000000000000000004e
:2004ae0000000000000000000000000000000000000000000000000000000000000000002e
:2004ce0000000000000000000000000000000000000000000000000000000000000000000e
:2004ee000000000000000000000000000000000000000000000000000000000100000000ed
:0d050e0000000400000000000000000000dc
:20051b000000000000000000000000000000000000000000000000000000000000000000c0
:20053b000000000000000000000000000000000000000000000000000000000000000000a0
:20055b0000000000000000000000000000000000000000000000100000000003000000006d
:0d057b000000000000000000000000000073
:20058800000000000000000000000000000000000000000000000000000000000000000053
:2005a800000000000000000000000000000000000000000000000000000000000000000033
:2005c800000000000000000000000000000000000000000000000000000000010000000012
:0d05e80000000800000000000010000000ee
:2005f5000000000000000000000000000000000000000000000000000000000000000000e6
:200615000000000000000000000000000000000000000000000000000000000000000000c5
:200635000000000000000000000000000000000000000000000000000000000000000000a5
:0d0655000000040000000000000000000094
:20066200000000000000000000000000000000000000000000000000000000000000000078
:20068200000000000000000000000000000000000000000000000000000000000000000058
:2006a200000000000000000000000000000000000000000020000000000000000000000018
:0d06c200000000000000000000000000002b
:2006cf0000000000000000000000000000000000000000000000000000000000000000000b
:2006ef000000000000000000000000000000000000000000000000000000000000000000eb
:20070f00000000000000000000000000000000000000000140000000000000000000000089
:0d072f0000000800000000000000000000b5
:20073c0000000000000000000000000000000000000000000000000000000000000000009d
:20075c0000000000000000000000000000000000000000000000000000000000000000007d
:20077c0000000000000000000000000000000000000000000000000000000000000000005d
:0d079c000000000000000000000000000050
:2007a900000000000000000000000000000000000000000000000000000000000000000030
:2007c900000000000000000000000000000000000000100027c00000000000000000000019
:2007e9000000000000000000000000000000000000000000000000000000000000000000f0
:0d08090000000000000000000000000000e2
:200816000000000000000000000000000000000000000000000000000000000000000000c2
:2008360000000000000000000000000000000000000e002000000000000000000000000074
:20085600000000000030000000000000000000000000000000000000000000000000000052
:0d0876000000000000000000000000000075
:20088300000000000000000000000000000000000000000000000000000000000000000055
:2008a300000000000000000000000000000000000000001c02c00000000000000000000057
:2008c300000000000000000000000000000000000000000000000000000000000000000015
:0d08e3000000000000000000000000000008
:2008f0000000000000000000000000000000000000000000000000000000000000000000e8
:200910000000000000000000000000000000000000000000020000000000000000000000c5
:200930000000000000000000000000000000000000000000000000000000000000000004a3
:0d095000000000000000000000000000009a
:20095d0000000000000000000000000000000000000000000000000000000000000000007a
:20097d00000000000000000000000000000000000000000001400000000000000000000019
:20099d0000000000000000000000000000000000000000000000000000000000000000003a
:0d09bd00000000000000000000000000002d
:2009ca0000000000000000000000000000000000000000000000000000000000000000000d
:2009ea00000000000000000000000000000000000000000e000000100000000000000000cf
:200a0a0000000000000000000000000000000000000040000000000000000000000000008c
:0d0a2a0000000000000000000000000000bf
:200a370000000000000000000000000000000000000000000000000000000000000000009f
:200a5700000000000000000000000000000000000000000203c00028000000000000000092
:200a770000000000000000000000000000000000000040000000000000000000000000001f
:0d0a97000000000000000000000000000052
:200aa400000000000000000000000000000000000000000000000000000000000000000032
:200ac400000000000000000000000000000000000000000421e040000000000000000000cd
:200ae4000000000000000000000000000000000000000000000000000000000000000000f2
:0d0b040000000000000000000000000000e4
:200b11000000000000000000000000000000000000000000000000000000000000000000c4
:200b310000000000000000000000000000000000000000240240000000000000000000003e
:200b5100000000000000000000000000000000000000000000000000000000000000000084
:0d0b71000000000000000000000000000077
:200b7e00000000000000000000000000000000000000000000000000000000000000000057
:200b9e0000000000000000000000000000000000000000002600000300000000000000000e
:200bbe00000000000000000000000000000000000000000000000000000000000000000017
:0d0bde00000000000000000000000000000a
:200beb000000000000000000000000000000000000000000000000000000000000000000ea
:200c0b0000000000000000000000000000000000000000007bce0000000000000000000080
:200c2b000000000000000000000000000000000000000000000000000000000000000000a9
:0d0c4b00000000000000000000000000009c
:200c580000000000000000000000000000000000000000000000000000000000000000007c
:200c78000000000000000000000000000000000000000020240100084000000000000000cf
:200c980000000000000000000000000000000000000000000000000000000000000000003c
:0d0cb800000000000000000000000000002f
:200cc50000000000000000000000000000000000000000000000000000000000000000000f
:200ce500000000000000000000000000000000000000000c3ccd00102000000000000000aa
:200d05000000000000000000000000000000000000000000000000000000000000000000ce
:0d0d250000000000000000000000000000c1
:200d32000000000000000000000000000000000000000000000000000000000000000000a1
:200d5200000000000000000000000000000000000004000004010000000000000000000078
:200d7200000000000000000000000000000000000000000000000000000000000000000061
:0d0d92000000000000000000000000000054
:200d9f00000000000000000000000000000000000000000000000000000000000000000034
:200dbf00000000000000000000000000000000000004002430cd00000000000000000000ef
:200ddf000000000000000000000000000000000000000000000000000000000000000000f4
:0d0dff0000000000000000000000000000e7
:200e0c000000000000000000000000000000000000000000000000000000000000000000c6
:200e2c00000000000000000000000000000000000000b020040000000000000000000000d2
:200e4c00000000000000000000000000000000000000000000000000000000000000000086
:0d0e6c000000000000000000000000000079
:200e7900000000000000000000000000000000000000000000000000000000000000000059
:200e9900000000000000000000000000000000000000102c36400000000000000000000087
:200eb900000000000000000000000000000000000000000000000000000000000000000019
:0d0ed900000000000000000000000000000c
:200ee6000000000000000000000000000000000000000000000000000000000000000000ec
:200f060000000000000000000000000000000000000e10007200000000000000000000003b
:200f2600000000000038000000000000000000000000000000000000000000000000000073
:0d0f4600000000000000000000000000009e
:200f530000000000000000000000000000000000000000000000000000000000000000007e
:200f730000000000000000000000000000000000000010000340000000000000000000000b
:200f930000000000000000000000000000000000000000000000000000000000000000003e
:0d0fb3000000000000000000000000000031
:200fc000000000000000000000000000000000000000000000000000000000000000000011
:200fe00000000000000000000000000000000000000000000200004050000000000000005f
:201000000000000000000000000000000000000000000000000000000000000000000000d0
:0d10200000000000000000000000000000c3
:20102d000000000000000000000000000000000000000000000000000000000000000000a3
:20104d00000000000000000000000000000000000000001c03c000000000000000000000a4
:20106d00000000000000000000000000000000000000000000000000000000000000000063
:0d108d000000000000000000000000000056
:20109a00000000000000000000000000000000000000000000000000000000000000000036
:2010ba000000000000000000000000000000000000000024040000000000000000000000ee
:2010da000000000000000000000000000000000000000000000000000000000000000000f6
:0d10fa0000000000000000000000000000e9
:201107000000000000000000000000000000000000000000000000000000000000000000c8
:20112700000000000000000000000000000000000000001c2dc0000000000000000000009f
:20114700000000000000000000000000000000000000000000000000000000000000000088
:0d116700000000000000000000000000007b
:2011740000000000000000000000000000000000000000000000000000000000000000005b
:20119400000000000000000000000000000000000000011c04e00008000000000000000032
:2011b40000000000000000000000000000000000000000000000000000000000000000001b
:0d11d400000000000000000000000000000e
:2011e1000000000000000000000000000000000000000000000000000000000000000000ee
:20120100000000000000000000000000000000000000048037c0081000000000000000003a
:201221000000000000000000000000000000000000000000000000000000000000000000ad
:0d12410000000000000000000000000000a0
:20124e00000000000000000000000000000000000000000000000000000000000000000080
:20126e00000000000000000000000000000000000000000e02000000000000000000000050
:20128e00000000000000000000000000000000000000000000000000000000000000000040
:0d12ae000000000000000000000000000033
:2012bb00000000000000000000000000000000000000000000000000000000000000000013
:2012db000000000000000000000000000000000000000000014c00000000000000000000a6
:2012fb000000000000000000000000000000000000000000000000000000000000000000d3
:0d131b0000000000000000000000000000c5
:201328000000000000000000000000000000000000000000000000000000000000040000a1
:20134800000000000000000000000000000000000000000020000000000000000000000065
:20136800000000000000000000000000000000000000000000000000000000000000000065
:0d1388000000000000000000000000000058
:20139500000000000000000000000000000000000000000000000000000000000000000038
:2013b5000000000000000000000000000000000000000604004d00000000000000000000c1
:2013d5000000000000000000000000000000000000000000000000000000000000000000f8
:0d13f50000000000000000000000000000eb
:201402000000000000000000000000000000000000000000000000000000000000000000ca
:20142200000000000000000000000000000000000004000070010000000000000000000035
:2014420000000000000000000000000000000000000000000000000000000000000000008a
:0d146200000000000000000000000000007d
:20146f0000000000000000000000000000000000000000000000000000000000000000005d
:20148f0000000000000000000000000000000000000c0000014900000000000000000000e7
:2014af0000000000000000000000000000000000000000000000000000000000000000001d
:0d14cf000000000000000000000000000010
:2014dc000000000000000000000000000000000000000000000000000000000000000000f0
:2014fc00000000000000000000000000000000000000801e220000280000000000000000e8
:20151c000000000000000000000000000000000000000000000000000000000000000000af
:0d153c0000000000000000000000000000a2
:20154900000000000000000000000000000000000000000000000000000000000000000082
:20156900000000000000000000000000000000000000100066c0000000000000000000002c
:20158900000000000000000000000000000000000000000000000000000000000000000042
:0d15a9000000000000000000000000000035
:2015b600000000000000000000000000000000000000000000000000000000000000000015
:2015d60000000000000000000000000000000000000e0000240000000000000000000000c3
:2015f6000000000000000000000000000000000000000000000000000000000000000000d5
:0d16160000000000000000000000000000c7
:201623000000000000000000000000000000000000000000000000000000000000000000a7
:2016430000000000000000000000000000000000000000006e4000000000000000000000d9
:20166300000000000000000000000000000000000000000000000000000000000000000067
:0d168300000000000000000000000000005a
:2016900000000000000000000000000000000000000000000000000000000000000000003a
:2016b0000000000000000000000000000000000000000040040000001000000000000000c6
:2016d0000000000000000000000000000000000000004000000000000100000000000004b5
:0d16f00000000000000000000000000000ed
:2016fd000000000000000000000000000000000000000000000000000000000000000000cd
:20171d00000000000000000000000000000000000000000439c000000000000000000000af
:20173d0000000000000000000000000000000000000000000000000000000000000000008c
:0d175d00000000000000000000000000007f
:20176a0000000000000000000000000000000000000000000000000000000000000000005f
:20178a0000000000000000000000000000000000000000200200000000000000000000001d
:2017aa0000000000000000000000000000000000000000000000000000000000000000001f
:0d17ca000000000000000000000000000012
:2017d7000000000000000000000000000000000000000000000000000000000000000000f2
:2017f700000000000000000000000000000000000000003426400000000000000000000038
:201817000000000000000000000000000000000000000000000000000000000000000000b1
:0d18370000000000000000000000000000a4
:20184400000000000000000000000000000000000000000000000000000000000000000084
:20186400000000000000000000000000000000000000200003404020500000000000000051
:20188400000000000000000000000000000000000000000000000000000000000000000044
:0d18a4000000000000000000000000000037
:2018b100000000000000000000000000000000000000000000000000000000000000000017
:2018d100000000000000000000000000000000000000400402400000000000000000000071
:2018f1000000000000000000000000000000000000000000000000000000000000000000d7
:0d19110000000000000000000000000000c9
:20191e000000000000000000000000000000000000000000000000000000000000000000a9
:20193e00000000000000000000000000000000000000000000000000000000000000000089
:20195e00000000000000000000000000000000000000000000000000000000000000000069
:0d197e00000000000000000000000000005c
:20198b0000000000000000000000000000000000000000000000000000000000000000003c
:2019ab000000000000000000000000000000000000000000274800000000000000000000ad
:2019cb000000000000000000000000000000000000000000000000000000000000000000fc
:0d19eb0000000000000000000000000000ef
:2019f8000000000000000000000000000000000000000000000000000000000000000000cf
:201a1800000000000000000000000000000000000000001c0000002800000000000000006a
:201a380000000000000000000000000000000000000000000000000000000000000000008e
:0d1a58000000000000000000000000000081
:201a6500000000000000000000000000000000000000000000000000000000000000000061
:201a8500000000000000000000000000000000000000000000c90000000000000000000078
:201aa500000000000000000000000000000000000000000000000000000000000000000021
:0d1ac5000000000000000000000000000014
:201ad2000000000000000000000000000000000000000000000000000000000000000000f4
:201af20000000000000000000000000000000000000c000e020100000000000000000000b7
:201b1200000000000000000000000004e000000000000000000000000000000000000000cf
:0d1b320000000000000000000000000000a6
:201b3f00000000000000000000000000000000000000000000000000000000000000000086
:201b5f0000000000000000000000000000000000000c0002034a000000000000000000000b
:201b7f00000000000000000000000002000000000000000000000000000000000000000044
:0d1b9f000000000000000000000000000039
:201bac00000000000000000000000000000000000000000000000000000000000000000019
:201bcc00000000000000000000000000000000000000101c0000000040000000000000008d
:201bec000000000000000000000000000000000000000000000000000000000000000000d9
:0d1c0c0000000000000000000000000000cb
:201c19000000000000000000000000000000000000000000000000000000000000000000ab
:201c3900000000000000000000000000000000000000100002c00000200000000000000099
:201c590000000000000000000000000000000000000000000000000000000000000000006b
:0d1c7900000000000000000000000000005e
:201c860000000000000000000000000000000000000000000000000000000000000000003e
:201ca60000000000000000000000000000000000000e100000000000000000000000000000
:201cc6000000000000000000000000000000000000000000000000000000000000000000fe
:0d1ce60000000000000000000000000000f1
:201cf3000000000000000000000000000000000000000000000000000000000000000000d1
:201d1300000000000000000000000000000000000000102402c000000000000000000000ba
:201d3300000000000000000000000000000000000000000000000000000000000000000090
:0d1d53000000000000000000000000000083
:201d6000000000000000000000000000000000000000000000000000000000000000000063
:201d8000000000000000000000000000000000000000004c020000000000000000000000f5
:201da0000000000000000000000000000000000000004000000000000000000000000000e3
:0d1dc0000000000000000000000000000016
:201dcd000000000000000000000000000000000000000000000000000000000000000000f6
:201ded00000000000000000000000000000000000000000003400000000000000000000093
:201e0d000000000000000000000000000000000000000000000000000000000000000000b5
:0d1e2d0000000000000000000000000000a8
:201e3a00000000000000000000000000000000000000000000000000000000000000000088
:201e5a0000000000000000000000000000000000000000003a00000000000000000000002e
:201e7a00000000000000000000000000000000000000000000000000000000000000000048
:0d1e9a00000000000000000000000000003b
:201ea70000000000000000000000000000000000000000000000000000000000000000001b
:201ec700000000000000000000000000000000000000000041c000000000000000000000fa
:201ee7000000000000000000000000000000000000000000000000000000000000000000db
:0d1f070000000000000000000000000000cd
:201f14000000000000000000000000000000000000000000000000000000000000000000ad
:201f3400000000000000000000000000000000000000040075c04000000000000000000014
:201f540000000000000000000000000000000000000000000000000000000000000000006d
:0d1f74000000000000000000000000000060
:201f8100000000000000000000000000000000000000000000000000000000000000000040
:201fa100000000000000000000000000000000000000080073e000000000000000000000c5
:201fc100000000000000000000000000000000000000000000000000000000000000000000
:0d1fe10000000000000000040000000000ef
:201fee000000000000000000000000000000000000000000000000000000000000000000d3
:20200e00000000000000000000000000000000000000000072000000000000000000000040
:20202e00000000000000000000000000000000000000000000000000000000000000000092
:0d204e000000000000001000000000000075
:20205b00000000000000000000000000000000000000000000000000000000000000000065
:20207b00000000000000000000000000000000000000000003c8000000000000000000007a
:20209b00000000000000000000000000000000000000000000000000000000000000000025
:0d20bb0000000000000000e0000000000038
:2020c8000000000000000000000000000000000000000000000000000000000000000000f8
:2020e800000000000000000000000000000000000000000026000020000000000000000092
:20210800000000000000000000000000000000000000400000000000000000000000000473
:0d212800000000000000100000000000009a
:2021350000000000000000000000000000000000000000000000000000000000000000008a
:20215500000000000000000000000000000000000000061c79ca0000000000000000000005
:2021750000000000000000000000000000000000000000000000000000000000000000004a
:0d219500000000000000000000000000003d
:2021a20000000000000000000000000000000000000000000000000000000000000000001d
:2021c200000000000000000000000000000000000004000e000100000000000000000c00de
:2021e2000000000000000000000000000000000000000000000000000000000000000000dd
:0d22020000000000000000000000000000cf
:20220f000000000000000000000000000000000000000000000000000000000000000000af
:20222f00000000000000000000000000000000000004002439cd0000000000000000000061
:20224f0000000000000000000000000000000000000000000000000000000000000000006f
:0d226f000000000000000000000000000062
:20227c00000000000000000000000000000000000000000000000000000000000000000042
:20229c00000000000000000000000000000000000000000002000000000000000000000020
:2022bc00000000000000000000000000000000000000000000000000000000000000000002
:0d22dc0000000000000000000000000000f5
:2022e9000000000000000000000000000000000000000000000000000000000000000000d5
:20230900000000000000000000000000000000000000100402c000000000000000000000de
:20232900000000000020000000000000000000000000000000000000000000000000000074
:0d2349000000000000000000000000000087
:20235600000000000000000000000000000000000000000000000000000000000000000067
:2023760000000000000000000000000000000000000e0020020000002000000000000000f7
:20239600000000000000000000000000000000000000000000000000000000000000000027
:0d23b60038000000000000000000000000e2
:2023c3000000000000000000000000000000000000000000000000000000000000000000fa
:2023e300000000000000000000000000000000000000003c02c0000050000000000000008c
:202403000000000000000000000000000000000000000000000000000000000000000000b9
:0d24230000000000000000000000000000ac
:2024300000000000000000000000000000000000000000000000000000000000000000008c
:20245000000000000000000000000000000000000000001c00000000000000000000000050
:2024700000000000000000000000000000000000000000000000000000000000000000004c
:0d249000000000000000000000000000003f
:20249d0000000000000000000000000000000000000000000000000000000000000000001f
:2024bd000000000000000000000000000000000000000800014000000000000000000000b6
:2024dd000000000000000000000000000000000000000000000000000000000000000000df
:0d24fd0000000000000000000000000000d2
:20250a000000000000000000000000000000000000000000000000000000000000000000b1
:20252a0000000000000000000000000000000000000100000000000380000000000000000d
:20254a00000000000000000000000000e00000000000000000000000000000000000000091
:0d256a000000000000000000000000000064
:20257700000000000000000000000000000000000000000000000000000000000000000044
:20259700000000000000000000000000000000000001002403c0000000000000000000003c
:2025b700000000000000040000000000000000000000000000000000000000000000000000
:0d25d70000000000000000000000000000f7
:2025e4000000000000000000000000000000000000000000000000000000000000000000d7
:20260400000000000000000000000000000000000000001e7160402810000000000000004f
:20262400000000000000000000000000000000000000000000000000000000000000000096
:0d2644000000000000000000000000000089
:20265100000000000000000000000000000000000000000000000000000000000000000069
:20267100000000000000000000000000000000000000000226c00001000000000000000060
:20269100000000000000000000000000000000000000000000000000000000000000000029
:0d26b100000000000000000000000000001c
:2026be000000000000000000000000000000000000000000000000000000000000000000fc
:2026de00000000000000000000000000000000000000000078000013000000000000000051
:2026fe000000000000000000000000000000000000000000000000000000000000000000bc
:0d271e0000000000000000000000000000ae
:20272b0000000000000000000000000000000000000000000000000000000000000000008e
:20274b00000000000000000000000000000000000000000022ce0008000000000000000076
:20276b0000000000000000000000000000000000000000000000000000000000000000004e
:0d278b000000000000000000000000000041
:20279800000000000000000000000000000000000000000000000000000000000000000021
:2027b80000000000000000000000000000000000000000207c00000800000000000000005d
:2027d8000000000000000000000000000000000000000000000000000000000000000000e1
:0d27f80000000000000000000000000000d4
:202805000000000000000000000000000000000000000000000000000000000000000000b3
:20282500000000000000000000000000000000000000000c7c4f00100000000000000000ac
:20284500000000000000000000000000000000000000000000000000000000000000000073
:0d2865000000000000000000000000000066
:20287200000000000000000000000000000000000000000000000000000000000000000046
:20289200000000000000000000000000000000000004000000010000000000000000000021
:2028b200000000000000000000000000000000000000000000000000000000000000000006
:0d28d20000000000000000000000000000f9
:2028df000000000000000000000000000000000000000000000000000000000000000000d9
:2028ff000000000000000000000000000000000000040e0024cf00000000000000000000b4
:20291f00000000000280000000000000000000000000000000000000000000000000000016
:0d293f00000000000000000000000000008b
:20294c0000000000000000000000000000000000000000000000000000000000000000006b
:20296c000000000000000000000000000000000000003100700000000000000000000000aa
:20298c0000000000000000000000000000000000000000000000000000000000000000002b
:0d29ac00000000000000000000000000001e
:2029b9000000000000000000000000000000000000000000000000000000000000000000fe
:2029d900000000000000000000000000000000000000907c41400000000000000000000051
:2029f9000000000000000000000000000000000000000000000000000000000000000000be
:0d2a190000000000000000000000000000b0
:202a2600000000000000000000000000000000000000000000000000000000000000000090
:202a460000000000000000000000000000000000000e100000000000000000000000000052
:202a6600000000000000000000000000000000000000001000000000000000000000000040
:0d2a86000000000000000000000000000043
:202a9300000000000000000000000000000000000000000000000000000000000000000023
:202ab3000000000000000000000000000000000000001e00024000000000000000000000a3
:202ad3000000000000000000000000000000000000000020000000000000000000000000c3
:0d2af30000000000000000000000000000d6
:202b00000000000000000000000000000000000000000000000000000000000000000000b5
:202b2000000000000000000000000000000000000000011e0200000800400000000000002c
:202b4000000000000000000000000000000000000000000000000000000000000000000075
:0d2b60000000000000000000000000000068
:202b6d00000000000000000000000000000000000000000000000000000000000000000048
:202b8d00000000000000000000000000000000000000061c3fc00012800000000000000075
:202bad00000000000000000000000000000000000000000000000000000000000000000008
:0d2bcd0000000000000000000000000000fb
:202bda000000000000000000000000000000000000000000000000000000000000000000db
:202bfa0000000000000000000000000000000000000100200000000000000000000000009a
:202c1a0000000000000000000000000000000000000000000000000000000000000000009a
:0d2c3a00000000000000000000000000008d
:202c470000000000000000000000000000000000000000000000000000000000000000006d
:202c6700000000000000000000000000000000000000003c39c00000000000000000000018
:202c870000000000000000000000000000000000000000000000000000000000000000002d
:0d2ca7000000000000000000000000000020
:202cb400000000000000000000000000000000000000000000000000000000000000000000
:202cd400000000000000000000000000000000000000000005600400000000000000000077
:202cf4000000000000000000000000000000000000000000000000000000000000000000c0
:0d2d140000000000000000000000000000b2
:202d2100000000000000000000000000000000000000000000000000000000000000000092
:202d4100000000000000000000000000000000000000020033c0000000000000000000007d
:202d6100000000000000000000000000000000000000000000000000000000000000000052
:0d2d81000000000000000000000000000045
:202d8e00000000000000000000000000000000000000000000000000000000000000000025
:202dae0000000000000000000000000000000000000000003a0100000000000000000000ca
:202dce00000000000000000000000000800000000000000000000000000000000000000065
:0d2dee0000000003fcc70000000000000012
:202dfb000000000000000000000000000000000000000000000000000000000000000000b8
:202e1b000000000000000000000000000000000000000024034d0000000000000000000023
:202e3b00000000000000000000000000000000000000000000000000000000000000000077
:0d2e5b0000000003fc4000e000000000004b
:202e680000000000000000000000000000000000000000000000000000000000000000004a
:202e88000000000000000000000000000000000000000040200000280000000000000000a2
:202ea8000000000000000000000000000000000000004000000000000000000000000000ca
:0d2ec80000000000000000000000000000fd
:202ed5000000000000000000000000000000000000000000000000000000000000000000dd
:202ef5000000000000000000000000000000000000008004004d00000000000000000000ec
:202f150000000000000000000000000000000000000000000000000000000000000000009c
:0d2f3500000000000000000000000000008f
:202f420000000000000000000000000000000000000000000000000000000000000000006f
:202f620000000000000000000000000000000000000c0000700000000000000000000000d3
:202f820000000000010000000000000000000000000000000000000000000000000000002e
:0d2fa2000000000000000000000000000022
:202faf00000000000000000000000000000000000000000000000000000000000000000002
:202fcf000000000000000000000000000000000000040000014b0000000000000000000092
:202fef00000000000280000000000000000000000000000000000000000000000000000040
:0d300f0000000000000000000000000000b4
:20301c00000000000000000000000000000000000000000000000000000000000000000094
:20303c0000000000000000000000000000000000000000042200002000000000000000002e
:20305c00000000000000000000000000000000000000000000000000000000000000000054
:0d307c000000000000000000000000000047
:20308900000000000000000000000000000000000000000000000000000000000000000027
:2030a900000000000000000000000000000000000000500243c00002800000000000000030
:2030c9000000000000000000000000000000000000000000000000000000000000000000e7
:0d30e90000000000000000000000000000da
:2030f6000000000000000000000000000000000000000000000000000000000000000000ba
:2031160000000000000000000000000000000000000e00002000000000000000000000006b
:20313600000000000000000000000004000000000000000000000000000000000000000075
:0d315600000000000000000000000000006c
:2031630000000000000000000000000000000000000000000000000000000000000000004c
:20318300000000000000000000000000000000000000000066400000000000000000000086
:2031a30000000000000000000000000a000000000000000000000000000000000000000002
:0d31c30000000000000000000000000000ff
:2031d0000000000000000000000000000000000000000000000000000000000000000000df
:2031f000000000000000000000000000000000000000204406000000500000000000000005
:2032100000000000000000000000001000000000000040000000000000000000000000004e
:0d3230000000000000001000000000000081
:20323d00000000000000000000000000000000000000000000000000000000000000000071
:20325d00000000000000000000000000000000000000003c39c0000000000000000000001c
:20327d000000000000000000000000004000000000000000000000000000000000000000f1
:0d329d000000000000000000000000000024
:2032aa00000000000000000000000000000000000000000000000000000000000000000004
:2032ca000000000000000000000000000000000000000000020000030000000000000000df
:2032ea000000000000000000000000000000000000000000000000000000000000000000c4
:0d330a0000000000000000000000000000b6
:20331700000000000000000000000000000000000000000000000000000000000000000096
:20333700000000000000000000000000000000000000000002400000000000000000000034
:20335700000000000000000000000000000000000000000000000000000000000000000056
:0d3377000000000000000000000000000049
:20338400000000000000000000000000000000000000000000000000000000000000000029
:2033a400000000000000000000000000000000000000001e00c00420000000000000000007
:2033c4000000000000000000000000000000000000000000000000000000000000000000e9
:0d33e40000000000000000000000000000dc
:2033f1000000000000000000000000000000000000000000000000000000000000000000bc
:20341100000000000000000000000000000000000000000201400000000000000000000058
:2034310000000000000000000000000000000000000000000000000000000000000000007b
:0d345100000000000000000000000000006e
:20345e0000000000000000000000000000000000000000000000000000000000000000004e
:20347e000000000000000000000000000000000000000020000000100000000000000000fe
:20349e0000000000000000000000000000000000000000000000000000000000000000000e
:0d34be0000000000000000080000000000f9
:2034cb000000000000000000000000000000000000000000000000000000000000000000e1
:2034eb00000000000000000000000000000000000000002c034a0028000000000000000020
:20350b000000000000000000000000000000000000000000000000000000000000000000a0
:0d352b00000000000000001400000000007f
:20353800000000000000000000000000000000000000000000000000000000000000000073
:203558000000000000000000000000000000000000000000780100200000000000000000ba
:20357800000000000000000000000002000000000000000000000000000000000000000031
:0d3598000000000000000000000000000026
:2035a500000000000000000000000000000000000000000000000000000000000000000006
:2035c500000000000000000000000000000000000000008043c90001000000000000000059
:2035e5000000000000000000000000040000000000000000000000000000000000000000c2
:0d36050000000000000000000000000000b8
:20361200000000000000000000000000000000000000000000000000000000000000000098
:2036320000000000000000000000000000000000000c005c200100000000000000000000ef
:20365200000000000000000000000000e80000000000000000000000000000000000000070
:0d367200000000000000000000000000004b
:20367f0000000000000000000000000000000000000000000000000000000000000000002b
:20369f000000000000000000000000000000000000040080604f00000000000000000000d8
:2036bf000000000000000000000000000400000000000000000000000000000000000000e7
:0d36df0000000000000000000000000000de
:2036ec000000000000000000000000000000000000000000000000000000000000000000be
:20370c0000000000000000000000000000000000000010000200000000000000000000008b
:20372c0000000000000000000000000000000000000000000000000000000000000000007d
:0d374c000000000000000000000000000070
:20375900000000000000000000000000000000000000000000000000000000000000000050
:2037790000000000000000000000000000000000000010c03cc00000000000000000000064
:20379900000000000000000000000000000000000000000000000000000000000000000010
:0d37b9000000000000000000000000000003
:2037c6000000000000000000000000000000000000000000000000000000000000000000e3
:2037e60000000000000000000000000000000000000e10003800000000000000000000006d
:2038060000000000000000000000000400000000000000000000000000000000000000009e
:0d3826000000000000000000000000000095
:20383300000000000000000000000000000000000000000000000000000000000000000075
:20385300000000000000000000000000000000000000100002c00000000000000000000083
:2038730000000000000000000000000a00000000000000000000000000000000000000002b
:0d3893000000000000000000000000000028
:2038a000000000000000000000000000000000000000000000000000000000000000000008
:2038c0000000000000000000000000000000000000000100020000000000000000000000e5
:2038e0000000000000000000000000000000000000000000000000000000000000000000c8
:0d39000000000000000000000000000000ba
:20390d0000000000000000000000000000000000000000000000000000000000000000009a
:20392d00000000000000000000000000000000000000003c034000000000000000000000fb
:20394d0000000000000000000000000000000000000000000000000000000000000000005a
:0d396d00000000000000000000000000004d
:20397a0000000000000000000000000000000000000000000000000000000000000000002d
:20399a0000000000000000000000000000000000000000003a0000000000000000000000d3
:2039ba000000000000000000000000000000000000000000000000000000000000000000ed
:0d39da0000000000000000000000000000e0
:2039e7000000000000000000000000000000000000000000000000000000000000000000c0
:203a0700000000000000000000000000000000000000000041c0000000000000000000009e
:203a270000000000000000000000000000000000000000000000000000000000000000007f
:0d3a47000000000000000000000000000072
:203a5400000000000000000000000000000000000000000000000000000000000000000052
:203a7400000000000000000000000000000000000000040e7140200000000000000000004f
:203a9400000000000000000000000000000000000000000000000000000000000000000012
:0d3ab4000000000000000000000000000005
:203ac1000000000000000000000000000000000000000000000000000000000000000000e5
:203ae100000000000000000000000000000000000000080243c000000000000000000000b8
:203b01000000000000000000000000000000000000000000000000000000000000000000a4
:0d3b21000000000000000000000000000097
:203b2e00000000000000000000000000000000000000000000000000000000000000000077
:203b4e00000000000000000000000000000000000000002002010000000000000000000034
:203b6e00000000000000000000000000001000000000000000000000000000000000000027
:0d3b8e00000000000000000000000000002a
:203b9b0000000000000000000000000000000000000000000000000000000000000000000a
:203bbb00000000000000000000000000000000000000000c03c90000000000000000000012
:203bdb000000000000000000000000000000000000000000000000000000000000000000ca
:0d3bfb0000000000000000000000000000bd
:203c080000000000000000000000000000000000000000000000000000000000000000009c
:203c28000000000000000000000000000000000000000000220000204000000000000000fa
:203c480000000000000000000000000000000000000000000000000000000000000000005c
:0d3c6800000000000000100000000000003f
:203c750000000000000000000000000000000000000000000000000000000000000000002f
:203c9500000000000000000000000000000000000000001c43c900002000000000000400c3
:203cb5000000000000000000000000000000000000000000000000000000000000000000ef
:0d3cd50000000000000000000000000000e2
:203ce2000000000000000000000000000000000000000000000000000000000000000000c2
:203d020000000000000000000000000000000000000c000470000000000000000000000021
:203d2200000000000000000000000000000000000000000000000000000000000000000081
:0d3d42000000000000000000000000000074
:203d4f00000000000000000000000000000000000000000000000000000000000000000054
:203d6f0000000000000000000000000000000000000c102639cc00000000000000000000ed
:203d8f00000000000000000000000000000000000000000000000000000000000000000014
:0d3daf0000000000000000a0000000000067
:203dbc000000000000000000000000000000000000000000000000000000000000000000e7
:203ddc000000000000000000000000000000000000000000020000000000000000000020a5
:203dfc000060ff400000000000000000000000000000000000000000000000000000000008
:0d3e1c000000000000000000000000000099
:203e2900000000000000000000000000000000000000000000000000000000000000000079
:203e4900000000000000000000000000000000000000100403c0000200000000000000047c
:203e69000040001040000000000000000000000000000000000000000000000000000000a9
:0d3e8900000000000000000000000000002c
:203e960000000000000000000000000000000000000000000000000000000000000000000c
:203eb60000000000000000000000000000000000000e0020020003aba0000000000e00045c
:203ed60000000000000000000000000000000000000001800000000000000000000000004b
:0d3ef60000000000000010000000000000af
:203f030000000000000000000000000000000000000000000000000000000000000000009e
:203f2300000000000000000000000000000000000000002c02c0000050000000000000023e
:203f430000000000000000000000000020000000000000000000000000000000000000003e
:0d3f63000000000000000000000000000051
:203f7000000000000000000000000000000000000000000000000000000000000000000031
:203f900000000000000000000000000000000000000000000200000000000000000000000f
:203fb0000000000000000000000000000000000000004000000000000000000000000000b1
:0d3fd00000000000000010000000000000d4
:203fdd000000000000000000000000000000000000000000000000000000000000000000c4
:203ffd00000000000000000000000000000000000000000c01400000000000000000000057
:20401d00000000000000000000000000000000000000000000000000000000000000000083
:0d403d000000000000000000000000000076
:20404a00000000000000000000000000000000000000000000000000000000000000000056
:20406a00000000000000000000000000000000000000001c06000003800000000000000091
:20408a00000000000100000000000000000000000000000000000000000000000000000015
:0d40aa000000000000000000000000000009
:2040b7000000000000000000000000000000000000000000000000000000000000000000e9
:2040d700000000000000000000000000000000000000000039c000000000000000000000d0
:2040f700000000000280000000000000000000000000000000000000000000000000000027
:0d411700000000000000000000000000009b
:2041240000000000000000000000000000000000000000000000000000000000000000007b
:20414400000000000000000000000000000000000000001e01600400100c000000000000bc
:20416400000000000000000000000000000000000000000000000000000000000000000833
:0d418400000000000000000000000000002e
:2041910000000000000000000000000000000000000000000000000000000000000000000e
:2041b100000000000000000000000000000000000000000226e000110010000000000000c5
:2041d1000000000000000000000000000000000000000000000000000000000000000000ce
:0d41f10000000000000000000000000000c1
:2041fe000000000000000000000000000000000000000000000000000000000000000000a1
:20421e00000000000000000000000000000000000000000078010000000000000000000007
:20423e00000000000000000000000000000000000000100000000000000000000000000050
:0d425e000000000000000000000000000053
:20426b00000000000000000000000000000000000000000000000000000000000000000033
:20428b00000000000000000000000000000000000000000001cf0008000000000000000437
:2042ab000000000000000000000000000000000000000800000000000000000000000000eb
:0d42cb0000000000000000000000000000e6
:2042d8000000000000000000000000000000000000000000000000000000000000000000c6
:2042f8000000000000000000000000000000000000000020780000000000033c144000007b
:20431800000000000000000000000000000000000000000000000000000000000000000085
:0d4338000000000000000000000000000078
:20434500000000000000000000000000000000000000000000000000000000000000000058
:20436500000000000000000000000000000000000000002c404f00010000043c00400000fc
:20438500000000000000000000000000000000000000000000000000000000000000000018
:0d43a500000000000000000000000000000b
:2043b2000000000000000000000000000000000000000000000000000000000000000000eb
:2043d20000000000000000000000000000000000000400202400000000000000000c000077
:2043f2000000000000000000000000000000000000000000000000000000000000000000ab
:0d441200000000000000000000000000009d
:20441f0000000000000000000000000000000000000000000000000000000000000000007d
:20443f00000000000000000000000004000000000004101c30ca0004000000000004100017
:20445f000000000000400000000000010000000000000400000000000010000000000000e8
:0d447f0040000000000001000000000000ef
:20448c00000000000000000000000000000000000000000000000000000000000000000010
:2044ac00000000000000000000000000000000000000100070000008000000000000000068
:2044cc000000000000000000000000000000000000000000000000000000000000000000d0
:0d44ec000050aff7dc0000000000000000f1
:2044f9000000000000000000000000000000000000000000000000000000000000000000a3
:2045190000000000000000000000000000000000000010004340000200000000000080006d
:20453900000000000010000000000000000000000000000000000000000000000000000052
:0d45590000d9bdfbfc0000000000000000c8
:20456600000000000000000000000000000000000000000000000000000000000000000035
:2045860000000000000000000000000000000000000e100000000380000000000000000074
:2045a6000000000000000000000000e000000000000001900000000000000600000000007e
:0d45c60000d0093bdc0000000000000000f8
:2045d3000000000000000000000000000000000000000000000000000000000000000000c8
:2045f300000000000000000000000000000000000000100002400000000000000000000056
:20461300000000000000000000000000000000000000000000000000000000000000000087
:0d4633000058b7fbfc000000000000000074
:2046400000000000000000000000000000000000000000000000000000000000000000005a
:2046600000000000000000000000000000000000000000007a0000000000000000000000c0
:204680000000000002000000000000000000000000004000000000000000000000000000d8
:0d46a00000800b2fdc8000000000000000f7
:2046ad000000000000000000000000000000000000000000000000000000000000000000ed
:2046cd00000000000000000000000000000000000000021c03c000000000000000000000ec
:2046ed000000000000000000000000000000000000000000000000000000000000000000ad
:0d470d0000100b33fc000000000000000055
:20471a0000000000000000000000000000000000000000000000000000000000000000007f
:20473a0000000000000000000000000000000000000000003a000000000000000000000025
:20475a00000000000000000000000000a0000000000000000000000000000000000000009f
:0d477a000000818294020a0000000000008f
:20478700000000000000000000000000000000000000000000000000000000000000000012
:2047a700000000000000000000000000000000000000003c79c0000000000000000000007d
:2047c7000000000000000000000000000000000000000000000000000000000000000000d2
:0d47e70000d10f03fc0000000000000000e6
:2047f4000000000000000000000000000000000000000000000000000000000000000000a5
:20481400000000000000000000000000000000000000424001c01000000007bc14600000fa
:204834000000000000000000000000000000000000000000000000000000007460ff010090
:0d48540000181163fc0000000000000000cf
:20486100000000000000000000000000000000000000000000000000000000000000000037
:20488100000000000000000000000000000000000000a80003c000000000043c000000006c
:2048a10000000000000000000000000003c00000000000000000000000000032c0a501009c
:0d48c1000070d3b7ec000000000000000004
:2048ce000000000000000000000000000000000000000000000000000000000000000000ca
:2048ee00000000000000000000000000000000000000002022010000000000000000000067
:20490e0000000000000000000000000000000000000003800000000000000003ee00008095
:0d492e000080900000000008000000000064
:20493b0000000000000000000000000000000000000000000000000000000000000000005c
:20495b00000000000000000000000000000000000000003c434d00028000000000000000ee
:20497b0000000000000000000000000400000000000000000000000000000003cd20200008
:0d499b00001180000000001400000000006a
:2049a8000000000000000000000000000000000000000000000000000000000000000000ef
:2049c800000000000000000000000000000000000000214e2200000000000000000000003e
:2049e8000000000000000000000000000000000000000000000000000000040000000000ab
:0d4a08000080f16fdc0000000000000000e5
:204a1500000000000000000000000000000000000000000000000000000000000000000081
:204a35000000000000000000000000000000000000000066034e00030000000000000000a7
:204a55000000000000000000000000000000000000004000000000000000020000000000ff
:0d4a750000b08127fc0000000000000000e0
:204a8200000000000000000000000000000000000000000000000000000000000000000014
:204aa20000000000000000000000000000000000000ca00070010001800000000000000056
:204ac200000000000000000000000000000000cf058000000000000000000e04000000006e
:0d4ae20000101000000000000000000000a7
:204aef000000000000000000000000000000000000000000000000000000000000000000a7
:204b0f000000000000000000000000000000000000040004014a0028000900000000000002
:204b2f000000000000000000000000000000000f0010000000000000000002340000000011
:0d4b4f000070b00000000000000000000039
:204b5c00000000000000000000000000000000000000000000000000000000000000000039
:204b7c000000000000000000000000000000000000000004200000400008fbccc0200020e6
:204b9c002179f70000000017a9c5000000000dd331000008003fa158100000684896a0009c
:0d4bbc00000007225b000000000000000068
:204bc9000000000000000000000000000000000000000000000000000000000000000000cc
:204be9000000000000000000000000000000000000001002414000500019b6f300100004f3
:204c090039ebff000000008727c00000000017fcc000000f001aa0000000000020960200a6
:0d4c290000000002580800000340000000d9
:204c360000000000000000000000000000000000000000000000000000000000000000005e
:204c560000000000000000000000000000000000000e000020000380001e724cc00e0016cd
:204c76006e41ff00388000018001000008000000000390018000000000000000c896a038e4
:0d4c9600000007225b00e000001cd8558cd8
:204ca3000000000000000000000000000000000000000000000000000000000000000000f1
:204cc30000000000000000000000000000000000000000004240000000107e73000000004e
:204ce3002a4cdb000105900303fc0000100000000000080000000000000000000096010019
:0d4d030000000002580000000034c4001041
:204d1000000000000000000000000000000000000000000000000000000000000000000083
:204d3000000000000000000000000000000000000000003e02000000001a7e8cd00000002f
:204d500001ddfe403001800781990000014000000000000700f7215820002001689680904e
:0d4d70000000a7225b000000001ce85600b8
:204d7d00000000000000000000000000000000000000000000000000000000000000000016
:204d9d00000000000000000000000000000000000000009e01c0000000107af3001000000a
:204dbd0001cbfb4050001007270c000060200000000000008b5b9000000014002096003045
:0d4ddd0000000082580000000366f400840e
:204dea000000000000000000000000000000000000000000000000000000000000000000a9
:204e0a00000000000000000000000000000000000000000c02000070019f00000000000664
:204e2a006e41ff400038000000000000000000000000001301db2158000096056896a0029f
:0d4e4a00800197225b0000000000000000c6
:204e570000000000000000000000000000000000000000000000000000000000000000003b
:204e770000000000000000000000000000000000000000003e40007009080000000000001c
:204e97002a4cdb40000000000000000014000000000000200fd3a0040041c02800960001f0
:0d4eb7000000808258000000000000000094
:204ec4000000000000000000000000000000000000000000000000000000000000000000ce
:204ee400000000000000000000000000000000000000400078c004205d8090001000040091
:204f04003bc1ff400400180000000002000300000000000d1b00000000000001e896810009
:0d4f2400000007a25b000004000000000078
:204f3100000000000000000000000000000000000000000000000000000000000000000060
:204f5100000000000000000000000000000000000000408022e00000050058169400000077
:204f7100024edb40060000e000000004000400000000000f0a0000000000340000960040a4
:0d4f91000000000258000000c000000000f9
:204f9e000000000000000000000000000000000000000000000000000000000000000000f3
:204fbe00000000000000000000000000000000000000000004010000001837ff8000001ce4
:204fde0002eeb2000000800000000000080380000000000109db215200000001c8968100ce
:0d4ffe00008007a25b000001c00000000061
:20500b00000000000000000000000000000000000000000000000000000000000000000085
:20502b00000000000000000000000000000000000000001c394b00000009337ec000001437
:20504b0001df33000000b000000000001004000000000000881360000000002c2096000091
:0d506b00009000025800000000000000004e
:20507800000000000000000000000000000000000000000000000000000000000000000018
:20509800000000000000000000000040000000000000000002010020018890000000002656
:2050b8006240c3010000180000000000000000000000000b81bfa150200000294896800473
:0d50d800009995a25b0000006740000000f9
:2050e5000000000000000000000000000000000000000000000000000000000000000000ab
:20510500000000000000000000000000000000000000000002ca0002830f58168000000438
:2051250039693c010000000000000000000000000000000508bb600040000040009620c469
:0d5145000010808258000000c6000000002d
:2051520000000000000000000000000000000000000000000000000000000000000000003d
:2051720000000000000000000000000000000000000c015c000103000100b03fc00c009c58
:20519200016000003000000000000000c002800000000000005b214620000000e896803218
:0d51b200009805a25b000000000000000056
:2051bf000000000000000000000000000000000000000000000000000000000000000000d0
:2051df000000000000000000000000000000000000040080204f03000589d276c00c031401
:2051ff0002c0ff201000900000000000000400000000000900d32000400034002096015193
:0d521f000010008258041428000000000058
:20522c00000000000000000000000000000000000000000000000000000000000000000062
:20524c00000000000000000000000000000000000000100002000000000e00000000000022
:20526c003ce000200008018da200200000060000000000081837a15000416000c896a000a1
:0d528c00000007225b000001e000000000b0
:205299000000000000000000000000000000000000000000000000000000000000000000f5
:2052b90000000000000000000000000000000000000010003ec000000f10000000000000a8
:2052d9007a60ff0000000003f800000000000000000000010916a00040201c2800960400e3
:0d52f90000000002583000002000000000fe
:20530600000000000000000000000000000000000000000000000000000000000000000087
:2053260000000000000000000000000000000000000e1000000003980800162c802f401c59
:20534600014e330038008003bdc500e4034027c93003800980f7fdc000001401c896803856
:0d536600000007225b04e0000000000000d2
:2053730000000000000000000000000000000000000000000000000000000000000000001a
:20539300000000000000000000000000000000000000102c02c00030090f538cc001a00272
:2053b30003cecc00000010092fc0000a1160159331000001803f7fc06000000000961000dc
:0d53d30000000002580000a402400000008d
:2053e0000000000000000000000000000000000000000000000000000000000000000000ad
:20540000000000000000000000000000000000000000001e04000013000000000000401601
:2054200003eab200300551812bdc000040000000000050018037a15800001478e8968030c4
:0d544000280187225b0004000015d0010048
:20544d0000000000000000000000000000000000000000000000000000000000000000003f
:20546d0000000000000000000000000000000000000000002e4000000f000000000000445e
:20548d003cdc3300300050a7abfc0000000000000000200080b7a0000000026c209600507b
:0d54ad000000008258200a0343bd9020003b
:2054ba000000000000000000000000000000000000000000000000000000000000000000d2
:2054da0000000000000000000000000000000000000000000200000050003b4cd001000008
:2054fa0004c1c320003838938001000002000dff840000011832615000000001e896a000b9
:0d551a00007995225b0012000000000000e7
:20552700000000000000000000000000000000000000000000000000000000000000000064
:20554700000000000000000000000000000000000000000001c0000020003fb3020100006e
:20556700366b3c000000018903fc000001400e8ff4000000909620024004002c209600403e
:0d55870000008082580210000000000000ab
:205594000000000000000000000000000000000000000000000000000000000000000000f7
:2055b400000000000000000000000000000000000000000075c020000581f070c00020a418
:2055d40007fd93010002000f2c008400014000000000000f01b7e15000001401c896800032
:0d55f400000007a25b000000e000af05080a
:20560100000000000000000000000000000000000000000000000000000000000000000089
:20562100000000000000000000000000000000000000020033c00000200d7bcf0000ca0e25
:2056410020cf3300000000a3f82000000022c000000000078816a000408136002096004058
:0d5661000000d0025820000000010f0000e2
:20566e0000000000000000000000000000000000000000000000000000000000000000001c
:20568e00000000000000000000000000000000000000015e2601000007809830c000003433
:2056ae00380cf0504100381b0294000060000dffd6000005090000000000002848960000d8
:0d56ce00050007a25b000000021fc85590f8
:2056db000000000000000000000000000000000000000000000000000000000000000000af
:2056fb00000000000000000000000000000000000000008030cd0000010a3a4f0000001668
:20571b006800f0080080188d83fc00000003ce8fa4000050180000000000004000960140e7
:0d573b00000000025820000003c5c400104b
:20574800000000000000000000000000000000000000000000000000000000000000000041
:20576800000000000000000000000000000000000000000020000000180100000000001eca
:205788007cd83300000098f385990000000000000000000588b7e15000001e007e77000049
:0d57a800009815a25b0000000380000000c7
:2057b5000000000000000000000000000000000000000000000000000000000000000000d4
:2057d500000000000000000000000000000000000000c00442ca00002b0e00000000003e6d
:2057f500614fcc000000308d370c0000000000000000000010b6e0004000002e4bdd00409c
:0d5815000010808258010000040000000017
:20582200000000000000000000000000000000000000000000000000000000000000000066
:20584200000000000000000000000000000000000004000002000320799e000000000820de
:2058620038e0a50050399809ea4c80c200e00000000018100a00000000000038cbf70014a7
:0d588200009805a259000000600000000021
:20588f000000000000000000000000000000000000000000000000000000000000000000f9
:2058af0000000000000000000000000000000000000400243bcb0110311000000000001445
:2058cf000160ff003002100778cc00c4000000000000202009000000000024034bff183402
:0d58ef0000100082580204000000000000bc
:2058fc0000000000000000000000000000000000000000000000000000000000000000008c
:20591c000000000000000000000000000000580018000000000000004108d68cc000001e72
:20593c0000dd330000008013b2b4000003607c000000028000bb3dc00001c005c896c8003d
:0d595c00001003225a0000020054d856002b
:2059690000000000000000000000000000000000000000000000000000000000000000001e
:205989000000000000000000000000000009901690001024034000000010bb730000060202
:2059a90001cbcc0000007083a56800000043f605a000008500373fc0000000300096820461
:0d59c900000000025848000142ace4000458
:2059d6000000000000000000000000000000000000000000000000000000000000000000b1
:2059f60000000000000000000000038008000000000e00000000038199019b0cc00e061c43
:205a16007140000038000003829400e008604000000380080076a1504e400001c896c00047
:0d5a3600000007225a40e00160000000005f
:205a4300000000000000000000000000000000000000000000000000000000000000000043
:205a6300000000000000000000000000070000000000061c02c00003af8912330000003682
:205a83007c60ff000000500703fc000a10028000000000090a3aa00040060000009600006d
:0d5aa30000900002580000200000000000ec
:205ab0000000000000000000000000000000000000000000000000000000000000000000d6
:205ad0000000000000000000000000000000000000000000320000002701dbccc000a02035
:205af000674e3350020000077ff48000000075e0248000080177e15804000061c896c00429
:0d5b1000000007a25a010002400000000042
:205b1d00000000000000000000000000000000000000000000000000000000000000000068
:205b3d00000000000000000000000000000000000000003c014000005f897bf30000010470
:205b5d0039ddcc0100000007bbe80000000226ca4080000909fe10085400000020960000b7
:0d5b7d001000008258001017e0000000002a
:205b8a000000000000000000000000000000000000000000000000000000000000000000fb
:205baa00000000000000000000000000080000000000003c68000000181e728cd8000024ff
:205bca00636f9300040000038295000000064000000053810000000000000e654896c0000d
:0d5bea00300001a25a0100c00000000000c0
:205bf70000000000000000000000000000000000000000000000000000000000000000008e
:205c1700000000000000000000000000070000000000003c43c0000381099b3300000026a6
:205c3700015e33080400500703fd00000002000000002800800000000000002020960004d4
:0d5c570000000002580008000000000000de
:205c6400000000000000000000000000000000000000000000000000000000000000000020
:205c84000000000000000000000000000000000000000000796010104981d000080001065e
:205ca40003400040000098cdf24c8000a2e04000000000019a77a14600008001e896c000c0
:0d5cc400001001225a800001e387f77000f4
:205cd1000000000000000000000000000000000000000000000000000000000000000000b3
:205cf10000000000000000000000000000000000000000004040002a010fd03fc00000808a
:205d11003a605a40000051013ccc8000066380000000000508176000400000000096000021
:0d5d310000080002580000c003a5fdd000ce
:205d3e00000000000000000000000000000000000000000000000000000000000000000045
:205d5e00000000000000000000000000000000000000000e0601001200409830d000ac86f4
:205d7e002460a541000071b1000080001406240a5000038d1900000000000001e896c00079
:0d5d9e00b80007225a0000014234ea7008e4
:205dab000000000000000000000000000000000000000000000000000000000000000000d8
:205dcb0000000000000000000000000000000000000000003ccf002005097bcf002040666f
:205deb0031c0ff400000d88b03fc000008032c0ff00000050f000000000000000096000026
:0d5e0b000000008258020000301cd510007d
:205e180000000000000000000000000000000000000000000000000000000000000000006a
:205e3800000000000000000000000000000000000000000006010000080f00000000020c1e
:205e58007ae0c3000000999d879c040001e076c8540813a009f7e146200026056896c00052
:0d5e78000011c7225a000001e70fc770009b
:205e85000000000000000000000000000000000000000000000000000000000000000000fd
:205ea50000000000000000000000000000000000000000003f4d0002010800000000002422
:205ec50024ed3c2001001081330c20000003ae940300204918976002008004202096000043
:0d5ee50000088082582000002405fdd00038
:205ef200000000000000000000000000000000000000000000000000000000000000000090
:205f1200000000000000000000000100000000000004002006000328178800000004003e38
:205f320002e1c3003000580b83fc000402001cdf8200038040f6a150040026016896c00180
:0d5f5200007817a25a04000347c0000000a9
:205f5f00000000000000000000000000000000000000000000000000000000000000000022
:205f7f00000000000000000000000100000000000004001c31ca01106190000000040004dc
:205f9f0000693c0010b8d005829404020240058ff00000100cbae0024c00440020960000c0
:0d5fbf008008e0025800040167c0000000e7
:205fcc000000000000000000000000000000000000000000000000000000000000000000b5
:205fec000000000000000000000000000000000000001000720000038f98b20cc00000402b
:20600c00606a85604005001b3f2c00046202941ff60000281ede614820200001c896c000bd
:0d602c00008005225a000003e3bed770007b
:20603900000000000000000000000000000000000000000000000000000000000000000047
:2060590000000000000000000000000000000000000010803e400000019896f300000000f7
:206079003cc94001000200856f0c000a0146e4adb40000530a9ae000004000000096040078
:0d6099000090c082581200016005cdd000bb
:2060a6000000000000000000000000000000000000000000000000000000000000000000da
:2060c60000000000000000000000000000000000000e901c000003a00000920cc00e403e73
:2060e6007bcb8550b828d9a1800000e008e00000000380050fbbbdc01e408005c896c0020b
:0d6106000000a7225a80000bc07ccf700063
:2061130000000000000000000000000000000000000000000000000000000000000000006c
:2061330000000000000000000000000000000000000010023e40001b800bf7730000200686
:2061530043cd40100005500f0168000410000000000008099db3ffc000a0003c0096000158
:0d6173000000f0025801040162d6fff000a8
:206180000000000000000000000000000000000000000000000000000000000000000000ff
:2061a000000000000000000000000000000000000000200000000003081ef2ccc000201eda
:2061c0000000000000000185829400000540060a57001180185e61406c000001c896c00044
:0d61e000007183225a0000080255977000dc
:2061ed00000000000000000000000000000000000000000000000000000000000000000092
:20620d00000000000000000000000000000000000000000000c00000010a72f30000403cc5
:20622d00000000000000000d03fc00000360040ff40008000a1aa0004c000000209600000d
:0d624d00000080825884001407469dd00098
:20625a00000000000000000000000000000000000000000000000000000000000000000024
:20627a00000000000000000000000000000000000000004002000040011b774cdc00800047
:20629a0065df00400000d9af25b80000f8e000000000000108d7a158100000646896e000f8
:0d62ba00008001a25a80080003800000004f
:2062c7000000000000000000000000000000000000000000000000000000000000000000b7
:2062e7000000000000000000000000000000000000000e8039c00040009d17730000400069
:2063070022f920000000500166640000040000000000000009db50045000002020960000be
:0d632700003000825800000140000000001e
:20633400000000000000000000000000000000000000000000000000000000000004000045
:20635400000000000000000000000000000000000000002401c04000070d568cd020a01668
:206374002040ff218000180000000000a0000000000011ab9c1aa14000000001e896c000bf
:0d6394000078e3225a000002e78ed7700067
:2063a1000000000000000000000000000000000000000000000000000000000000040000d8
:2063c10000000000000000000000000000000000000040ae03c000000088be7302000c2420
:2063e10040e0a508400000000000000a80000000000028179edf7a800000000000960000b9
:0d64010000000002588000e0641efdd00085
:20640e0000000000000000000000000000000000000000000000000000000000000000006e
:20642e00000000000000000000000000000000000000007c000100000b9cf68cd0000000d8
:20644e007860a500000204000000000408000000000000881bfa29c800002001e896c002b0
:0d646e000200912258000a0003d40ff20032
:20647b00000000000000000000000000000000000000000000000000000000000000000001
:20649b00000000000000000000000000000000000000008c00cc000005183bf3040000003a
:2064bb0001c0ff00000100000000000204000000000000450a7f144000002c000096000313
:0d64db000801f002580000c1c66605a000cf
:2064e800000000000000000000000000000000000000000000000000000000000000000094
:20650800000000000000000000000000000000000000000020010000099d00000000002686
:206528003ecfad0100001815829500000000158fe418438581de2140606026356896c00053
:0d654800005015f1dc00000063e5f7700065
:20655500000000000000000000000000000000000000000000000000000000000000000026
:206575000000000000000000000000000000000000000024024c00000b180000000000145d
:2065950029dba5000100008d03fd24000000149fb41040000a1b2000104004602096000025
:0d65b5000000e56774000000262dbdd00039
:2065c2000000000000000000000000000000000000000000000000000000000000000000b9
:2065e20000000000000000000000000000000000000d801e0201030007800000000000065b
:206602002260a5001005000180010040000016000400010b0c3829400c40260168964000f6
:0d66220000000d71dc00001207c000000038
