:02000000ff00ff
:080002004c6174746963650030
:17000a00694345637562653220323031342e30342e32363432350073
:16002100506172743a2069434534304858384b2d435432353600ff
:1a003700446174653a204d6172203720323031352031373a31333a303700b1
:0200510000ffae
:040053007eaa997e6a
:02005700510056
:0200590001059f
:03005b00920020f0
:03005e00620367d3
:0300610072011019
:0300640082000017
:02006700110086
:02006900010193
:20006b00000000000000000000000000000000000000000000000000000000000000000075
:20008b00000000000000000000000000000000000000000000000000000000000000000055
:2000ab00000000000000000000000000000000000000000000000000000000000000000035
:0d00cb000000000000000000000000000028
:2000d800000000000000000000000000000000000000000000000000000000000000000008
:2000f8000000000000000000000000000000000000000000000000000000000000000000e8
:200118000000000000000000000000000000000000000000000000000000000000000000c7
:0d01380000000000000000000000000000ba
:2001450000000000000000000000000000000000000000000000000000000000000000009a
:2001650000000000000000000000000000000000000000000000000000000000000000007a
:2001850000000000000000000000000000000000000000000000000000000000000000005a
:0d01a5000000000000000400000000000049
:2001b20000000000000000000000000000000000000000000000000000000000000000002d
:2001d20000000000000000000000000000000000000000000000000000000000000000000d
:2001f2000000000000000000000000000000000000000000000000000000000000000000ed
:0d02120000000000000000000000000000df
:20021f000000000000000000000000000000000000000000000000000000000000000000bf
:20023f0000000000000000000000000000000000000000000000000000000000000000009f
:20025f0000000000000000000000000000000000000000000000000000000000000000007f
:0d027f000000000000000000000000000072
:20028c00000000000000000000000000000000000000000000000000000000000000000052
:2002ac00000000000000000000000000000000000000000000000000000000000000000032
:2002cc000000000000000000000000000000000000000003400000000000000000000000cf
:0d02ec000000000000000000000000000005
:2002f9000000000000000000000000000000000000000000000000000000000000000000e5
:200319000000000000000000000000000000000000000000000000000000000000000000c4
:200339000000000000000000000000000000000000000000000000000000000000000000a4
:0d0359000000000000000000000000000097
:20036600000000000000000000000000000000000000000000000000000000000000000077
:20038600000000000000000000000000000000000000000000000000000000000000000057
:2003a600000000000000000000000000000000000000000000000000000000000000000037
:0d03c600000000000000000000000000002a
:2003d30000000000000000000000000000000000000000000000000000000000000000000a
:2003f3000000000000000000000000000000000000000000000000000000000000000000ea
:200413000000000000000000000000000000000000000000000000000000000000000000c9
:0d04330000000000000000000000000000bc
:2004400000000000000000000000000000000000000000000000000000000000000000009c
:2004600000000000000000000000000000000000000000000000000000000000000000007c
:2004800000000000000000000000000000000000000000000000000000000001000000005b
:0d04a000000000000000000000000000004f
:2004ad0000000000000000000000000000000000000000000000000000000000000000002f
:2004cd0000000000000000000000000000000000000000000000000000000000000000000f
:2004ed000000000000000000000000000000000000000000000020000000000100000000ce
:0d050d0000000400000000000000000000dd
:20051a000000000000000000000000000000000000000000000000000000000000000000c1
:20053a000000000000000000000000000000000000000000000000000000000000000000a1
:20055a0000000000000000000000000000000000000000000000300000000003000000004e
:0d057a000000000000000000000000000074
:20058700000000000000000000000000000000000000000000000000000000000000000054
:2005a700000000000000000000000000000000000000000000000000000000000000000034
:2005c700000000000000000000000000000000000000000000000000000000010000000013
:0d05e70000000800000000000010000000ef
:2005f4000000000000000000000000000000000000000000000000000000000000000000e7
:200614000000000000000000000000000000000000000000000000000000000000000000c6
:200634000000000000000000000000000000000000000000000000000000000000000000a6
:0d0654000000040000000000000000000095
:20066100000000000000000000000000000000000000000000000000000000000000000079
:20068100000000000000000000000000000000000000000000000000000000000000000059
:2006a100000000000000000000000000000000000000000000000000000000000000000039
:0d06c100000000000000000000000000002c
:2006ce0000000000000000000000000000000000000000000000000000000000000000000c
:2006ee000000000000000000000000000000000000000000000000000000000000000000ec
:20070e000000000000000000000000000000000000000000000000000000000000000000cb
:0d072e0000000800000000000000000000b6
:20073b0000000000000000000000000000000000000000000000000000000000000000009e
:20075b0000000000000000000000000000000000000000000200000010000000000000006c
:20077b0000000000000000000000000000000000000000000000000000000000000000005e
:0d079b000000000000000000000000000051
:2007a800000000000000000000000000000000000000000000000000000000000000000031
:2007c800000000000000000000000000000000000000100000c00000000000000000000041
:2007e8000000000000000000000000000000000000000000000000000000000000000000f1
:0d08080000000000000000000000000000e3
:200815000000000000000000000000000000000000000000000000000000000000000000c3
:2008350000000000000000000000000000000000000e00203a00000000000000000000003b
:20085500000000000000000000000000000000000000000000000000000000000000000083
:0d0875000000000000000000000000000076
:20088200000000000000000000000000000000000000000000000000000000000000000056
:2008a200000000000000000000000000000000000000000c024000000000000000000000e8
:2008c200000000000000000000000000000000000000000000000000000000000000000016
:0d08e2000000000000000000000000000009
:2008ef000000000000000000000000000000000000000000000000000000000000000000e9
:20090f000000000000000000000000000000000000000000020000000000000000000000c6
:20092f00000000000000000000000010000000000000000000000000000000000000000098
:0d094f00000000000000000000000000009b
:20095c0000000000000000000000000000000000000000000000000000000000000000007b
:20097c000000000000000000000000000000000000000a00204000000000000000000000f1
:20099c0000000000000000000000000000000000000000000000000000000000000000003b
:0d09bc00000000000000000000000000002e
:2009c90000000000000000000000000000000000000000000000000000000000000000000e
:2009e900000000000000000000000000000000000000001c060000000000000000000000cc
:200a09000000000001000000000000000000000000000000000000000000000000000000cc
:0d0a290000000000000000000000000000c0
:200a36000000000000000000000000000000000000000000000000000000000000000000a0
:200a56000000000000000000000000000000000000000024394000000000000000000000e3
:200a76000000000000800000000000000000000000000000000000000000000000000000e0
:0d0a96000000000000000000000000000053
:200aa300000000000000000000000000000000000000000000000000000000000000000033
:200ac300000000000000000000000000000000000000000005e0040000000000000000002a
:200ae3000000000000000000000000000000000000000000000000000000000000000000f3
:0d0b030000000000000000000000000000e5
:200b10000000000000000000000000000000000000000000000000000000000000000000c5
:200b3000000000000000000000000000000000000000000032e00000000000000000000093
:200b5000000000000000000000000000000000000000000000000000000000000000000085
:0d0b70000000000000000000000000000078
:200b7d00000000000000000000000000000000000000000000000000000000000000000058
:200b9d00000000000000000000000000000000000000000000000000000000000000000038
:200bbd00000000000000000000000000000000000000000000000000000000000000000018
:0d0bdd00000000000000000000000000000b
:200bea000000000000000000000000000000000000000000000000000000000000000000eb
:200c0a00000000000000000000000000000000000000002403cb0000004000000000000098
:200c2a000000000000000000000000000000000000000000000000000000000000000000aa
:0d0c4a00000000000000000000000000009d
:200c570000000000000000000000000000000000000000000000000000000000000000007d
:200c770000000000000000000000000000000000000000002200000000000000000000003b
:200c9700000000000000000000000000000000000000000000000000000000000000000439
:0d0cb7000000000000000000000000000030
:200cc400000000000000000000000000000000000000000000000000000000000000000010
:200ce400000000000000000000000000000000000000000067cf00000000000000000000ba
:200d04000000000000000000000000000000000000000000000000000000000000000000cf
:0d0d240000000000000000000000000000c2
:200d31000000000000000000000000000000000000000000000000000000000000000000a2
:200d510000000000000000000000000000000000000400007201000000000000000000000b
:200d7100000000000000000000000000000000000000000000000000000000000000000062
:0d0d91000000000000000000000000000055
:200d9e00000000000000000000000000000000000000000000000000000000000000000035
:200dbe0000000000000000000000000000000000000c002421cb00000000000000000000f9
:200dde000000000000000000000000000000000000000000000000000000000000000000f5
:0d0dfe0000000000000000000000000000e8
:200e0b000000000000000000000000000000000000000000000000000000000000000000c7
:200e2b00000000000000000000000000000000000000100000000000000000000000000097
:200e4b00000000000000000000000000000000000000000000000000000000000000000087
:0d0e6b00000000000000000000000000007a
:200e780000000000000000000000000000000000000000000000000000000000000000005a
:200e98000000000000000000000000000000000000001000034000000000000000000000e7
:200eb80000000000000000000000000000000000000000000000000000000000000000001a
:0d0ed800000000000000000000000000000d
:200ee5000000000000000000000000000000000000000000000000000000000000000000ed
:200f050000000000000000000000000000000000000e102c02000000000000000000000080
:200f25000000000000000000000000000000000000000000000000000100000000000000ab
:0d0f4500000000000000000000000000009f
:200f520000000000000000000000000000000000000000000000000000000000000000007f
:200f7200000000000000000000000000000000000000100c00400000000000000000000003
:200f920000000000000000000000000000000000000000000000000000000000000000003f
:0d0fb2000000000000000000000000000032
:200fbf00000000000000000000000000000000000000000000000000000000000000000012
:200fdf0000000000000000000000004000000000000000006800000000000000000000004a
:200fff00000000000000000000000000000000000000400000000000010000000000000091
:0d101f0000000000000000000000000000c4
:20102c000000000000000000000000000000000000000000000000000000000000000000a4
:20104c00000000000000000000000000000000000000060042c0000000000000000000007c
:20106c00000000000000000000000000000000000000000000000000000000000000000064
:0d108c000000000000000000000000000057
:20109900000000000000000000000000000000000000000000000000000000000000000037
:2010b9000000000000000000000000000000000000000044020000000000000000000000d1
:2010d9000000000000000000000000000800000000000000000000000000000000000000ef
:0d10f90000000000000000000000000000ea
:201106000000000000000000000000000000000000000000000000000000000000000000c9
:20112600000000000000000000000000000000000000008e03c00000000000000000000058
:20114600000000000000000000000000140000000000000000000000000000000000000075
:0d116600000000000000000000000000007c
:2011730000000000000000000000000000000000000000000000000000000000000000005c
:20119300000000000000000000000000000000000000014039c010000000000000000000f2
:2011b30000000000000000000000000000000000000000000000000000000000000000001c
:0d11d300000000000000000000000000000f
:2011e0000000000000000000000000000000000000000000000000000000000000000000ef
:20120000000000000000000000000000000000000000000027e000000000000000000000c7
:201220000000000000000000000000000000000000000000000000000000000000000000ae
:0d12400000000000000000000000000000a1
:20124d00000000000000000000000000000000000000000000000000000000000000000081
:20126d00000000000000000000000000000000000000001632010000000000000000000018
:20128d00000000000000000000000000000000000000000000000000010000000000000040
:0d12ad000000000000000000000000000034
:2012ba00000000000000000000000000000000000000000000000000000000000000000014
:2012da000000000000000000000000000000000000000002414d0000000000000000000064
:2012fa000000000000000000000000000000000000000000000000000000000000000000d4
:0d131a0000000000000000000000000000c6
:201327000000000000000000000000000000000000000000000000000000000000000000a6
:20134700000000000000000000000000000000000000000c70010000000000000000000009
:20136700000000000000000000000000000000000000000000000000010000000000000065
:0d1387000000000000001000000000000049
:20139400000000000000000000000000000000000000000000000000000000000000000039
:2013b400000000000000000000000000000000000000020021c8000000000000000000002e
:2013d4000000000000000000000000000000000000000000000000000000000000000000f9
:0d13f40000000000000000000000000000ec
:201401000000000000000000000000000000000000000000000000000000000000000000cb
:201421000000000000000000000000000000000000040000060000000000000000000000a1
:2014410000000000000000000000000000000000000000000000000000000000000000008b
:0d146100000000000000000000000000007e
:20146e0000000000000000000000000000000000000000000000000000000000000000005e
:20148e0000000000000000000000000000000000000c000034cd0000000000000000000031
:2014ae0000000000000000000000000000000000000000000000000000000000000000001e
:0d14ce000000000000000000000000000011
:2014db000000000000000000000000000000000000000000000000000000000000000000f1
:2014fb00000000000000000000000000000000000000014c0600000000000000000000007e
:20151b000000000000000000000000000000000000000000000000000000000000000000b0
:0d153b0000000000000000000000000000a3
:20154800000000000000000000000000000000000000000000000000000000000000000083
:20156800000000000000000000000000000000000000100030c00000000000000000000063
:20158800000000000000000000000000000000000000000000000000000000000000000043
:0d15a8000000000000000000000000000036
:2015b500000000000000000000000000000000000000000000000000000000000000000016
:2015d50000000000000000000000000000000000000e0000000000000000000000000000e8
:2015f5000000000000000000000000000000000000000000000000000100000000000000d5
:0d16150000000000000000000000000000c8
:201622000000000000000000000000000000000000000000000000000000000000000000a8
:20164200000000000000000000000000000000000000000c0040000000000000000000003c
:20166200000000000000000000000000000000000000000000000000000000000000000068
:0d168200000000000000000000000000005b
:20168f0000000000000000000000000000000000000000000000000000000000000000003b
:2016af00000000000000000000000000000000000000000002000000000000000000000019
:2016cf000000000000000000000000000000000000000000000000000100000000000004f6
:0d16ef0000000000000000000000000000ee
:2016fc000000000000000000000000000000000000000000000000000000000000000000ce
:20171c000000000000000000000000000000000000000000244000018000000000000000c8
:20173c0000000000000000000000000000000000000000000000000000000000000000008d
:0d175c000000000000000000000000000080
:20176900000000000000000000000000000000000000000000000000000000000000000060
:201789000000000000000000000000000000000000000000740000000000000000000000cc
:2017a900000000000000000000000000000000000000000000000000000000000000000020
:0d17c9000000000000000000000000000013
:2017d6000000000000000000000000000000000000000000000000000000000000000000f3
:2017f60000000000000000000000000000000000000000003ec000000000000000000000d5
:201816000000000000000000000000000000000000000000000000000000000000000000b2
:0d18360000000000000000000000000000a5
:20184300000000000000000000000000000000000000000000000000000000000000000085
:20186300000000000000000000000000000000000000000021e00400000000000000000060
:20188300000000000000000000000000000000000000000000000000000000000000000045
:0d18a3000000000000000000000000000038
:2018b000000000000000000000000000000000000000000000000000000000000000000018
:2018d00000000000000000000000000000000000000006000260000180000000000000000f
:2018f0000000000000000000000000000000000000000000000000000000000000000000d8
:0d19100000000000000000000000000000ca
:20191d000000000000000000000000000000000000000000000000000000000000000000aa
:20193d0000000000000000000000000000000000000000000000000000000000000000008a
:20195d0000000000000000000000000000000000000000000000000000000000000000006a
:0d197d00000000000000100000000000004d
:20198a0000000000000000000000000000000000000000000000000000000000000000003d
:2019aa00000000000000000000000000000000000000000403cb000000400000000000000b
:2019ca000000000000000000000000000000000000000000000000000000000000000000fd
:0d19ea0000000000000000000000000000f0
:2019f7000000000000000000000000000000000000000000000000000000000000000000d0
:201a170000000000000000000000000000000000000000002200004040000000000000000d
:201a370000000000000000000000000000000000000000000000000000000000000000008f
:0d1a57000000000000001000000000000072
:201a6400000000000000000000000000000000000000000000000000000000000000000062
:201a84000000000000000000000000000000000000000000234f00002000000000000000b0
:201aa400000000000000000000000000000000000000000000000000000000000000000022
:0d1ac4000000000000000000000000000015
:201ad1000000000000000000000000000000000000000000000000000000000000000000f5
:201af10000000000000000000000000000000000000c000e020100000000000000000000b8
:201b11000000000000020000000000000000000000000000000000000000000000000000b2
:0d1b310000000000000000000000000000a7
:201b3e00000000000000000000000000000000000000000000000000000000000000000087
:201b5e0000000000000000000000000000000000000c000625cb0000000000000000000065
:201b7e00000000000004000000000000000000000000000000000000000000000000000043
:0d1b9e00000000000000000000000000003a
:201bab0000000000000000000000000000000000000000000000000000000000000000001a
:201bcb0000000000000000000000000000000000000010003e0000000000000000000000ac
:201beb000000000000000000000000000000000000000000000000000000000000000000da
:0d1c0b0000000000000000000000000000cc
:201c18000000000000000000000000000000000000000000000000000000000000000000ac
:201c380000000000000000000000000000000000000010003b400001000000000000000000
:201c580000000000000000000000000000000000000000000000000000000000000000006c
:0d1c7800000000000000000000000000005f
:201c850000000000000000000000000000000000000000000000000000000000000000003f
:201ca50000000000000000000000000000000000000e100e02000028400000000000000089
:201cc5000000000000000000000000000000000000004000000000000000000000000000bf
:0d1ce50000000000000000000000000000f2
:201cf2000000000000000000000000000000000000000000000000000000000000000000d2
:201d1200000000000000000000000000000000000000100203c000002000000000000000bc
:201d3200000000000000000000000000000000000000000000000000000000000000000091
:0d1d52000000000000000000000000000084
:201d5f00000000000000000000000000000000000000000000000000000000000000000064
:201d7f000000000000000000000000000000000000002000000000005000000000000000d4
:201d9f00000000000000000000000000000000000000000000000000000000000000000024
:0d1dbf000000000000000000000000000017
:201dcc000000000000000000000000000000000000000000000000000000000000000000f7
:201dec00000000000000000000000000000000000000000003c00000000000000000000014
:201e0c000000000000000000000000000000000000000000000000000000000000000000b6
:0d1e2c0000000000000000000000000000a9
:201e3900000000000000000000000000000000000000000000000000000000000000000089
:201e59000000000000000000000000000000000000000000320000005000000000000000e7
:201e790000000000000000000000000000000000000003a0000000000000000000000000a6
:0d1e9900000000000000000000000000003c
:201ea60000000000000000000000000000000000000000000000000000000000000000001c
:201ec600000000000000000000000000000000000000000034400000000000000000000088
:201ee60000000000000000000000000000000000000000500000000000000000000000008c
:0d1f060000000000000000000000000000ce
:201f13000000000000000000000000000000000000000000000000000000000000000000ae
:201f33000000000000000000000000000000000000010036316004000000000000000000c2
:201f530000000000000000000000000000000000000000000000000000000000000000006e
:0d1f73000000000000000000000000000061
:201f8000000000000000000000000000000000000000000000000000000000000000000041
:201fa000000000000000000000000000000000000000002e42600011000000000000000040
:201fc000000000000000000000000000000000000000000000000000000000000000000001
:0d1fe00000000000000000000000000000f4
:201fed000000000000000000000000000000000000000000000000000000000000000000d4
:20200d00000000000000000000000000000000000000002000000060000000000000000033
:20202d00000000000000000000000000000000000000100000000000000000000000000083
:0d204d000000000000000000000000000086
:20205a00000000000000000000000000000000000000000000000000000000000000000066
:20207a00000000000000000000000000000000000000000c03cd001000000000000000005a
:20209a0000000000000000000000000000000000000008000000000000000000000000001e
:0d20ba000000000000000000000000000019
:2020c7000000000000000000000000000000000000000000000000000000000000000000f9
:2020e700000000000000000000000000000000000000040026000048000000000000000067
:202107000000000000000000000000000000000000000000000000000000000000000000b8
:0d21270000000000000000000000000000ab
:2021340000000000000000000000000000000000000000000000000000000000000000008b
:20215400000000000000000000000000000000000000000071cc00008000000000000000ae
:2021740000000000000000000000000000000000000000000000000000000000000000004b
:0d219400000000000000000000000000003e
:2021a10000000000000000000000000000000000000000000000000000000000000000001e
:2021c10000000000000000000000000000000000000c0016040000002000000000000000b8
:2021e1000000000000000000000000000000000000000000000000000000000000000000de
:0d22010000000000000000000000000000d0
:20220e000000000000000000000000000000000000000000000000000000000000000000b0
:20222e0000000000000000000000000000000000000400023cc90000000000000000000085
:20224e00000000000000000000000000000000000000000000000000000000000000000070
:0d226e000000000000000000000000000063
:20227b00000000000000000000000000000000000000000000000000000000000000000043
:20229b00000000000000000000000000000000000000841e2200000010000000000000004f
:2022bb00000000000000000000000000000000000000000000000000000000000000000003
:0d22db0000000000000000000000000000f6
:2022e8000000000000000000000000000000000000000000000000000000000000000000d6
:20230800000000000000000000000000000000000000180240c0000000000000000000009b
:20232800000000000000000000000000000000000000000000000000000000000000000095
:0d2348000000000000000000000000000088
:20235500000000000000000000000000000000000000000000000000000000000000000068
:2023750000000000000000000000000000000000000e000c0000000020000000000000000e
:20239500000000000000000000000000000000000000000000000000000000000000000028
:0d23b500000000000000000000000000001b
:2023c2000000000000000000000000000000000000000000000000000000000000000000fb
:2023e200000000000000000000000000000000000000000201400000400000000000000058
:202402000000000000000000000000000000000000000000000000000000000000000000ba
:0d24220000000000000000000000000000ad
:20242f0000000000000000000000000000000000000000000000000000000000000000008d
:20244f00000000000000000000000000000000000000201c00000000000000000000000031
:20246f000000000002800000000000000000000000000000000000000100000000000000ca
:0d248f000000000000000000000000000040
:20249c00000000000000000000000000000000000000000000000000000000000000000020
:2024bc00000000000000000000000000000000000000401e01400000000000000000000061
:2024dc000000000000000000000000000000000000000000000000000000000000000000e0
:0d24fc0000000000000000000000000000d3
:202509000000000000000000000000000000000000000000000000000000000000000000b2
:20252900000000000000000000000000000000000000000e00000000000000000000000084
:2025490000000000003800000000000000000000000000000000000000000000000000003a
:0d2569000000000000000000000000000065
:20257600000000000000000000000000000000000000000000000000000000000000000045
:202596000000000000000000000000000000000000000002024000000000000000000000e1
:2025b600000000000000000000000000000000000000000000000000000000000000000005
:0d25d60000000000000000000000000000f8
:2025e3000000000000000000000000000000000000000000000000000000000000000000d8
:20260300000000000000000000000000000000000000a000024010000000000000000000c5
:20262300000000000000000000000000000000000000000000000000000000000000000097
:0d264300000000000000000000000000008a
:2026500000000000000000000000000000000000000000000000000000000000000000006a
:20267000000000000000000000000000000000000000000002c00000004000000000000048
:2026900000000000000000000000000000000000000000000000000000000000000000002a
:0d26b000000000000000000000000000001d
:2026bd000000000000000000000000000000000000000000000000000000000000000000fd
:2026dd0000000000000000000000000000000000000001007c01000000000000000100005e
:2026fd000000000000000000000000000000000000000000000000000000000000000000bd
:0d271d0000000000000000000000000000af
:20272a0000000000000000000000000000000000000000000000000000000000000000008f
:20274a0000000000000000000000000000000000000000a433cd000000400000000000008b
:20276a0000000000000000000000000000100000000000000000000000000000000000003f
:0d278a000000000000000000000000000042
:20279700000000000000000000000000000000000000000000000000000000000000000022
:2027b70000000000000000000000000000000000000000047000000000000000000000008e
:2027d7000000000000000000000000000000000000000000000000000000000000000000e2
:0d27f70000000000000000000000000000d5
:202804000000000000000000000000000000000000000000000000000000000000000000b4
:20282400000000000000000000000000000000000000002667ce0000000000000000000039
:20284400000000000000000000000000000000000000000000000000000000000000000074
:0d2864000000000000000000000000000067
:20287100000000000000000000000000000000000000000000000000000000000000000047
:20289100000000000000000000000000000000000004000000010000000000000000000022
:2028b100000000000000000000000000000000000000000000000000000000000000000007
:0d28d10000000000000000000000000000fa
:2028de000000000000000000000000000000000000000000000000000000000000000000da
:2028fe0000000000000000000000000000000000000c000001c800000000000000000000e5
:20291e00000000000000000000000000000000000000000000000000000000000000000099
:0d293e00000000000000000000000000008c
:20294b0000000000000000000000000000000000000000000000000000000000000000006c
:20296b00000000000000000000000000000000000000b1000000000000000000000000009b
:20298b0000000000000000000000000000000000000000000000000000000000000000002c
:0d29ab00000000000000000000000000001f
:2029b8000000000000000000000000000000000000000000000000000000000000000000ff
:2029d80000000000000000000000000000000000000010800140000000000000000000000e
:2029f8000000000000000000000000000000000000000000000000000000000000000000bf
:0d2a180000000000000000000000000000b1
:202a2500000000000000000000000000000000000000000000000000000000000000000091
:202a450000000000000000000000000000000000000e100000000000000000000000000053
:202a6500000000000000000000000000000000000000000000000000010000000000000050
:0d2a85000000000000000000000000000044
:202a9200000000000000000000000000000000000000000000000000000000000000000024
:202ab200000000000000000000000000000000000000103c00c000000000000000000000f8
:202ad2000000000000000000000000000000000000000000000000000000000000000000e4
:0d2af20000000000000000000000000000d7
:202aff000000000000000000000000000000000000000000000000000000000000000000b7
:202b1f00000000000000000000000000000000000000001e3c0000400000000000000000fc
:202b3f00000000000000000000000000000000000000000000000000010000000000000075
:0d2b5f000000000000000000000000000069
:202b6c00000000000000000000000000000000000000000000000000000000000000000049
:202b8c0000000000000000000000000000000000000088007fc00000000000000000000062
:202bac00000000000000000000000000000000000000000000000000000000000000000009
:0d2bcc0000000000000000000000000000fc
:202bd9000000000000000000000000000000000000000000000000000000000000000000dc
:202bf9000000000000000000000000000000000000000000020000000000000000000000ba
:202c1900000000000000000000000000c000000000000000000000000000000000000000db
:0d2c3900000000000000000000000000008e
:202c460000000000000000000000000000000000000000000000000000000000000000006e
:202c6600000000000000000000000000000000000000000c01c00001000000000000000080
:202c860000000000000000000000000000000000000000000000000000000000000000002e
:0d2ca6000000000000000000000000000021
:202cb300000000000000000000000000000000000000000000000000000000000000000001
:202cd300000000000000000000000000000000000001010424c040000000000000000000b7
:202cf3000000000000000000000000000000000000000000000000000000000000000000c1
:0d2d13000000000000002000000000000093
:202d2000000000000000000000000000000000000000000000000000000000000000000093
:202d4000000000000000000000000000000000000000000076e0000000000000000000001d
:202d6000000000000000000000000000000000000000000000000000000000000000000053
:0d2d80000000000000000000000000000046
:202d8d00000000000000000000000000000000000000000000000000000000000000000026
:202dad0000000000000000000000000000000000000000003a0000000000000000000000cc
:202dcd000000000000300000000000000000000000000000000000000000000000000000b6
:0d2ded0000000000000000000000000000d9
:202dfa000000000000000000000000000000000000000000000000000000000000000000b9
:202e1a000000000000000000000000000000000000000000014e0000004000000000000009
:202e3a00000000000000000000000000000000000000000000000000000000000000000078
:0d2e5a00000000000000000000000000006b
:202e670000000000000000000000000000000000000000000000000000000000000000004b
:202e87000000000000000000000000000000000000004016200000000000000000000000b5
:202ea7000000000000000000000000000000000000004000000000000000000000000000cb
:0d2ec70000000000000000000000000000fe
:202ed4000000000000000000000000000000000000000000000000000000000000000000de
:202ef400000000000000000000000000000000000000002601cb00000000000000000000cc
:202f140000000000000000000000000000000000000000000000000000000000000000009d
:0d2f34000000000000000000000000000090
:202f4100000000000000000000000000000000000000000000000000000000000000000070
:202f610000000000000000000000000000000000000400000001000000000000000000004b
:202f8100000000000000000000000000000000000000000000000000000000000000000030
:0d2fa1000000000000000000000000000023
:202fae00000000000000000000000000000000000000000000000000000000000000000003
:202fce00000000000000000000000000000000000004001c034d0000000000000000000073
:202fee000000000000000000000000000000000000000000000000000000000000000000c3
:0d300e0000000000000000000000000000b5
:20301b00000000000000000000000000000000000000000000000000000000000000000095
:20303b00000000000000000000000000000000000000000032000000000000000000000043
:20305b00000000000000000000000000000000000000000000000000000000000000000055
:0d307b000000000000000000000000000048
:20308800000000000000000000000000000000000000000000000000000000000000000028
:2030a800000000000000000000000000000000000000100040c000000000000000000000f8
:2030c8000000000000000000000000000000000000000000000000000000000000000000e8
:0d30e80000000000000000000000000000db
:2030f5000000000000000000000000000000000000000000000000000000000000000000bb
:2031150000000000000000000000000000000000000e000002000028000000000000000062
:20313500000000000400000000000000000000000000000000000000000000000000000472
:0d315500000000000000000000000000006d
:2031620000000000000000000000000000000000000000000000000000000000000000004d
:2031820000000000000000000000000000000000000000003fc0000000000000000000002e
:2031a20000000000000000000000000000000000000000000000000000000000000000000d
:0d31c2000000000000000000000000000000
:2031cf000000000000000000000000000000000000000000000000000000000000000000e0
:2031ef00000000000000000000000000000000000000000030000000000000000000000090
:20320f00000000000400000000000000000000000000000000000000000000000000000497
:0d322f000000000000000000000000000092
:20323c00000000000000000000000000000000000000000000000000000000000000000072
:20325c00000000000000000000000000000000000000000025c0000000000000000000006d
:20327c00000000000000000000000000000000000000000000000000000000000000000032
:0d329c000000000000000000000000000025
:2032a900000000000000000000000000000000000000000000000000000000000000000005
:2032c9000000000000000000000000000000000000000000060000000000000000000000df
:2032e900000000000100000000000000000000000000000040000000000000000000000084
:0d33090000000000000000000000000000b7
:20331600000000000000000000000000000000000000000000000000000000000000000097
:20333600000000000000000000000000000000000000000038c0000000000000000000007f
:203356000000000000800000000000000000000000000000000000000000000000000000d7
:0d337600000000000000000000000000004a
:2033830000000000000000000000000000000000000000000000000000000000000000002a
:2033a300000000000000000000000000000000000000800000401028100000000000000002
:2033c3000000000000000000000000000000000000000000000000000000000000000000ea
:0d33e30000000000000000000000000000dd
:2033f0000000000000000000000000000000000000000000000000000000000000000000bd
:203410000000000000000000000000000000000000008000036000000000000000000000b9
:2034300000000000000000000000000000000000000000000000000000000000000000007c
:0d345000000000000000000000000000006f
:20345d0000000000000000000000000000000000000000000000000000000000000000004f
:20347d00000000000000000000000000000000000000001e000000002000000000000000f1
:20349d000000000000000000000000000000000000000000400000000000000000000000cf
:0d34bd000000000000000000000000000002
:2034ca000000000000000000000000000000000000000000000000000000000000000000e2
:2034ea00000000000000000000000000000000000000000603cb00004000000000000000ae
:20350a00000000000000000000000000000000000000000040000000000000000000000061
:0d352a000000000000000000000000000094
:20353700000000000000000000000000000000000000000000000000000000000000000074
:20355700000000000000000000000000000000000000010e22000000000000000000000023
:2035770000000000000500000000000000000000000000000000000000000000000000002f
:0d3597000000000000000000000000000027
:2035a400000000000000000000000000000000000000000000000000000000000000000007
:2035c4000000000000000000000000000000000000000004224f0000000000000000000072
:2035e4000000000000000000000000000000000000000000000000000000000000000000c7
:0d36040000000000000000000000000000b9
:20361100000000000000000000000000000000000000000000000000000000000000000099
:2036310000000000000000000000000000000000000c001c0401000020000000000000002c
:20365100000000000000000000000000000000000000000000000000000000000000000059
:0d367100000000000000000000000000004c
:20367e0000000000000000000000000000000000000000000000000000000000000000002c
:20369e0000000000000000000000000000000000000c00003dcb00004000000000000000b8
:2036be000000000000000000000000000000000000000000000000000000000000000000ec
:0d36de0000000000000000000000000000df
:2036eb000000000000000000000000000000000000000000000000000000000000000000bf
:20370b0000000000000000000000000000000000000010000000000000000000000000008e
:20372b00000000000000000000000000a000000000000000000000000000000000000000de
:0d374b000000000000000000000000000071
:20375800000000000000000000000000000000000000000000000000000000000000000051
:20377800000000000000000000000000000000000000100001c000028000000000000000de
:20379800000000000000000000000000000000000000000000000000000000000000000011
:0d37b8000000000000000000000000000004
:2037c5000000000000000000000000000000000000000000000000000000000000000000e4
:2037e50000000000000000000000000000000000000e100e38000001a000000000000000bf
:203805000000000000000000000000000000000000000000000000000000000000000000a3
:0d3825000000000000000000000000000096
:20383200000000000000000000000000000000000000000000000000000000000000000076
:203852000000000000000000000000000000000000001002034000005000000000000000b1
:20387200000000000000000000000000000000000000000000000000000000000000000036
:0d38920000000000000000800000000000a9
:20389f00000000000000000000000000000000000000000000000000000000000000000009
:2038bf00000000000000000000000000000000000000008c0200000000000000000000005b
:2038df00000000000000000000000000000000000000400000000000000000000000000089
:0d38ff0000000000000000000000000000bc
:20390c0000000000000000000000000000000000000000000000000000000000000000009b
:20392c00000000000000000000000000000000000000010223c00000800000000000000015
:20394c0000000000000000000000000000000000000000000000000000000000000000005b
:0d396c00000000000000000000000000004e
:2039790000000000000000000000000000000000000000000000000000000000000000002e
:20399900000000000000000000000000000000000000000002000008000000000000000004
:2039b9000000000000000000000000000000000000000300000000000000000000000000eb
:0d39d90000000000000000000000000000e1
:2039e6000000000000000000000000000000000000000000000000000000000000000000c1
:203a0600000000000000000000000000000000000000000000400010000000000000000050
:203a2600000000000000000000000000000000000000000000000000000000000000000080
:0d3a46000000000000000000000000000073
:203a5300000000000000000000000000000000000000000000000000000000000000000053
:203a7300000000000000000000000000000000000000000c74e04000000000000000000093
:203a9300000000000000000000000000000000000000000000000000000000000000000013
:0d3ab30000000000000020000000000000e6
:203ac0000000000000000000000000000000000000000000000000000000000000000000e6
:203ae0000000000000000000000000000000000000000002756000010000000000000000ee
:203b00000000000000000000000000000000000000000000000000000000000000000000a5
:0d3b20000000000000000000000000000098
:203b2d00000000000000000000000000000000000000000000000000000000000000000078
:203b4d000000000000000000000000000000000000000020780000000000000000000000c0
:203b6d00000000000000040000000010000000000000000000000000000000000000000024
:0d3b8d00000000000000000000000000002b
:203b9a0000000000000000000000000000000000000000000000000000000000000000000b
:203bba00000000000000000000000000000000000000001c02ce00000000000000000000ff
:203bda000000000000000000000000000000000000000000000000000000000000000000cb
:0d3bfa0000000000000000000000000000be
:203c070000000000000000000000000000000000000000000000000000000000000000009d
:203c2700000000000000000000000000000000000000000e02000008400000000000000025
:203c470000000000000000000000001000000000000040000000000000000000000000000d
:0d3c67000000000000000000000000000050
:203c7400000000000000000000000000000000000000000000000000000000000000000030
:203c9400000000000000000000000000000000000000040601cd0000200000000000000018
:203cb4000000000000000000000000000000000000000000000000000000000000000000f0
:0d3cd40000000000000000000000000000e3
:203ce1000000000000000000000000000000000000000000000000000000000000000000c3
:203d010000000000000000000000000000000000000c000c20010000000000000000000069
:203d21000000000000000000000000000000000000000380000000000000000000000000ff
:0d3d41000000000000000000000000000075
:203d4e00000000000000000000000000000000000000000000000000000000000000000055
:203d6e00000000000000000000000000000000000004100240c90000000000000000000016
:203d8e00000000000000000000000000000000000000001000000000000000000000000005
:0d3dae000000000000000000000000000008
:203dbb000000000000000000000000000000000000000000000000000000000000000000e8
:203ddb00000000000000000000000000000000000000200022000000500000000000000036
:203dfb000000000000000000000000000000000000000000000000000000000000000000a8
:0d3e1b00000000000000000000000000009a
:203e280000000000000000000000000000000000000000000000000000000000000000007a
:203e48000000000000000000000000000000000000005a0c43c000000000000000000000f1
:203e680000000000000000000000000000000000000000000000000000000000000000003a
:0d3e8800000000000000000000000000002d
:203e950000000000000000000000000000000000000000000000000000000000000000000d
:203eb50000000000000000000000000000000000000e0000220000000000000000000000bd
:203ed5000000000000000000000000000000000000000000000000000000000000000000cd
:0d3ef50000000000000010000000000000b0
:203f020000000000000000000000000000000000000000000000000000000000000000009f
:203f22000000000000000000000000000000000000000000424000000000000000000000fd
:203f420000000000000000000000000000000000000000000000000000000000000000005f
:0d3f620000000000000000c0000000000092
:203f6f00000000000000000000000000000000000000000000000000000000000000000032
:203f8f0000000000000000000000000000000000000000802400000010000000000000005e
:203faf00000000000000000000000000a00000000000000000000000000000000000000052
:0d3fcf0000000000000010000000000000d5
:203fdc000000000000000000000000000000000000000000000000000000000000000000c5
:203ffc0000000000000000000000000000000000000000007c4000000000000000000000e9
:20401c00000000000000000000000000100000000000000000000000000000000000000074
:0d403c000000000000000000000000000077
:20404900000000000000000000000000000000000000000000000000000000000000000057
:20406900000000000000000000000000000000000000001c04000000000000000000000017
:20408900000000000000000000000000000000000000000000000000000000000000000017
:0d40a900000000000000000000000000000a
:2040b6000000000000000000000000000000000000000000000000000000000000000000ea
:2040d60000000000000000000000000000000000000000003a400000000000000000000050
:2040f6000000000002000000000000000000000000000000000000000000000000000000a8
:0d411600000000000000008000000000001c
:2041230000000000000000000000000000000000000000000000000000000000000000007c
:2041430000000000000000000000000000000000000000007b600000000000000000000081
:2041630000000000000000000000000000000000000000000000000000000000000000003c
:0d4183000000000000000008000000000027
:2041900000000000000000000000000000000000000000000000000000000000000000000f
:2041b000000000000000000000000000000000000000000042e0800000000000000000004d
:2041d0000000000000100000000000000000000000000000000000000000000000000000bf
:0d41f00000000000000000040000000000be
:2041fd000000000000000000000000000000000000000000000000000000000000000000a2
:20421d0000000000000000000000000000000000000000400400001000000000000000002d
:20423d00000000000030000000000000000000000000000000000000000000000000000031
:0d425d000000000000000000000000000054
:20426a00000000000000000000000000000000000000000000000000000000000000000034
:20428a00000000000000000000000000000000000000000033cd000800000000000000000c
:2042aa000000000000000000000000000000000000000000000000000000000000000000f4
:0d42ca0000000000000000000000000000e7
:2042d7000000000000000000000000000000000000000000000000000000000000000000c7
:2042f700000000000000000000000000000000000000800e00000000000000000000000019
:20431700000000000000000000000000000000000000400000000000000000000000000046
:0d4337000000000000000000000000000079
:20434400000000000000000000000000000000000000000000000000000000000000000059
:20436400000000000000000000000000000000000000060025cb0000000000000000000043
:20438400000000000000000000000000000000000000000000000000000000000000000019
:0d43a400000000000000000000000000000c
:2043b1000000000000000000000000000000000000000000000000000000000000000000ec
:2043d100000000000000000000000000000000000004000026000000200000000000000082
:2043f1000000000000000000000000000000000000000000000000000000000000000000ac
:0d441100000000000000000000000000009e
:20441e0000000000000000000000000000000000000000000000000000000000000000007e
:20443e0000000000000000000000000400000000000c10007fcb00044000000000001000a0
:20445e000000000000400000000000010000000000000400000000000010000000000000e9
:0d447e0040000000000001000000000000f0
:20448b00000000000000000000000000000000000000000000000000000000000000000011
:2044ab000000000000000000000000000000000000001000200000000000000000000000c1
:2044cb000000000000000000000000000000000000000000000000000002000000000000cf
:0d44eb0000000000000000000000000000c4
:2044f8000000000000000000000000000000000000000000000000000000000000000000a4
:204518000000000000000000000000000000000000001000414000000000000000000000f2
:20453800000000000000000000000000000000000000005000000000000000000000000013
:0d4558000000000000000000000000000056
:20456500000000000000000000000000000000000000000000000000000000000000000036
:2045850000000000000000000000000000000000000e1000020000380000000000000000be
:2045a5000000000000000000000000000000000000000000000000000000000000000000f6
:0d45c50000000000000002000000000000e7
:2045d2000000000000000000000000000000000000000000000000000000000000000000c9
:2045f200000000000000000000000000000000000000100000c000200000000000000000b9
:20461200000000000000000000000000000000000000000000000000000000000000000088
:0d463200000000000000000000000000007b
:20463f0000000000000000000000000000000000000000000000000000000000000000005b
:20465f00000000000000000000000000000000000000003e020000000000000000000000fb
:20467f000000000000000000000000000000000000004000000000000000000000000000db
:0d469f00000000000000000000000000000e
:2046ac000000000000000000000000000000000000000000000000000000000000000000ee
:2046cc00000000000000000000000000000000000000067c03c00000000000000000000089
:2046ec0000000000000000000000000040000000000000000000000000000000000000006e
:0d470c0000000000000000000000000000a0
:20471900000000000000000000000000000000000000000000000000000000000000000080
:20473900000000000000000000000000000000000000001c02000000000000000000000042
:2047590000000000000200000000000000000000000000000000000000000000000000003e
:0d4779000000000000000000003cc85000df
:20478600000000000000000000000000000000000000000000000000000000000000000013
:2047a60000000000000000000000000000000000000000023dc000000000000000000000f4
:2047c6000000000000050000000000000000000000000000000000000000000000000000ce
:0d47e6000000000000000000003ecea0001a
:2047f3000000000000000000000000000000000000000000000000000000000000000000a6
:204813000000000000000000000000000000000000000040044010000000000000000000f1
:20483300000000000000000000000000a000000000000000000000000000000000000000c5
:0d4853000000000000000001c00000000097
:20486000000000000000000000000000000000000000000000000000000000000000000038
:20488000000000000000000000000000000000000000800036e00020000000000000000062
:2048a0000000000000180000000000000000000000000000000000000000000000000000e0
:0d48c0000000000000000003c00000000028
:2048cd000000000000000000000000000000000000000000000000000000000000000000cb
:2048ed00000000000000000000000000000000000000000472000000000000000000000035
:20490d0000000000000000000000000000000000000000000000000000000000000000008a
:0d492d00000000000000000000000000007d
:20493a0000000000000000000000000000000000000000000000000000000000000000005d
:20495a000000000000000000000000000000000000000002434e00000000000000000000aa
:20497a0000000000000000000000000000000000000000000000000000000000000000001d
:0d499a000000000000000000000000000010
:2049a7000000000000000000000000000000000000000000000000000000000000000000f0
:2049c700000000000000000000000000000000000000418c00010000000000000000000002
:2049e7000000000000000000000000000000000000000000000000000100000000000000af
:0d4a070000000000000000000200000000a0
:204a1400000000000000000000000000000000000000000000000000000000000000000082
:204a3400000000000000000000000000000000000000436601ca00000000000000000000ee
:204a5400000000000000000000000000000000000000000000000000000000000000000042
:0d4a74000000000000000000000000000035
:204a8100000000000000000000000000000000000000000000000000000000000000000015
:204aa10000000000000000000000000000000000000c001e200100000000000000000000aa
:204ac1000000000000000000000000000000000000001000000000000000000000000000c5
:0d4ae1000000000000000000004000000088
:204aee000000000000000000000000000000000000000000000000000000000000000000a8
:204b0e0000000000000000000000000000000000000c001c014d0000000000000000000011
:204b2e0000000000000000000000000000000000000028000000000000000000000000003f
:0d4b4e0000000000000000000380000000d7
:204b5b0000000000000000000000000000000000000000000000000000000000000000003a
:204b7b00000000000000000000000000000000000000021e020000000000000000000000f8
:204b9b0000000000000000000000000000003fe0400000000000000000000000000000009b
:0d4bbb0000000000000000000000000000ed
:204bc8000000000000000000000000000000000000000000000000000000000000000000cd
:204be8000000000000000000000000000000000000001a2e03c000000000000000000000a2
:204c080000000000000000000000000002401d80011000000000000000000000000000009c
:0d4c2800000000000000000000000000007f
:204c350000000000000000000000000000000000000000000000000000000000000000005f
:204c550000000000000000000000000000000000000e000000000000000000000000000031
:204c750000000000000000000000001000000000000000071c0000000040000000000000ac
:0d4c95000000000000000000000000000012
:204ca2000000000000000000000000000000000000000000000000000000000000000000f2
:204cc200000000000000000000000000000000000000000001c00000000000000000000011
:204ce20000000000000000000000000000000000000000001000000000a000000000000002
:0d4d020000000000000000000000000000a4
:204d0f00000000000000000000000000000000000000000000000000000000000000000084
:204d2f00000000000000000000000000000000000000001c20000008000000000000000020
:204d4f00000000000200000000000010000000000000000000000000010000000000000031
:0d4d6f0000000000000000000280000000b5
:204d7c00000000000000000000000000000000000000000000000000000000000000000017
:204d9c00000000000000000000000000000000000000000202c00010000000000000000023
:204dbc000000000000000000000000000000000000000000000000000000000000000000d7
:0d4ddc000000000000000002c00000000008
:204de9000000000000000000000000000000000000000000000000000000000000000000aa
:204e0900000000000000000000000000000000000000000006000000200000000000400023
:204e290000000000013000000000000000000000000000271c0000000000000000000000f5
:0d4e490000000000000000000680000000d6
:204e560000000000000000000000000000000000000000000000000000000000000000003c
:204e760000000000000000000000000000000000000000243bc0000050000000000080002d
:204e960000000000008000000000000000000000000000501000000000000000000000001c
:0d4eb60000000000000000000400000000eb
:204ec3000000000000000000000000000000000000000000000000000000000000000000cf
:204ee30000000000000000000000000000000000000020003c404040400000000000000053
:204f030000000000000000000000000000000000000000001c000000000000000000000072
:0d4f230000000000000000000780000000fa
:204f3000000000000000000000000000000000000000000000000000000000000000000061
:204f5000000000000000000000000000000000000000000075400001a000000000000000eb
:204f7000000000000000000000000000000000000000000010000000000100000000000010
:0d4f90000000000000000000000000000014
:204f9d000000000000000000000000000000000000000000000000000000000000000000f4
:204fbd00000000000000000000000000000000000000000000000000500000000000000084
:204fdd000000000000000000000000000000000000000007000000000000000000000000ad
:0d4ffd0000000000000000000000000000a7
:20500a00000000000000000000000000000000000000000000000000000000000000000086
:20502a00000000000000000000000000000000000000000003cd0000000000000000000096
:20504a00000000000000000000000000000000000000000000000000000000000000000046
:0d506a000000000000000000000000000039
:20507700000000000000000000000000000000000000000000000000000000000000000019
:20509700000000000000000000000000000000000000002000000040100000000000000089
:2050b70000000000040000000000000000000000000000001c9b400040000000000000009e
:0d50d70000000000000000000014da70105e
:2050e4000000000000000000000000000000000000000000000000000000000000000000ac
:20510400000000000000000000000000000000000000003c204b0000800000000000000064
:2051240000000000000000000000000000000000000000001076d000100000000000000005
:0d51440000000000000000000035b5100064
:2051510000000000000000000000000000000000000000000000000000000000000000003e
:2051710000000000000000000000000000000000000c001c260100002000000000000000af
:20519100000000000000000000000000004000000000000700dbc8002000000000000000f4
:0d51b10000000000000000000000000000f1
:2051be000000000000000000000000000000000000000000000000000000000000000000d1
:2051de0000000000000000000000000000000000000c00003d4b00005000000000000000cd
:2051fe0000000000000000000000000002e3400000000000003640000000000000000000f6
:0d521e000000000000000000000000000083
:20522b00000000000000000000000000000000000000000000000000000000000000000063
:20524b00000000000000000000000000000000000000100000000000001c00000000000017
:20526b000000000000000000000000004000000000000010000000000000000000000000d3
:0d528b000000000000000000e00000000036
:205298000000000000000000000000000000000000000000000000000000000000000000f6
:2052b800000000000000000000000000000000000000100001c00000000000000000000005
:2052d8000000000000000000000000000000000000000000000000000000000000000000b6
:0d52f8000000000000000000024000000067
:20530500000000000000000000000000000000000000000000000000000000000000000088
:2053250000000000000000000000000000000000000e103e0200000000000000000000000a
:205345000000000001000000000000000140000000000000000000000000400000000000c6
:0d5365000000000000000002002eca7000d1
:2053720000000000000000000000000000000000000000000000000000000000000000001b
:20539200000000000000000000000000000000000000102c00c000000700000000000100f7
:2053b2000000000002800000000000000020000000000000000000000001800000000000b8
:0d53d2000000000000000002c035e51010d2
:2053df000000000000000000000000000000000000000000000000000000000000000000ae
:2053ff00000000000000000000000000000000000000000002000000000077614000000074
:20541f000000000000000000000000000000000000004000015ac002200080000000000070
:0d543f000000000000000000000000000060
:20544c00000000000000000000000000000000000000000000000000000000000000000040
:20546c000000000000000000000000000000000000000040034000000000373a80000000ac
:20548c0000000000000000000000000000000000000000000c37820000000000000000003b
:0d54ac0000000000000000000000000000f3
:2054b9000000000000000000000000000000000000000000000000000000000000000000d3
:2054d900000000000000000000000000000000000000015c22000000000000000000000034
:2054f90000000000000000000000000000000000000000080000000000000000000000008b
:0d5519000000000000000000004000000045
:20552600000000000000000000000000000000000000000000000000000000000000000065
:20554600000000000000000000000000000000000000009e41400000000000000000000026
:2055660000000000000000000000000000000000000000070000000000000000000000001e
:0d5586000000000000000000020000000016
:205593000000000000000000000000000000000000000000000000000000000000000000f8
:2055b300000000000000000000000000000000000000002e7ac00800580000000000000010
:2055d30000000000000000000000000040030000000000580000000000000000000000001d
:0d55f30000000000000000a000000000000b
:2056000000000000000000000000000000000000000000000000000000000000000000008a
:20562000000000000000000000000000000000000000000c416000018b0000000000000031
:20564000000000000000000000000000000400000000000b0000000000000000000000003b
:0d566000000000000000000003c00000007a
:20566d0000000000000000000000000000000000000000000000000000000000000000001d
:20568d00000000000000000000000000000000000000000400000010001e0000000001408a
:2056ad000000000000000000000000000000000000000000000000000000000000000000dd
:0d56cd0000000000000000021000000000be
:2056da000000000000000000000000000000000000000000000000000000000000000000b0
:2056fa00000000000000000000000000000000000000000000ce0028070000000000008013
:20571a0000000000000000000000000000000000000000000000000000000000000000006f
:0d573a000000000000000082c00000000020
:20574700000000000000000000000000000000000000000000000000000000000000000042
:20576700000000000000000000000000000000000000000e7000000008010000000000009b
:2057870000000000000000000000000000002d900100000000000000000000000000000044
:0d57a70000000000000000220004f8500087
:2057b4000000000000000000000000000000000000000000000000000000000000000000d5
:2057d400000000000000000000000000000000000000020643cc0002030800000000000091
:2057f40000000000000000000000000000003ee10010000000000000000000000000000066
:0d5814000000000000000000c3e58ea000b1
:20582100000000000000000000000000000000000000000000000000000000000000000067
:20584100000000000000000000000000000000000004000002010000001e1fa9c400000096
:2058610000000000000000000000000008c300000000030500000000000000000000000054
:0d5881000000000000000008000000000012
:20588e000000000000000000000000000000000000000000000000000000000000000000fa
:2058ae0000000000000000000000000000000000000400003bc800000000f6544000000049
:2058ce00000000000000000000000000142000000000000080000000000000000000000006
:0d58ee000000000000000014000000000099
:2058fb0000000000000000000000000000000000000000000000000000000000000000008d
:20591b00000000000000000000000000000000000001018006000000000050001020000064
:20593b000000000000000000000000000007bff20010000000000000000000000000000084
:0d595b0000000000000000000040000000ff
:2059680000000000000000000000000000000000000000000000000000000000000000001f
:2059880000000000000000000000000000000000000113c43a4000100000f0294200000042
:2059a80000000000000000000000000000040de002000000000000000000000000000000ec
:0d59c800000000000000000003400000008f
:2059d5000000000000000000000000000000000000000000000000000000000000000000b2
:2059f50000000000000000000000000000000000000e000400000380070000000000000ee8
:205a15000000000038000000000000e00000000000000007000000000e000003ea81518005
:0d5a3500020000000000e001c04000000081
:205a4200000000000000000000000000000000000000000000000000000000000000000044
:205a6200000000000000000000000000000000000000000226c00000090000000000000231
:205a820000000000000000000000000000000000000000000000000000000003cf500800da
:0d5aa2000400000000000000234000000090
:205aaf000000000000000000000000000000000000000000000000000000000000000000d7
:205acf00000000000000000000000000000000000000002000000000000000000000000097
:205aef00027ca720000000000000000000000000000000000000000000000622fa817080bf
:0d5b0f00000000000000400000061a5404d1
:205b1c00000000000000000000000000000000000000000000000000000000000000000069
:205b3c00000000000000000000000000000000000000003c32400000ad00000000000000ee
:205b5c00034d51000000000000000000000000000000405000000000000000434b5000001a
:0d5b7c000000000000004000000c999000a7
:205b89000000000000000000000000000000000000000000000000000000000000000000fc
:205ba900000000000000000000000000000000000001001c020000005000063c10500000cb
:205bc900680000000002000000000000000000000000000580000000000020240000000089
:0d5be90000000000000000000000000000af
:205bf60000000000000000000000000000000000000000000000000000000000000000008f
:205c16000000000000000000000000000000000000010004004000002000003c00100000bd
:205c360000000000000100000000000000000000000000500000000000003c600000000061
:0d5c56000000000000000000000000000041
:205c6300000000000000000000000000000000000000000000000000000000000000000021
:205c8300000000000000000000000000000000000000003424c000400800000000000000a1
:205ca30000000000010000000000000000003ff0001400000000000000001c380000000049
:0d5cc30000000000000000020000000000d2
:205cd0000000000000000000000000000000000000000000000000000000000000000000b4
:205cf000000000000000000000000000000000000000002c74c004500b00000000000000d5
:205d10003c000000000900000000000000000de1000000000000000000000000000000043c
:0d5d30000000000000000003c000000000a3
:205d3d00000000000000000000000000000000000000000000000000000000000000000046
:205d5d00000000000000000000000000000000000000004002000020000000000000001ca8
:205d7d0000000000000000e00000000000001de8141010001c00000000001e0400000000af
:0d5d9d0000000000000000000000000000f9
:205daa000000000000000000000000000000000000000000000000000000000000000000d9
:205dca00000000000000000000000000000000000000008003cb001000000000000000005b
:205dea0000000000000004000000000014c024e5000820001000000000000220000000005e
:0d5e0a00000000000000000000000000008b
:205e170000000000000000000000000000000000000000000000000000000000000000006b
:205e3700000000000000000000000000000000000000000000000000000e0000000000013c
:205e5700000000000000000073c1220002e00000000040000000000000001c3bec8540802b
:0d5e7700000000000000000000000000001e
:205e84000000000000000000000000000000000000000000000000000000000000000000fe
:205ea400000000000000000000000000000000000000480002c800002000000000000000ac
:205ec400000000000000000043c0040002e00000000000000000000000000022fe80000035
:0d5ee40000000000000000000000000000b1
:205ef100000000000000000000000000000000000000000000000000000000000000000091
:205f11000000000000000000000000000000000000048000020000400100b7e140000000d1
:205f3100000000000000000000000004926040000000202380fee00440001e036e85180009
:0d5f510000000000000000e0000000000063
:205f5e00000000000000000000000000000000000000000000000000000000000000000023
:205f7e0000000000000000000000000000000000000c4c00254a0040078013ba8000000028
:205f9e000000000000000000000000020ac3400000001050801340020000023b7c80210045
:0d5fbe0000000000000000000000000000d6
:205fcb000000000000000000000000000000000000000000000000000000000000000000b6
:205feb00000000000000000000000040000000000000b016600000000000b00010108000e0
:20600b0000000000000000000000000040000e89680040280032a150010600600000000044
:0d602b000000000000000000030000000065
:20603800000000000000000000000000000000000000000000000000000000000000000048
:206058000000000000000000000000400000000000001202414000000000f02940004000ba
:2060780000000000000000000000000000000209603000010f1320004100000000000000e9
:0d60980000000000000000000000000000fb
:2060a5000000000000000000000000000000000000000000000000000000000000000000db
:2060c50000000000000000000000000000000000000e114000000380500006bc1460000053
:2060e50000000000380000000000000000001e89680380058e0000000e001403d8770000ca
:0d610500000000000000e0000000000000ad
:2061120000000000000000000000000000000000000000000000000000000000000000006d
:2061320000000000000000000000000000000000000010bc01c000002000003c0000000064
:2061520000000000000000000000000000000209601000001000000000800229dedd10002c
:0d61720030000000000000000000000000f0
:20617f00000000000000000000000000000000000000000000000000000000000000000000
:20619f00000000000000000000000000000000000000041e7a000000000000000000000044
:2061bf00000000000000000000000000000014896a005000191be05c600000040000000095
:0d61df00000000000000c800e040000000cb
:2061ec00000000000000000000000000000000000000000000000000000000000000000093
:20620c0000000000000000000000000000000000000000000340000000000000000000002f
:20622c0000000000000000000000000003c00009600028090a7ed4001000003c000000004d
:0d624c00000000000000c60023400000001c
:20625900000000000000000000000000000000000000000000000000000000000000000025
:206279000000000000000000000000000000000000000020220000005380000000000000f0
:2062990000000000000001800000000000001e89680800059b12e05060002001cd85400058
:0d62b90000000000000000000000000000d8
:2062c6000000000000000000000000000000000000000000000000000000000000000000b8
:2062e600000000000000000000000000000000000000003439c0000020000000000000004b
:206306000000000000000000000000000000000960000000083e14020000040268800800bc
:0d632600000000000000000000000000006a
:2063330000000000000000000000000000000000000000000000000000000000000000004a
:20635300000000000000000000000000000000000000006000400000030c033c1420000008
:2063730000000000000000e00000000000005e89681000938032a140600020015b81788050
:0d63930000000000000004000000000000f9
:2063a0000000000000000000000000000000000000000000000000000000000000000000dd
:2063c000000000000000000000000000000000000000000c00e04001a010043c0040000060
:2063e00000000000000000000000000000028009600000058913200000000c03ec500000a6
:0d640000380000000000180000000000003f
:20640d0000000000000000000000000000000000000000000000000000000000000000006f
:20642d0000000000000000000000000000000000000000003201000000000000000000001c
:20644d0000000000000000000000000000071c8968000020000000000000200000000000db
:0d646d000000000000000000000000000022
:20647a00000000000000000000000000000000000000000000000000000000000000000002
:20649a000000000000000000000000000000000000000000414d0000000000000000014013
:2064ba0000000000000000000000000014040209600000100000000000003c0000000000f3
:0d64da0000000000000000000000000000b5
:2064e700000000000000000000000000000000000000000000000000000000000000000095
:2065070000000000000000000000000000000000000000a0000100000000000000000c00c7
:2065270000000000000000800000000000069c89680000039b5aa15410001c7000000000b8
:0d6547000000000000000000030000000044
:20655400000000000000000000000000000000000000000000000000000000000000000027
:20657400000000000000000000000000000000000000409c034800000000000000000000e0
:2065940000000000000050000000000003c0000962000000887b5000400036400000000060
:0d65b40000000000000000000400000000d6
:2065c1000000000000000000000000000000000000000000000000000000000000000000ba
:2065e10000000000000000000000000000000000000d800e020000000008000000000000f5
:2066010000000000000000076a05400000c38c8968000050005bddc0000020000000000813
:0d662100000000000000000000140a5400fa
