:02000000ff00ff
:080002004c6174746963650030
:17000a00694345637562653220323031342e31322e32373035320077
:16002100506172743a2069434534304858314b2d545131343400fc
:1a003700446174653a20417072203920323031352032323a35343a303400ae
:0200510000ffae
:040053007eaa997e6a
:02005700510056
:0200590001059f
:03005b00920020f0
:03005e0062014bf1
:030061007200909a
:0300640082000017
:02006700110086
:02006900010193
:20006b00000000000000000000000000000000000000000000000000000000000000000075
:09008b000000000000000000006c
:2000940000000000000000000000000000000000000000000000000000000000000000004c
:0a00b4000000000000000000000042
:2000be00000000000000000000000000000000000000000000000000000000000000000022
:0900de00000000400000000000d9
:2000e7000000000000000000000000000000000000000000000000000000000000000000f9
:0a01070000000000000000000000ee
:200111000000000000000000000000000000000000000000000000000000000000000000ce
:09013100000000000000000000c5
:20013a000000000000000000000000000000000000000000000000000000000000000000a5
:0a015a00000000000000000000009b
:200164000000000000040000000000001000000000000040000000001000000000000040d7
:0901840000000000000000000072
:20018d00000000000000000000000000000000000000000000000000000000000000000052
:0a01ad000000000000000000000048
:2001b700000000000004000000000000100000000000004000000000100000000000004084
:0901d7000000000000010000001e
:2001e0000000000000000000000000000000000000000000000000000000000000000000ff
:0a02000000000000000000000000f4
:20020a000000000000000000000000000000000000000000000000000000000000000000d4
:09022a00000000000000000000cb
:200233000000000000000000000000000000c00000000000000000000000000000000000eb
:0a02530000000000000000000000a1
:20025d00000000000000000000000038000000000000000000000000000000000000000049
:09027d0000000000000000000078
:20028600000000000000000000000000000000000000000000000000000000000000000058
:0a02a600000000000000000000004e
:2002b00000000000000000000000000000000000000000000000000000000000000000002e
:0902d00000000000000000000025
:2002d900000000000000000000000000000000000000000000000000000000000000000005
:0a02f90000000000000000000000fb
:200303000000000000000000000000000000000000000000000000000000000000000000da
:09032300000000000000000000d1
:20032c00000000000000000000000000000000000040000000000000000000000000000071
:0a034c0000000000000000000000a7
:20035600000200000000000000000000000000000000000000000000000000000000000085
:090376000000000004000000007a
:20037f0000000000000000000000000000000000000000000000000000000000000000005e
:0a039f000000000000000000000054
:2003a90020030000000000000002000000000000000000000000000000000000000000000f
:0903c9000000000000000000002b
:2003d2000100200000000000000000000000000000000000000000000000000000000000ea
:0a03f2000000000000000000000001
:2003fc000002000000000000000000000000000000000000000000000000000000000000df
:09041c00000000000000000000d7
:20042500000020000000000000000000000000000000000000000000000000000000000097
:0a04450000000000000000000000ad
:20044f0000000000000000000000000000000000000000000000000000000000000000008d
:09046f0000000400000000000080
:20047800000320000000000000000000000000000000000000000000000000000000000041
:0a04980000000080000000000000da
:2004a20000000000000000000000000000000000000000000000000000000000000000003a
:0904c20000000000000000ff0032
:2004cb00000000000000000000000000000000000000000000000000000000000000000011
:0a04eb00000000000000000ff20006
:2004f5000000000000000000000000000000000000000000000000000000000000000000e7
:0905150000000000000018f008cd
:20051e000000000000000000000000000000000000000000000000000000000000000000bd
:0a053e00000000000000000f0000a4
:20054800000000000000000000000000000000000000000000000000000000000000000093
:0905680000000008000000000082
:2005710000000000000000000000000000000000000000000000000000000000000000006a
:0a0591000000000000000000000060
:20059b0000010000000000000000000000000000000000000000000000000000000000003f
:0905bb0000000000000000000037
:2005c400000000000000000000000000000000000000000000000000000000000000000017
:0a05e400000000000000000000000d
:2005ee000001000000000000000000000000000000000000000000000000000000000000ec
:09060e00000000000000000000e3
:200617000000200000000000000000000000000000000000000000000000000000000000a3
:0a06370000000000000000000000b9
:20064100000000000000000000000000000000000000000000000000000000000000000099
:0906610000000000000000000090
:20066a00000020000000000000000000000000000000000000000000000000000000000050
:0a068a000000000000000000000066
:20069400000200000000000000000000000000000000000000000000000000000000000044
:0906b4000000000000000000003d
:2006bd0000000000000000000000000000000000000000000000000000000000000000001d
:0a06dd000000000000000000000013
:2006e7000000000000000000000000000000000000000000000000000000000000000000f3
:09070700000000000000000000e9
:200710000000200000000000000000000000000000000000000000000000000000000000a9
:0a07300000000000000000000000bf
:20073a0000000000000000000000000000000000000000000000000000000000000000009f
:09075a0000000000000000000096
:20076300000000000000000000000000000000000000000000000000000000000000000076
:0a078300000000000000000000006c
:20078d0000000000000000000000000000000000000000000000000000000000000000004c
:0907ad0000000000000000000043
:2007b600000000000000000000000000000000000000000000000000000000000000000023
:0a07d6000000000000000000000019
:2007e0000000000000000000000000000000000000000000000000000000000000000000f9
:09080000000000000000000000ef
:200809000000000000000000000000000000000000000000000000000000000000000000cf
:0a08290000000000000000000000c5
:200833000000000000000000000002060e096c00000000000000000000000000000000001a
:090853000000000000000000009c
:20085c0000000000000000000000000400089600004000000000000000000000000000009a
:0a087c000000000000000000000072
:2008860000020000000000000020026000896c0000000000000000000000000000000000d9
:0908a60000000000000000000049
:2008af00000000000000000000080004000c9600000000000000000000000000000000007b
:0a08cf00000000000000000000001f
:2008d90000000000000000000000000000896c00000000000000000000000000000000000a
:0908f900000000000000000000f6
:20090200000000000000000000000000000d96000000000000000000000000000000000032
:0a09220000000000000000000000cb
:20092c0000020000000000000000000000896c0000000000000000000000000000000000b4
:09094c00000000000000000000a2
:200955000000000000000000000000000009960000000000000000000000000000000000e3
:0a0975000000000000000000000078
:20097f0000000000000000000000006040996c0000000000000000000000000000000000b3
:09099f000000000000000000004f
:2009a800000020000000000000000000200896000000000000000000000000000000000051
:0a09c8000000000000000000000025
:2009d2000000000000000000000000c640996c0000000000000000000000000000000000fa
:0909f200000000000000000000fc
:2009fb0000000000000000000000000220089600000000000000000000000000000000001c
:0a0a1b0000000000000000000000d1
:200a250000000000000000000000000000996c0000000000000000000000000000000000ac
:090a4500000000000000000000a8
:200a4e00000000000000000000000000000d960000000000000000000000000000000000e5
:0a0a6e00000000000000000000007e
:200a780000000000000000000000000000996c000000000000000000000000000000000059
:090a980000000000000000000055
:200aa100000000000000000000000000000d96000000000000000000000000000000000092
:0a0ac100000000000000000000002b
:200acb0000000000000000000000020600896c00000000000000000000000000000000000e
:090aeb0000000000000000000002
:200af40000000000000000000002000400089604000000000000000000000000000000003a
:0a0b140000000020000000000000b7
:200b1e0000000000000000000020026000896c000000000000000000000000000000000040
:090b3e00000000000000000000ae
:200b4700000000000000000000080004000c960000000000000000000000000000000000e0
:0a0b67000000000000000000000084
:200b710000000000000000000000000000896c00000000000000000000000000000000006f
:090b91000000000000000000005b
:200b9a00000000000000000000000000000d96000000000000000000000000000000000098
:0a0bba000000000000000000000031
:200bc40000020000000000000000000000896c00000000000000000000000000000000001a
:090be40000000000000000000008
:200bed00000000000000000000000000000996000000000000000000000000000000000049
:0a0c0d0000000000000000000000dd
:200c170000000000000000000000006040996c000000000000000000000000000000000018
:090c3700000000000000000000b4
:200c40000000200000000000000000002008960000000000000000000000000000000000b6
:0a0c6000000000000000000000008a
:200c6a0000000000000000000000000640996c00000000000000000000000000000000001f
:090c8a0000000000000000000061
:200c9300000000000000000000000000200896000000000000000000000000000000000083
:0a0cb3000000000000000000000037
:200cbd0000000000000000000000000000996c000000000000000000000000000000000012
:090cdd000000000000000000000e
:200ce600000000000000000000000000000d9600000000000000000000000000000000004b
:0a0d060000000000000000000000e3
:200d100000000000000000000000000000996c0000000000000000000000000000000000be
:090d3000000000000000000000ba
:200d3900000000000000000000000000000d960000000000000000000000000000000000f7
:0a0d59000000000000000000000090
:200d630000010000000000000000020600896c000000000000000000000000000000000072
:090d830000000000000000000067
:200d8c0000000000000000000002000400089604004000000000000000000000000000005f
:0a0dac00000000000000000000003d
:200db60000020000000000000020026000896c0000000000000000000000000000000000a4
:090dd60000000000000000000014
:200ddf00000000000000000000080004000c96000000000000000000000000000000000046
:0a0dff0000000000200000000000ca
:200e090000000000000000000000000000896c0000000000000000000000000000000000d4
:090e2900000000000000000000c0
:200e3200000000000000000000000000000d960000000000000000000000000000000000fd
:0a0e52000000000000000000000096
:200e5c0000020000000000000000000000896c00000000000000000000000000000000007f
:090e7c000000000000000000006d
:200e85000000000000000000000000000009960000000000000000000000000000000000ae
:0a0ea5000000000000000000000043
:200eaf0000000000000000000000006040996c00000000000000000000000000000000007e
:090ecf000000000000000000001a
:200ed8000000200000000000000000402008960000000000000000000000000000000000dc
:0a0ef80000000000000000000000f0
:200f020000000000000000000000000640996c000000000000000000000000000000000084
:090f2200000000000000000000c6
:200f2b000000000000000000000000002008960000000000000000000000000000000000e8
:0a0f4b00000000000000000000009c
:200f550000000000000000000000000000996c000000000000000000000000000000000077
:090f750000000000000000000073
:200f7e00000000000000000000000000000d960000000000000200000000000008000000a6
:0a0f9e000000002000000000000029
:200fa80000000000000000000000000000996c000000000000000000000000000000000024
:090fc80000000000000000000020
:200fd100000000000000000000000000000d9600000000000000000000000000000000005d
:0a0ff10000000000000000000000f6
:200ffb0000000000000000000000020600896c0000000000000002001cb4240000000000e3
:09101b00000000000001e1184092
:20102400000000000000000000000004000896040000000000000004004db8410000d0b03c
:0a1044000000000000000cd5a4100d
:20104e0000000000000000000020000000896c000000000000ea0000000000000000000083
:09106e0000000e0000000000006b
:20107700000000000000000000080000000c9600000000000000400000000000000000006f
:0a109700000000000000000000004f
:2010a10000000000000000000000080000896c00000000000040000380000000000000006f
:0910c100000004000068000000ba
:2010ca00000000000000000000000000000d960000000000000c0034400000000000d0b063
:0a10ea00000000c010040000000028
:2010f4000002000000000000000000000089640000000000000000000000000000000000ed
:09111400000000001c00000000b6
:20111d00000000000000000000000000000996110000000000000000000000000000900072
:0a113d000000000008200000000080
:20114700000000000000000000000060400000000000000000000000000000000000005098
:0911670016840000800000000065
:20117000000020000000000000000000200000000000000000002000000000000000d0032c
:0a11900025f80000074000000000f1
:20119a00000000000000000000000000000000000000000000000000000000000000000035
:0911ba00000000400004000000e8
:2011c3000000000000000000000000000000000000000000000000003c00000000000000d0
:0a11e30000000002000340000000bd
:2011ed000000000000000000000000000000000000000000000000000000000000000000e2
:09120d00000000000000000000d8
:2012160000000000000000000000000000000000000500000000001400000000000000009f
:0a12360000000000000000000000ae
:201240000000000000000000000000000005a2080000000000c001c000000000000000104e
:091260004600040020000000001b
:201269000000000000000000000000000240a50040000000000c0002000000000000000d23
:0a1289002af480c000c0000000003d
:2012930000000000000000000000000000000000000000000000020665cbf000000d0a32ca
:0912b300fdc80000266640a540bc
:2012bc000000000000000000000000000000000000400000000000042169ff00000019b379
:0a12dc00fffc200001420c89910084
:2012e600000000000000000000000000000000000000000000e001c00c0ff0000000001329
:09130600c0800e00260241a54042
:20130f0000000000000000000000000000000000000000000000000201c05a000000d00fc2
:0a132f003a9c040000403ec9900003
:20133900000000000000000000000000000000000000000000c003460dc25400000001b8af
:0913590039c00c00017840a540e8
:2013620000000000000000000000000000000000000000000004001e025b8040000000a785
:0a138200a7fc00c0000036899000af
:20138c000002000000000000000000000000000000000000000001c004b15600000500006e
:0913ac0000000000000061a540f2
:2013b5000000000000000000000000000000000000000000000000000248a84000000800de
:0a13d500000000000002ccc99000e7
:2013df000000000000000000000000000000000000000000000002600000000000081e0066
:0913ff0000000000140460a54088
:201408000000200000000000000000000000000000000000000000142400000000009000dc
:0a142800000000000002ac899000f3
:20143200000000000000000000000000000000000000000000000063a5b156000000180073
:09145200000000003c04e1a5408b
:20145b0000000000000000000000000000000000000000000000000000c8a84000000000c1
:0a147b000000000001623ec990006d
:20148500000000000000000000000000000000000000000000000200000000000001010043
:0914a50000000000163160a540b2
:2014ae0000000000000000000000000000000000000000000000000400000000000000809a
:0a14ce000000000000065e89900097
:2014d800000000000000000000000000000000000000000000c000e00c0a540000071e1ea7
:0914f800bbc0000000040000006c
:201501000000000000000000000000000000000000000000000c0002014000c80000f009ba
:0a15210023fc00000002800000001f
:20152b0000000000000000000000000000000000000000000000020000000000000818027c
:09154b002130000020624e250051
:2015540080000000000000000000000000000000000000000000002c00000000000010a912
:0a15740020490c00004006d10000e1
:20157e00000000000000000000000000000000000000000000000140240a50038009800280
:09159e0021300e002000000000c5
:2015a700000000000000000000000000000000000000000000000000004000010000100dc6
:0a15c7003049000002c000000000df
:2015d1000000000000000000000000000000000000000000000000000000000100001e02d9
:0915f10021300000200000000080
:2015fa0000000000000000000000000000000000000000000000000000000000300000a9f8
:0a161a003449000002c00000000087
:201624000003000000000000000000000000000000000000000000000000000000010002a0
:09164400213000002062c000000a
:20164d00000000000000000000000000000000000000000000000000000000000000080d68
:0a166d002449000002c02c05a00073
:201677000000000000000000000000000000000000000000000000000000000000018102cf
:09169700613000000004000000b5
:2016a0000000000000000000000000000000000000000000000000000000000000000089a1
:0a16c0002049000000c240000000b5
:2016ca000000000000000000000000000000000000000000000000000000000000000002fe
:0916ea0061100000006400000022
:2016f300000000000000000000000000000000000000000000000000000000000000000dca
:0a1713002049000000020000000061
:20171d0000000000000000000000000000000000000000000000000000000000002000008c
:09173d00000000002003dee5407d
:20174600080000000000000000000000000000000000000000000000000000000005000076
:0a1766000000000002402c8d9000ee
:20177000000000000000000000000000000000000000000000001400000000010000000044
:091790000000000020016100408e
:201799001000000000000000000000000000000000000000000000000000000030000000f0
:0a17b90000000000014016a4209675
:0217c300000024
:0217c500110110
:0217c70001011e
:2017c900000000000000000000000000000000000000000000000000000000000000000000
:0917e900000000000000000000f7
:2017f2000000000000000000000000000000000000000000000000000000000000000000d7
:0a18120000000000000000000000cc
:20181c000000000000000000000000000000000000000000000000000000000000000000ac
:09183c00000000000000000000a3
:20184500000000000000000000000000000000000000000000000000000000000000000083
:0a1865000000000000000000000079
:20186f00000000000000000000000000000000000000000000000000000000000000000059
:09188f0000000000000000000050
:20189800000000000000000000000000000000000000000000000000000000000000000030
:0a18b8000000000000000000000026
:2018c200000000000004000000000000100000000000004000000000100000000000004062
:0918e200000000000001000000fc
:2018eb000000000000000000000000000000000000000000000000000000000000000000dd
:0a190b0000000000000000000000d2
:2019150000000000000400000000000010000000000000400000000010000000000000400e
:09193500000000000001000000a8
:20193e00000000000000000000000000000000000000000000000000000000000000000089
:0a195e00000000000000000000007f
:2019680000000000000000000000000000000000000000000000000000000000000000005f
:0919880000000000000000000056
:20199100000000000000000000000000000000000000000000000000000000000000000036
:0a19b100000000000000000000002c
:2019bb0000000000000000000000000000000000000000000000000000000000000000000c
:0919db0000000000000000000003
:2019e4000000000000000000000000000000000000000000000000000000000000000000e3
:0a1a040000000000000000000000d8
:201a0e000000000000000000000000000000000000000000000000000000000000000000b8
:091a2e00000000000000000000af
:201a370000000000000000000000000000000000000000000000000000000000000000008f
:0a1a57000000000000000000000085
:201a6100000000000000000000000000000000000000000000000000000000000000000065
:091a81000000000000000000005c
:201a8a0000000000000000000000000000000000000000000000000000000000000000003c
:0a1aaa000000000000000000000032
:201ab400000000000000000000000000000000000000000000000000000000000000000012
:091ad40000000000000000000009
:201add000000000000000000000000000000000000000000000000000000000000000000e9
:0a1afd0000000000000000000000df
:201b07000000000000000000000000000000000000000000000000000000000000000000be
:091b2700000000000000000000b5
:201b3000000000000000000000000000000000000000000000000000000000000000000095
:0a1b5000000000000000000000008b
:201b5a00000200000000000000000000000000000000000000000000000000000000000069
:091b7a0000000000000000000062
:201b8300000000000000000000000000000000000000000000000000000000000000000042
:0a1ba3000000000000000000000038
:201bad00000000000000000000000000000000000000000000000000000000000000000018
:091bcd000000000000000000000f
:201bd6000000200000000000000000000000000000000000000000000000000000000000cf
:0a1bf60000000000000000000000e5
:201c00000000000000000000000000000000000000000000000000000000000000000000c4
:091c2000000000000000000000bb
:201c290000000000000000000000000000000000000000000000000000000000000000009b
:0a1c49000000000000000000000091
:201c5300000000000000000000000000000000000000000000000000000000000000000071
:091c730000000000000000000068
:201c7c00000000000000000000000000000000000000000000000000000000000000000048
:0a1c9c00000000000000000000003e
:201ca60000000000000000000000000000000000000000000000000000000000000000001e
:091cc60000000000000000000015
:201ccf000000000000000000000000000000000000000000000000000000000000000000f5
:0a1cef0000000000000000000000eb
:201cf9000000000000000000000000000000000000000000000000000000000000000000cb
:091d1900000000000000000000c1
:201d22000000000000000000000000000000000000000000000000000000000000000000a1
:0a1d42000000000000000000000097
:201d4c00000000000000000000000000000000000000000000000000000000000000000077
:091d6c000000000000000000006e
:201d750000000000000000000000000000000000000000000000000000000000000000004e
:0a1d95000000000000000000000044
:201d9f00000000000000000000000000000000000000000000000000000000000000000024
:091dbf000000000000000000001b
:201dc8000000000000000000000000000000000000000000000000000000000000000000fb
:0a1de80000000000000000000000f1
:201df2000002000000000000000000000000000000000000000000000000000000000000cf
:091e1200000000000000000000c7
:201e1b000000000000000000000000000000000000000000000000000000000000000000a7
:0a1e3b00000000000000000000009d
:201e450000000000000000000000000000000000000000000000000000000000000000007d
:091e650000000000000000000074
:201e6e00000020000000000000000000000000000000000000000000000000000000000034
:0a1e8e00000000000000000000004a
:201e980000000000000000000000000000000000000000000000000000000000000000002a
:091eb80000000000000000000021
:201ec100000000000000000000000000000000000000000000000000000000000000000001
:0a1ee10000000000000000000000f7
:201eeb000000000000000000000000000000000000000000000000000000000000000000d7
:091f0b00000000000000000000cd
:201f14000000000000000000000000000000000000000000000000000000000000000000ad
:0a1f340000000000000000000000a3
:201f3e0000000000000000000000000000000000040000000000000000000000000000007f
:091f5e000000000000000000007a
:201f670000000000000000000000000000000000000000000000000000000000000000005a
:0a1f87000000000000000000000050
:201f9100000000000000000000000000000000000000000000000000000000000000000030
:091fb10000000000000000000027
:201fba00000000000000000000000000000000000000000000000000000000000000000007
:0a1fda0000000000000000000000fd
:201fe4000000000000000000000000000000000000000000000000000000000000000000dd
:09200400000000000000000000d3
:20200d000000000000000000000000000000000000000000000000000000000000000000b3
:0a202d0000000000000000000000a9
:20203700000000000000000000000000000000000000000000000000000000000000000089
:0920570000000000000000000080
:20206000000000000000000000000000000000000000000000000000000000000000000060
:0a2080000000000000000000000056
:20208a00000200000000000000000000000000000000000000000000000000000000000034
:0920aa000000000000000000002d
:2020b30000000000000000000000000000000000000000000000000000000000000000000d
:0a20d3000000000000000000000003
:2020dd000000000000000000000000000000000000000000000000000000000000000000e3
:0920fd00000000000000000000da
:20210600000020000000000000000000000000000000000000000000000000000000000099
:0a21260000000000000000000000af
:2021300000000000000000000000000000000000000000000000000000000000000000008f
:0921500000000000000000000086
:20215900000000000000000000000000000000000000000000000000000000000000000066
:0a217900000000000000000000005c
:2021830000000000000000000000000000000000000000000000000000000000000000003c
:0921a30000000000000000000033
:2021ac00000000000000000000000000000000000000000000000000000000000000000013
:0a21cc000000000000000000000009
:2021d6000000000000000000000000000000000000000000000000000000000000000000e9
:0921f600000000000000000000e0
:2021ff000000000000000000000000000000000000000000000000000000000000000000c0
:0a221f0000000000000000000000b5
:20222900000000000000000000000000000000000000000000000000000000000000000095
:092249000000000000000000008c
:2022520000000000000000000000000000000000000000000000000000000000000000006c
:0a2272000000000000000000000062
:20227c00000000000000000000000000000000000000000000000000000000000000000042
:09229c0000000000000000000039
:2022a500000000000000000000000000000000000000000000000000000000000000000019
:0a22c500000000000000000000000f
:2022cf000000000000000000000000000000000000000000000000000000000000000000ef
:0922ef00000000000000000000e6
:2022f8000000000000000000000000000000000000000000000000000000000000000000c6
:0a23180000000000000000000000bb
:20232200000200000000000000000000000000000000000000000000000000000000000099
:0923420000000000000000000092
:20234b00000000000000000000000000000000000000000000000000000000000000000072
:0a236b000000000000000000000068
:20237500000000000000000000000000000000000000000000000000000000000000000048
:092395000000000000000000003f
:20239e000000200000000000000000000000000000000000000000000000000000000000ff
:0a23be000000000000000000000015
:2023c8000000000000000000000000000000000000000000000000000000000000000000f5
:0923e800000000000000000000ec
:2023f1000000000000000000000000000000000000000000000000000000000000000000cc
:0a24110000000000000000000000c1
:20241b000000000000000000000000000000000000000000000000000000000000000000a1
:09243b0000000000000000000098
:20244400000000000000000000000000000000000000000000000000000000000000000078
:0a246400000000000000000000006e
:20246e0000000000000000000000000000000000040000000000000000000000000000004a
:09248e0000000000000000000045
:20249700000000000000000000000000000000000000000000000000000000000000000025
:0a24b700000000000000000000001b
:2024c1000000000000000000000000000000000000000000000000000000000000000000fb
:0924e100000000000000000000f2
:2024ea000000000000000000000000000000000000000000000000000000000000000000d2
:0a250a0000000000000000000000c7
:20251400800000000000000000000000000000000000000000000000000000000000000027
:092534000000000000000000009e
:20253d0000000000000000000000000000000000000000000000000000000000000000007e
:0a255d000000000000000000000074
:20256700000000000000000000000000000000000000000000000000000000000000000054
:092587000000000000000000004b
:2025900000000000000000000000000000000000000000000000000000000000000000002b
:0a25b0000000000000000000000021
:2025ba00800000000000000000000000000000000000000000000000000000000000000081
:0925da00000000000000000000f8
:2025e3000000000000000000000000000000000000000000000000000000000000000000d8
:0a26030000000000000000000000cd
:20260d000000000000000000000000000000000000000000000000000000000000000000ad
:09262d00000000000000000000a4
:20263600000030000000000000000000000000000000000000000200000000000000000052
:0a265600000000000000000000007a
:20266000083000000000000000000000000000000000000000000000000000000000000022
:0926800000000000000000000051
:2026890004804000000000000000000000000000000000000000000000000000000000006d
:0a26a9000000000000000000000027
:2026b300800000000000000000000000000000000000000000000000000000000000000087
:0926d300000000000000000000fe
:2026dc000000000000000000000000000000000000000000000000000000000000000000de
:0a26fc0000000000000000000000d4
:202706000002000000000000000000000000000000000000000000000000000000000000b1
:09272600000001000000000000a9
:20272f00040000000000000000000000000000000000000000000000000000000000000086
:0a274f000000000000000000000080
:20275900000000000000000000000000000000000000000000000000000000000000000060
:0927790000000000000000000057
:20278200000000000000000000000000000000000000000000000000000000000000000037
:0a27a200000000000000000000002d
:2027ac0000000000000000000000000000000000000000000000000000000000000000000d
:0927cc0000000000000000000004
:2027d5000000000000000000000000000000000000000000000000000000000000000000e4
:0a27f50000000000000000000000da
:2027ff000000000000000000000000000000000000000000000000000000000000000000ba
:09281f00000000000000000000b0
:20282800000000000000000000000000000000000000000000000000000000000000000090
:0a2848000000000000000000000086
:20285200000200000000000000000000000000000000000000000000000000000000000064
:092872000000000000000000005d
:20287b0000000000000000000000000000000000000000000000000000000000000000003d
:0a289b000000000000000000000033
:2028a500000000000000000000000000000000000000000000000000000000000000000013
:0928c5000000000000000000000a
:2028ce000000200000000000000000000000000000000000000000000000000000000000ca
:0a28ee0000000000000000000000e0
:2028f8000000000000000000000000000000000000000000000000000000000000000000c0
:09291800000000000000000000b6
:20292100000000000000000000000000000000000000000000000000000000000000000096
:0a294100000000000000000000008c
:20294b0000000000000000000000000000000000000000000000000000000000000000006c
:09296b0000000000000000000063
:20297400000000000000000000000000000000000000000000000000000000000000000043
:0a2994000000000000000000000039
:20299e00000000000000000000000000000000000400000000000000000000000000000015
:0929be0000000000000000000010
:2029c7000000000000000000000000000000000000000000000000000000000000000000f0
:0a29e70000000000000000000000e6
:2029f1000000000000000000000000000000000000000000000000000000000000000000c6
:092a1100000000000000000000bc
:202a1a0000000000000000000000000000000000000000000000000000000000000000009c
:0a2a3a000000000000000000000092
:202a4400000000000000000000000000000000000000000000000000000000000000000072
:092a640000000000000000000069
:202a6d00000000000000000000000000000000000000000000000000000000000000000049
:0a2a8d00000000000000000000003f
:202a970000000000000000000000000000000000000000000000000000000000000000001f
:092ab70000000000000000000016
:202ac0000000000000000000000000000000000000000000000000000000000000000000f6
:0a2ae00000000000000000000000ec
:202aea000002000000000000000000000000000000000000000000000000000000000000ca
:092b0a00000000000000000000c2
:202b13000000000000000000000000000000000000000000000000000000000000000000a2
:0a2b33000000000000000000000098
:202b3d00000000000000000000000000000000000000000000000000000000000000000078
:092b5d000000000000000000006f
:202b660000002000000000000000000000000000000000000000000000000000000000002f
:0a2b86000000000000000000000045
:202b9000000000000000000000000000000000000000000000000000000000000000000025
:092bb0000000000000000000001c
:202bb9000000000000000000000000000000000000000000000000000000000000000000fc
:0a2bd90000000000000000000000f2
:202be3000000000000000000000000000000000000000000000000000000000000000000d2
:092c0300000000000000000000c8
:202c0c000000000000000000000000000000000000000000000000000000000000000000a8
:0a2c2c00000000000000000000009e
:202c360000000000000000000000000000000000000000000000000000000000000000007e
:092c560000000000000000000075
:202c5f00000000000000000000000000000000000000000000000000000000000000000055
:0a2c7f00000000000000000000004b
:202c890000000000000000000000000000000000000000000000000000000000000000002b
:092ca90000000000000000000022
:202cb200000000000000000000000000000000000000000000000000000000000000000002
:0a2cd20000000000000000000000f8
:202cdc000000000000000000000000000000000000000000000000000000000000000000d8
:092cfc00000000000000000000cf
:202d05000000000000000000000000000000000000000000000000000000000000000000ae
:0a2d250000000000000000000000a4
:202d2f00000000000000000000000000000000000000000000000000000000000000000084
:092d4f000000000000000000007b
:202d580000000000000000000000000000000000000000000000000000000000000000005b
:0a2d78000000000000000000000051
:202d820000020000000000000000000000000000000000000000000000000000000000002f
:092da20000000000000000000028
:202dab00000000000000000000000000000000000000000000000000000000000000000008
:0a2dcb0000000000000000000000fe
:202dd5000000000000000000000000000000000000000000000000000000000000000000de
:092df500000000000000000000d5
:202dfe00000020000000000000000000000000000000000000000000000000000000000095
:0a2e1e0000000000000000000000aa
:202e280000000000000000000000001000000000000000000000000000000000000000007a
:092e480000000000000000000081
:202e5100000000000000000000000000000000000038000000000000000000000000000029
:0a2e71000000000000000000000057
:202e7b00000000000000000000000000000000000000000000000000000000000000000037
:092e9b000000000000000000002e
:202ea40000000000000000000000000000000000000000000000000000000000000000000e
:0a2ec4000000000000000000000004
:202ece000000000000000000000000000000000004000000000000000000000000000000e0
:092eee00000000000000000000db
:202ef7000000000000000000000000000000000000000000000000000000000000000000bb
:0a2f170000000000000000000000b0
:022f21000000ae
:022f2300110299
:022f25000101a8
:202f270000000000000000000000000000000000000000000000000000000000000000008a
:092f470000000000000000000081
:202f5000000000000000000000000000000000000000000000000000000000000000000061
:0a2f70000000000000000000000057
:202f7a00000000000000000000000000000000000000000000000000000000000000000037
:092f9a000000000000000000002e
:202fa30000000000000000000000000000000000000000000000000000000000000000000e
:0a2fc3000000000000000000000004
:202fcd000000000000000000000000000000000000000000000000000000000000000000e4
:092fed00000000000000000000db
:202ff6000000000000000000000000000000000000000000000000000000000000000000bb
:0a30160000000000000000000000b0
:203020000000000000080000000000002000000000080000000000002000000000000080c0
:0930400000000000000200000085
:20304900000000000000000000000000000000000000000000000000000000000000000067
:0a306900000000000000000000005d
:2030730000000000000800000000000020000000000800000000000020000000000000806d
:0930930000000000000200000032
:20309c00000000000000000000000000000000000000000000000000000000000000000014
:0a30bc00000000000000000000000a
:2030c6000000000000000000000000000000000000000000000000000000000000000000ea
:0930e600000000000000000000e1
:2030ef000000000000000000000000000000000000000000000000000000000000000000c1
:0a310f0000000000000000000000b6
:20311900000000000000000000000000000000000000000000000000000000000000000096
:093139000000000000000000008d
:2031420000000000000000000000000000000000000000000000000000000000000000006d
:0a3162000000000000000000000063
:20316c00000000000000000000000000000000000000000000000000000000000000000043
:09318c000000000000000000003a
:2031950000000000000000000000000000000000000000000000000000000000000000001a
:0a31b5000000000000000000000010
:2031bf000000000000000000000000000000000000000000000000000000000000000000f0
:0931df00000000000000000000e7
:2031e8000000000000000000000000000000000000000000080000000000000000000000bf
:0a32080000000000000000000000bc
:2032120000000000000000000000000000000000000000000000000000000000000000009c
:0932320000000000000000000093
:20323b00000000000000000000000000000000000000000000000000000000000000000073
:0a325b000000000000000000000069
:20326500000000000000000000000000000000000000000000000000000000000000000049
:0932850000000000000000000040
:20328e00000000000000000000000000000000000000000000000000000000000000000020
:0a32ae000000000000000000000016
:2032b8000002000000000000000000000000000000000000000000000000000000000000f4
:0932d800000000000000000000ed
:2032e1000000000000000000000000000000000000000000000000000000000000000000cd
:0a33010000000000000000000000c2
:20330b000000000000000000000000000000000000000000000000000000000000000000a2
:09332b0000000000000000000099
:20333400000020000000000000000000000000000000000000000000000000000000000059
:0a335400000000000000000000006f
:20335e0000000000000000000000000000000000000000000000000000000000000000004f
:09337e0000000000000000000046
:20338700000000000000000000000000000000000000000000000000000000000000000026
:0a33a700000000000000000000001c
:2033b1000000000000000000000000000000000000000000000000000000000000000000fc
:0933d100000000000000000000f3
:2033da000000000000000000000000000000000000000000000000000000000000000000d3
:0a33fa0000000000000000000000c9
:203404000000000000000000000000000000000000000000000000000000000000000000a8
:093424000000000000000000009f
:20342d0000000000000000000000000000000000000000000000000000000000000000007f
:0a344d000000000000000000000075
:20345700000000000000000000000000000000000000000000000000000000000000000055
:093477000000000000000000004c
:2034800000000000000000000000000000000000000000000000000000000000000000002c
:0a34a0000000000000000000000022
:2034aa00000000000000000000000000000000000000000000000000000000000000000002
:0934ca00000000000000000000f9
:2034d3000000000000000000000000000000000000000000000000000000000000000000d9
:0a34f30000000000000000000000cf
:2034fd000000000000000000000000000000000000000000000000000000000000000000af
:09351d00000000000000000000a5
:20352600000000000000000000000000000000000000000000000000000000000000000085
:0a354600000000000000000000007b
:20355000000200000000000000000000000000000000000000000000000000000000000059
:0935700000000000000000000052
:20357900000000000000000000000000000000000000000000000000000000000000000032
:0a3599000000000000000000000028
:2035a300000000000000000000000000000000000000000000000000000000000000000008
:0935c300000000000000000000ff
:2035cc000000200000000000000000000000000000000000000000000000000000000000bf
:0a35ec0000000000000000000000d5
:2035f6000000000000000000000000000000000000000000000000000000000000000000b5
:09361600000000000000000000ab
:20361f0000000000000000000000000000000000000000000000000000000000000000008b
:0a363f000000000000000000000081
:20364900000000000000000000000000000000000000000000000000000000000000000061
:0936690000000000000000000058
:20367200000000000000000000000000000000000000000000000000000000000000000038
:0a369200000000000000000000002e
:20369c0000000000000000000000000000000000000000000000000000000000000000000e
:0936bc0000000000000000000005
:2036c5000000000000000000000000000000000000000000000000000000000000000000e5
:0a36e50000000000000000000000db
:2036ef000000000000000000000000000000000000000000000000000000000000000000bb
:09370f00000000000000000000b1
:20371800000000000000000000000000000000000000000008000000000000000000000089
:0a3738000000000000000000000087
:20374200000000000000000000000000000000000000000000000000000000000000000067
:093762000000000000000000005e
:20376b0000000000000000000000000000000000000000000000000000000000000000003e
:0a378b000000000000000000000034
:20379500000000000000000000000000000000000000000000000000000000000000000014
:0937b5000000000000000000000b
:2037be000000000000000000000000000000000000000000000000000000000000000000eb
:0a37de0000000000000000000000e1
:2037e8000002000000000000000000000000000000000000000000000000000000000000bf
:09380800000000000000000000b7
:20381100000000000000000000000000000000000000000000000000000000000000000097
:0a383100000000000000000000008d
:20383b0000000000000000000000000000000000000000000000000000000000000000006d
:09385b0000000000000000000064
:20386400000020000000000000000000000000000000000000000000000000000000000024
:0a388400000000000000000000003a
:20388e0000000000000000000000000000000000000000000000000000000000000000001a
:0938ae0000000000000000000011
:2038b7000000000000000000000000000000000000000000000000000000000000000000f1
:0a38d70000000000000000000000e7
:2038e1000000000000000000000000000000000000000000000000000000000000000000c7
:09390100000000000000000000bd
:20390a0000000000000000000000000000000000000000000000000000000000000000009d
:0a392a000000000000000000000093
:20393400000000000000000000000000000000000000000000000000000000000000000073
:093954000000000000000000006a
:20395d0000000000000000000000000000000000000000000000000000000000000000004a
:0a397d000000000000000000000040
:20398700000000000000000000000000000000000000000000000000000000000000000020
:0939a70000000000000000000017
:2039b0000000000000000000000000000000000000000000000000000000000000000000f7
:0a39d00000000000000000000000ed
:2039da000000000000000000000000000000000000000000000000000000000000000000cd
:0939fa00000000000000000000c4
:203a03000000000000000000000000000000000000000000000000000000000000000000a3
:0a3a23000000000000000000000099
:203a2d00000000000000000000000000000000000000000000000000000000000000000079
:093a4d0000000000000000000070
:203a5600000000000000000000000000000000000000000000000000000000000000000050
:0a3a76000000000000000000000046
:203a8000000200000000000000000000000000000000000000000000000000000000000024
:093aa0000000000000000000001d
:203aa9000000000000000000000000000000000000000000000000000000000000000000fd
:0a3ac90000000000000000000000f3
:203ad3000000000000000000000000000000000000000000000000000000000000000000d3
:093af300000000000000000000ca
:203afc0000002000000000000000000000000000000000000000000000000000000000008a
:0a3b1c00000000000000000000009f
:203b260000000000000000000000000000000000000000000000000000000000000000007f
:093b460000000000000000000076
:203b4f00000000000000000000000000000000000000000000000000000000000000000056
:0a3b6f00000000000000000000004c
:203b790000000000000000000000000000000000000000000000000000000000000000002c
:093b990000000000000000000023
:203ba200000000000000000000000000000000000000000000000000000000000000000003
:0a3bc20000000000000000000000f9
:203bcc000000000000000000000000000000000000000000000000000000000000000000d9
:093bec00000000000000000000d0
:203bf5000000000000000000000000000000000000000000000000000000000000000000b0
:0a3c150000000000000000000000a5
:203c1f00000000000000000000000000000000000000000000000000000000000000000085
:093c3f000000000000000000007c
:203c4800000000000000000000000000000000000000000008000000000000000000000054
:0a3c68000000000000000000000052
:203c7200000000000000000000000000000000000000000000000000000000000000000032
:093c920000000000000000000029
:203c9b00000000000000000000000000000000000000000000000000000000000000000009
:0a3cbb0000000000000000000000ff
:203cc5000000000000000000000000000000000000000000000000000000000000000000df
:093ce500000000000000000000d6
:203cee000000000000000000000000000000000000000000000000000000000000000000b6
:0a3d0e0000000000000000000000ab
:203d1800000200000000000000000000000000000000000000000000000000000000000089
:093d380000000000000000000082
:203d4100000000000000000000000000000000000000000000000000000000000000000062
:0a3d61000000000000000000000058
:203d6b00000000000000000000000000000000000000000000000000000000000000000038
:093d8b000000000000000000002f
:203d94000000200000000000000000000000000000000000000000000000000000000000ef
:0a3db4000000000000000000000005
:203dbe000000000000000000000000000000000000000000000000000000000000000000e5
:093dde00000000000000000000dc
:203de7000000000000000000000000000000000000000000000000000000000000000000bc
:0a3e070000000000000000000000b1
:203e1100000000000000000000000000000000000000000000000000000000000000000091
:093e310000000000000000000088
:203e3a00000000000000000000000000000000000000000000000000000000000000000068
:0a3e5a00000000000000000000104e
:203e640000000000000000000000000000000000000000000000000000000000000000003e
:093e840000000000000000000035
:203e8d00000000000000000000000000000000000000000000000000000000000000000015
:0a3ead00000000000000000000000b
:203eb7000000000000000000000000000000000000000000000000000000000000000000eb
:093ed7000000000da44e000000e3
:203ee0000000000000000000000000000000000000000000000000000000000000000000c2
:0a3f0000000000101a40000000004d
:203f0a00000000000000000000000000000000000000000000000000000000000000000097
:093f2a000000000da44e0000018e
:203f3300c000000000000000000000000000000000000000000000000000000000000000ae
:0a3f5300000000001a40000000000a
:203f5d00000000000000000000000000000000000000000000000000000000000000000044
:093f7d000000000da44e18000024
:203f8600c0000000000000000000000000000000000000000000000000000000000000005b
:0a3fa600000000001a410000000caa
:203fb0000002000000000000000000000000000000000000000000000000000000000000ef
:093fd0000000000da44a99e00074
:203fd9000000000000000000000000000000000000000000000000000000000000000000c8
:0a3ff900000000201a410110100022
:2040030000000000000000000000000000000000000000000000000000000000000000009d
:094023000000000da45e00000085
:20402c00000020000000000000000000000000000000000000000000000000000000000054
:0a404c00000000001a400000000010
:2040560000000000000000000000000000000000000000000000000000000000000000004a
:094076000000000da45e00000032
:20407f00000000000000000000000000000000000000000000000000000000000000000021
:0a409f00000020001a40000000009d
:2040a9000000000000000000000000000000000000000000000000000000000000000000f7
:0940c9000000000da45ab19000a2
:2040d2000000000000000000000000000000000000000000000000000000000000000000ce
:0a40f200000000001a4101880000e0
:2040fc000000000000000000000000000000000000000000000000000000000000000000a4
:09411c0000000209a45a01900000
:204125008000000000000000000000000000000000000000000000000000000000000000fa
:0a414500000000001a410008400cc1
:20414f00000000000000000000000000000000000000000000000000000000000000000050
:09416f0000000400f01c18a0007f
:2041780000000000000000000000000000000000000000000800000000000000000000001f
:0a419800000000001f9dc50000009c
:2041a2000000000000000000000000000000000000000000000000000000000000000000fd
:0941c2000000000a9618198001a2
:2041cb00c00000000000000000000000000000000000000000000000000000000000000014
:0a41eb00000000002665c50000007a
:2041f5000000000000000000000000000000000000000000000000000000000000000000aa
:094215000000000a961a000000e6
:20421e00000000000000000000000000000000000000000000000000000000000000000080
:0a423e00000000002674d00a000002
:20424800000200000000000000000000000000000000000000000000000000000000000054
:094268000000001a960818a1c01c
:2042710000000000000000000000000000000000000000000000000000000000000000002d
:0a429100000000002665900a0000fe
:20429b00000000000000000000000000000000000000000000000000000000000000000003
:0942bb000000000a960b8190003e
:2042c4000000200000000000000000000000000000000000000000000000000000000000ba
:0a42e400000000002674c10900006c
:2042ee000000000000000000000000000000000000000000000000000000000000000000b0
:09430e000000020a961bd0100009
:20431700000000000000000000000000000000000000000000000000000000000000000086
:0a43370000000000266481880000e9
:2043410000000000000000000000000000000000000000000000000000000000000000005c
:094361000000000a960900f000ba
:20436a00000000000000000000000000000000000000000000000000000000000000000033
:0a438a00000000002674d0090000b6
:20439400000000000000000000000000000000000000000000000000000000000000000009
:0943b40000000000021e50000090
:2043bd000000000000000000000000000000000000000000000000000000000000000000e0
:0a43dd000000000010bde7800000a2
:2043e7000000000000000000000000000000000000000000000000000000000000000000b6
:09440700000000000000000000ac
:2044100000000000000000000000000000000000000000000000000000000000000000008c
:0a4430000000000000000000000082
:20443a00000000000000000000000000000000000000000000000000000000000000000062
:09445a000000000a9618d01001c0
:20446300c00000000000000000000000000000000000000000000000000000000000000079
:0a448300000000002665cb080000d1
:20448d0000000000000000000000000000000000000000000000000000000000000000000f
:0944ad0000000000000000000006
:2044b6000000000000000000000000000000000000000000000000000000000000000000e6
:0a44d60000000000000000000000dc
:2044e0000002000000000000000000000000000000000000000000000000000000000000ba
:0945000000000000000050000062
:20450900000000000000000000000000000000000000000000000000000000000000000092
:0a4529000000000000000700000081
:20453300000000000000000000000000000000000000000000000000000000000000000068
:094553000000000a961b01800023
:20455c0000002000000000000000000000000000000000000000000000000000000000001f
:0a457c00000000002675800000001a
:20458600000000000000000000000000000000000000000000000000000000000000000015
:0945a6000000000000000000000c
:2045af000000000000000000000000000000000000000000000000000000000000000000ec
:0a45cf0000000000000000000000e2
:2045d9000000000000000000000000000000000000000000000000000000000000000000c2
:0945f900000000000000000000b9
:20460200000000000000000000000000000000000000000000000000000000000000000098
:0a462200000000000000000000008e
:20462c0000000000000000000000000000000000000000000000000000000000000000006e
:09464c0000000000000000000065
:20465500000000000000000000000000000000000000000000000000000000000000000045
:0a467500000000000000000000003b
:02467f00000039
:02468100110323
:02468300010133
:20468500000000000000000000000000000000000000000000000000000000000000000015
:0946a5000000000000000000000c
:2046ae000000000000000000000000000000000000000000000000000000000000000000ec
:0a46ce0000000000000000000000e2
:2046d8000000000000000000000000000000000000000000000000000000000000000000c2
:0946f800000000000000000000b9
:20470100000000000000000000000000000000000000000000000000000000000000000098
:0a472100000000000000000000008e
:20472b0000000000000000000000000000000000000000000000000000000000000000006e
:09474b0000000000000000000065
:20475400000000000000000000000000000000000000000000000000000000000000000045
:0a477400000000000000000000003b
:20477e0000000000000800000000000020000000000800000000000020000000000000804b
:09479e0000000000000200000010
:2047a7000000000000000000000000000000000000000000000000000000000000000000f2
:0a47c70000000000000000000000e8
:2047d1000000000000080000000000002000000000080000000000002000000000000080f8
:0947f100000000000002000000bd
:2047fa0000000000000000000000000000000000000000000000000000000000000000009f
:0a481a000000000000000000000094
:20482400000000000000000000000000000000000000000000000000000000000000000074
:094844000000000000000000006b
:20484d0000000000000000000000000000000000000000000000000000000000000000004b
:0a486d000000000000000000000041
:20487700000000000000000000000000000000000000000000000000000000000000000021
:0948970000000000000000000018
:2048a0000000000000000000000000000000000000000000000000000000000000000000f8
:0a48c00000000000000000000000ee
:2048ca000000000000000000000000000000000000000000000000000000000000000000ce
:0948ea00000000000000000000c5
:2048f3000000000000000000000000000000000000000000000000000000000000000000a5
:0a491300000000000000000000009a
:20491d0000000000000000000000000000000000000000000000000000000000000000007a
:09493d0000000000000000000071
:20494600000000000000000000000000000000000000000000000000000000000000000051
:0a4966000000000000000000000047
:20497000000000000000000000000000000000000000000000000000000000000000000027
:094990000000000000000000001e
:204999000000000000000000000000000000000000000000000000000000000000000000fe
:0a49b90000000000000000000000f4
:2049c3000000000000000000000000000000000000000000000000000000000000000000d4
:0949e300000000000000000000cb
:2049ec000000000000000000000000000000000000000000000000000000000000000000ab
:0a4a0c0000000000000000000000a0
:204a160000020000000000000000000000000000000000000000000000000000000000007e
:094a360000000000000000000077
:204a3f00000000000000000000000000000000000000000000000000000000000000000057
:0a4a5f00000000000000000000004d
:204a690000000000000000000000000000000000000000000000000000000000000000002d
:094a890000000000000000000024
:204a92000000200000000000000000000000000000000000000000000000000000000000e4
:0a4ab20000000000000000000000fa
:204abc000000000000000000000000000000000000000000000000000000000000000000da
:094adc00000000000000000000d1
:204ae5000000000000000000000000000000000000000000000000000000000000000000b1
:0a4b050000000000000000000000a6
:204b0f00000000000000000000000000000000000000000000000000000000000000000086
:094b2f000000000000000000007d
:204b380000000000000000000000000000000000000000000000000000000000000000005d
:0a4b58000000000000000000000053
:204b6200000000000000000000000000000000000000000000000000000000000000000033
:094b82000000000000000000002a
:204b8b0000000000000000000000000000000000000000000000000000000000000000000a
:0a4bab000000000000000000000000
:204bb5000000000000000000000000000000000000000000000000000000000000000000e0
:094bd500000000000000000000d7
:204bde000000000000000000000000000000000000000000000000000000000000000000b7
:0a4bfe0000000000000000000000ad
:204c080000000000000000000000000000000000000000000000000000000000000000008c
:094c280000000000000000000083
:204c3100000000000000000000000000000000000000000000000000000000000000000063
:0a4c51000000000000000000000059
:204c5b00000000000000000000000000000000000000000000000000000000000000000039
:094c7b0000000000000000000030
:204c8400000000000000000000000000000000000000000000000000000000000000000010
:0a4ca4000000000000000000000006
:204cae000002000000000000000000000000000000000000000000000000000000000000e4
:094cce00000000000000000000dd
:204cd7000000000000000000000000000000000000000000000000000000000000000000bd
:0a4cf70000000000000000000000b3
:204d0100000000000000000000000000000000000000000000000000000000000000000092
:094d210000000000000000000089
:204d2a00000020000000000000000000000000000000000000000000000000000000000049
:0a4d4a00000000000000000000005f
:204d540000000000000000000000000000000000000000000000000000000000000000003f
:094d740000000000000000000036
:204d7d00000000000000000000000000000000000000000000000000000000000000000016
:0a4d9d00000000000000000000000c
:204da7000000000000000000000000000000000000000000000000000000000000000000ec
:094dc700000000000000000000e3
:204dd0000000000000000000000000000000000000000000000000000000000000000000c3
:0a4df00000000000000000000000b9
:204dfa00000000000000000000000000000000000000000080000000000000000000000019
:094e1a000000000000000000008f
:204e230000000000000000000000000000000000000000000000000000000000000000006f
:0a4e43000000000000000000000065
:204e4d00000000000000000000000000000000000000000000000000000000000000000045
:094e6d000000000000000000003c
:204e760000000000000000000000000000000000000000000000000000000000000000001c
:0a4e96000000000000000000000012
:204ea0000000000000000000000000000000000000000000000000000000000000000000f2
:094ec000000000000000000000e9
:204ec9000000000000000000000000000000000000000000000000000000000000000000c9
:0a4ee90000000000000000000000bf
:204ef30000000000000000000000000000000000000000000000000000000000000000009f
:094f130000000000000000000095
:204f1c00000000000000000000000000000000000000000000000000000000000000000075
:0a4f3c00000000000000000000006b
:204f4600000200000000000000000000000000000000000000000000000000000000000049
:094f660000000000000000000042
:204f6f00000000000000000000000000000000000000000000000000000000000000000022
:0a4f8f000000000000000000000018
:204f99000000000000000000000000000000000000000000000000000000000000000000f8
:094fb900000000000000000000ef
:204fc2000000200000000000000000000000000000000000000000000000000000000000af
:0a4fe20000000000000000000000c5
:204fec000000000000000000000000000000000000000000000000000000000000000000a5
:09500c000000000000000000009b
:2050150000000000000000000000000000000000000000000000000000000000000000007b
:0a5035000000000000000000000071
:20503f00000000000000000000000000000000000000000000000000000000000000000051
:09505f0000000000000000000048
:20506800000000000000000000000000000000000000000000000000000000000000000028
:0a508800000000000000000000001e
:205092000000000000000000000000000000000000000000000000000000000000000000fe
:0950b200000000000000000000f5
:2050bb000000000000000000000000000000000000000000000000000000000000000000d5
:0a50db0000000000000000000000cb
:2050e5000000000000000000000000000000000000000000000000000000000000000000ab
:09510500000000000000000000a1
:20510e00000000000000000000000000000000000000000000000000000000000000000081
:0a512e000000000000000000000077
:20513800000000000000000000000000000000000000000000000000000000000000000057
:095158000000000000000000004e
:2051610000000000000000000000000000000000000000000000000000000000000000002e
:0a5181000000000000000000000024
:20518b00000000000000000000000000000000000000000000000000000000000000000004
:0951ab00000000000000000000fb
:2051b4000000000000000000000000000000000000000000000000000000000000000000db
:0a51d40000000000000000000000d1
:2051de000002000000000000000000000000000000000000000000000000000000000000af
:0951fe00000000000000000000a8
:20520700000000000000000000000000000000000000000000000000000000000000000087
:0a522700000000000000000000007d
:2052310000000000000000000000000000000000000000000000000000000000000000005d
:0952510000000000000000000054
:20525a00000020000000000000000000000000000000000000000000000000000000000014
:0a527a00000000000000000000002a
:2052840000000000000000000000000000000000000000000000000000000000000000000a
:0952a40000000000000000000001
:2052ad000000000000000000000000000000000000000000000000000000000000000000e1
:0a52cd0000000000000000000000d7
:2052d7000000000000000000000000000000000000000000000000000000000000000000b7
:0952f700000000000000000000ae
:2053000000000000000000000000000000000000000000000000000000000000000000008d
:0a5320000000000000000000000083
:20532a000000000000000000000000000000000000000000800000000000000000000000e3
:09534a000000000000000000005a
:2053530000000000000000000000000000000000000000000000000000000000000000003a
:0a5373000000000000000000000030
:20537d002000000000000000000000000000000000000000000000000000000000000000f0
:09539d0000000000000000000007
:2053a6000540000000000000000000000000000000000000000000000000000000000000a2
:0a53c60000000000000000000000dd
:2053d00080000000000000000000000000000010000000000000000000000000000000002d
:0953f00000004000000000000371
:2053f900000000000000000000000000000000000000000000000000000000000000000094
:0a5419000000000000000000002069
:205423001c300000000000000000000000000000000000000000000000000000000000001d
:0954430000000000000000000060
:20544c000a40000000000000000000000000000000000000000000000000000000000000f6
:0a546c000000000000000000000036
:205476000040000000000000000000000000000000000000000000000000000000000000d6
:095496000000000000000000000d
:20549f00000780000000000000000000000000000000000000000000000000000000000066
:0a54bf0000000000000000000000e3
:2054c900008000000000000000000000000000000000000000000000000000000000000043
:0954e900000000000000000000ba
:2054f20000000000000000000000000000000000000000000000000000000000000000009a
:0a551200000000000000000000008f
:20551c00080000000000000000000000000000000000000000000000000000000000000067
:09553c0000000000000000000066
:20554500044000000000000000000000000000000000000000000000000001c00000000041
:0a556500000000000000000000003c
:20556f0080300000000000000000000000000000000000000000000000000000000000006c
:09558f0000000000000000000013
:205598000000400000000000000000000000000000000000000000000000000000000000b3
:0a55b80000000000000000000000e9
:2055c2000000000000000008000000000000000000000000000000000000000000000000c1
:0955e200000000000000000000c0
:2055eb00080000000000000100000000000000000000000000000000000000000000000097
:0a560b000000000000000000000095
:20561500203000000000000000421a6c0000000c00000000000000000000000000c3b2409c
:095635000000200000000000004c
:20563e008540000000000000000009a64001c000c0000000000000000000000000a66828e1
:0a565e000600030000000000000c2d
:20566800800000000000000000001a6c00000000000000000000000000000000000000001c
:09568800000000000000700000a9
:20569100000000000000000000000da6400000000000000000000000000000000000000006
:0a56b10000000000000000000000ef
:2056bb001c0000000000000000001a4401000000000000000000000000000000040fb2404f
:0956db0038000000000000c000ce
:2056e4000ac000000000000000000da6409800000000000000000000000000000028efa892
:0a570400600000000000000100003a
:20570e00000200000000000000001a4401000000000000000000000000000000000000001a
:09572e0000000000000000000072
:20573700000700000000000000000da6408180000000000000000000000000000000000057
:0a57570000000000000000180c0024
:20576100000000000000000000001a640000000000000000000000000000000000ff024069
:095781000000000000000000001f
:20578a00000030000000000000000da4400000000000000000000000000000002020002876
:0a57aa0000000000000000000000f5
:2057b400080000000000000000001a6c000000000000000000000000000000000000000047
:0957d400000020000000000000ac
:2057dd00044000000000000000000da4400000000000000000000000000000000000000077
:0a57fd00068002000000000000001a
:20580700803000000000000000001a4c000800000000000000000000000000000000000063
:09582700000000039fdc000000fa
:20583000000040000000000000000da440019001c0000000000000000000000000000000d5
:0a5850000000072086008000001c05
:20585a00000200000000002000081a44000800000000000080000000000000000000003ce2
:09587a00000000000000b0000075
:20588300080000000000000160000da4401810000000000000000000000000000000000281
:0a58a3006000000000000800000093
:2058ad00000000000000000000001a6c0000000c0000000000000000000000000000000049
:0958cd00000200000000000000d0
:2058d600000000000000000000000da64001e000c00000000000000000000000000000001e
:0a58f6000000400000000000000068
:20590000000000000000000000001a6c000000000000000000000000000000000000000001
:095920000000000000000000007e
:20592900000000000000000000000da640000000000000000000000000000000000000006b
:0a5949000000000000000000000054
:20595300000000000000000000001a440100000000000000000000000000000000000000d5
:09597300000000000000000140ea
:20597c00000000000000000000000da6409800000000000000000000000000000000000080
:0a599c000000000000000000000001
:2059a600000200000000000000001a44010000000000000000000000000000000000000080
:0959c600000000000000000000d8
:2059cf00000000000000000000000da64081800000000000000000000000000000000000c4
:0a59ef0000000000000000000000ae
:2059f900000000000000000000001a64000000000000000000000000000000000000000010
:095a190000000000000000000084
:205a2200000030000000000000000da4400000000000000000000000000000000000000043
:0a5a4200000000000000000000005a
:205a4c00000000000000000000001a6c0000000000000000000000000000000000000000b4
:095a6c0000000000000008000029
:205a7500000000000000000000000da4400000000000000000000000000000000000000020
:0a5a95000000000000000380000084
:205a9f00000000000000000000001a4c000800000000000000000000000000000000000079
:095abf000000004168190000001c
:205ac800000000000000000000000da440019001c00000000000000000000000000000007b
:0a5ae800000000003fc0b7000000fe
:205af200000200000000000000081a44000800000000000000000000000000000000000024
:095b120000050000000000000085
:205b1b00000000000000000000000da4401810000000000000000000000000000000000051
:0a5b3b000000200000000000000040
:205b4500000000000000000000001a6c0000000c00000000000000000000000000000000ae
:095b650000000000000000000037
:205b6e00040000000000000000000da64000000080000000000000000000000000000000a0
:0a5b8e00000000000000000000000d
:205b9800800000000000000000001a6c0000000000000000000000000000000000000000e7
:095bb800000000000000000004e0
:205bc100000000000000000000000da64000000000000000000000000000000000000000d1
:0a5be10000000000000000000000ba
:205beb00080000000000000000001a44010000000000000000000000000000000000000033
:095c0b0000000000000000000090
:205c1400044000000000000000000da64098000000000000000000000000000000000000a1
:0a5c34000000000000000000000066
:205c3e00003a00000000000000001a440100000000000000000000000000000000000000ad
:095c5e000000000000000000003d
:205c6700000000000000000000000da6408180000000000000000000000000000000000029
:0a5c87000000000000000000000013
:205c9100000000000000000000001a64001040000000000000000000000000000000000025
:095cb100000000000000000040aa
:205cba00000020000000000000000da44000e80000000000000000000000000000000000d1
:0a5cda0000000000000000000000c0
:205ce400000000000000000000001a6c0000a000000000000000000000000000000000007a
:095d040000000000000000000096
:205d0d00000000000000000000000da4400000000000000000000000000000000000000085
:0a5d2d00000000000000000000006c
:205d3700000000000000000000001a4c0008000000000000000000000000000000000000de
:095d570000000000000000000043
:205d6000000000000000000000000da440019001c0000000000000000000000000000000e0
:0a5d80000000000000000000000019
:205d8a00000200000000000000101a44000800000000000080000000000000000000000001
:095daa00000000000000000000f0
:205db300000000000000000000000da44018100000000000000000000000000000000000b7
:0a5dd30000000000000000000000c6
:025ddd000000c4
:035ddf0062003f20
:035de200720080cc
:025de5001100ab
:035de70082000037
:025dea000103b3
:085dec000000000000000000af
:085df4000000000000000000a7
:085dfc0000000000000000009f
:085e0400000000000000000096
:0261ec000000b1
:0361ee00820080ac
:0261f1000103a8
:0861f3000000000000000000a4
:0861fb0000000000000000009c
:08620300000000000000000093
:08620b0000000000000000008b
:0265f3000000a6
:0265f500110192
:0365f7008200001f
:0265fa0001039b
:0865fc00000000000000000097
:0866040000000000000000008e
:08660c00000000000000000086
:0866140000000000000000007e
:0269fc00000099
:0369fe0082008094
:026a010001038f
:086a030000000000000000008b
:086a0b00000000000000000083
:086a130000000000000000007b
:086a1b00000000000000000073
:026e030000008d
:026e0500110278
:036e070082000006
:026e0a00010382
:086e0c0000000000000000007e
:086e1400000000000000000076
:086e1c0000000000000000006e
:086e2400000000000000000066
:02720c00000080
:03720e008200807b
:02721100010377
:08721300000000000000000073
:08721b0000000000000000006b
:08722300000000000000000063
:08722b0000000000000000005b
:02761300000075
:0276150011035f
:03761700820000ee
:02761a0001036a
:08761c00000000000000000066
:0876240000000000000000005e
:08762c00000000000000000056
:0876340000000000000000004e
:027a1c00000068
:037a1e0082008063
:027a210001035f
:087a230000000000000000005b
:087a2b00000000000000000053
:087a330000000000000000004b
:087a3b00000000000000000043
:027e230000005d
:017e2500223a
:027e26004c4ec0
:027e2800010651
:00000001FF
