:02000000ff00ff
:080002004c6174746963650030
:17000a00694345637562653220323031342e31322e32373035320077
:16002100506172743a2069434534304858314b2d545131343400fc
:1b003700446174653a2041707220313820323031352032323a32383a3432007a
:0200520000ffad
:040054007eaa997e69
:02005800510055
:02005a0001059e
:03005c00920020ef
:03005f0062014bf0
:0300620072009099
:0300650082000016
:02006800110085
:02006a00010192
:20006c00000000000000000000000000000000000000000000000000000000000000000074
:09008c000000000000000000006b
:2000950000000000000000000000000000000000000000000000000000000000000000004b
:0a00b5000000000000000000000041
:2000bf00000000000000000000000000000000000000000000000000000000000000000021
:0900df00000000400000000000d8
:2000e8000000000000000000000000000000000000000000000000000000000000000000f8
:0a01080000000000000000000000ed
:200112000000000000000000000000000000000000000000000000000000000000000000cd
:09013200000000000000000000c4
:20013b000000000000000000000000000000000000000000000000000000000000000000a4
:0a015b00000000000000000000009a
:200165000000000000040000000000001000000000000040000000001000000000000040d6
:0901850000000000000000000071
:20018e00000000000000000000000000000000000000000000000000000000000000000051
:0a01ae000000000000000000000047
:2001b800000000000004000000000000100000000000004000000000100000000000004083
:0901d8000000000000010000001d
:2001e1000000000000000000000000000000000000000000000000000000000000000000fe
:0a02010000000000000000000000f3
:20020b000000000000000000000000000000000000000000000000000000000000000000d3
:09022b00000000000000000000ca
:2002340000000000000000000000000000004000000000000000000000000000000000006a
:0a02540000000000000000000000a0
:20025e00000000000000000000000000000000000000000000000000000000000000000080
:09027e0000000000000000000077
:20028700000000000000000000000000000000000000000000000000000000000000000057
:0a02a700000000000000000000004d
:2002b10000000000000000000000000000000000000000000000000000000000000000002d
:0902d10000000000000000000024
:2002da000000000000000000000000070000000000000000000000000000000000000000fd
:0a02fa0000000000000000000000fa
:200304000000000000000000000000000000000000000000000000000000000000000000d9
:09032400000000000000000000d0
:20032d00000000000000000000000000000000000040000000000000000000000000000070
:0a034d0000000000000000000000a6
:20035700000200000000000000000000000000000000000000000000000000000000000084
:090377000000000000000000007d
:2003800000000000000000000000000000000000000000000000000000000000000000005d
:0a03a0000000000000400000000013
:2003aa00200300000000000000000000000000000000000000000000000000000000000010
:0903ca000000000000000000002a
:2003d3000100200000000000000000000000000000000000000000000000000000000000e9
:0a03f3000000000000000000000000
:2003fd000002000000000000000000000000000000000000000000000000000000000000de
:09041d00000004000000000000d2
:20042600000020000000000000000000000000000000000000000000000000000000000096
:0a044600000000800000000000002c
:2004500000000000000000000000000000000000000000000000000000000000000000008c
:0904700000000000000000000083
:20047900000320000000000000000000000000000000000000000000000000000000000040
:0a0499000000000000000000000059
:2004a300000000000000000000000000000000000000000000000000000000000000000039
:0904c30000000000000000000030
:2004cc00000000000000000000000000000000000000000000000000000000000000000010
:0a04ec000000000000000000000006
:2004f6000000000000000000000000000000000000000000000000000000000000000000e6
:0905160000000000000200a5082d
:20051f000000000000000000000000000000000000000000000000000000000000000000bc
:0a053f000000000000000405a00009
:20054900000000000000000000000000000000000000000000000000000000000000000092
:0905690000000000000000000089
:20057200000000000000000000000000000000000000000000000000000000000000000069
:0a059200000000000000000000005f
:20059c000001000000000000000000000000000000000000000000001c196c00000000009d
:0905bc0000000000000000000036
:2005c500000000000000000000000000000000000000000000000000000e96000000000072
:0a05e500000000000000000000000c
:2005ef000001000000000000000000000000000000000000002000001c896c0000000000ba
:09060f00000000000000000000e2
:20061800000020000000000000000000000000000000000000080000000096000000000004
:0a06380000000000000000000000b8
:2006420000000000000000000000000000000000000000000000000654896c000000000049
:090662000000000000000000008f
:20066b00000020000000000000000200000000000000000000000000202096000000000077
:0a068b000000000000000000000065
:2006950000020000000000000000000000000000000000000000006054896c00000000009a
:0906b5000000000000000000003c
:2006be00000000000000000000000000000000000000000000000000202096000000000046
:0a06de000000000000000000000012
:2006e8000000000000000000000000000000000000000000000000001e896c0000000000df
:09070800000000000000000000e8
:20071100000020000000000000000000000000000000000000000000000096000000000012
:0a07310000000000000000000000be
:20073b0000000000000000000000000000000000000000000000000016896c000000000093
:09075b0000000000000000000095
:200764000000000000000000000000000000000000000000000000000000960000000000df
:0a078400000000000000000000006b
:20078e0000000000000000000000000000000000000000000000026016896c0000000000de
:0907ae0000000000000000000042
:2007b700000000000000000000000000000000000000000000000004002096000000000068
:0a07d7000000000000000000000018
:2007e1000000000000000000000000000000000000000000000002c61e896c00000000001d
:090801000000000080000000006e
:20080a00000000000000000000000000000000000000000000000006002096000000000012
:0a082a0000000000100000000000b4
:200834000000000000000000000000000000000000000000000000001c896c000000000093
:090854000000000000000000009b
:20085d000000000000000000000000000000000000400000000000000000960400000000a1
:0a087d000000000000000000000071
:200887000002000000000000000000000000000000000000002000001c896c00000000001e
:0908a70000000000000000000048
:2008b00000000000000000000000000000000000000000000008000000009600000000008a
:0a08d000000000000000000000001e
:2008da0000000000000000000000000000000000000000000000000654896c0000000000af
:0908fa00000000000000000000f5
:200903000000000000000000000000000000000000000000000000002020960000000000fe
:0a09230000000000000000000000ca
:20092d0000020000000000000000000000000000000000000000006054896c0000000000ff
:09094d00000000000000000000a1
:200956000000000000000000000000000000000000000000000000002020960000000000ab
:0a0976000000000000000000000077
:200980000000000000000000000000000000000000000000000000001e896c000000000044
:0909a0000000000000000000004e
:2009a900000020000000000000000000000000000000000000000000000096000000000078
:0a09c9000000000000000000000024
:2009d30000000000000000000000000000000000000000000000000016896c0000000000f9
:0909f300000000000000000000fb
:2009fc00000000000000000000000000000000000000000000000000000096000000000045
:0a0a1c0000000000000000000000d0
:200a260000000000000000000000000000000000000000000000026016896c000000000043
:090a4600000000000000000000a7
:200a4f000000000000000000000000000000000000000000000000040020960000000000cd
:0a0a6f00000000000000000000007d
:200a79000000000000000000000000000000000000000000000002061e896c000000000042
:090a990000000000000000ff0154
:200aa2008000000000000000000000000000000000000000000000040020960000000000fa
:0a0ac200000000000000000ff0002b
:200acc000000000000000000000000000000000000000000000000001c896c0000000000f9
:090aec0000000000000000000001
:200af500000000000000000000000000000000000000000000020000000096040000000045
:0a0b150000000020000000000000b6
:200b1f000000000000000000000000000000000000000000002000001c896c000000000085
:090b3f00000000000000000000ad
:200b48000000000000000000000000000000000000000000000800000000960000000000ef
:0a0b68000000000000000000000083
:200b720000000000000000000000000000000000000000000000000654896c000000000014
:090b92000000000000000000005a
:200b9b00000000000000000000000000000000000000000000000000202096000000000064
:0a0bbb000000000000000000000030
:200bc50000020000000000000000000000000000000000000000006054896c000000000065
:090be50000000000000000000007
:200bee00000000000000000000000000000000000000000000000000202096000000000011
:0a0c0e0000000000000000000000dc
:200c18000000000000000000000000000000000000000000000000001e896c0000000000a9
:090c3800000000000000000000b3
:200c41000000200000000000000000000000000000000000000000000000960000000000dd
:0a0c61000000000000000000000089
:200c6b0000000000000000000000000000000000000000000000000016896c00000000005e
:090c8b0000000000000000000060
:200c94000000000000000000000000000000000000000000000000000000960000000000aa
:0a0cb4000000000000000000000036
:200cbe0000000000000000000000000000000000000000000000026016896c0000000000a9
:090cde000000000000000000000d
:200ce700000000000000000000000000000000000000000000000004002096000000000033
:0a0d070000000000000000000000e2
:200d11000000000000000000000000000000000000000000000002061e896c0000000000a7
:090d3100000000000000000000b9
:200d3a000000000000000000000000000000000000000000000000040020960000000000df
:0a0d5a00000000000000000000008f
:200d64000001000000000000000000000000000000000000000000001c896c00000000005d
:090d840000000000000000000066
:200d8d0000000000000000000000000000000000004000000002000000009604000000006a
:0a0dad00000000000000000000003c
:200db7000002000000000000000000000000000000000000002000001c896c0000000000e9
:090dd70000000000000000000013
:200de000000000000000000000000000000000000000000000080000000096000000000055
:0a0e000000000000000000000000e8
:200e0a0000000000000000000000000000000000000000000000000654896c000000000079
:090e2a00000000000000000000bf
:200e33000000000000000000000000000000000000000000000000002020960000000000c9
:0a0e53000000000000000000000095
:200e5d000002000000000000000000000000000000000000000000001489640c0000000066
:090e7d000000000000000000006c
:200e8600000000000000000000000000000000000000000000000000002096000000000096
:0a0ea6000000000000000000000042
:200eb000000000000000000000000000000000000000000000000000000000000000000022
:090ed00000000000000000000019
:200ed9000000200000000000000000000000000000000000000000000000000000000000d9
:0a0ef90000000000000000000000ef
:200f03000000000000000000000000000000000000000000000000000000000000000000ce
:090f2300000000000000000000c5
:200f2c000000000000000000000000000000000000000000000000000000000000000000a5
:0a0f4c00000000000000000000009b
:200f5600000000000000000000000000000000000000000000000260000000000000000019
:090f760000000000000000000072
:200f7f0000000000000000000000000000000000000000000000000400000000000000004e
:0a0f9f000000000000000000000048
:200fa90000000400000000000000000000000000000000000000000000a0f108000000008b
:090fc9000000000000000000001f
:200fd20000000040000000000000000000000000000000000000000000100f200000000080
:0a0ff20000000000000000000000f5
:200ffc000000000000000000000000000000000000000000000000000000000000000000d5
:09101c00000000000000000000cb
:201025000000000000000000000000000000000000000000000000000000000000000000ab
:0a10450000000000000000000000a1
:20104f00000000000000000000000000000000000000000000000000000000000000000081
:09106f0000000000000000000078
:20107800000000000000000000000000000000000000000000000000000000000000000058
:0a109800000000000000000000004e
:2010a20000000000000000000000000000000000000000000000000000000000000000002e
:0910c20000000000000000000025
:2010cb00000000000000000000000000000000000000000000000000000000000000000005
:0a10eb0000000000000000000000fb
:2010f5000002000000000000000000000000000000000000000000000000000000000000d9
:09111500000000000000000000d1
:20111e000000000000000000000000000000000000000000000000000000000000000000b1
:0a113e0000000000000000000000a7
:20114800000000000000000000000000000000000000000000000000000000000000000087
:091168000000000000000000007e
:2011710000002000000000000000000000000000000000000000000000000000000000003e
:0a1191000000000000000000000054
:20119b00000000000000000000000000000000000000000000000000000000000000000034
:0911bb000000000000000000002b
:2011c40000000000000000000000000000000000000000000000000000000000000000000b
:0a11e4000000000000000000000001
:2011ee000000000000000000000000000000000000000000000000000000000000000000e1
:09120e00000000000000000000d7
:201217000000000000000000000000000000000000000000000000000000000000000000b7
:0a12370000000000000000000000ad
:2012410000000000000000000000000000000000000000000000000000000000000000008d
:0912610000000000000000000084
:20126a00000000000000000000000000000000000000000000000000000000000010000054
:0a128a00000000000000000000005a
:2012940000000000000000000000000000000000000000000000000000000000000000003a
:0912b40000000000000000000031
:2012bd000000000000000000000000000000000000400000000000000000000000000000d1
:0a12dd000000000000000000000007
:2012e7000000000000000000000000000000000000000000000000000000000000000000e7
:09130700000000000000000000dd
:201310000000000000000000000000000000000000000000000000000000000000000000bd
:0a13300000000000000000000000b3
:20133a00000000000000000000000000000000000000000000000000000000000000000093
:09135a000000000000000000008a
:2013630000000000000000000000000000000000000000000000000000000000000000006a
:0a1383000000000000000000000060
:20138d0000020000000000000000000000000000000000000000000000000000000000003e
:0913ad0000000000000000000037
:2013b600000000000000000000000000000000000000000000000000000000000000000017
:0a13d600000000000000000000000d
:2013e0000000000000000000000000000000000000000000000000000000000000000000ed
:09140000000000000000000000e3
:201409000000200000000000000000000000000000000000000000000000000000000000a3
:0a14290000000000000000000000b9
:20143300000000000000000000000000000000000000000000000000000000000000000099
:0914530000000000000000000090
:20145c00000000000000000000000000000000000000000000000000000000000000000070
:0a147c000000000000000000000066
:20148600000000000000000000000000000000000000000000000000000000000000000046
:0914a6000000000000000000003d
:2014af0000000000000000000000000000000000000000000000000000000000000000001d
:0a14cf000000000000000000000013
:2014d9000000000000000000000000000000000000000000000000000000000000000000f3
:0914f900000000000000000000ea
:201502000000000000000000000000000000000000000000000000000000000000000000c9
:0a15220000000000000000000000bf
:20152c0000000000000000000000000000000000000000000000000000000000000000009f
:09154c0000000000000000000096
:20155500000000000000000000000000000000000000000000000000000000000000000076
:0a157500000000000000000000006c
:20157f0000000000000000000000000000000000000000000000000000000000000000004c
:09159f0000000000000000000043
:2015a800000000000000000000000000000000000000000000000000000000000000000023
:0a15c8000000000000000000000019
:2015d2000000000000000000000000000000000000000000000000000000000000000000f9
:0915f200000000000000000000f0
:2015fb000000000000000000000000000000000000000000000000000000000000000000d0
:0a161b0000000000000000000000c5
:201625000003000000000000000000000000000000000000000000000000000000000000a2
:091645000000000000000000009c
:20164e0000000000000000000000000000000000000000000000000000000000000000007c
:0a166e000000000000000000000072
:20167800000000000000000000000000000000000000000000000000000000000000000052
:0916980000000000000000000049
:2016a100000000000000000000000000000000000000000000000000000000000000000029
:0a16c100000000000000000000001f
:2016cb000000000000000000000000000000000000000000000000000000000000000000ff
:0916eb00000000000000000000f6
:2016f4000000000000000000000000000000000000000000000000000000000000000000d6
:0a17140000000000000000000000cb
:20171e000000000000000000000000000000000000000000000000000000000000000000ab
:09173e00000000000000000000a2
:2017470008000000000000000000000000000000000000000000000000000000000000007a
:0a1767000000000000000000000078
:20177100000000000000000000000000000000000000000000000000000000000000000058
:091791000000000000000000004f
:20179a0010000000000000000000000000000000000000000000000000000000000000001f
:0a17ba000000000000000000000223
:0217c400000023
:0217c60011010f
:0217c80001011d
:2017ca000000000000000000000000000000000000000000000000000000000000000000ff
:0917ea00000000000000000000f6
:2017f3000000000000000000000000000000000000000000000000000000000000000000d6
:0a18130000000000000000000000cb
:20181d000000000000000000000000000000000000000000000000000000000000000000ab
:09183d00000000000000000000a2
:20184600000000000000000000000000000000000000000000000000000000000000000082
:0a1866000000000000000000000078
:20187000000000000000000000000000000000000000000000000000000000000000000058
:091890000000000000000000004f
:2018990000000000000000000000000000000000000000000000000000000000000000002f
:0a18b9000000000000000000000025
:2018c300000000000004000000000000100000000000004000000000100000000000004061
:0918e300000000000001000000fb
:2018ec000000000000000000000000000000000000000000000000000000000000000000dc
:0a190c0000000000000000000000d1
:2019160000000000000400000000000010000000000000400000000010000000000000400d
:09193600000000000001000000a7
:20193f00000000000000000000000000000000000000000000000000000000000000000088
:0a195f00000000000000000000007e
:2019690000000000000000000000000000000000000000000000000000000000000000005e
:0919890000000000000000000055
:20199200000000000000000000000000000000000000000000000000000000000000000035
:0a19b200000000000000000000002b
:2019bc000000000000000000000000000010000000000000000000000000000000000000fb
:0919dc0000000000000000000002
:2019e5000000000000000000000000000000000000000000000000000000000000000000e2
:0a1a050000000000000000000000d7
:201a0f000000000000000000000000000000000000000000000000000000000000000000b7
:091a2f00000000000000000000ae
:201a380000000000000000000000000000000000000000000000000000000000000000008e
:0a1a58000000000000000000000084
:201a620000000000000d629400c000066ebf14080000000000000000000000000000000052
:091a82000000000000000000005b
:201a8b000000000000181f2b400c0004657ef74080000000000000000000000000000000ef
:0a1aab000000000000000000000031
:201ab5000000000090bb43ec000000065dbdf6000000000000000000000000000000000081
:091ad50000000000000000000008
:201ade00000000000001f3bc40800000676ce5400000000000000000000000000000000080
:0a1afe0000000000000000000000de
:201b080000000000008d63fc000002602e80140800000000000000000000000000000000a5
:091b2800000000000000000000b4
:201b31000000000000011f0200000026007e07410000000000000000000000000000000086
:0a1b5100000000000000000000008a
:201b5b000002000000b143ec0000000026efb490000000000000000000000000000000002f
:091b7b0000000000000000000061
:201b8400000000000001f3bc408000003ad9e340000000000000000000000000000000009b
:0a1ba4000000000000000000000037
:201bae0000000000000d630c0000014016df940800000000000000000000000000000000c9
:091bce000000000000000000000e
:201bd7000000200000001f32c000002069def5400000000000000000000000000000000021
:0a1bf70000000000000000000000e4
:201c010000000000008f67c8000001429fffa4800000000000000000000000000000000000
:091c2100000000000000000000ba
:201c2a00000000000001f3bdc00000206ecfe74000000000000000000000000000000000a5
:0a1c4a000000000000000000000090
:201c5400000000001007e00400000002acc0140000000000000000000000000000000000f3
:091c740000000000000000000067
:201c7d000000000008003b01c00e001604ff07404000000000000000000000000000000095
:0a1c9d00000000000000000000003d
:201ca700000000001081b7ac000000000fefb418000000000000000000000000030000005c
:091cc70000000000000000000014
:201cd00000000000098b13b9c000001602dfe34000000000000000000000000000000000ba
:0a1cf00000000000000000000000ea
:201cfa0000000000080dbfdc0000000000000000000000000000000000000000000000001a
:091d1a00000000000000000000c0
:201d2300000000000598ffbc40000000000000000000000000000000000000000000000008
:0a1d43000000000000000000000096
:201d4d000000000000813d9800000000000000000000000000000000000000000000000020
:091d6d000000000000000000006d
:201d7600000000000001d65b8000000000000000000000000000000000000000000000009b
:0a1d96000000000000000000000043
:201da00000000000088d20040000000000000000000000000000000000000000000040002a
:091dc0000000000000000000001a
:201dc9000000000005819fc1c00080000000000000000000000000000000000000000000d4
:0a1de90000000000000000000000f0
:201df300000200000001b7ec0000000000000000000000000000000000000000000000002a
:091e1300000000000000000000c6
:201e1c00000000000000df7c4000000000000000000000000000000000000000000000000b
:0a1e3c00000000000000000000009c
:201e460000000000508563c000000000000000000000000000000000000000000000000084
:091e660000000000000000000073
:201e6f000000200005001ffe000001400000000000000000000000000000000000000000d0
:0a1e8f000000000000000000000049
:201e990000000000d0013fc000000000000000000000000000000000000000000000000059
:091eb90000000000000000000020
:201ec200000000000000d67e000000000000000000000000000000000000000000000000ac
:0a1ee20000000000000000000000f6
:201eec000000000010a9abfc00000000000000000000000000000000000000000000000076
:091f0c00000000000000000000cc
:201f150000000000098a9ec2000000000000000000000000000000000000000000000000b9
:0a1f350000000000000000000000a2
:201f3f00000000000009ab0c000000000000000004000000000000000000000000000000be
:091f5f0000000000000000000079
:201f68000000000000009ef2c0000000000000000000000000000000000000000000000009
:0a1f8800000000000000000000004f
:201f92000000000010bbe7ec00c00262669fb40c00000000000000200005501000000d0016
:091fb20000000000000000000026
:201fbb00000000000801f73c400c0024075ef140000000000000001c005c5500000078007f
:0a1fdb000000000001e0000000001b
:201fe500000000001089bff40000034036ef741000000000000001c000000000000000766d
:09200500f302000000024acc00c5
:20200e00000000000809fab940000000016fe3500000000000000020000000000000380ba8
:0a202e007ccc0000000027a3300066
:202038000000000000bf4214000000241680240000000000000003c00205500001801000ea
:092058000000000000000000007f
:20206100000000000019db9000800006635f0750000000000000000000de55004000008049
:0a2081000000000000000000000055
:20208b0000020000000f378c0000002034ef76100000000000000023c00000000100800034
:0920ab00000000008000000000ac
:2020b40000000000018017fdc0000014016de340000000000000001c00000000000078007e
:0a20d40000000000140000000000ee
:2020de0000000000000bba940000014296bfb4000000000000000000000000000000000439
:0920fe001540000014340000003c
:202107000000200001809eeb40000020055ef150400000000000000000000000000000c783
:0a2127002954000000000000000031
:2021310000000000d001816800000542b5ef76000000000000000000000000000020000c47
:09215100154010000031f00f08e8
:20215a000000000000009bab408000203dffe340400000000000000000000000000100c3dc
:0a217a00a1540000014036af0080c0
:20218400000000005083e42c0000000006d0b60000000000000000000000000000000000cc
:0921a400000000000034000000fe
:2021ad0000000000000b7740400e0016695f014000000000000000000000000000000000e3
:0a21cd000000000001c00000000047
:2021d70000000000080f77dc000a000036ef74000800000000000240000550040000000038
:0921f700000000000000000000df
:2022000000000000051873f8c000421668fde370010000000000000000ce550000000080c2
:0a22200000000000000000000000b4
:20222a00000000001003b7e8004000002dad34002000000000c000000000000340009900d8
:09224a0000000c00023c00000041
:202253000000000008181ef9c00c000001cbf741000000000004000000000000300070f0d0
:0a227300000000c001e7c0000000f9
:20227d00000000001001ab0c0020002205cfb40800100000002000000000000080000f04e4
:09229d00154822000c400000006d
:2022a60000000000081abab2c000000e04cfe350000000000000001600000000000019f592
:0a22c60069540000020780000000c8
:2022d0000000000000858264000003c03480b40000200000000000000000000000070d53d1
:0922f000f3000000006c00000086
:2022f9000000000000197a9b8080002001dc0148400100000000000000000000000019fdfa
:0a23190060cc000000e600000000a8
:202323000002000000a937dc000000240c0df40028000000000000001ebcc0000001103b9d
:09234300730020002467fdcc00aa
:20234c00000000000301fb7c4000040e224ce5430138000000000000006a33600000d8e31d
:0a236c0074cd02000202dfc330004e
:20237600000000000093e76c0000004005b5500000000000000000200000000000078a0c5a
:09239600154000000c00fdcc080c
:20239f000000200001801afd40000000004a5d00000000000000001e0000000000009807c2
:0a23bf002154000000003f833400a9
:2023c90000000000d809802c00000042860a50002010000000000140000000000007807bd2
:0923e90033000040000000000078
:2023f2000000000005185b00408000206d4aaf0000000000000000002800000000001801cc
:0a24120034cd20020000000000009d
:20241c00000000001193e3e800000000340a5004000000000000000400000000000500b0e6
:09243c002a800000802d6ecc0006
:2024450000000000080e1bb9c00e00000040bd2202800000000e0000600000003800000870
:0a246500315400e000002ec33000e7
:20246f0000000000008937dc00000540340ff00004000000000000000000000000008a5754
:09248f00e64000400000000000de
:20249800000000000181f33c400000360040a5000002000000000000000000000000398954
:0a24b8007f1800080000000000007b
:2024c200000000009007f7c400c000002ebf741000000000000003e214d000100000007628
:0924e200c5400c000421ebcc0004
:2024eb00800000000000937dc0040000017af140000000000000001c045b2050000071a7ce
:0a250b003f5400c002407d933400ed
:202515008000000000cb37ec00280000159fb408000000000030040016050000800900f7d1
:09253500a64012002e41f00f0037
:20253e0000000000000017e9c0004280024da740000000000001001e02ea00000000f0cffb
:0a255e006f18000003e784af0000cf
:202568000000000000876004000a00002c8014000000000000100240030a0000000d1e5aba
:09258800730000001c01efcc08f7
:202591000000000000199b41c0004000007b07410000000000000000606aa000000001f90e
:0a25b100a8cc000001e03db33400a7
:2025bb004000000000c183bc0000000007aeb40020000000000021c28cecc00020010f5894
:0925db0003c000002c20e00f00f9
:2025e400000000000000f7b940800c803a4de750000000000000003679ec3300000000133c
:0a260400abc00000a26046af00105a
:20260e0000000000008da3fc0000002000000000000000000000002004dcc00000059a7a87
:09262e00c5400000342800000042
:20263700000030000019de420000000c68000000000000000000001602f833000000f095de
:0a265700b75400020160000000000b
:20266100082c00000001ae94000a1002800000000000000000000170150fa0900025003725
:09268100664000000c2810550011
:20268a00048000000000de6b40004480040000000008000000020016295ea5000000900f70
:0a26aa006f1800000006dd855000e7
:2026b40080000000100da30c00000142800000000000000000000042950f520400000f7636
:0926d400d54000001474d00f0081
:2026dd00000000000980de72c00e00360400000000000000000e003e0008fa00000000119d
:0a26fd00275001e00203eeaf0000d9
:202707000002000000800000000000000000000020000000000001c22de99000000908573f
:09272700664020000042c9cc000c
:20273000040000000181000000000016680000000000000000000000055fc6000000018fcb
:0a2750006b18000000078db336007f
:20275a0000000000008def8c00440260069f160000000000004000022c0aa00100000000dd
:09277a0000000000004000000016
:20278300000000000301b6bdc00420260059f7400000000000040006060c55401000000064
:0a27a30000000000000280000000aa
:2027ad0000000000000777ec00000006558d340000000000000000023fcf0000000008006e
:0927cd0000000000003c5ecc009d
:2027d60000000000000096e9c0010000645bf74100100000000000006cfe714000001990d8
:0a27f6000000000000604fc3300037
:2028000000000000008d03dc0000000404a0140000000000000000000c0ff0000000000085
:09282000000000801e7870aa0877
:20282900000000000181dfbc40808000617807410000000000000006624000400004000025
:0a2849000000000003e7aeca5400cf
:2028530000020000008d366400000260049fb4000010000000000142840f000000090e0086
:0928730000000000002400000038
:20287c00000000000001badb800020260379b54040080000000000206cfa5540000080008c
:0a289c000000000001c04000000031
:2028a60000000000048343e80000014284ff1400000000000000006015cf000000850a5c57
:0928c6003d400000022ccbcc00c7
:2028cf0000002000019886bd4000003605f8f7600000000000000034024b7140000081b7b9
:0a28ef006815000000400ef33000f1
:2028f9000000000010ed43c000000140049fb480000000000040a0001d8ff0010001007cad
:092919003d400000000000000038
:2029220000000000081857be8000003602dfb5400000000000040000637cf700300081a7a2
:0a294200681500000000000000000e
:20294c00000000000005c16800000243c6d0748000000000000000c0000000000007005c4b
:09296c000000004000005fcc00f7
:202975000000000000003aabc00e001669d9014000000000000e0020000000003800d807b1
:0a2995006a8000e0406017e33000a4
:20299f00000000001007a2800008002285cdb4800400000000000143afa010040000003252
:0929bf00c000004004000000000b
:2029c800000000000980df108000001c065cf540000800000000040000cf00000000000168
:0a29e800ea00000800c00000000033
:2029f2000000000000cd7f8c00000000000000000000000000400000000000000009089804
:092a12003e800c00160270002049
:202a1b0000000000001897fdc00000000000000000000000000c0000000000000000381bd0
:0a2a3b00328100c0024034e50000c3
:202a450000000000008000000000000000000000000000000000044000000000000d0ab8de
:092a65003d4000000000000000eb
:202a6e00000000000001000000004000000000000000000000000020000000000000701760
:0a2a8e00fa8100000007800000003c
:202a98000000000000cfeb0c000000000000000000000000000001c000000000000f8014f4
:092ab800154001080000000000b7
:202ac1000000000000187af2c000000000000000000000000000000000000000000011a5fb
:0a2ae100b2950000000000000000a4
:202aeb0000020000000177ac0000000000000000000000000000000000000000000508b0e8
:092b0b003d400000000000000044
:202b140000000000000096f9c00004000000000000000000000000000000000000009815a1
:0a2b3400f2810000000380000000a1
:202b3e000000000010cdfc80000000000000000000000000000000000000000000010f9876
:092b5e003e8000000200000000ae
:202b6700000020000980facd00000000000000000000000000000000000000000000981333
:0a2b87007a81000000e00000000069
:202b9100000000000005e7c800000000000000000000000000000340000000000000003af3
:092bb10050000000000000a0002b
:202bba00000000000018dfbdc000000000000000000000000000001c000000000038180d0e
:0a2bda00b8008000000785ea000043
:202be40000000000100febc0000000000000000000000000000000000000000000000034d3
:092c04002a8000000040000000dd
:202c0d000000000008007afe000000000000000000000000000e0000000000003800018759
:0a2c2d00329500e0100200000000e4
:202c3700000000001081effc00000000000000000000000000000000140fa00000018d5e52
:092c570014c000003f4178cc01db
:202c6000000000000981f7020000000000000000000000000000000001ca0a400000919398
:0a2c8000bbcd000401e2ac83340078
:202c8a0000000000000000000000000000000000000000000000000000000000000000002a
:092caa0000000000002070aa00e7
:202cb30000000000000000000000000000000000000000000000000000000000000000a061
:0a2cd3000000000000004faa5400aa
:202cdd000000000000000000000000000000000000000000000000000000000000010000d6
:092cfd0000000000000350f50086
:202d060000000000000000000000000000000000000000000000000000000000000080002d
:0a2d260000000000000027ca0400ae
:202d300000000000000000000000000000000000000000000000000000000000000000542f
:092d50002a800000006800000068
:202d5900000000000000000000000000000000000000000000000000000000000000000d4d
:0a2d7900fa9500000002800000003f
:202d83000002000000000000000000000000000000000000000000000000000000000af430
:092da3003d400000003400000076
:202dac000000000000000000000000000000000000000000000000000000000000000009fe
:0a2dcc006a810000000040000000d2
:202dd6000000000000000000000000000000000003000000000000000000000000018b004e
:092df60000000001004000000093
:202dff00000020000000000000000000000000000000000000000000000000000000d000c4
:0a2e1f000000000000028000000027
:202e290000000000000000000000000000000000000000000000000000000001000d00007b
:092e49000000040000000000007c
:202e5200000000000000000000000000000000000000000000000000000000003000000030
:0a2e72000000004000000000000016
:202e7c0000000000000000000000000000000000000000000000000000000000000d0074b5
:092e9c002a8000000003f0aa00e6
:202ea500000000000000000000000a000000000000000000000000000000000038000001ca
:0a2ec500fa9500e001602daa540008
:202ecf0000000000000000000000000000000000040000000000000000000000000010f4db
:092eef003d400000002c00000031
:202ef80000400000000000000000000000000000000000000000000000000000000018adb5
:0a2f180022810000006000000000ac
:022f22000000ad
:022f2400110298
:022f26000101a7
:202f2800000000000000000000000000000000000000000000000000000000000000000089
:092f480000000000000000000080
:202f5100000000000000000000000000000000000000000000000000000000000000000060
:0a2f71000000000000000000000056
:202f7b00000000000000000000000000000000000000000000000000000000000000000036
:092f9b000000000000000000002d
:202fa40000000000000000000000000000000000000000000000000000000000000000000d
:0a2fc4000000000000000000000003
:202fce000000000000000000000000000000000000000000000000000000000000000000e3
:092fee00000000000000000000da
:202ff7000000000000000000000000000000000000000000000000000000000000000000ba
:0a30170000000000000000000000af
:203021000000000000080000000000002000000000080000000000002000000000000080bf
:0930410000000000000200000084
:20304a00000000000000000000000000000000000000000000000000000000000000000066
:0a306a00000000000000000000005c
:2030740000000000000800000000000020000000000800000000000020000000000000806c
:0930940000000000000200000031
:20309d00000000000000000000000000000000000000000000000000000000000000000013
:0a30bd000000000000000000000009
:2030c7000000000000000000000000000000000000000000000000000000000000000000e9
:0930e700000000000000000000e0
:2030f0000000000000000000000000000000000000000000000000000000000000000000c0
:0a31100000000000000000000000b5
:20311a00000000000000000000000000000000000000000000000000000000000000000095
:09313a000000000000000000008c
:2031430000000000000000000000000000000000000000000000000000000000000000006c
:0a3163000000000000000000000062
:20316d00000000000000000000000000000000000000000000000000000000000000000042
:09318d0000000000000000000039
:20319600000000000000000000000000000000000000000000000000000000000000000019
:0a31b600000000000000000000000f
:2031c0000000000000000000000000000000000000000000000000000000000000000000ef
:0931e000000000000000000000e6
:2031e9000000000000000000000000000000000000000000080000000000000000000000be
:0a32090000000000000000000000bb
:2032130000000000000000000000000000000000000000000000000000000000000000009b
:0932330000000000000000000092
:20323c00000000000000000000000000000000000000000000000000000000000000000072
:0a325c000000000000000000000068
:20326600000000000000000000000000000000000000000000000000000000000000000048
:093286000000000000000000003f
:20328f0000000000000000000000000000000000000000000000000000000000000000001f
:0a32af000000000000000000000015
:2032b9000002000000000000000000000000000000000000000000000000000000000000f3
:0932d900000000000000000000ec
:2032e2000000000000000000000000000000000000000000000000000000000000000000cc
:0a33020000000000000000000000c1
:20330c000000000000000000000000000000000000000000000000000000000000000000a1
:09332c0000000000000000000098
:20333500000020000000000000000000000000000000000000000000000000000000000058
:0a335500000000000000000000006e
:20335f0000000000000000000000000000000000000000000000000000000000000000004e
:09337f0000000000000000000045
:20338800000000000000000000000000000000000000000000000000000000000000000025
:0a33a800000000000000000000001b
:2033b2000000000000000000000000000000000000000000000000000000000000000000fb
:0933d200000000000000000000f2
:2033db000000000000000000000000000000000000000000000000000000000000000000d2
:0a33fb0000000000000000000000c8
:203405000000000000000000000000000000000000000000000000000000000000000000a7
:093425000000000000000000009e
:20342e0000000000000000000000000000000000000000000000000000000000000000007e
:0a344e000000000000000000000074
:20345800000000000000000000000000000000000000000000000000000000000000000054
:093478000000000000000000004b
:2034810000000000000000000000000000000000000000000000000000000000000000002b
:0a34a1000000000000000000000021
:2034ab00000000000000000000000000000000000000000000000000000000000000000001
:0934cb00000000000000000000f8
:2034d4000000000000000000000000000000000000000000000000000000000000000000d8
:0a34f40000000000000000000000ce
:2034fe000000000000000000000000000000000000000000000000000000000000000000ae
:09351e00000000000000000000a4
:20352700000000000000000000000000000000000000000000000000000000000000000084
:0a354700000000000000000000007a
:20355100000200000000000000000000000000000000000000000000000000000000000058
:0935710000000000000000000051
:20357a00000000000000000000000000000000000000000000000000000000000000000031
:0a359a000000000000000000000027
:2035a400000000000000000000000000000000000000000000000000000000000000000007
:0935c400000000000000000000fe
:2035cd000000200000000000000000000000000000000000000000000000000000000000be
:0a35ed0000000000000000000000d4
:2035f7000000000000000000000000000000000000000000000000000000000000000000b4
:09361700000000000000000000aa
:2036200000000000000000000000000000000000000000000000000000000000000000008a
:0a3640000000000000000000000080
:20364a00000000000000000000000000000000000000000000000000000000000000000060
:09366a0000000000000000000057
:20367300000000000000000000000000000000000000000000000000000000000000000037
:0a369300000000000000000000002d
:20369d0000000000000000000000000000000000000000000000000000000000000000000d
:0936bd0000000000000000000004
:2036c6000000000000000000000000000000000000000000000000000000000000000000e4
:0a36e60000000000000000000000da
:2036f0000000000000000000000000000000000000000000000000000000000000000000ba
:09371000000000000000000000b0
:20371900000000000000000000000000000000000000000008000000000000000000000088
:0a3739000000000000000000000086
:20374300000000000000000000000000000000000000000000000000000000000000000066
:093763000000000000000000005d
:20376c0000000000000000000000000000000000000000000000000000000000000000003d
:0a378c000000000000000000000033
:20379600000000000000000000000000000000000000000000000000000000000000000013
:0937b6000000000000000000000a
:2037bf000000000000000000000000000000000000000000000000000000000000000000ea
:0a37df0000000000000000000000e0
:2037e9000002000000000000000000000000000000000000000000000000000000000000be
:09380900000000000000000000b6
:20381200000000000000000000000000000000000000000000000000000000000000000096
:0a383200000000000000000000008c
:20383c0000000000000000000000000000000000000000000000000000000000000000006c
:09385c0000000000000000000063
:20386500000020000000000000000000000000000000000000000000000000000000000023
:0a3885000000000000000000000039
:20388f00000000000000000000000000000000000000000000000000000000000000000019
:0938af0000000000000000000010
:2038b8000000000000000000000000000000000000000000000000000000000000000000f0
:0a38d80000000000000000000000e6
:2038e2000000000000000000000000000000000000000000000000000000000000000000c6
:09390200000000000000000000bc
:20390b0000000000000000000000000000000000000000000000000000000000000000009c
:0a392b000000000000000000000092
:20393500000000000000000000000000000000000000000000000000000000000000000072
:0939550000000000000000000069
:20395e00000000000000000000000000000000000000000000000000000000000000000049
:0a397e00000000000000000000003f
:2039880000000000000000000000000000000000000000000000000000000000000000001f
:0939a80000000000000000000016
:2039b1000000000000000000000000000000000000000000000000000000000000000000f6
:0a39d10000000000000000000000ec
:2039db000000000000000000000000000000000000000000000000000000000000000000cc
:0939fb00000000000000000000c3
:203a04000000000000000000000000000000000000000000000000000000000000000000a2
:0a3a24000000000000000000000098
:203a2e00000000000000000000000000000000000000000000000000000000000000000078
:093a4e000000000000000000006f
:203a570000000000000000000000000000000000000000000000000000000000000000004f
:0a3a77000000000000000000000045
:203a8100000200000000000000000000000000000000000000000000000000000000000023
:093aa1000000000000000000001c
:203aaa000000000000000000000000000000000000000000000000000000000000000000fc
:0a3aca0000000000000000000000f2
:203ad4000000000000000000000000000000000000000000000000000000000000000000d2
:093af400000000000000000000c9
:203afd00000020000000000000000000000000000000000000000000000000000000000089
:0a3b1d00000000000000000000009e
:203b270000000000000000000000000000000000000000000000000000000000000000007e
:093b470000000000000000000075
:203b5000000000000000000000000000000000000000000000000000000000000000000055
:0a3b7000000000000000000000004b
:203b7a0000000000000000000000000000000000000000000000000000000000000000002b
:093b9a0000000000000000000022
:203ba300000000000000000000000000000000000000000000000000000000000000000002
:0a3bc30000000000000000000000f8
:203bcd000000000000000000000000000000000000000000000000000000000000000000d8
:093bed00000000000000000000cf
:203bf6000000000000000000000000000000000000000000000000000000000000000000af
:0a3c160000000000000000000000a4
:203c2000000000000000000000000000000000000000000000000000000000000000000084
:093c40000000000000000000007b
:203c4900000000000000000000000000000000000000000008000000000000000000000053
:0a3c69000000000000000000000051
:203c7300000000000000000000000000000000000000000000000000000000000000000031
:093c930000000000000000000028
:203c9c00000000000000000000000000000000000000000000000000000000000000000008
:0a3cbc0000000000000000000000fe
:203cc6000000000000000000000000000000000000000000000000000000000000000000de
:093ce600000000000000000000d5
:203cef000000000000000000000000000000000000000000000000000000000000000000b5
:0a3d0f0000000000000000000000aa
:203d1900000200000000000000000000000000000000000000000000000000000000000088
:093d390000000000000000000081
:203d4200000000000000000000000000000000000000000000000000000000000000000061
:0a3d62000000000000000000000057
:203d6c00000000000000000000000000000000000000000000000000000000000000000037
:093d8c000000000000000000002e
:203d95000000200000000000000000000000000000000000000000000000000000000000ee
:0a3db5000000000000000000000004
:203dbf000000000000000000000000000000000000000000000000000000000000000000e4
:093ddf00000000000000000200d9
:203de8000000000000000000000000000000000000000000000000000000000000000000bb
:0a3e080000000000000000000000b0
:203e1200000000000000000000000000000000000000000000000000000000000000000090
:093e320000000000000000000087
:203e3b00000000000000000000000000000000000000000000000000000000000000000067
:0a3e5b00000000000000000000005d
:203e650000000000000000000000000000000000000000000000000000000000000000003d
:093e850000000000000000000034
:203e8e00000000000000000000000000000000000000000000000000000000000000000014
:0a3eae00000000000000000000000a
:203eb8000000000000000000000000000000000000000000000000000000000000000000ea
:093ed800000000000000000000e1
:203ee1000000000000000000000000000000000000000000000000000000000000000000c1
:0a3f010000000000000000000000b6
:203f0b00000000000000000000000000000000000000000000000000000000000000000096
:093f2b000000000000000000008d
:203f340000000000000000000000000000000000000000000000000000000000000000006d
:0a3f54000000000000000000000063
:203f5e00000000000000000000000000000000000000000000000000000000000000000043
:093f7e000000000000000000003a
:203f870000000000000000000000000000000000000000000000000000000000000000001a
:0a3fa7000000000000000000000010
:203fb1000002000000000000000000000000000000000000000000000000000000000000ee
:093fd100000000000000000000e7
:203fda000000000000000000000000000000000000000000000000000000000000000000c7
:0a3ffa0000000000000000000000bd
:2040040000000000000000000000000000000000000000000000000000000000000000009c
:0940240000000000000000000093
:20402d00000020000000000000000000000000000000000000000000000000000000000053
:0a404d000000000000000000000069
:20405700000000000000000000000000000000000000000000000000000000000000000049
:0940770000000000000000000040
:20408000000000000000000000000000000000000000000000000000000000000000000020
:0a40a0000000000000000000000016
:2040aa000000000000000000000000000000000000000000000000000000000000000000f6
:0940ca00000000000000000000ed
:2040d3000000000000000000000000000000000000000000000000000000000000000000cd
:0a40f30000000000000000000000c3
:2040fd000000000000000000000000000000000000000000000000000000000000000000a3
:09411d0000000000000000000099
:20412600000000000000000000000000000000000000000000000000000000000000000079
:0a414600000000000000000000006f
:2041500000000000000000000000000000000000000000000000000000000000000000004f
:0941700000000000000000000046
:2041790000000000000000000000000000000000000000000800000000000000000000001e
:0a419900000000000000000000001c
:2041a3000000000000000000000000000000000000000000000000000000000000000000fc
:0941c300000000000000000000f3
:2041cc000000000000000000000000000000000000000000000000000000000000000000d3
:0a41ec0000000000000000000000c9
:2041f6000000000000000000000000000000000000000000000000000000000000000000a9
:094216000000000000000000009f
:20421f0000000000000000000000000000000000000000000000000000000000000000007f
:0a423f000000000000000000000075
:20424900000200000000000000000000000000000000000000000000000000000000000053
:094269000000000000000000004c
:2042720000000000000000000000000000000000000000000000000000000000000000002c
:0a4292000000000000000000000022
:20429c00000000000000000000000000000000000000000000000000000000000000000002
:0942bc00000000000000000000f9
:2042c5000000200000000000000000000000000000000000000000000000000000000000b9
:0a42e50000000000000000000000cf
:2042ef000000000000000000000000000000000000000000000000000000000000000000af
:09430f00000000000000000000a5
:20431800000000000000000000000000000000000000000000000000000000000000000085
:0a433800000000000000000000007b
:2043420000000000000000000000000000000000000000000000000000000000000000005b
:0943620000000000000000000052
:20436b00000000000000000000000000000000000000000000000000000000000000000032
:0a438b000000000000000000000028
:20439500000000000000000000000000000000000000000000000000000000000000000008
:0943b500000000000000000000ff
:2043be000000000000000000000000000000000000000000000000000000000000000000df
:0a43de0000000000000000000000d5
:2043e8000000000000000000000000000000000000000000000000000000000000000000b5
:09440800000000000000000000ab
:2044110000000000000000000000000000000000000000000000000000000000000000008b
:0a4431000000000000000000000081
:20443b00000000000000000000000000000000000000000000000000000000000000000061
:09445b0000000000000000000058
:20446400000000000000000000000000000000000000000000000000000000000000000038
:0a448400000000000000000000002e
:20448e0000000000000000000000000000000000000000000000000000000000000000000e
:0944ae0000000000000000000005
:2044b7000000000000000000000000000000000000000000000000000000000000000000e5
:0a44d70000000000000000000000db
:2044e1000002000000000000000000000000000000000000000000000000000000000000b9
:09450100000000000000000000b1
:20450a00000000000000000000000000000000000000000000000000000000000000000091
:0a452a000000000000000000000087
:20453400000000000000000000000000000000000000000000000000000000000000000067
:094554000000000000000000005e
:20455d0000002000000000000000000000000000000000000000000000000000000000001e
:0a457d000000000000000000000034
:20458700000000000000000000000000000000000000000000000000000000000000000014
:0945a7000000000000000000000b
:2045b0000000000000000000000000000000000000000000000000000000000000000000eb
:0a45d00000000000000000000000e1
:2045da000000000000000000000000000000000000000000000000000000000000000000c1
:0945fa00000000000000000000b8
:20460300000000000000000000000000000000000000000000000000000000000000000097
:0a462300000000000000000000008d
:20462d0000000000000000000000000000000000000000000000000000000000000000006d
:09464d0000000000000000000064
:20465600000000000000000000000000000000000000000000000000000000000000000044
:0a467600000000000000000000003a
:02468000000038
:02468200110322
:02468400010132
:20468600000000000000000000000000000000000000000000000000000000000000000014
:0946a6000000000000000000000b
:2046af000000000000000000000000000000000000000000000000000000000000000000eb
:0a46cf0000000000000000000000e1
:2046d9000000000000000000000000000000000000000000000000000000000000000000c1
:0946f900000000000000000000b8
:20470200000000000000000000000000000000000000000000000000000000000000000097
:0a472200000000000000000000008d
:20472c0000000000000000000000000000000000000000000000000000000000000000006d
:09474c0000000000000000000064
:20475500000000000000000000000000000000000000000000000000000000000000000044
:0a477500000000000000000000003a
:20477f0000000000000800000000000020000000000800000000000020000000000000804a
:09479f000000000000020000000f
:2047a8000000000000000000000000000000000000000000000000000000000000000000f1
:0a47c80000000000000000000000e7
:2047d2000000000000080000000000002000000000080000000000002000000000000080f7
:0947f200000000000002000000bc
:2047fb0000000000000000000000000000000000000000000000000000000000000000009e
:0a481b000000000000000000000093
:20482500000000000000000000000000000000000000000000000000000000000000000073
:094845000000000000000000006a
:20484e0000000000000000000000000000000000000000000000000000000000000000004a
:0a486e000000000000000000000040
:20487800000000000000000000000000000000000000000000000000000000000000000020
:0948980000000000000000000017
:2048a1000000000000000000000000000000000000000000000000000000000000000000f7
:0a48c10000000000000000000000ed
:2048cb000000000000000000000000000000000000000000000000000000000000000000cd
:0948eb00000000000000000000c4
:2048f4000000000000000000000000000000000000000000000000000000000000000000a4
:0a4914000000000000000000000099
:20491e00000000000000000000000000000000000000000000000000000000000000000079
:09493e0000000000000000000070
:20494700000000000000000000000000000000000000000000000000000000000000000050
:0a4967000000000000000000000046
:20497100000000000000000000000000000000000000000000000000000000000000000026
:094991000000000000000000001d
:20499a000000000000000000000000000000000000000000000000000000000000000000fd
:0a49ba0000000000000000000000f3
:2049c4000000000000000000000000000000000000000000000000000000000000000000d3
:0949e400000000000000000000ca
:2049ed000000000000000000000000000000000000000000000000000000000000000000aa
:0a4a0d00000000000000000000009f
:204a170000020000000000000000000000000000000000000000000000000000000000007d
:094a370000000000000000000076
:204a4000000000000000000000000000000000000000000000000000000000000000000056
:0a4a6000000000000000000000004c
:204a6a0000000000000000000000000000000000000000000000000000000000000000002c
:094a8a0000000000000000000023
:204a93000000200000000000000000000000000000000000000000000000000000000000e3
:0a4ab30000000000000000000000f9
:204abd000000000000000000000000000000000000000000000000000000000000000000d9
:094add00000000000000000000d0
:204ae6000000000000000000000000000000000000000000000000000000000000000000b0
:0a4b060000000000000000000000a5
:204b1000000000000000000000000000000000000000000000000000000000000000000085
:094b30000000000000000000007c
:204b390000000000000000000000000000000000000000000000000000000000000000005c
:0a4b59000000000000000000000052
:204b6300000000000000000000000000000000000000000000000000000000000000000032
:094b830000000000000000000029
:204b8c00000000000000000000000000000000000000000000000000000000000000000009
:0a4bac0000000000000000000000ff
:204bb6000000000000000000000000000000000000000000000000000000000000000000df
:094bd600000000000000000000d6
:204bdf000000000000000000000000000000000000000000000000000000000000000000b6
:0a4bff0000000000000000000000ac
:204c090000000000000000000000000000000000000000000000000000000000000000008b
:094c290000000000000000000082
:204c3200000000000000000000000000000000000000000000000000000000000000000062
:0a4c52000000000000000000000058
:204c5c00000000000000000000000000000000000000000000000000000000000000000038
:094c7c000000000000000000002f
:204c850000000000000000000000000000000000000000000000000000000000000000000f
:0a4ca5000000000000000000000005
:204caf000002000000000000000000000000000000000000000000000000000000000000e3
:094ccf00000000000000000000dc
:204cd8000000000000000000000000000000000000000000000000000000000000000000bc
:0a4cf80000000000000000000000b2
:204d0200000000000000000000000000000000000000000000000000000000000000000091
:094d220000000000000000000088
:204d2b00000020000000000000000000000000000000000000000000000000000000000048
:0a4d4b00000000000000000000005e
:204d550000000000000000000000000000000000000000000000000000000000000000003e
:094d750000000000000000000035
:204d7e00000000000000000000000000000000000000000000000000000000000000000015
:0a4d9e00000000000000000000000b
:204da8000000000000000000000000000000000000000000000000000000000000000000eb
:094dc800000000000000000000e2
:204dd1000000000000000000000000000000000000000000000000000000000000000000c2
:0a4df10000000000000000000000b8
:204dfb00000000000000000000000000000000000000000080000000000000000000000018
:094e1b000000000000000000008e
:204e240000000000000000000000000000000000000000000000000000000000000000006e
:0a4e44000000000000000000000064
:204e4e00000000000000000000000000000000000000000000000000000000000000000044
:094e6e000000000000000000003b
:204e770000000000000000000000000000000000000000000000000000000000000000001b
:0a4e97000000000000000000000011
:204ea1000000000000000000000000000000000000000000000000000000000000000000f1
:094ec100000000000000000000e8
:204eca000000000000000000000000000000000000000000000000000000000000000000c8
:0a4eea0000000000000000000000be
:204ef40000000000000000000000000000000000000000000000000000000000000000009e
:094f140000000000000000000094
:204f1d00000000000000000000000000000000000000000000000000000000000000000074
:0a4f3d00000000000000000000006a
:204f4700000200000000000000000000000000000000000000000000000000000000000048
:094f670000000000000000000041
:204f7000000000000000000000000000000000000000000000000000000000000000000021
:0a4f90000000000000000000000017
:204f9a000000000000000000000000000000000000000000000000000000000000000000f7
:094fba00000000000000000000ee
:204fc3000000200000000000000000000000000000000000000000000000000000000000ae
:0a4fe30000000000000000000000c4
:204fed000000000000000000000000000000000000000000000000000000000000000000a4
:09500d000000000000000000009a
:2050160000000000000000000000000000000000000000000000000000000000000000007a
:0a5036000000000000000000000070
:20504000000000000000000000000000000000000000000000000000000000000000000050
:0950600000000000000000000047
:20506900000000000000000000000000000000000000000000000000000000000000000027
:0a508900000000000000000000001d
:205093000000000000000000000000000000000000000000000000000000000000000000fd
:0950b300000000000000000000f4
:2050bc000000000000000000000000000000000000000000000000000000000000000000d4
:0a50dc0000000000000000000000ca
:2050e600000000000000000000c01a4100080008000000000000000000000000000000007f
:09510600000000000000000000a0
:20510f000000000000000000000009a45a00100080000000000000000000000000000000e9
:0a512f000000000000000000000076
:20513900000000000000000000001a410008001000000000000000000000000000000000e3
:095159000000000000000000004d
:20516200000000000000000000000da45a0190000000000000000000000000000000000091
:0a5182000000000000000000000023
:20518c00000000000000000000001a400000000000000000000000000000000000000000a9
:0951ac00000000000000000000fa
:2051b500000000000000000000000da45a00000000000000000000000000000000000000cf
:0a51d5000000000000000000400090
:2051df00000200000000000000001a40000000000000000000000000000000000000000054
:0951ff00000000000000000000a7
:20520800000000000000000000000da45e0000000000000000000000000000000000000077
:0a522800000000000000000000007c
:20523200000000000000000000001a41010000000000000000000000000000000000000000
:0952520000000000000000000053
:20525b00000020000000000000000da44a99800000000000000000000000000000000000ff
:0a527b000000000000000000000029
:20528500000000000000000000001a410100000000000000000000000000000000000000ad
:0952a500000000000000000400fc
:2052ae00000000000000000000000da44a980000000000000000000000000000000000004d
:0a52ce000000000000000000a00036
:2052d800000000000000000000001a40000c00000000000000000000000000000000000050
:0952f800000000000000000000ad
:20530100000000000000000000000da44e001001c0000000000000000000000000000000bc
:0a5321000000000000000000000082
:20532b00000000000000000000081a40000000000000000080000000000000000000000080
:09534b0000000000000000000851
:20535400000000000000000000000da44e000000000000000000000000000000000000003a
:0a53740000000000000000000140ee
:20537e00203000000000000002001a4100080008000000000000000000000000000a0f0039
:09539e00000020000000000000e6
:2053a700854000000000000000200da45e18100080000000000000000000000000afa1e812
:0a53c70000000200000000000008d2
:2053d100800000000000200004001a41000800100000000000000000001000000000000095
:0953f10000004000000000000172
:2053fa000000000000001e0020000da45a01900000000000000000000001c00000000000f8
:0a541a000000000000000000000088
:205424001c4000000000000000001a400000000000000000000000000000000000000000b2
:095444000000000000000000005f
:20544d000ac600000000000000000da45a0000000000000000000000000000000000000064
:0a546d000000000000000000000035
:20547700000000000000000000001a400000000000000000000000000000000000000000bb
:095497004000000000000000c00c
:2054a000000000000000000000000da45e00000000000000000000000000000000000000dd
:0a54c00002000000000000000000e0
:2054ca000080000aa0c0000000001a410100000000000000000117c00000000000000000a4
:0954ea00000000000000000000b9
:2054f30000000002aa1a800000000da44a818000000000000000017d4e000000000000008b
:0a551300600000000000000c000022
:20551d000c0000000000020303001a410100000000000000000000000010000000000000ee
:09553d0000100000000000000055
:20554600844000000000060400300da44a98000000000000000000000000c00000000000f4
:0a5566000000000000000000000833
:205570008034000c31e8c30000001a40000e00000000000000000000000000080000000c03
:095590003000020a9419b0e00099
:2055990000004002c61a800400700da44e000001c00000000000000000000000000000001c
:0a55b9000040070294178800001c50
:2055c30000000004dd24000000081a40000000000000000000000000000000000000000061
:0955e30000000000000078000047
:2055ec00080000028e50406000000da44e0000000000000000000000000000000000000018
:0a560c000000000000000300000091
:20561600200000000000000000001a410008000800000000000000000000000000000000e9
:09563600000000000000008000eb
:20563f00854000000000000000000da45e181000c00000000000000000000000000000008f
:0a565f000000000000000019000c1c
:20566900800000000000000000001a4100080000000000000000000000000000000000003e
:0956890000000000000000800098
:20569200000000000000000000000da45a019000000000000000000000000000000000005c
:0a56b2000000000000000399000052
:2056bc00180000000000000000001a40000c00000000000000000000000000000000000050
:0956dc0000000009200800c000d4
:2056e5000b4000000000000000000da45a001000000000000000000000000000000000003f
:0a570500000000008845f0010000dc
:20570f00002200000000000000001a400000000000000000000000000000000000000000fe
:09572f000000000920090000003f
:20573800000640000000000000000da45e00000000000000000000000000000000000000fc
:0a57580000000000c845f00000004a
:20576200000000000000000000001a410100000000000000000000000000000000000000cb
:09578200000000092018000000dd
:20578b00000030000000000000000da44a81800000000000000000000000000000000000d2
:0a57ab0000000000c844b000000038
:2057b500080000000000000000001a41010000000000000000000000000000000000000070
:0957d50000000009201910000079
:2057de00c44680000000000000000da44a980000000000000000000000000000000000008e
:0a57fe0000000000c844b980000c50
:20580800800000000000000000001a400000000000000000000000000000000000000000a6
:09582800000000092008900000b6
:20583100000000000000000000000da44e000001c000000000000000000000000000000097
:0a58510000000000c844f00a001c2b
:20585b00000200000000000000101a40000000000000000080000000000000000000000041
:09587b00000001092009000000f1
:20588400080000000000000000000da44e00000000000000000000000000000000000000fd
:0a58a40000000000c844f0000000fe
:2058ae00000000000000000000000000000000000000000000000000000000000000001cbe
:0958ce0000002003fc68f0f0006a
:2058d70000000000000000000000000000000000000000000000000000000010000000029f
:0a58f700000003002ff58b81000074
:2059010000000000000000000000000000000000000000000000000000000000025a0e001c
:09592100000000017c2990000047
:20592a00000000000000000000000000000000000000000000000000000000000020a7e8ae
:0a594a0000000000814ff180000012
:205954000000000000000000000000000000000000000000000000000000000002ccd3c0d2
:0959740030000803fc2b58a000d0
:20597d000000000000000000000000000000000000000000000000000000000008284da4e9
:0a599d00004000002bd68b9900009b
:2059a7000002000000000000000000000000000000000000000000000000000002cc1604f6
:0959c700000000017bef018000eb
:2059d0000000000000000000400000000000000000000000000000000000000000284dfa08
:0a59f00000000042023fc00f00005b
:2059fa00000000000000000000000000000000000000000000000000000000000000000489
:095a1a0020000203fcdf00000083
:205a2300000030000000000000000000000000000000000000000000000000000000000231
:0a5a4300064000013bcfc1801c00ab
:205a4d00000000000000000000000000000000000000000000000000000000000a011342d9
:095a6d0000003202d4cfd8000081
:205a760000000000000000000000000000000000000000000000000000000000002a4da1f8
:0a5a9600600002001e8e05000000f3
:205aa0000000000000000000000000000000000000000000000000000000000000000000e6
:095ac000280000017c0911b0006e
:205ac90000600000000000000000000000000000000000000000000000000000000000005d
:0a5ae900000007002bcc1d8a001cf2
:205af300000200000000000000000000000000000000000000000000000000000000000091
:095b130028000003eeec01b000d3
:205b1c00000000000000000000000000000000000000000000000000000000000000000069
:0a5b3c0006c000003ffcd00a000084
:205b460000000000000000000000000000000000000000000000000000000000000000003f
:095b660000000000000000000036
:205b6f00840000000000000000000000000000100000000000000000000000000000000082
:0a5b8f000000000000000000010803
:205b990080000000000000000000000000000000000000000000000000000000000000006c
:095bb900000000000000000000e3
:205bc2000000000000000000000000000000000000000000000000000000000000000000c3
:0a5be20000000000000003000000b6
:205bec000c3800000000000000000000000000000000000000000000000000000000000055
:095c0c000000000000000001c0ce
:205c150004400000000000000000000000000000000000000000000000000000000000002b
:0a5c350000000000000000008000e5
:205c3f00000200000000000000000000000000000000000000000000000000000005080036
:095c5f000000000000000000003c
:205c680000000000000000000000000000000180000000000000000000000000000055e066
:0a5c88000000000000000000000012
:205c92000000000000000000000000000000040000000000000000000000000000000034ba
:095cb20000000000000000008069
:205cbb000000200000000000000000000000000000000000000000000000000000000000a9
:0a5cdb0000000000000000000800b7
:205ce50000000000000000000000000000000000000000000000000000000000000000009f
:095d050000000000000000018014
:205d0e00c000000000000000000000000000000000000000000000000000000000000000b5
:0a5d2e0000000000000000000c0c53
:205d380000000000000000000000000000000000000000000000000000000000000000004b
:095d580040000000000000c00042
:205d6100000000000000000000000000000000000000000000000000000000000000000022
:0a5d81000280000000000581001cf4
:205d8b00000200000000000000000000000000000000000080000000000000000000000076
:095dab000000000c143008000097
:205db4000000000000000000000000000000000000000000000000000000000000000000cf
:0a5dd4000000000181458500080071
:025dde000000c3
:035de00062003f1f
:035de300720080cb
:025de6001100aa
:035de80082000036
:025deb000103b2
:085ded000000000000000000ae
:085df5000000000000000000a6
:085dfd0000000000000000009e
:085e0500000000000000000095
:0261ed000000b0
:0361ef00820080ab
:0261f2000103a7
:0861f4000000000000000000a3
:0861fc0000000000000000009b
:08620400000000000000000092
:08620c0000000000000000008a
:0265f4000000a5
:0265f600110191
:0365f8008200001e
:0265fb0001039a
:0865fd00000000000000000096
:0866050000000000000000008d
:08660d00000000000000000085
:0866150000000000000000007d
:0269fd00000098
:0369ff0082008093
:026a020001038e
:086a040000000000000000008a
:086a0c00000000000000000082
:086a140000000000000000007a
:086a1c00000000000000000072
:026e040000008c
:026e0600110277
:036e080082000005
:026e0b00010381
:086e0d0000000000000000007d
:086e1500000000000000000075
:086e1d0000000000000000006d
:086e2500000000000000000065
:02720d0000007f
:03720f008200807a
:02721200010376
:08721400000000000000000072
:08721c0000000000000000006a
:08722400000000000000000062
:08722c0000000000000000005a
:02761400000074
:0276160011035e
:03761800820000ed
:02761b00010369
:08761d00000000000000000065
:0876250000000000000000005d
:08762d00000000000000000055
:0876350000000000000000004d
:027a1d00000067
:037a1f0082008062
:027a220001035e
:087a240000000000000000005a
:087a2c00000000000000000052
:087a340000000000000000004a
:087a3c00000000000000000042
:027e240000005c
:017e26002239
:027e2700d0c1c8
:027e2900010650
:00000001FF
