:02000000ff00ff
:080002004c6174746963650030
:17000a00694345637562653220323031342e31322e32373035320077
:16002100506172743a2069434534304858314b2d545131343400fc
:1a003700446174653a204d6179203120323031352032303a34383a343200af
:0200510000ffae
:040053007eaa997e6a
:02005700510056
:0200590001059f
:03005b00920020f0
:03005e0062014bf1
:030061007200909a
:0300640082000017
:02006700110086
:02006900010193
:20006b00000000000000000000000000000000000000000000000000000000000000000075
:09008b000000000000000000006c
:2000940000000000000000000000000000000000000000000000000000000000000000004c
:0a00b4000000000000000000000042
:2000be00000000000000000000000000000000000000000000000000000000000000000022
:0900de00000000400000000000d9
:2000e7000000000000000000000000000000000000000000000000000000000000000000f9
:0a01070000000000000000000000ee
:200111000000000000000000000000000000000000000000000000000000000000000000ce
:09013100000000000000000000c5
:20013a000000000000000000000000000000000000000000000000000000000000000000a5
:0a015a00000000000000000000009b
:200164000000000000040000000000001000000000000040000000001000000000000040d7
:0901840000000000000000000072
:20018d00000000000000000000000000000000000000000000000000000000000000000052
:0a01ad000000000000000000000048
:2001b70000000000000c00000000000030000000000000c00000000030000000000000c03c
:0901d7000000000000010000001e
:2001e0000000000000000000000000000000000000000000000000000000000000000000ff
:0a02000000000000000000000000f4
:20020a000000000000000000000000080004000000000000000000000000000000000000c8
:09022a00000000000000000000cb
:20023300000000000000000000000007000040000000000000000000000000000000000064
:0a02530000000000000000000000a1
:20025d00000000000000000000000000000000000000000000000000000000000000000081
:09027d0000000000000000000078
:20028600000000000000000000000000000000000000000000000000000000000000000058
:0a02a600000000000000000000004e
:2002b00000000000000400000000000010000000000000400000000010000000000000408a
:0902d00000000000000100000024
:2002d900000000000000000000000000000000000000000000000000000000000000000005
:0a02f90000000000000000000000fb
:200303000000000000000000000000001c096c000000000000000000000000000000000049
:09032300000000000000000000d1
:20032c00000020000000000000000000000f960000400000000000000000000000000000ac
:0a034c0000000000000000000000a7
:200356000002000000000000002000001c896c000000000000000000000000000000000054
:090376000000000000000000007e
:20037f000000000000000000000800000000960000000000000000000000000000000000c0
:0a039f000000000000400000000014
:2003a90030030000000000000000000654896c0000000000000000000000000000000000b2
:0903c9000000000000000000002b
:2003d200010020000000000000000000202096000000000000000000000000000000000014
:0a03f2000000000000000000000001
:2003fc0000030000000000000000006054896c000000000000000000000000000000000035
:09041c0000000400000018f010bb
:200425000000200000000000000000002020960000000000000000000000000000000000c1
:0a044500000000800000000f00001e
:20044f000000000000000000000000001e896c00000000000000000000000000000000007a
:09046f0000000000000000000084
:200478000000200000000000000000000000960000000000000000000000000000000000ae
:0a049800000000000000000000005a
:2004a20000040000000000000000000016896c00000000000000000000000000000000002b
:0904c20000000000000000000031
:2004cb000002c00000000000000000000000960000000000000000000000000000000000b9
:0a04eb000000000000000000000007
:2004f50000000000000000000000026716896c000000000000000000000000000000000073
:09051500000000000000000000dd
:20051e000000000000000000000000044020960000000000000000000000000000000000c3
:0a053e0000000000000000000000b3
:200548000000000000000000000002061e896c000000000000000000000000000000000078
:090568000000000000000000008a
:200571000000000000000000000000040020960000000000000000000000000000000000b0
:0a0591000000000000000000000060
:20059b00000100000000000000000000008966000000000000000000000000000000000050
:0905bb0000000000000000000037
:2005c40000002000000000000000000000c0692400000000000000000000000000000000aa
:0a05e400000000000000000000000d
:2005ee000001000000000000002000000000000000000000000000000000000000000000cc
:09060e00000000000000000000e3
:2006170000002000000000000008000000000000000000000000000000000000000000009b
:0a06370000000000000000000000b9
:20064100000000000000000000000000000000000000000000000000000000000000000099
:0906610000000000000000000090
:20066a00000020000000000000000000000000000000000000000000000000000000000050
:0a068a000000000000000000000066
:2006940000030000000000000000000000c0f2080000000000000000000000000000000089
:0906b4000000000100000000003c
:2006bd0000000000000000000000000000000f0840000000000000000000000000080000be
:0a06dd000000000000000000000013
:2006e7000000000000000000000002000000000000000000000000000000000000000000f1
:09070700000000000000000000e9
:200710000000200000000000000000040000000000000000000000000000000000000000a5
:0a07300000000000000000000000bf
:20073a0000000000000000000000000000000000000000000000000000000000000000009f
:09075a0000000000000000000096
:20076300000000000000000000000000000000000000000000000000000000000000000076
:0a078300000000000000000000006c
:20078d0000000000000000000000000000000000000000000000000000000000000000004c
:0907ad0000000000000000000043
:2007b600000000000000000000000000000000000000000000000000000000000000000023
:0a07d6000000000000000000000019
:2007e0000000000000000000000000000000000000000000000000000000000000000000f9
:09080000000000000000000000ef
:200809000000000000000000000000000000000000000000000000000000000000080000c7
:0a08290000000000000000000000c5
:200833000000000000000000000000000000000000000000000000000000000000000000a5
:090853000000000000000000009c
:20085c0000002000000000000000000000000000004000000000000000000000000000001c
:0a087c000000000000000000000072
:20088600000200000000000000000000000000000000000000000000000000000000000050
:0908a60000000000000000000049
:2008af00000000000000000000000000000000000000000000000000000000000000000029
:0a08cf00000000000000000000001f
:2008d9000000000000000000000010000000000000000000000000000000000000000000ef
:0908f900000000000000000000f6
:20090200000000000000000000000080000000000000000000000000000000000000000055
:0a09220000000000000000000000cb
:20092c000003000000000000000000000000000000000000000000000000000000000000a8
:09094c00000000000000000000a2
:20095500000000000000000000000000000000000000000000000000000000000000000082
:0a0975000000000000000000000078
:20097f00000000000000000000000000000000000000000000000000000000000000000058
:09099f000000000000000000004f
:2009a80000002000000000000000000000000000000000000000000000000000000000000f
:0a09c8000000000000000000000025
:2009d200000000000000000000000000000000000000000000000000000000000000000005
:0909f200000000000000000000fc
:2009fb000000000000000000000000000000000000000000000000000000000000000000dc
:0a0a1b0000000000000000000000d1
:200a25000000000000000000000000000000000000000000000000000000000000000000b1
:090a4500000000000000000000a8
:200a4e00000000000000000000000000000000000000000000000000000000000000000088
:0a0a6e00000000000000000000007e
:200a780000000000000000000000040000000000000000000000000000000000000000005a
:090a980000000000000000000055
:200aa100000000000000000000000000000000000000000000000000000000000000000035
:0a0ac100000000000000000000002b
:200acb0000000000000000000000000000000000000000000000000000000000000000000b
:090aeb0000000000000000000002
:200af4000000200000000000000200000000000000000000000000000000000000000000c0
:0a0b140000000020000000000000b7
:200b1e000000000000000000000000000000000000000000000000000000000000000000b7
:090b3e00000000000000000000ae
:200b470000000000000000000000000000000000000000000000000000000000000000008e
:0a0b67000000000000000000000084
:200b7100000000000000000000000000000000000000000000000000000000000000000064
:090b91000000000000000000005b
:200b9a0000000000000000000000000000000000000000000000000000000000000000003b
:0a0bba000000000000000000000031
:200bc40000030000000000000000000000000000000000000000000000000000000000000e
:090be40000000000000000000008
:200bed000000000000000000000000000000000000000000000000000000000000000000e8
:0a0c0d0000000000000000000000dd
:200c17000000000000000000000000000000000000000000000000000000000000000000bd
:090c3700000000000000000000b4
:200c4000000020000000000000000000000000000000000000000000000000000000000074
:0a0c6000000000000000000000008a
:200c6a0000000000000000000000000000000000000000000000000000000000000000006a
:090c8a0000000000000000000061
:200c9300000000000000000000000000000000000000000000000000000000000000000041
:0a0cb3000000000000000000000037
:200cbd00000000000000000000000000000000000000000000000000000000000000000017
:090cdd000000000000000000000e
:200ce6000000000000000000000000000000000000000000000000000000000000000000ee
:0a0d060000000000000000000000e3
:200d10000000000000000000000000000000000000000000000000000000000000000000c3
:090d3000000000000000000000ba
:200d390000000000000000000000000000000000000000000000000000000000000000009a
:0a0d59000000000000000000000090
:200d630000010000000000000000000000000000000000000000000000000000000000006f
:090d830000000000000000000067
:200d8c000000200000000000000000000000000000400000000000000000000000000000e7
:0a0dac00000000000000000000003d
:200db60000020000000000000000000000000000001000000000000000000000000000000b
:090dd60000000000000000000014
:200ddf000000000000000000000000000000000000000000000000000000000000000000f4
:0a0dff0000000000000000000000ea
:200e09000000000000000000000000000000000000000000000000000000000000000000c9
:090e2900000000000000000000c0
:200e32000000000000000000000000000000000000000000000000000000000000000000a0
:0a0e52000000000000000000000096
:200e5c00000300000000000000000000000000000000000000000000000000000000000073
:090e7c000000000000000000006d
:200e850000000000000000000000000000000000000000000000000000000000000000004d
:0a0ea5000000000000000000000043
:200eaf00000000000000000000000000000000000000000000000000000000000000000023
:090ecf000000000000000000001a
:200ed8000000200000000000000000000000000000000000000000000000000000000000da
:0a0ef80000000000000000000000f0
:200f02000000000000000000000000000000000000000000000000000000000000000000cf
:090f2200000000000000000000c6
:200f2b000000000000000000000000000000000000000000000000000000000000000000a6
:0a0f4b00000000000000000000009c
:200f550000000000000000000000000000000000000000000000000000000000000000007c
:090f750000000000000000000073
:200f7e00000000000000000000020000000000000000000000020000000000000800000047
:0a0f9e000000002000000000000029
:200fa800000000000000000000000000000000000000000000000000000000000000000029
:090fc80000000000000000000020
:200fd100000000000000000000000000000000000000000000000000000000000000000000
:0a0ff10000000000000000000000f6
:200ffb000000000000000000000000000000000000000000000000000000000000000000d6
:09101b00000000000000000000cc
:2010240000002000000000000000000000000000000000000000000000000000000000008c
:0a10440000000000000000000000a2
:20104e00000000000000000000000000000000000000000000000000000000000000000082
:09106e0000000000000000000079
:20107700000000000000000000000000000000000000000000000000000000000000000059
:0a10970000000000600000000000ef
:2010a10000000000000000000000000000000000000000000000000000000000000000002f
:0910c10000000000000000000026
:2010ca00000000000000000000000000000000000000000000000000000000000000000006
:0a10ea0000000000000000000000fc
:2010f4000003000000000000000000000000000000000000000000000000000000000000d9
:09111400000000000000000000d2
:20111d000000000000000000000000000000000000000000000000000000000000100000a2
:0a113d0000000000000000000000a8
:20114700000000000000000000000000000000000000000000000000000000000000000088
:091167000000000000000000007f
:2011700000002000000000000000000000000000000000000000000000000000000000003f
:0a1190000000000000000000000055
:20119a0000000000000000000000000000000000000000000000000000000000280000000d
:0911ba000000000000000000002c
:2011c30000000000000000000000000000000000000000000000000000000000000000000c
:0a11e3000000000000000000000002
:2011ed000000000000000000000000000000000000000000000000000000000000000000e2
:09120d00000000000000000000d8
:201216000000000000000000000000000000000000000000000000000000000000000000b8
:0a12360000000000000000000000ae
:2012400000000000000000000000000000000000000000000000000000000000000000008e
:0912600000000000000000000085
:20126900000000000000000000000000000000000000000000000000000000000000000065
:0a128900000000000000000000005b
:201293000000000000000000000010000000000000000000000000007c884c0000001900c2
:0912b30000000000000000000032
:2012bc0000002000000000000000000000000000004000000000000038c01242000000a0c6
:0a12dc000000000000000000000008
:2012e600000000000000000000001000000000000000000000e000003c884c00000d8076e5
:0913060016801000000000000038
:20130f0000000000000000000000008000000000000000000000000001c012400000100d0e
:0a132f00017c000000000000000037
:2013390000000000000000000000080000000000000000000040000674884c00000d9b0056
:091359000000000000000000008b
:2013620000000000000000000000014000000000000000000004000020e01240000050f094
:0a1382000000000000000000000061
:20138c0000030000000000000000000000000000000000000000026034884c00000800d2fa
:0913ac00ff4000000000000000f9
:2013b50000000000000000000000000100000000003000000000000401e01240000050055b
:0a13d50063fc0000000000000000af
:2013df0000000000000000000000000000000000000000000000000036884c000000005292
:0913ff003d400000000000000068
:2014080000002000000000000000000000000000000000000000000000c012400000000989
:0a14280043fc00000000000000007b
:20143200000000000000000000000000000000000000000000000200368844000000000096
:0914520000000000000000000091
:20145b0000000000000000000000000000000000000000000000001401c01240000000004a
:0a147b000000000000000000000067
:201485000000000000000000000000000000000000000000000002600000000000010000e4
:0914a5003fc840000000000000f7
:2014ae0000000000000000000000000000000000000000000000000400000000000000001a
:0a14ce0003fc4000000000000000d5
:2014d800000000000000000000000000000000000000000000c003c0000000000000000071
:0914f800000000000000000000eb
:201501000000000000000000000000000000000000380000000c0016000000000000000070
:0a15210000000000000000000000c0
:20152b0000000000000000000000e00640000000000000000000000000000000000000007a
:09154b0000000000206569d54094
:2015540000002000000000000000000038000000000000000000000000000000000000001f
:0a15740000000000004207dda000a7
:20157e00000000000000000000e001e000000000000000000000e0001ec5500390000000e6
:09159e0000000e00000000000036
:2015a70000000000000000000000000000000000000000000000000000105510008000002f
:0a15c7000000000003c00000000057
:2015d1000000000000000000000008028593340000000000000000000000000300000000a1
:0915f10000000000007bee100078
:2015fa00000000000000000000008000436dcc004000000000000000000000003000d00095
:0a161a0000000000800304b7a000e8
:201624000003000000000000000000001cd330000000000000040000000000000000000080
:09164400000000000005c8a00030
:20164d0000000000000000000000000001cecc0000000000000020000000000000001000b2
:0a166d00000000000003810a0000e5
:201677000000000000000000000002038000000000000000000000000000000000000000ce
:091697000000000000000000004a
:2016a00000000000000000000000002c400000000000000000000000280000000000000096
:0a16c0000000000000000000000020
:2016ca000000000000000000000000003483351000000000000000000000000000080100fb
:0916ea00000000400004000000b3
:2016f3000000000000000000000000003bfdcc00000000000000000000000000000070e083
:0a17130000000000000200000000ca
:20171d000000000000000000000001c00000000000000000000000000000000000001edaf3
:09173d00829040000e035ea540fd
:2017460008000000000000000000002e000000000000000000000000000000000000010b41
:0a1766000295000017402f0aa000b2
:20177000000000000000000000c002e04000000000000000000005c00000000300000000af
:0917900000000000200000000030
:201799001000000000000000000c002c340000000000000000000082000000001000000022
:0a17b900000000000242c000000220
:0217c300000024
:0217c500110110
:0217c70001011e
:2017c900000000000000000000000000000000000000000000000000000000000000000000
:0917e900000000000000000000f7
:2017f2000000000000000000000000000000000000000000000000000000000000000000d7
:0a18120000000000000000000000cc
:20181c000000000000000000000000000000000000000000000000000000000000000000ac
:09183c00000000000000000000a3
:20184500000000000000000000000000000000000000000000000000000000000000000083
:0a1865000000000000000000000079
:20186f00000000000000000000000000000000000000000000000000000000000000000059
:09188f0000000000000000000050
:20189800000000000000000000000000000000000000000000000000000000000000000030
:0a18b8000000000000000000000026
:2018c200000000000004000000000000100000000000004000000000100000000000004062
:0918e200000000000001000000fc
:2018eb000000000000000000000000000000000000000000000000000000000000000000dd
:0a190b0000000000000000000000d2
:2019150000000000000c00000000000030000000000000c00000000030000000000000c0c6
:09193500000000000003000000a6
:20193e00000000000000000000000000000000000000000000000000000000000000000089
:0a195e00000000000000000000007f
:2019680000000000000000000000000000000000000000000000000000000000000000005f
:0919880000000000000000000056
:20199100000000000000000000000000000000000000000000000000000000000000000036
:0a19b100000000000000000000002c
:2019bb0000000000000000000000000000000000000000000000000000000000000000000c
:0919db0000000000000000000003
:2019e4000000000000000000000000000000000000000000000000000000000000000000e3
:0a1a040000000000000000000000d8
:201a0e00000000000004000000000000100000000000004000000000100000000000004014
:091a2e00000000000001000000ae
:201a370000000000000000000000000000000000000000000000000000000000000000008f
:0a1a57000000000000000000000085
:201a6100000000000003afc000c000027ebf140800000000000000000000000000000000d8
:091a81000000000000000000005c
:201a8a000000000000003e3e000c000e057ef74040000000000000000000000000000000ac
:0a1aaa000000000000000000000032
:201ab4000000000000db83ec0000000676ed3400000000000000000000000000000000002b
:091ad40000000000000000000009
:201add00000000000001f63c4080000061dbf7408000000000000000000000000000000003
:0a1afd0000000000000000000000df
:201b0700000000000083accc000002643e801400000000000000000000000000000000008b
:091b2700000000000000000000b5
:201b30000000000000013e0ec0000026607e07680000000000000000000000000000000015
:0a1b5000000000000000000000008b
:201b5a0000020000000183ec0000000265eeb40000000000000008000000000040000000a8
:091b7a0000000000000000000062
:201b8300000000000180f63c40800000066fe7418000000000000140000000000000000071
:0a1ba3000000000000000000000038
:201bad00000000000803ad68000001403eaf14800000000000000000000000000000000036
:091bcd000000000000000000000f
:201bd6000000300001183e2b4000002069def7480000000000000000000000000000000057
:0a1bf60000000000000000000000e5
:201c000000000000008da7c8000001429fddb48000000000000000000000000000000000d5
:091c2000000000000000000000bb
:201c290000000000000bf63dc00000206fdcf54800000000000000000000000000000000f5
:0a1c49000000000000000000000091
:201c53000000000018037d6000000002bcc0140000000000000000000000000000000000e7
:091c730000000000000000000068
:201c7c000000000009005f10000e001604ff07490000000000000000000000000000000059
:0a1c9c00000000000000000000003e
:201ca60000020000108da3c8000000001fcfa408000000000000000000000000000000007a
:091cc60000000000000000000015
:201ccf00000000000801763dc000001603dfe740000000000000000000000000000000005a
:0a1cef0000000000000000000000eb
:201cf900000000000087f7c400001400000000000000000000000000000000000000000075
:091d1900000000000000000000c1
:201d2200000000000001377dc00000800000000000000000000000000000000000000000ac
:0a1d42000000000000000000000097
:201d4c0000000000f001a19800000800000000000000000000000000000000000000000045
:091d6c000000000000000000006e
:201d7500000000000000bf1b800000400000000000000000000000000000000000000000b4
:0a1d95000000000000000000000044
:201d9f00000000000087700400000000000000000100000000000000000000000000000028
:091dbf000000000000000000001b
:201dc8000000000001981f41c0000000000000000000000000000000000000000000000042
:0a1de80000000000000000000000f1
:201df20000020000008177ec000000000000000000000000000000000000000000000000eb
:091e1200000000000000000000c7
:201e1b00000000000001f7f8c00000000000000000000000000000000000000000000000f7
:0a1e3b00000000000000000000009d
:201e450000000000500b316800000000000000000000000000000000000000000000000089
:091e650000000000000000000074
:201e6e00000030000500966b400000000000000000000000000000000000000000000000de
:0a1e8e00000000000000000000004a
:201e9800000000000001a3c0000000000000000000000000000000000000000000000000c6
:091eb80000000000000000000021
:201ec100000000000000bf3e00000000000000000000000000000000000000000000000004
:0a1ee10000000000000000000000f7
:201eeb000000000010a9abfc00000000000000002000000000000000000000000000000057
:091f0b00000000000000000000cd
:201f140000000000080a9ec20000000000000000000000000000000000000000000000003b
:0a1f340000000000000000000000a3
:201f3e0000020000d009ab0c000000000000000004000000000000000000000000000000ed
:091f5e000000000000000000007a
:201f67000000000000009ef2c000000000000000000000000000000000000000000000000a
:0a1f87000000000000000000000050
:201f910000000018100b27ec00c002643e9f76000000000000000000000000000000000071
:091fb10000000000000000000027
:201fba0000000000080092bc40040026617af140000000000000000000000000000000003b
:0a1fda0000000000000000000000fd
:201fe40000000000100babec0000000217cdb680028000000000000000000000102000005d
:09200400000000000000000000d3
:20200d00000000000800d2b8c000000003daf54000000000000000000000000002810000cc
:0a202d0000000000000000000000a9
:2020370000000000008d001c000000067c80140000000000000000000000000000000000ca
:0920570000000000000000000080
:202060000000000000195a8040800000647b07414000000000000000000000000000000046
:0a2080000000000000000000000056
:20208a000002000000812b8c0000036006afb400000000000000000000000000030000002d
:0920aa000000000000000000002d
:2020b30000000000018117bdc000001403cde3408000000000000000000000000000000070
:0a20d3000000000000000000000003
:2020dd0000000000500bba9400000002beaf141000000000000000000000000000000000a7
:0920fd00000000000000000000da
:2021060000003000018abeeb4000004e6c5af76800000000000000000000000000000000a2
:0a21260000000000000000000000af
:2021300000000000d0cd02940000014016ddb4000000000000000000000000001020000044
:0921500000000000000000000086
:20215900000000000101dbab4080002003dff5680000000000000000000000000285000038
:0a217900000000000000000000005c
:2021830000000000000db004000001403e8014080000000000000000000000000000000060
:0921a30000000000000000000033
:2021ac000000000000005a81c00e003601fa076100000000000000000000000000000000d1
:0a21cc000000000000000000000009
:2021d60000020000b805b76c0000000297edb490000000000000000000000000030000003a
:0921f600000000000000000000e0
:2021ff00000000000d1853bd400000166fddf54000000000000000000000000000000000b4
:0a221f0000000000000000000000b5
:2022290000000000000b33ec0040000025ce34800000000000000000000000030000000081
:092249000000000000000000008c
:20225200000000000000df7c4004000003caf74100000000000000000000000010000000b8
:0a2272000000000000000000000062
:20227c000000000010a5a168002000002e8d3600018000000000000200000000800010f66a
:09229c00f3004000000000000006
:2022a5000000000008013eab40000086007df74000000000000000007800000000000181b3
:0a22c500e0cd020000000000000060
:2022cf0000000000100b01980000002007c1040000000000000001c0020550000000000037
:0922ef00000000000000000000e6
:2022f800000000000198929b8080001e01683460800000000000003c01dc550000000000f7
:0a23180000000000000000000000bb
:20232200000200000005b38c00000422340f740000000000000401c00000000000000000b3
:0923420000000000000000000092
:20234b0000000000059adefdc0000016064cf163000000000000a0200000000000000000bc
:0a236b000000000000000000000068
:2023750000000000108327c80000000407c3300000000000000000000cfcc0000000800080
:092395000000000000000000003f
:20239e00000030000f015f3dc0000000204b3b000000000000000000024c33000000380024
:0a23be000000000000000000000015
:2023c8000000000008834204000000402405a000000000000000000000000000000000001b
:0923e800000000000000000000ec
:2023f1000000000005019a940080a160695caf00000000000000000000000000000001a002
:0a24110000000000000000000000c1
:20241b0000000000000137ec000002c40d05e00000000000000000000000000000000000c5
:09243b0000000000000000000098
:202444000000000007005f3c400e00202208ad02000000000000000000000000380071c026
:0a246400000000000000000000006e
:20246e0000020000d005b38c40000012b40ff0000400000000000ac0000000000300000062
:09248e0000000000000000000045
:20249700000000000198f3fdc00000160440a500000000000000006000000000000000007d
:0a24b700000000000000000000001b
:2024c10000000000100bfbe400c000003e9f1608000000000040000027ecc0810000800032
:0924e100000000000040000000b2
:2024ea0000000000080092bd400c000e005ff740000000000004000000ee334010001800fe
:0a250a0000000000000600000000c1
:2025140080000000b00d37ec0028e0025d9fb48000000000002003c3c000000080001000d7
:092534000000020000000000009c
:20253d0000000000080013e9c0000000024fa740028000000000001e200000000000198029
:0a255d000000000000000000000074
:20256700000000000087781c000000003ca0760000000000000003e3c000000000000f0032
:0925870000000000000030a0007b
:202590000000000001995ac040000000017f0140000000000000001c000000000000580002
:0a25b00000000000000007ea000030
:2025ba0000000000000d037c000000001ebdb4102000000000000000000000000000800036
:0925da00000000000000000000f8
:2025e3000000080000007bb94080408003daf5408000000000000006000000000000100074
:0a26030000000000000000000000cd
:20260d0000000000008db3fc000001400000000000000000000001678cbcc00000000008b8
:09262d001540000000000000004f
:20263600000030000199de4200008036000000000000000000000214276b3300000000a366
:0a265600f95420000000000000000d
:20266000083000000001ae940000080000000000000000000000004006bcc0831001000081
:092680000000000e000000000043
:20268900048040000008df6b4000038068000000010000000000003461cb33403238800032
:0a26a9000000000000000000000027
:2026b30080000000100db30c0000000280000000000000000000024001055000000f0a3444
:0926d3003d400000002800000059
:2026dc00000000000800de72c00e00006c00000000000000000e000000e8550038000007c2
:0a26fc006815000000000000000057
:202706000002000000800000000a1002800000000000000000000242b4ecc000000000727f
:0927260079400000800000000071
:20272f0004000000018100000000409604000000000000000000000020da330000000005f8
:0a274f007495000014000000000063
:2027590000000000008befdc00c0026027bfb400000000000000000435e1508100050af460
:092779002a8000000000000000ad
:202782000000000000015b38c00c003602c8e3410000000000000000386ad500100098187c
:0a27a200695500000000000000006f
:2027ac0000000000010ffb9c000002426dee340000000000000001602efcc004000000b68e
:0927cc00f680000000004b000043
:2027d50000000000018e57bd400002a0045bf741000000000000003e78fc3300000019e9e1
:0a27f5007c950000000007a800100a
:2027ff00000000000083c3bc000000241680b40002800000000003c3f5e1500000000800d4
:09281f001540000000000000005b
:20282800000000000180bbb94080000660df0160000000000000002664ded50000000011e7
:0a28480079550000000000000000b8
:2028520000020000018d2664000000262cef740028000000000003c3b5c9900000004072e9
:092872002c800000000158ff0059
:20287b0000000000000fbadb80000c06607be350010000000000002007cbc6000000000838
:0a289b0069c500000000378f7000cf
:2028a50000000000000343e8000001428eff240020000000000000241c0f500000010052df
:0928c50070c000001400000000c6
:2028ce0000003000001886bd4000002006def760000000000000001c280afa200030818922
:0a28ee00798d000003600000000077
:2028f80000000000108d43c0000001432cef740000000000000004265dd99083000d80004d
:09291800000000000000000000b6
:2029210000000000081857be8000002005ede36000000000000000867dcbc60030005180f7
:0a2941000000000000068000000006
:20294b00000000000085c168000000102ed02400000000000000034334e550800007000c4a
:09296b002800000000000000003b
:202974000000000000011aabc00e00166ade07500000000000000020005ad4003800000371
:0a299400aa80000001668000000028
:20299e0000020000000f34d000004002aeef740004000000000001c2e599901000098053f0
:0929be00808200001400000000fa
:2029c70000000000000057480000001604efe360000000000000000001cbc6000000d1851d
:0a29e700780000000000000000006e
:2029f100000000000007b7c8000002c01cd6909000000000004001e3c00000002000089ac6
:092a110033000c0000000000007d
:202a1a0000000000001816fdc0000000000d960000000000000c003c68000000000031ff2e
:0a2a3a0030cc004000000000000056
:202a44000000000010800000000002c00000000000000000000001c38000000000008897bd
:092a6400e640000034000000000f
:202a6d0000000000080100000000008000000000001000000000002004000000010079d53d
:0a2a8d003f180000000000000000e8
:202a9700000000020005fd68000002c70105521000000000000003c6b6ecc004000d0f0037
:092ab700154000000000000000c1
:202ac000000000005198faab4000002020fc5500000000000000002076f9330000000015c0
:0a2ae0003154040000000000000063
:202aea000002000000092b8c000005c30000000000100000000003c02500f0000021007cbd
:092b0a0003c040000000000000bf
:202b130000000000000016fdc000410000000000000000000000002639dcf00000048009d6
:0a2b3300fbc00000000000000000dd
:202b3d00000000001009b42c000000001decc0800000000000000022cddcc0000157000053
:092b5d0015440000000000000016
:202b660000003000090016c040000040024c3300000000000000001e00d8334000000007cf
:0a2b86007154000000c000000000c0
:202b9000000000000009abdc000004000000000000000000000003427d00f000000d0010c2
:092bb000280000000400000000f0
:202bb9000000000000187778c001040000000000000000000000000006caf040000079a512
:0a2bd900a8000000036000000000e7
:202be300000000020005ffc0000000000000000000000000000000467c9cc000001310f2d9
:092c0300bc80400000000000004c
:202c0c00000000001000fabe000000000000000000000000000e00207859330002b081a0db
:0a2c2c0063c442e000000000000055
:202c36000002000000ff6d54000005c0000000000000000000000042d6ecc00000058ad7cd
:092c560066400000000140fa0094
:202c5f00000000000198db974000002000000000000000000000002003eb33000010701514
:0a2c7f003f180000000014e0a4005c
:202c8900000000000000000000000240000000000000000000c001c0000000000000009ccc
:092ca9002a880000000000000070
:202cb200000000000000000000000000000000000000000000040004000000000000000bef
:0a2cd20072950000000000000000f1
:202cdc000000000000000000000000000000000000000000000001c00000000000079092ee
:092cfc00d0000000003ef0aa0027
:202d050000000000000000000000000000000000000000000000002000000000000010add1
:0a2d25003800000000603daa5400d1
:202d2f0000000000000000000000000000000000000000000000114000000000000b183cd4
:092d4f002a8800000020000000a9
:202d5800000000000000000000000000000000000000000000000094000000000000189f10
:0a2d7800729500000000400000000a
:202d82000002000000000000000005c34000000000500000000004001d9cc00000000b004f
:092da20000000000000050aa002e
:202dab0000000000000000000000002000000000000200000000000003e9335100000180f5
:0a2dcb0000000000000037aa5400c9
:202dd5000000000000000000000000001e00f00000000000000000200cecc000000080b8c0
:092df5003e8000003428000000bb
:202dfe0000003000000000000000000002ccf000000000000000001e02ea3300000078030f
:0a2e1e00f2814000020040000000b5
:202e2800000000000000000000000010000000002000000000000000000000000001805f7a
:092e4800b30000000000000000ce
:202e5100000000000000000000000000000000000000000000000014000000000000f0e37a
:0a2e7100a0cc0000000000000000eb
:202e7b000000000000000000000000000000000000000000000000038000000000000a1892
:092e9b003e800000042750f50000
:202ea4000000000000000000000000000000000000000000000e0000040000003800018340
:0a2ec400ea8180e002003d8a04006c
:202ece00000200000000000000000000000000000400000000000400000000000000109238
:092eee00d000000000000000000b
:202ef70000000000000000000000000000000000000000000000000060000000001018ad86
:0a2f170038018000000000000000f7
:022f21000000ae
:022f2300110299
:022f25000101a8
:202f270000000000000000000000000000000000000000000000000000000000000000008a
:092f470000000000000000000081
:202f5000000000000000000000000000000000000000000000000000000000000000000061
:0a2f70000000000000000000000057
:202f7a00000000000000000000000000000000000000000000000000000000000000000037
:092f9a000000000000000000002e
:202fa30000000000000000000000000000000000000000000000000000000000000000000e
:0a2fc3000000000000000000000004
:202fcd000000000000000000000000000000000000000000000000000000000000000000e4
:092fed00000000000000000000db
:202ff6000000000000000000000000000000000000000000000000000000000000000000bb
:0a30160000000000000000000000b0
:203020000000000000080000000000002000000000080000000000002000000000000080c0
:0930400000000000000200000085
:20304900000000000000000000000000000000000000000000000000000000000000000067
:0a306900000000000000000000005d
:2030730000000000000c00000000000030000000000c00000000000030000000000000c005
:0930930000000000000300000031
:20309c00000000000000000000000000000000000000000000000000000000000000000014
:0a30bc00000000000000000000000a
:2030c6000000000000000000000000000000000000000000000000000000000000000000ea
:0930e600000000000000000000e1
:2030ef000000000000000000000000000000000000000000000000000000000000000000c1
:0a310f0000000000000000000000b6
:20311900000000000000000000000000000000000000000000000000000000000000000096
:093139000000000000000000008d
:2031420000000000000000000000000000000000000000000000000000000000000000006d
:0a3162000000000000000000000063
:20316c00000000000008000000000000200000000008000000000000200000000000008073
:09318c0000000000000200000038
:2031950000000000000000000000000000000000000000000000000000000000000000001a
:0a31b5000000000000000000000010
:2031bf000000000000000000000000000000000000000000000000000000000000000000f0
:0931df00000000000000000000e7
:2031e80000002000000000000000000000000000000000000800000000000000000000009f
:0a32080000000000000000000000bc
:2032120000000000000000000000000000000000000000000000000000000000000000009c
:0932320000000000000000000093
:20323b00000000000000000000000000000000000000000000000000000000000000000073
:0a325b000000000000000000000069
:20326500000000000000000000000000000000000000000000000000000000000000000049
:0932850000000000000000000040
:20328e00000000000000000000000000000000000000000000000000000000000000000020
:0a32ae000000000000000000000016
:2032b8000003000000000000000000000000000000000000000000000000000000000000f3
:0932d800000000000000000000ed
:2032e1000000000000000000000000000000000000000000000000000000000000000000cd
:0a33010000000000000000000000c2
:20330b000000000000000000000000000000000000000000000000000000000000000000a2
:09332b0000000000000000000099
:20333400000020000000000000000000000000000000000000000000000000000000000059
:0a335400000000000000000000006f
:20335e0000000000000000000000000000000000000000000000000000000000000000004f
:09337e0000000000000000000046
:20338700000000000000000000000000000000000000000000000000000000000000000026
:0a33a700000000000000000000001c
:2033b1000000000000000000000000000000000000000000000000000000000000000000fc
:0933d100000000000000000000f3
:2033da000000000000000000000000000000000000000000000000000000000000000000d3
:0a33fa0000000000000000000000c9
:203404000000000000000000000000000000000000000000000000000000000000000000a8
:093424000000000000000000009f
:20342d0000000000000000000000000000000000000000000000000000000000000000007f
:0a344d000000000000000000000075
:20345700000000000000000000000000000000000000000000000000000000000000000055
:093477000000000000000000004c
:2034800000002000000000000000000000000000000000000000000000000000000000000c
:0a34a0000000000000000000000022
:2034aa00000000000000000000000000000000000000000000000000000000000000000002
:0934ca00000000000000000000f9
:2034d3000000000000000000000000000000000000000000000000000000000000000000d9
:0a34f30000000000000000000000cf
:2034fd000000000000000000000000000000000000000000000000000000000000000000af
:09351d00000000000000000000a5
:20352600000000000000000000000000000000000000000000000000000000000000000085
:0a354600000000000000000000007b
:20355000000300000000000000000000000000000000000000000000000000000000000058
:0935700000000000000000000052
:20357900000000000000000000000000000000000000000000000000000000000000000032
:0a3599000000000000000000000028
:2035a300000000000000000000000000000000000000000000000000000000000000000008
:0935c300000000000000000000ff
:2035cc000000200000000000000000000000000000000000000000000000000000000000bf
:0a35ec0000000000000000000000d5
:2035f6000000000000000000000000000000000000000000000000000000000000000000b5
:09361600000000000000000000ab
:20361f0000000000000000000000000000000000000000000000000000000000000000008b
:0a363f000000000000000000000081
:20364900000000000000000000000000000000000000000000000000000000000000000061
:0936690000000000000000000058
:20367200000000000000000000000000000000000000000000000000000000000000000038
:0a369200000000000000000000002e
:20369c0000000000000000000000000000000000000000000000000000000000000000000e
:0936bc0000000000000000000005
:2036c5000000000000000000000000000000000000000000000000000000000000000000e5
:0a36e50000000000000000000000db
:2036ef000000000000000000000000000000000000000000000000000000000000000000bb
:09370f00000000000000000000b1
:20371800000020000000000000000000000000000000000008000000000000000000000069
:0a3738000000000000000000000087
:20374200000000000000000000000000000000000000000000000000000000000000000067
:093762000000000000000000005e
:20376b0000000000000000000000000000000000000000000000000000000000000000003e
:0a378b000000000000000000000034
:20379500000000000000000000000000000000000000000000000000000000000000000014
:0937b5000000000000000000000b
:2037be000000000000000000000000000000000000000000000000000000000000000000eb
:0a37de0000000000000000000000e1
:2037e8000003000000000000000000000000000000000000000000000000000000000000be
:09380800000000000000000000b7
:20381100000000000000000000000000000000000000000000000000000000000000000097
:0a383100000000000000000000008d
:20383b0000000000000000000000000000000000000000000000000000000000000000006d
:09385b0000000000000000000064
:20386400000020000000000000000000000000000000000000000000000000000000000024
:0a388400000000000000000000003a
:20388e0000000000000000000000000000000000000000000000000000000000000000001a
:0938ae0000000000000000000011
:2038b7000000000000000000000000000000000000000000000000000000000000000000f1
:0a38d70000000000000000000000e7
:2038e1000000000000000000000000000000000000000000000000000000000000000000c7
:09390100000000000000000000bd
:20390a0000000000000000000000000000000000000000000000000000000000000000009d
:0a392a000000000000000000000093
:20393400000000000000000000000000000000000000000000000000000000000000000073
:093954000000000000000000006a
:20395d0000000000000000000000000000000000000000000000000000000000000000004a
:0a397d000000000000000000000040
:20398700000000000000000000000000000000000000000000000000000000000000000020
:0939a70000000000000000000017
:2039b0000000200000000000000000000000000000000000000000000000000000000000d7
:0a39d00000000000000000000000ed
:2039da000000000000000000000000000000000000000000000000000000000000000000cd
:0939fa00000000000000000000c4
:203a03000000000000000000000000000000000000000000000000000000000000000000a3
:0a3a23000000000000000000000099
:203a2d00000000000000000000000000000000000000000000000000000000000000000079
:093a4d0000000000000000000070
:203a5600000000000000000000000000000000000000000000000000000000000000000050
:0a3a76000000000000000000000046
:203a8000000300000000000000000000000000000000000000000000000000000000000023
:093aa0000000000000000000001d
:203aa9000000000000000000000000000000000000000000000000000000000000000000fd
:0a3ac90000000000000000000000f3
:203ad3000000000000000000000000000000000000000000000000000000000000000000d3
:093af300000000000000000000ca
:203afc0000002000000000000000000000000000000000000000000000000000000000008a
:0a3b1c00000000000000000000009f
:203b260000000000000000000000000000000000000000000000000000000000000000007f
:093b460000000000000000000076
:203b4f00000000000000000000000000000000000000000000000000000000000000000056
:0a3b6f00000000000000000000004c
:203b790000000000000000000000000000000000000000000000000000000000000000002c
:093b990000000000000000000023
:203ba200000000000000000000000000000000000000000000000000000000000000000003
:0a3bc20000000000000000000000f9
:203bcc000000000000000000000000000000000000000000000000000000000000000000d9
:093bec00000000000000000000d0
:203bf5000000000000000000000000000000000000000000000000000000000000000000b0
:0a3c150000000000000000000000a5
:203c1f00000000000000000000000000000000000000000000000000000000000000000085
:093c3f000000000000000000007c
:203c4800000020000000000000000000000000000000000008000000000000000000000034
:0a3c68000000000000000000000052
:203c7200000000000000000000000000000000000000000000000000000000000000000032
:093c920000000000000000000029
:203c9b00000000000000000000000000000000000000000000000000000000000000000009
:0a3cbb0000000000000000000000ff
:203cc5000000000000000000000000000000000000000000000000000000000000000000df
:093ce500000000000000000000d6
:203cee000000000000000000000000000000000000000000000000000000000000000000b6
:0a3d0e0000000000000000000000ab
:203d1800000300000000000000000000000000000000000000000000000000000000000088
:093d380000000000000000000082
:203d4100000000000000000000000000000000000000000000000000000000000000000062
:0a3d61000000000000000000000058
:203d6b00000000000000000000000000000000000000000000000000000000000000000038
:093d8b000000000000000000002f
:203d94000000200000000000000000000000000000000000000000000000000000000000ef
:0a3db4000000000000000000000005
:203dbe000000000000000000000000000000000000000000000000000000000000000000e5
:093dde00000000000000000000dc
:203de7000000000000000000000000000000000000000000000000000000000000000000bc
:0a3e070000000000000000000000b1
:203e1100000000000000000000000000000000000000000000000000000000000000000091
:093e310000000000000000000088
:203e3a00000000000000000000000000000000000000000000000000000000000000000068
:0a3e5a00000000000000000000104e
:203e640000000000000000000000000000000000000000000000000000000000000000003e
:093e840000000000000000000035
:203e8d00000000000000000000000000000000000000000000000000000000000000000015
:0a3ead00000000000000000000000b
:203eb7000000000000000000000000000000000000000000000000000000000000000000eb
:093ed700000000000000000000e2
:203ee0000000200000000000000000000000000000000000000000000000000000000000a2
:0a3f000000000000000000000000b7
:203f0a00000000000000000000000000000000000000000000000000000000000000000097
:093f2a000000000000000000008e
:203f330000000000000000000000000000000000000000000000000000000000000000006e
:0a3f53000000000000000000000064
:203f5d00000000000000000000000000000000000000000000000000000000000000000044
:093f7d000000000000000000003b
:203f860000000000000000000000000000000000000000000000000000000000000000001b
:0a3fa6000000000000000000000011
:203fb0000003000000000000000000000000000000000000000000000000000000000000ee
:093fd000000000000000000000e8
:203fd9000000000000000000000000000000000000000000000000000000000000000000c8
:0a3ff90000000000000000000000be
:2040030000000000000000000000000000000000000000000000000000000000000000009d
:0940230000000000000000000094
:20402c00000020000000000000000000000000000000000000000000000000000000000054
:0a404c00000000000000000000006a
:2040560000000000000000000000000000000000000000000000000000000000000000004a
:0940760000000000000000000041
:20407f00000000000000000000000000000000000000000000000000000000000000000021
:0a409f000000000000000000000017
:2040a9000000000000000000000000000000000000000000000000000000000000000000f7
:0940c900000000000000000000ee
:2040d2000000000000000000000000000000000000000000000000000000000000000000ce
:0a40f20000000000000000000000c4
:2040fc000000000000000000000000000000000000000000000000000000000000000000a4
:09411c000000000000000000009a
:2041250000000000000000000000000000000000000000000000000000000000000000007a
:0a4145000000000000000000000070
:20414f00000000000000000000000000000000000000000000000000000000000000000050
:09416f0000000000000000000047
:204178000000200000000000000000000000000000000000080000000000000000000000ff
:0a41980000200000000000000000fd
:2041a2000000000000000000000000000000000000000000000000000000000000000000fd
:0941c200000000000000000000f4
:2041cb000000000000000000000000000000000000000000000000000000000000000000d4
:0a41eb0000000000000000000000ca
:2041f5000000000000000000000000000000000000000000000000000000000000000000aa
:09421500000000000000000000a0
:20421e00000000000000000000000000000000000000000000000000000000000000000080
:0a423e000000000000000000000076
:20424800000300000000000000000000000000000000000000000000000000000000000053
:094268000000000000000000004d
:2042710000000000000000000000000000000000000000000000000000000000000000002d
:0a4291000000000000000000000023
:20429b00000000000000000000000000000000000000000000000000000000000000000003
:0942bb00000000000000000000fa
:2042c4000000200000000000000000000000000000000000000000000000000000000000ba
:0a42e40000000000000000000000d0
:2042ee000000000000000000000000000000000000000000000000000000000000000000b0
:09430e0000300000000000000076
:20431700000000000000000000000000000000000000000000000000000000000000000086
:0a433700000000000000000000007c
:2043410000000000000000000000000000000000000000000000000000000000000000005c
:0943610000000000000000000053
:20436a00000000000000000000000000000000000000000000000000000000000000000033
:0a438a000000000000000000000029
:20439400000000000000000000000000000000000000000000000000000000000000000009
:0943b400005000000000000000b0
:2043bd000000000000000000000000000000000000000000000000000000000000000000e0
:0a43dd0000000000000000000000d6
:2043e700000000000000000000000000000000000000000000000000000000000000002690
:094407000000000000008000002c
:2044100000002000000000000000000000000000000000000000000000000000000000016b
:0a443000400000000000050000003d
:20443a00000000000000000000000000000000000000000000000000000000000000000062
:09445a006c0000000000001001dc
:20446300c00000000000000000000000000000000000000000000000000000000000000178
:0a448300c280000000000d080000d8
:20448d000000000000000000000000000000000000000000000000000000000000af170049
:0944ad000000000a135c8000000d
:2044b60080000000000000000000000000000000000000000000000000000000000af080ec
:0a44d60000000000b31ef100000812
:2044e00000030000000000000000000000000000000000000000000000000000000a1f2070
:0945000000000000000000e000d2
:2045090000000000000000000000000000000000000000000000000000000000008000f51d
:0a4529004000000000000000000048
:20453300000000000000000000000000000000000000000000000000000000000000001e4a
:094553000000000a93ef000000d3
:20455c0000002000000000000000000000000000000000000000000000000000000000001f
:0a457c0000000000807f80000000b6
:204586000000000000000000000000000000000000000000000000000000000080ff9a609c
:0945a6006000000829df81a0007b
:2045af0000000000000000000000000000000000000000000000000000000000000fb16cc0
:0a45cf00400000009682c5000000c5
:2045d9000000000000000000000000000000000000000000000000000000000084efde0071
:0945f9000000000a13fcd80000c8
:2046020000000000000000000000000000000000000000000000000000000000000ff1a4f4
:0a46220000000000b33ef5000000a8
:20462c0000000000000000000000000000000000000000000000000000000000000000006e
:09464c000000000814f8d1800000
:204655008000000000000000000000000000000000000000000000000000000000000000c5
:0a46750000000002c1430100000c28
:02467f00000039
:02468100110323
:02468300010133
:20468500000000000000000000000000000000000000000000000000000000000000000015
:0946a5000000000000000000000c
:2046ae000000000000000000000000000000000000000000000000000000000000000000ec
:0a46ce0000000000000000000000e2
:2046d8000000000000000000000000000000000000000000000000000000000000000000c2
:0946f800000000000000000000b9
:20470100000000000000000000000000000000000000000000000000000000000000000098
:0a472100000000000000000000008e
:20472b0000000000000000000000000000000000000000000000000000000000000000006e
:09474b0000000000000000000065
:20475400000000000000000000000000000000000000000000000000000000000000000045
:0a477400000000000000000000003b
:20477e0000000000000800000000000020000000000800000000000020000000000000804b
:09479e0000000000000200000010
:2047a7000000000000000000000000000000000000000000000000000000000000000000f2
:0a47c70000000000000000000000e8
:2047d10000000000000c00000000000030000000000c00000000000030000000000000c090
:0947f100000000000003000000bc
:2047fa0000000000000000000000000000000000000000000000000000000000000000009f
:0a481a000000000000000000000094
:20482400000000000000000000000000000000000000000000000000000000000000000074
:094844000000000000000000006b
:20484d0000000000000000000000000000000000000000000000000000000000000000004b
:0a486d000000000000000000000041
:20487700000000000000000000000000000000000000000000000000000000000000000021
:0948970000000000000000000018
:2048a0000000000000000000000000000000000000000000000000000000000000000000f8
:0a48c00000000000000000000000ee
:2048ca000000000000080000000000002000000000080000000000002000000000000080fe
:0948ea00000000000002000000c3
:2048f3000000000000000000000000000000000000000000000000000000000000000000a5
:0a491300000000000000000000009a
:20491d0000000000000000000000000000000000000000000000000000000000000000007a
:09493d0000000000000000000071
:20494600000000000000000000000000000000000000000000000000000000000000000051
:0a4966000000000000000000000047
:20497000000000000000000000000000000000000000000000000000000000000000000027
:094990000000000000000000001e
:204999000000000000000000000000000000000000000000000000000000000000000000fe
:0a49b90000000000000000000000f4
:2049c3000000000000000000000000000000000000000000000000000000000000000000d4
:0949e300000000000000000000cb
:2049ec000000000000000000000000000000000000000000000000000000000000000000ab
:0a4a0c0000000000000000000000a0
:204a160000020000000000000000000000000000000000000000000000000000000000007e
:094a360000000000000000000077
:204a3f00000000000000000000000000000000000000000000000000000000000000000057
:0a4a5f00000000000000000000004d
:204a690000000000000000000000000000000000000000000000000000000000000000002d
:094a890000000000000000000024
:204a92000000300000000000000000000000000000000000000000000000000000000000d4
:0a4ab20000000000000000000000fa
:204abc000000000000000000000000000000000000000000000000000000000000000000da
:094adc00000000000000000000d1
:204ae5000000000000000000000000000000000000000000000000000000000000000000b1
:0a4b050000000000000000000000a6
:204b0f00000000000000000000000000000000000000000000000000000000000000000086
:094b2f000000000000000000007d
:204b380000000000000000000000000000000000000000000000000000000000000000005d
:0a4b58000000000000000000000053
:204b6200000200000000000000000000000000000000000000000000000000000000000031
:094b82000000000000000000002a
:204b8b0000000000000000000000000000000000000000000000000000000000000000000a
:0a4bab000000000000000000000000
:204bb5000000000000000000000000000000000000000000000000000000000000000000e0
:094bd500000000000000000000d7
:204bde000000000000000000000000000000000000000000000000000000000000000000b7
:0a4bfe0000000000000000000000ad
:204c080000000000000000000000000000000000000000000000000000000000000000008c
:094c280000000000000000000083
:204c3100000000000000000000000000000000000000000000000000000000000000000063
:0a4c51000000000000000000000059
:204c5b00000000000000000000000000000000000000000000000000000000000000000039
:094c7b0000000000000000000030
:204c8400000000000000000000000000000000000000000000000000000000000000000010
:0a4ca4000000000000000000000006
:204cae000002000000000000000000000000000000000000000000000000000000000000e4
:094cce00000000000000000000dd
:204cd7000000000000000000000000000000000000000000000000000000000000000000bd
:0a4cf70000000000000000000000b3
:204d0100000000000000000000000000000000000000000000000000000000000000000092
:094d210000000000000000000089
:204d2a00000030000000000000000000000000000000000000000000000000000000000039
:0a4d4a00000000000000000000005f
:204d540000000000000000000000000000000000000000000000000000000000000000003f
:094d740000000000000000000036
:204d7d00000000000000000000000000000000000000000000000000000000000000000016
:0a4d9d00000000000000000000000c
:204da7000000000000000000000000000000000000000000000000000000000000000000ec
:094dc700000000000000000000e3
:204dd0000000000000000000000000000000000000000000000000000000000000000000c3
:0a4df00000000000000000000000b9
:204dfa00000200000000000000000000000000000000000080000000000000000000000017
:094e1a000000000000000000008f
:204e230000000000000000000000000000000000000000000000000000000000000000006f
:0a4e43000000000000000000000065
:204e4d00000000000000000000000000000000000000000000000000000000000000000045
:094e6d000000000000000000003c
:204e760000000000000000000000000000000000000000000000000000000000000000001c
:0a4e96000000000000000000000012
:204ea0000000000000000000000000000000000000000000000000000000000000000000f2
:094ec000000000000000000000e9
:204ec9000000000000000000000000000000000000000000000000000000000000000000c9
:0a4ee90000000000000000000000bf
:204ef30000000000000000000000000000000000000000000000000000000000000000009f
:094f130000000000000000000095
:204f1c00000000000000000000000000000000000000000000000000000000000000000075
:0a4f3c00000000000000000000006b
:204f4600000200000000000000000000000000000000000000000000000000000000000049
:094f660000000000000000000042
:204f6f00000000000000000000000000000000000000000000000000000000000000000022
:0a4f8f000000000000000000000018
:204f99000000000000000000000000000000000000000000000000000000000000000000f8
:094fb900000000000000000000ef
:204fc20000003000000000000000000000000000000000000000000000000000000000009f
:0a4fe20000000000000000000000c5
:204fec000000000000000000000000000000000000000000000000000000000000000000a5
:09500c000000000000000000009b
:2050150000000000000000000000000000000000000000000000000000000000000000007b
:0a5035000000000000000000000071
:20503f00000000000000000000000000000000000000000000000000000000000000000051
:09505f0000000000000000000048
:20506800000000000000000000000000000000000000000000000000000000000000000028
:0a508800000000000000000000001e
:205092000002000000000000000000000000000000000000000000000000000000000000fc
:0950b200000000000000000000f5
:2050bb000000000000000000000000000000000000000000000000000000000000000000d5
:0a50db0000000000000000000000cb
:2050e5000000000000000000000000000000000000000000000000000000000000000000ab
:09510500000000000000000000a1
:20510e00000000000000000000000000000000000000000000000000000000000000000081
:0a512e000000000000000000000077
:20513800000000000000000000000000000000000000000000000000000000000000000057
:095158000000000000000000004e
:2051610000000000000000000000000000000000000000000000000000000000000000002e
:0a5181000000000000000000000024
:20518b00000000000000000000000000000000000000000000000000000000000000000004
:0951ab00000000000000000000fb
:2051b4000000000000000000000000000000000000000000000000000000000000000000db
:0a51d40000000000000000000000d1
:2051de000002000000000000000000000000000000000000000000000000000000000000af
:0951fe00000000000000000000a8
:20520700000000000000000000000000000000000000000000000000000000000000000087
:0a522700000000000000000000007d
:2052310000000000000000000000000000000000000000000000000000000000000000005d
:0952510000000000000000000054
:20525a00000030000000000000000000000000000000000000000000000000000000000004
:0a527a00000000000000000000002a
:2052840000000000000000000000000000000000000000000000000000000000000000000a
:0952a40000000000000000000001
:2052ad000000000000000000000000000000000000000000000000000000000000000000e1
:0a52cd0000000000000000000000d7
:2052d7000000000000000000000000000000000000000000000000000000000000000000b7
:0952f700000000000000000000ae
:2053000000000000000000000000000000000000000000000000000000000000000000008d
:0a5320000000000000000000000083
:20532a000002000000000000000000000000000000000000800000000000000000000000e1
:09534a000000000000000000005a
:2053530000000000000000000000000000000000000000000000000000000000000000003a
:0a5373000000000000000000000030
:20537d00000000000000000000000000000000000000000000000000000000000000000010
:09539d0000000000000000000007
:2053a6000000000000000000000000000000000000000000000000000000000000000000e7
:0a53c60000000000000000000000dd
:2053d0000000000000000000000000000000000000000000000000000000000000000000bd
:0953f000000000000000000001b3
:2053f900000000000000000000000000000000000000000000000000000000000000000094
:0a5419000000000000000000000089
:20542300000000000000000000000000000000000000000000000000000000000000000069
:0954430000000000000000000060
:20570e00000200000000000000000000000000000000000000000000000000000000000079
:09572e000000000000000000086a
:20573700000000000000000000000000000000000000000000000000000000000000000052
:0a5757000000000000000000004008
:20576100000000000000000000000000000000000000000000000000000000000000000028
:095781000000000000000000001f
:20578a000000300000000000000000000000000000000000000000000000000000000000cf
:0a57aa0000000000000000000000f5
:2057b4000000000000000000000000000000000000000000000000000000000000000000d5
:0957d400000000000000000000cc
:2057dd000000000000000000000000000000000000000000000000000000000000000000ac
:0a57fd0000000000000000000000a2
:20580700000000000000000000000000000000000000000000000000000000000000000081
:0958270000000000000000000078
:20583000000000000000000000000000000000000000000000000000000000000000000058
:0a585000000000000000000000004e
:20585a000002000000000000000000000000000000000000800000000000000000000000ac
:09587a0000000000000000000025
:20588300000000000000000000000000000000000000000000000000000000000000000005
:0a58a30000000000000000000000fb
:2058ad000000000000000000000000000000000000000000000000000000000000000000db
:0958cd00000000000000000000d2
:2058d6000000000000000000000000000000000000000000000000000000000000000000b2
:0a58f60000000000000000000000a8
:20590000000000000000000000000000000000000000000000000000000000000000000087
:095920000000000000000000007e
:2059290000000000000000000000000000000000000000000000000000000000000000005e
:0a5949000000000000000000000054
:20595300000000000000000000000000000000000000000000000000000000000000000034
:095973000000000000000000002b
:20597c0000000000000000000000000000000000000000000000000000000000000000000b
:0a599c000000000000000000000001
:2059a6000002000000000000000000000000000000000000000000000000000000000000df
:0959c600000000000000000000d8
:2059cf000000000000000000000000000000000000000000000000000000000000000000b8
:0a59ef0000000000000000000000ae
:2059f90000000000000000000000000000000000000000000000000000000000000000008e
:095a190000000000000000000084
:205a2200000030000000000000000000000000000000000000000000000000000000000034
:0a5a4200000000000000000000005a
:205a4c0000000000000000000000000000000000000000000000000000000000000000003a
:095a6c0000000000000000000031
:205a7500000000000000000000000000000000000000000000000000000000000000000011
:0a5a95000000000000000000000007
:205a9f000000000000000000000000000000000000000000000000000000000000000000e7
:095abf00000000000000000000de
:205ac8000000000000000000000000000000000000000000000000000000000000000000be
:0a5ae80000000000000000000000b4
:205af200000200000000000000000000000000000000000000000000000000000000000092
:095b12000000000000000000008a
:205b1b0000000000000000000000000000000000000000000000000000000000000000006a
:0a5b3b000000000000000000000060
:205b4500000000000000000000000000000000000000000000000000000000000005040037
:095b6500400000022f490000007d
:205b6e0000000000000000000000000000000000000000000000000000000000000057b010
:0a5b8e000600000091c60018000098
:205b98000000000000000000000000000000000000000000000000000000000000000000ed
:095bb80001000001543e780000d8
:205bc1000000000000000000000000000000000000000000000000000000000000000000c4
:0a5be10000280000a944e998000024
:205beb0000000000000000000000000000000000000000000000000000000000000000009a
:095c0b0000000002bc29708000b9
:205c1400000000000000000000000000000000000000000000000000000000000000000070
:0a5c3400000000008145c8010000d7
:205c3e00000200000000000000000000000000000000000000000000000000000000002420
:095c5e0000000002a82df09400e2
:205c670000000000000000000000000000000000000000000000000000000000000000021b
:0a5c870000000000a944a8018000fd
:205c91000000000000000000000000000000000000000000000000000000000000000000f3
:095cb1000000000000005000009a
:205cba0000003000000000000000000000000000000000000000000000000000000000009a
:0a5cda000000000000000980000037
:205ce4000000000000000000000000000000000000000000000000000000000000000000a0
:095d040000000001542e10800083
:205d0d00c000000000000000000000000000000000000000000000000000000000000000b6
:0a5d2d0000000000a9449801000cda
:205d370000000000000000000000000000000000000000000000000000000000000000004c
:095d570000000002bc3900a000ac
:205d6000000000000000000000000000000000000000000000000000000000000000000023
:0a5d800000000000814fa001001c8c
:205d8a00000200000000000000000000000000000000000080000000000000000000000077
:095daa0000000001543cb80000a7
:205db3000000000000000000000000000000000000000000000000000000000000000000d0
:0a5dd30000000000a945a19a00009d
:025ddd000000c4
:035ddf0062003f20
:035de200720080cc
:025de5001100ab
:035de70082000037
:025dea000103b3
:085dec000000000000000000af
:085df4000000000000000000a7
:085dfc0000000000000000009f
:085e0400000000000000000096
:0261ec000000b1
:0361ee00820080ac
:0261f1000103a8
:0861f3000000000000000000a4
:0861fb0000000000000000009c
:08620300000000000000000093
:08620b0000000000000000008b
:0265f3000000a6
:0265f500110192
:0365f7008200001f
:0265fa0001039b
:0865fc00000000000000000097
:0866040000000000000000008e
:08660c00000000000000000086
:0866140000000000000000007e
:0269fc00000099
:0369fe0082008094
:026a010001038f
:086a030000000000000000008b
:086a0b00000000000000000083
:086a130000000000000000007b
:086a1b00000000000000000073
:026e030000008d
:026e0500110278
:036e070082000006
:026e0a00010382
:086e0c0000000000000000007e
:086e1400000000000000000076
:086e1c0000000000000000006e
:086e2400000000000000000066
:02720c00000080
:03720e008200807b
:02721100010377
:08721300000000000000000073
:08721b0000000000000000006b
:08722300000000000000000063
:08722b0000000000000000005b
:02761300000075
:0276150011035f
:03761700820000ee
:02761a0001036a
:08761c00000000000000000066
:0876240000000000000000005e
:08762c00000000000000000056
:0876340000000000000000004e
:027a1c00000068
:037a1e0082008063
:027a210001035f
:087a230000000000000000005b
:087a2b00000000000000000053
:087a330000000000000000004b
:087a3b00000000000000000043
:027e230000005d
:017e2500223a
:027e2600cc444a
:027e2800010651
:00000001FF
