:02000000ff00ff
:080002004c6174746963650030
:17000a00694345637562653220323031342e31322e32373035320077
:16002100506172743a2069434534304858314b2d545131343400fc
:1b003700446174653a2041707220313620323031352030303a32393a3138007c
:0200520000ffad
:040054007eaa997e69
:02005800510055
:02005a0001059e
:03005c00920020ef
:03005f0062014bf0
:0300620072009099
:0300650082000016
:02006800110085
:02006a00010192
:20006c00000000000000000000000000000000000000000000000000000000000000000074
:09008c000000000000000000006b
:2000950000000000000000000000000000000000000000000000000000000000000000004b
:0a00b5000000000000000000000041
:2000bf00000000000000000000000000000000000000000000000000000000000000000021
:0900df00000000400000000000d8
:2000e8000000000000000000000000000000000000000000000000000000000000000000f8
:0a01080000000000000000000000ed
:200112000000000000000000000000000000000000000000000000000000000000000000cd
:09013200000000000000000000c4
:20013b000000000000000000000000000000000000000000000000000000000000000000a4
:0a015b00000000000000000000009a
:200165000000000000040000000000001000000000000040000000001000000000000040d6
:0901850000000000000000000071
:20018e00000000000000000000000000000000000000000000000000000000000000000051
:0a01ae000000000000000000000047
:2001b800000000000004000000000000100000000000004000000000100000000000004083
:0901d8000000000000010000001d
:2001e1000000000000000000000000000000000000000000000000000000000000000000fe
:0a02010000000000000000000000f3
:20020b000000000000000000000000000004000000000000000000000000000000000000cf
:09022b00000000000000000000ca
:200234000000000000000000000000078000400000000000000000000000000000000000e3
:0a02540000000000000000000000a0
:20025e00000000000000000000000000000000000000000000000000000000000000000080
:09027e0000000000000000000077
:20028700000000000000000000000000000000000000000000000000000000000000000057
:0a02a700000000000000000000004d
:2002b10000000000000000000000000000000000000000000000000000000000000000002d
:0902d10000000000000000000024
:2002da00000000000000000000000000000000000000000000000000000000000000000004
:0a02fa0000000000000000000000fa
:200304000070000000000000000000000000000000000880000000000000000000000000e1
:09032400000000000000000000d0
:20032d00000000000000000000000000000000000000000930000000000000000000000077
:0a034d0000000000000000000000a6
:2003570000020000000000000000000000000003800b8000400060000000000000000000d6
:0903770000000000000018f00075
:20038000000000000000000000000000000000000000b8d73400000000000000000000009a
:0a03a000000000000040000f010003
:2003aa00200300000000000000000000000000000018008000000000000000000000000078
:0903ca000000000000000000002a
:2003d300000020000000000000000000000000000000f00b3c0000000000000000000000b3
:0a03f3000000000000000000000000
:2003fd00000200000000000000000000000000000003801800000000000000000000000043
:09041d0000000400800000000052
:20042600000020000000000000000000000000000000000500100000000000000000000081
:0a044600000000801000000000001c
:20045000000000000000000000000000000000000008000000000000000000000000000084
:0904700000000000000000000083
:2004790000002000000000000000000000000000000030eb00000000000000000000000028
:0a0499000000000000000000000059
:2004a3000000000000000000000000000000000000000880001000000000000000000000a1
:0904c30000000000000000000030
:2004cc0000000000000000000000000000000000000001910000040000000000000000007a
:0a04ec000000000000000000000006
:2004f6000000000000000000000000000000000000000c800010000000000000000000004a
:09051600000000000000000000dc
:20051f00000000000000000000000000000000000000900700000000000000000000000025
:0a053f0000000000000000000000b2
:2005490000000000000000000000000000000001000700000000000000000000000000008a
:0905690000000000000000000089
:20057200000000000000000000000000000000003000000900000000000000000000000030
:0a059200000000000000000000005f
:20059c000001000000000000000000000000000024000100400000000000000000000000d9
:0905bc0000000000000000000036
:2005c50000000000000000000000000000000000005800fd28000000000000000000000099
:0a05e500000000000000000000000c
:2005ef0000010000000000000000000000000003840800004000000000000000000000001c
:09060f000000000c0000000000d6
:20061800000020000000000000000000000000000040700b2c0000000000000000000000bb
:0a06380000000000000000000000b8
:2006420000000000000000000000000000000000000f1e004000000000000000000000002b
:090662000000000000000000008f
:20066b00000020000000000000000000000000000000f10f2c000000000000000000000023
:0a068b000000000000000000000065
:200695000002000000000000000000000000000000071e100100000000000000000000000d
:0906b500000000008000000000bc
:2006be000000000000000000000000000000000000000997800000000000000000000000fc
:0a06de0000000000140000000000fe
:2006e8000000000000000000000000000000000000000c00000000000000000000000000e6
:09070800000000000000000000e8
:200711000000200000000000000000000000000000000005000000000000000000000000a3
:0a07310000000000000000000000be
:20073b0000000000000000000000000000000000000000000000000000000000000000009e
:09075b000000004c000000000049
:20076400000000000000000000000000000000000000000500000000000000000000000070
:0a0784000000000a00000000000061
:20078e000000000000000000000000000000000000000880000000000000000000000000c3
:0907ae0000000040000000000002
:2007b70000000000000000000000000000000000000010c70000000000000000000000004b
:0a07d7000000000000000000000018
:2007e1000000000000000000000000000000000100010000000000000000000000000000f6
:090801000000000e0000000000e0
:20080a00000000000000000000000000000000001000000f000000000000000000000000af
:0a082a0000000000000000000000c4
:20083400000000000000000000000000000000002800090040000000000000000000000033
:090854000000000000000000009b
:20085d0000000000000000000000000000000000000090f1280000000000000000000000d2
:0a087d000000000800000000000069
:20088700000200000000000000000000000000038000000000000000000000000380000049
:0908a70000000000000000000048
:2008b0000000000000000000000000000000000000000007240000000000000000000000fd
:0a08d000000000000000000000001e
:2008da000000000000000000000000000000000000001e80000a0400000000000000000052
:0908fa00000000000000000000f5
:20090300000000000000000000000000000000000018010b2c000000000000000000000084
:0a09230000000000040000000000c6
:20092d00000200000000000000000000000000000007007808000000000000000000000021
:09094d00000000000000000000a1
:20095600000000000000000000000000000000000000080b0000000000000000000000006e
:0a0976000000000000000000000077
:200980000000000000000000000000000000000000001e00000a040000000000000000002b
:0909a0000000000400000000004a
:2009a900000020000000000000000000000000000000000700000000000000000000000007
:0a09c9000000000000000000000024
:2009d30000000000000000000000000000000000000b8880000000000000000000000000f1
:0909f3000000004c0000000000af
:2009fc0000000000000000000000000000000000000039830000000000000000000000001f
:0a0a1c000000000a000000000000c6
:200a2600000000000000000000000000000000000007000000100000000000000000000099
:090a4600000000000000000000a7
:200a4f0000000000000000000000000000000000080018090000000000000000000000005e
:0a0a6f00000000000000000000007d
:200a79000000000000000000000000000000000300070080000000000000000000200000b3
:090a990000000000000000000054
:200aa200000000000000000000000000000000001000000b00000000000000000004000015
:0a0ac200000000000000000000002a
:200acc00000000000000000000000000000000000400010000000400000000000000010000
:090aec0000000000000000000001
:200af50000000000000000000000400000000000004000f93800000000000000000000f040
:0a0b150000000020000000000000b6
:200b1f00000000000000000000000000000000038408008040080000000000038001801a41
:090b3f0070583ee00000000000c7
:200b4800000000000000000000000000000000000040f00b38004e00000000000000d0fdff
:0a0b6800ed00000a0000000000008c
:200b72000000000000000000001000000000000010081a8040081000000000000000000049
:090b9200000000000078000000e2
:200b9b00000000000000000000000000000000000000f10f2000400000000000000000b02a
:0a0bbb00000000002004000000000c
:200bc500000200000000000000000000000000000007815000000000000000000000010035
:090be50000000040a00000000027
:200bee0000000000000000000000000000000000000000e78000a00000000000000000e000
:0a0c0e000000000214400000000086
:200c18000000000000000000000000000000000000400080000200000000000010000000ea
:090c3800000000001400dac1689c
:200c410000002000000000000000000000000000000a000700004000000000000000000022
:0a0c610000000000002034f800003d
:200c6b000000000000000000000000000000000000501a0000000000000000000000009e61
:090c8b006858400e000000000052
:200c9400000000000000000000000000000000000002910500000000000000000000000d9b
:0a0cb40060080100000000000000cd
:200cbe00000000000000000000000000000000000003808000000000000000000000000013
:090cde00000000000068000000a5
:200ce700000000000000000000000000000000000000900300000000000000000800000052
:0a0d070000000020000000000000c2
:200d110000000000000000000000000000000001000f0880000e000000000000000000001c
:090d310000000040000000000079
:200d3a00000000000000000000000000000000003000f10d0000e00000000000000000008b
:0a0d5a00000000020000000000008d
:200d64000001000000000000000000000000000000000080000001c6bc0e74000005003aaa
:090d840025a000002029eea54085
:200d8d00000000000000000000000000000000000000000f3c008002386981000000000057
:0a0dad008258080000463f05500080
:200db70000020000000000000000000000000003800b888040e003c02d8a5400000d001a6f
:090dd70025a00e0c0000eaf560f5
:200de00000000000000000000000000000000000000079033400001e0060550000389000a8
:0a0e00000258000003c03f0a000082
:200e0a000000000000000000000000000000000000180080404a0007ecaf540000000a1294
:090e2a0025a004010020000000d5
:200e3300000000000000000000000000000000000018f003280c00007050a00000000100ff
:0a0e530002580040080000000000f3
:200e5d000002000000000000000000000000000000078038000000071d8a540080000052e0
:090e7d0025a00000800000000027
:200e8600000000000000000000000000000000000000080580000000306055004000d000ca
:0a0ea6008258040000000000000064
:200eb00000000000000000000000000000000000000000800000006636cf54101000001aa9
:090ed00025a01040000000000004
:200ed9000000200000000000000000000000000000007007000000007870a00000000000da
:0a0ef9000258000200000000000093
:200f03000000000000000000000000000000000000010880000000021f8a540400070a022f
:090f230065a000008e0418d148fd
:200f2c0000000000000000000000000000000000000099e1000000004260aa0000000100de
:0a0f4c002a58000010023c9e20000d
:200f56000000000000000000000000000000000000001c0000000c03c00000000005003a51
:090f760025a040000068eea54032
:200f7f00000000000000000000020000000000000801010300020000200000000800080011
:0a0f9f0002580020000285055000f2
:200fa9000000000000000000000000000000000100070a8000000006378a54000000007209
:090fc90025a00000000400000056
:200fd20000000000000000000000000000000000100000090000000002e0550000000000af
:0a0ff200025804000003c0000000d4
:200ffc000000000000000000000020000000000044080980000003e020c5500000000a328c
:09101c0025a000200000000000e6
:2010250000000000000000000000000000000000054870f92000002602c0aa00000010a093
:0a10450082583004c3c00000000010
:20104f00000000000000000000000000000000038408010000e0000666fa168b8005005a2b
:09106f0025a00e0006074aa54069
:2010780080000000000000000000000000000000004070e3240000007e6b20084030900010
:0a109800025800000002d6055000c7
:2010a2000000000000000000000000000000000010400080000001c6000000000085015ab7
:0910c20025800c00be380be24051
:2010cb00000000000000000000000000000000000082000f2400801400000000000050f07c
:0a10eb00825800c0a64414ed100066
:2010f50000020000000000000000000000000000400f01b00000006614aa5408000d8117b4
:09111500685400402003eaa540e3
:20111e00000000000000000000000000000000000400f0fb00100000256865000000108927
:0a113e007404210a00400e05500061
:2011480000000000000000000000000000000000004f8080000001600000000000000a9e2f
:09116800b058000000000fe24045
:20117100000020000000000000000000000000000002300500008000000000000000019beb
:0a11910022000700a00015dd100089
:20119b0000000000000000000000000000000000280008800000000007ba1610000009d6be
:0911bb001dc0400e16626aa54039
:2011c40000000000000000000000000000000000010000050000000024eb2021000001c1f3
:0a11e4002f74000000025e055000a9
:2011ee0000000000000000000000000000000000400000800000006000000000100001dbd5
:09120e00a01400014024fef5408b
:20121700000000000000000000000000000000000000000700000000000000000000008b25
:0a123700e39407000006170a020006
:2012410000000000000000000000000000000001001108800000000025ac14181000009353
:091261000cc00040a4264aa5407f
:20126a00000000000000000000000000000000001002000d00000000035880008080009fcb
:0a128a00ebfc000a11478405500038
:201294000000000000000000000000001ea054004001808000000207a6bf7000038781da24
:0912b400e0000000162b7e800012
:2012bd000000000000000000000000003c2005380400780d3c00028402e9fd00400050e3d2
:0a12dd003b04600004043dbc2380c4
:2012e700000000000000000000e00000000000038001808040e0046644d080038289807e59
:09130700c10000015402cae0001b
:2013100040000000000000000000000000000000000008032000029e7ac8000000007007f9
:0a133000b00000040360179801806c
:20133a0000000000000000000040020000000000000000804000b00000000000002100dae6
:09135a00e01800014027da8100cf
:2013630000000000000000000004000400000000000800033c000894000000000005f0a3e7
:0a1383003b0400000b4276b82290f4
:20138d0000020000000000000000000000000000400718380000020666fa160428198192d1
:0913ad009dc00041002a6b800084
:2013b600400000000000000000000000000000000400010381000e043edb01010102f0d559
:0a13d60033b8040a03441dcd029051
:2013e0000000000000000000000000000000000040070e8000000006b6fa54000027805a0d
:091400008cc00000002c4a000021
:2014090000002000000000000000000000000000040208050000009401c865010005500375
:0a142900fffc0000a0029d0050002f
:20143300000000000000000000000000000000000011010000000407c6eff200000780fb53
:09145300e9505000166b4ea02078
:20145c0000000000000000000000000000000000000210db000004a47dc0fa000001500350
:0a147c0022000000000017a812046f
:201486000000000000000000000000000000000000001a0000000162befa5410000188fb29
:0914a600a04440003c6bd8c101d8
:2014af0000000000000000000000000000000000000200010000083c00e865000000d1a711
:0a14cf0065402000016284b8008827
:2014d9000000000000000000000000000000000340138c00000001e047ad141000871d1b59
:0914f900d4044000002f58a11199
:20150200000000000000000000000000240000003402010100000c0221d9f000000159e13a
:0a1522003d0004000142aed0108825
:20152c00000000000000000000000000000000000c0f80000000014024a554040303811605
:09154c00bc000040be67c88040ed
:20155500000000000000000000000000000000000140f8cd240000000140a5000000d8b9d5
:0a15750003fc000204c6458c1000c0
:20157f0000000000000000000000140000000003840d800040e8000000000003810d1e56f7
:09159f003d401e01206bd98110b2
:2015a800000000000000000000000080000000000040f803200004000000000002009000b2
:0a15c80083d480080c4024b82114dd
:2015d2000000000000000000000000000000000008401e8040c2020000000000038818da92
:0915f200abc00000266b6e8148bd
:2015fb0000000000000000000000000000000000010001052c040004000000000000500d38
:0a161b0083fc0000026387aa0000b0
:201625000003000000000000000000000000000000079ff0100001c00000000000400f9755
:0916450083c20043c6024fa1401c
:20164e0000000000000000000000000000000000000000eb00000e02000000000000518fa1
:0a166e00017c00000143f7e1008059
:201678000000000000000000000000000000000000070100000a00004000000010000013dd
:09169800f058006006055afc0040
:2016a10000000000000000000000000000000000000008eb000004002800000002a0000d5b
:0a16c1003a00a10e03628e87c000fc
:2016cb0000000000000000000000000000000000281008000000100000000000000819d6b8
:0916eb001400000140625a814024
:2016f40000000000000000000000000000000000010001010000008000000000000050f70c
:0a1714008294000814001caa008053
:20171e000000000000000000000008000000000000170000000000000000000003a001f6f2
:09173e000000000036644cf510b7
:20174700080000000000000000000140000000000000000100000000000000000004f0cb79
:0a1767008014000000423405a000c9
:20177100000000000000000000000000000000010000008000c801e0000000000087c1ffe7
:09179100615000402002d98140a2
:20179a00100000000000000000000000000000001000000d000c000000000000000058dbc3
:0a17ba002600a00a00402eb82012fd
:0217c400000023
:0217c60011010f
:0217c80001011d
:2017ca000000000000000000000000000000000000000000000000000000000000000000ff
:0917ea00000000000000000000f6
:2017f3000000000000000000000000000000000000000000000000000000000000000000d6
:0a18130000000000000000000000cb
:20181d000000000000000000000000000000000000000000000000000000000000000000ab
:09183d00000000000000000000a2
:20184600000000000000000000000000000000000000000000000000000000000000000082
:0a1866000000000000000000000078
:20187000000000000000000000000000000000000000000000000000000000000000000058
:091890000000000000000000004f
:2018990000000000000000000000000000000000000000000000000000000000000000002f
:0a18b9000000000000000000000025
:2018c300000000000004000000000000100000000000004000000000100000000000004061
:0918e300000000000001000000fb
:2018ec000000000000000000000000000000000000000000000000000000000000000000dc
:0a190c0000000000000000000000d1
:2019160000000000000400000000000010000000000000400000000010000000000000400d
:09193600000000000001000000a7
:20193f00000000000000000000000000000000000000000000000000000000000000000088
:0a195f00000000000000006000001e
:2019690000000000000000000000000000000000000000000000000000000000000000005e
:0919890000000000000000000055
:20199200000000000000000000000000000000000000000000000000000000000000000035
:0a19b200000000000000000000002b
:2019bc0000000000000000000000000000000000000000000000000000000000000000000b
:0919dc0000000000000000000002
:2019e5000000000000000000000000000000000000000000000000000000000000000000e2
:0a1a05000000000000000060000077
:201a0f000000000000000000000000000000000000000000000000000000000000000000b7
:091a2f00000000000000000000ae
:201a380000000000000000000000000000000000000000000000000000000000000000008e
:0a1a58000000000000000000000084
:201a620000000000110dbb0c00c00262778f940100008bf000000000000000000000000045
:091a82000000002000000000003b
:201a8b0000000000081ab3f2c0040026056af540d0001018000000000000000000000000ee
:0a1aab000000000000000000000031
:201ab500000000000009c3dc0000000675dfe68000098070000000000000000000000000b0
:091ad500000000a0000000000068
:201ade00000000000180df3c408000006569e5400000100800000000000000000000000081
:0a1afe0000000004000000000000da
:201b0800000000000107affc000000073580650800031e5000000000000000000000000070
:091b280000000080000000000034
:201b310000000000001ab3c200000000674a0540000081a0000000000000000000000000ee
:0a1b5100000000000000000000008a
:201b5b0000020000008943dc0000000036dfe408000000b00000000000000000000000000f
:091b7b0000000000000000000061
:201b8400000000000181ff3c408000000179e54800200008000000000000000000000000f5
:0a1ba4000000000000000000000037
:201bae00000000000087afc000000142978f940400010078040000000000000000000000a3
:091bce000000000000000000000e
:201bd700000020000001b3fe0000002e6dcaf540000039c580000000000000000000000004
:0a1bf70000000000080000000000dc
:201c0100000000000009f7c400000142b7dfb480000f1072c00000000000000000000000a1
:091c21000000004000000000007a
:201c2a000000000000009f3dc000003675ddb550000081e000000000000000000000000010
:0a1c4a00000000020000000000008e
:201c540000000000009df008000000001d806484040f00b280000000000000000000000011
:091c740000000000000000000067
:201c7d000000000000189f81c00e001603ea054038408008040000000000000000000000f5
:0a1c9d00000000000000000000003d
:201ca700000000001009e3c40000000035dfe480040000530000000000000000030000008b
:091cc70000000100000000000013
:201cd00000000000080a973dc000001e69ffe5410040000804000000000000000000000056
:0a1cf00000000000000000000000ea
:201cfa00000000000087f7ec000000000000000300001070000000000000000000000000dd
:091d1a00000000000000000000c0
:201d230000000000001933e9c000000000000000300139a0000000000000000000000000a1
:0a1d43000000000000000000000096
:201d4d000000000031013ccc0000000000000000000100d00010000000000000000000005b
:091d6d000000000000000000006d
:201d7600000000000008bacec00000000000000000000000000100000000000000000000fc
:0a1d96000000000000000000000043
:201da000000000000007b28000000000000000000003005000000000000000000000000097
:091dc0000000000000000000001a
:201dc900000000000198765080000000000000000000900800000040000000000000000043
:0a1de90000000000000000000000f0
:201df30000020000008fa3c400000000000000000000805000000000000000000000000008
:091e1300000000000000000000c6
:201e1c000000000000017bfdc00000000000000000007008000000000000000000000000f5
:0a1e3c00000000000000000000009c
:201e46000000000050036bc00000000000000000000700380000a00000000000000000001f
:091e660000000000000000000073
:201e6f0000002000000a9fbe00000000000000000000f1c18040004000000000000000001a
:0a1e8f000000000000000000000049
:201e990000000000d0013fc0000000000000000000000033c0000000000000000000000066
:091eb90000000000000000000020
:201ec200000000000000d77e0000000000000000000000e8040000000000000000000000bf
:0a1ee20000000000000000000000f6
:201eec000000000010a1e954000000000000000000000c324000000000000000000000006a
:091f0c00000000000000000000cc
:201f1500000000000d009ed740000000000000003800001800000000000000000008000092
:0a1f350000000000e00000000000c2
:201f3f000000000000092e94000000000000000000000892c000000000000000000000005d
:091f5f0000000000000000000079
:201f68000000000000009eeb4000000000000000000100800400000000000000000000000b
:0a1f8800000000000000000000004f
:201f92000000000010ebe7ec00c0024267afd403000000f000000000000000000000000080
:091fb200000000003400000000f2
:201fbb00000000000801b3bc400c002e07cae541100038000000000000000000000001e0f4
:0a1fdb0000000000020000000000fa
:201fe50000000000108fb7e80000036025bf940400010c7000000000000000000000100032
:09200500000000000000000000d2
:20200e0000000000080d7af9c000001473cdf550000210000000000000000000000001e0de
:0a202e0000000000000000000000a8
:2020380000000000008f401c0004002415a0640c000100100000000000000000000000003f
:0920580000000000003c305500be
:20206100800000000019db804080a806636e054000000000000000000000000000000000e7
:0a2081000000000060004dc5500093
:20208b000002000000ffab6c000080003cedb600000300900000100000000000000000001b
:0920ab0000000000803c00000070
:2020b4000000000000017fbd40008000715af540001080c8000000000000000000000000b7
:0a20d40000000000040040000000be
:2020de00000000005007b6940008014435af66080289007001000000000000000000000c9a
:0920fe00154000000c41facc0071
:2021070000002000018abeeb40004036384ef5400000780300000000000000000000000771
:0a2127007954000020023693308046
:2021310000000000d80d03c0000003c2bebfb40008000032000000000000000000000000b6
:0921510000000000000000000085
:20215a00000000000500f6be008000166dffb5404100380804000000000000000000000030
:0a217a00000000200000000000003b
:20218400000000000001e42c00000002aea5260004070eb280000000000000000000000064
:0921a400000000e0000000000052
:2021ad0000000000000a33c0400e00006fca10503840800004000000000000000000000032
:0a21cd0000000000400000000000c8
:2021d70000000000100fe3e8000401403dbfb59004208072800000000000000000000000e2
:0921f7000000004100340000006a
:202200000000000009987bb9c000002000fdb5500044780800000000000000000000000043
:0a2220000000000a000000000000aa
:20222a0000000000300337d400c00020268fd41300000e10000000043d00f01300008000f8
:09224a0000000080003c0055007a
:20225300000000000018bef9c00c000e00efe550100071d000020000385ef0003000100085
:0a2273000000000041e05ec55000cd
:20227d000000000000af2b0c002000402c9db400804000f000000003c0000000c000007ecd
:09229d00f30a00000240000000f9
:2022a60000000000019bdab2c0000026026af550000200e000000000000000000400580318
:0a22c6002ccd000001c280000000d2
:2022d00000000000308542640000000345b024100000809000000000000000004000000017
:0922f000000000041e00c0aa2039
:2022f900000000000119579b80800000057c075000001000000000000000000000000000d1
:0a2319000000000003e7a1c550001a
:20232300000200000003376c000000002c0df4040050007000000000000000000000000001
:092343000000000004007acc0047
:20234c00000000000000befd400004000258e552010200080000000000000000000001a035
:0a236c0000000000c20694d3300008
:20237600000000001103a7c40000002015baa000038000980000000000000000000000001e
:092396000000000002337dcc00c0
:20239f0000002000098edf3dc000000e014a5d000001388d0020c00000000000000001a08e
:0a23bf000000000000e03d93300034
:2023c90000000000d883420400000142850f000000001092000014000000000000000900bd
:0923e900000000818c2a700f0035
:2023f200000000000501ba94008002b66dcafa00000801c0040000800000000000000010b1
:0a24120000000004640016af000093
:20241c00000000000007b3ec00000020340a5000000f1033c0000800000000000000000032
:09243c0000000000266a4acc00f1
:20244500000000000000f3ed400e000e0040bd22380081e80400010000000000380000003e
:0a2465000000000002623f83300017
:20246f0000000000100363e8000a0542340ff00008008ed3c00000c0000000000000000082
:09248f00000000a1e433eefc01a1
:20249800000000000818bbb9c00044366c40a500010810f8040000000000000000000000f0
:0a24b800000000000e001f8030003d
:2024c200000000001005ffdc00c0000025efd60900008cf000c00000000a0c0300000036cc
:0924e20033000ca03c4000000096
:2024eb0000000000080c5fbc400400000248e540100010080004000000f8a0483000780932
:0a250b0020cd00c4224700000000ac
:2025150080000000008f37ec002000c005afb41820090070002000000000000090200000ab
:09253500000002002c4148bf0027
:20253e00000000000001b2e9c0000020005ab54002313808000000000000000002850000b8
:0a255e000000000002622ca800003b
:2025680000000000008768180000000004e5840403890ed0000003c000000000000080002e
:092588000000000014406ecc00bc
:20259100000000000001df814000000002584050420100c000000000000000000000780024
:0a25b1000000000037c7bd833400ae
:2025bb0040000000000f036c000a000005afe500000000b0000000000000000020000000cf
:0925db00000000000403fbcc0029
:2025e400000000000180d7bd408040800168e550000000080000000000000000000000009c
:0a2604000000000003c2b6b330006e
:20260e0000300000008dbbfc00040d62800000000021107001004000000000000000000063
:09262e00000000008068000000bb
:20263700000030000199dec20000203c04000000000501e50000004400000000000000008a
:0a2657000000000010670000000002
:202661000c00000090056fc0000010000000000000000f32c0c000000000000000000000b8
:0926810000000000242ce8bf0059
:20268a00048000000000fefe00000c1e00000000000079f804040000780000000000000095
:0a26aa000000000802000ea8000066
:2026b40080000000000dbbc00000014000000000040f00b2800003c00000000000000000b5
:0926d400000000060629c0aa005e
:2026dd00000000000000defe000e8036680000003ac08008040e8000000000003800000089
:0a26fd00000000e0034021c550007a
:202707000002000000000000000200c280000000040000d3800000000000000000050a0006
:092727000000004024026ecc0009
:202730000400000000000000000240366c00000000680000000000000000000000283000e1
:0a2750000000000a02002dc334004f
:20275a0000000000008bbfec00c0026026cf94130020007000c0a0000000000000059000e6
:09277a0000000c800000000000ca
:20278300000000000001f33c40040026025bf540300438c00004000000000000000891e061
:0a27a30000000040000000000000ec
:2027ad00000000000183bff80000024655dfb40880010ed00000040000000000000f9f0088
:0927cd000000002814014fcc00ab
:2027d6000000000000097b3940010220665ab5500000001000000000000000000000f1f00d
:0a27f60000000000034307a33000b9
:2028000000000000000383ec0000002404c06500018100b00000002000000000002b0af47e
:092820002a8800000042cebf002e
:20282900400000000198f33c4080000e625b0540000010000000005c00000000000481e0e6
:0a284900395400000002a6c8000088
:2028530000020000b005e1540000002394dfe600000000500000000000000000000f0f3b54
:092873002fc0002154034cbf00ea
:20287c00000000000180bf9740004206027ae550001000e800000000000000000038800b71
:0a289c00ba0000006a0394e800008f
:2028a60000000000000b336c00000162bccf9400000010f8000068000000000000018004f1
:0928c600154000090602c9cc000e
:2028cf000000200001808079c000002e05fbf540400070e10020011e0000000000009007c5
:0a28ef007154000002e004f334000d
:2028f9000000000010016fd00000000014dfb60029800033c0000054000000000000009a3c
:09291900330000000c0000000076
:2029220000000000081807be0000000002deb540000000e804000020780000000000000f48
:0a2942007ccc0002a166000000003a
:20294c0000000000000f4294000000002ec06604000000324000a0000000000000070f0cfa
:09296c00154000009c4000000031
:2029750000000000000092abc00e00166bdb054038000008000e0000000000000000001335
:0a299500795400e00667800000009e
:20299f000000000010033e900000014296dfe40000090f12c0000000340fa2000000005775
:0929bf00b3000000140000000048
:2029c80000000000080057100000003606eee560400a009004020000015c0a400028018dd4
:0a29e800a4cc000002000000000073
:2029f20000000000700b7be40000000000000001000000d0000006c000000003000000044d
:092a12003d4000000002e0050057
:202a1b00000000000800927d400000000000000030001008000000a600000000310038816c
:0a2a3b00e3d440045c0616e000003e
:202a450000000000000000000000000024055010000000700000a000000000000000109335
:092a6500d08200002e2a4f5a0015
:202a6e000000000000000000000000007aeaa540000010080000000600000000000001c818
:0a2a8e000604000003c6f6b5b1000f
:202a980000000000000beb0c0000002000000000000700100000024014ce50000000000071
:092ab800000000804000ffff0057
:202ac100000000000198b2f2c000001c00000000020080880000000003eca44000000000ff
:0a2ae10000000000016034ef7000f7
:202aeb0000020000008923ec000000000000000000000050000002e0010a020000000000f2
:092b0b0000000000003000000091
:202b140000000000018137e9c000014000000000000078080000002e00daa0008030000026
:0a2b340000000000c0078000000050
:202b3e0000000000100bf818000000000000000000001fb0000002c324eba0000000000009
:092b5e00000000003e2a5eda00ce
:202b6700000020000800d2414000000000000000000070fd010000a001f9b540000001c015
:0a2b87000000000000e796ca4500b8
:202b910000000000000937e800c003400000000000209072c00000000000000328001000dc
:092bb100000000061c426802004d
:202bba004000000000187f39c00c042000000000028479e00000000000000000110001a06a
:0a2bda000000000002061780020050
:202be40000000000100bebc000000002c0000000078f90324000004014cb000000070f9ce0
:092c0400169000040034000000e9
:202c0d00000000000800b2fe000e0e00040000003840f9e0040e002002eef140380080df94
:0a2c2d00682920e00140400000008b
:202c37000000000010adb4cc000000000000000004200012c000a0000000000000000000aa
:092c570000000000242800000028
:202c60000080000008003e8ec0000000000000000044000804000000600000000000000090
:0a2c80000000000002060000000042
:202c8a00000000000000000000000000000000030000009000000000000000030000000094
:092caa00000000071628000000dc
:202cb300000000000000000000000000000000001000700800000040000000001000000029
:0a2cd3000000000000468000000031
:202cdd000000000000000000000000000000000000008ff0000000200705500000001000cc
:092cfd00000000a0002aeaff001b
:202d060000000000000000000000000000000000000078f00000000c3258a540003801e0b1
:0a2d260000000004e1606dff708002
:202d3000000000000100000000000000000000000000889000006002250a000000000000d9
:092d50000000000a142aecff0047
:202d590000000000000800000000000000000000000010000000040607c8f5400000000034
:0a2d79000000000426e2fecf708087
:202d8300000200000000000000000000000000000020007000000000050550000000000044
:092da3000000000204025050304f
:202dac0000000000001a00000000000000000000000400080000000600f8a54000000000fe
:0a2dcc0000000000034634a00000e0
:202dd60000000000000000000000034015802000002080d808000040000000000000000025
:092df60000000006020000f500d7
:202dff0000002000000000000000002002680040000171e10000a22000000000000051c0a4
:0a2e1f000000000001478eef500094
:202e2900000000000000c3e8010000000000000000200f92c0c014241505500300050000f2
:092e490000000000143c1005001b
:202e52000000000000003b3e842000000000000000000018040c009438d8a5403000000062
:0a2e72000000000002000f80510074
:202e7c000000000000000000000000c00000000000001f33c000e1c7a70a000001000d00fd
:092e9c000000000140667cfb0807
:202ea5004000000000000000000e00000000000038000098000e00003a7cf54038000010ae
:0a2ec50000000000a807a69fa0006f
:202ecf000000000000000000000000230000000000000f73400000c635055080000080921c
:092eef00c0001002002dfbff00e1
:202ef80000000000000000000000001c00000000000200e0040000202d78a54000003809cd
:0a2f18002c21000000003eff7000b5
:022f22000000ad
:022f2400110298
:022f26000101a7
:202f2800000000000000000000000000000000000000000000000000000000000000000089
:092f480000000000000000000080
:202f5100000000000000000000000000000000000000000000000000000000000000000060
:0a2f71000000000000000000000056
:202f7b00000000000000000000000000000000000000000000000000000000000000000036
:092f9b000000000000000000002d
:202fa40000000000000000000000000000000000000000000000000000000000000000000d
:0a2fc4000000000000000000000003
:202fce000000000000000000000000000000000000000000000000000000000000000000e3
:092fee00000000000000000000da
:202ff7000000000000000000000000000000000000000000000000000000000000000000ba
:0a30170000000000000000000000af
:203021000000000000080000000000002000000000080000000000002000000000000080bf
:0930410000000000000200000084
:20304a00000000000000000000000000000000000000000000000000000000000000000066
:0a306a00000000000000000000005c
:2030740000000000000800000000000020000000000800000000000020000000000000806c
:0930940000000000000200000031
:20309d00000000000000000000000000000000000000000000000000000000000000000013
:0a30bd000000000000000000000009
:2030c7000000000000000000000000000000000000000000000000000000000000000000e9
:0930e700000000000000000000e0
:2030f0000000000000000000000000000000000000000000000000000000000000000000c0
:0a31100000000000000000000000b5
:20311a00000000000000000000000000000000000000000000000000000000000000000095
:09313a000000000000000000008c
:2031430000000000000000000000000000000000000000000000000000000000000000006c
:0a3163000000000000000000000062
:20316d00000000000000000000000000000000000000000000000000000000000000000042
:09318d0000000000000000000039
:20319600000000000000000000000000000000000000000000000000000000000000000019
:0a31b600000000000000000000000f
:2031c0000000000000000000000000000000000000040000000000000000000000000000eb
:0931e0000000000da40e00000027
:2031e90000000000000000000000000000000000001284240000000000000000000000000c
:0a320900000000001a7c0000000025
:2032130000000000000000000000000000000000000600400700000000000000000000004e
:093233000000000da44e00000192
:20323c000000000000000000000000000000000000534c30000000000000000000000000a3
:0a325c00000000001a40000000040a
:2032660000000000000000000000000000000000080400000000000000000000000000003c
:093286000000000da44a980000ac
:20328f00000000000000000000000000000000000072403820000000000000000000000015
:0a32af00000000001a4101000000b9
:2032b9000002000000000000000000000000000010200300000000000000000000000000c0
:0932d9000000000da44a818004ec
:2032e200000000000000000000000000000000000007c038000000000000000000000000cd
:0a330200000000001a4101000080e5
:20330c0000000000000000000000000000000000000400401000000000000000000000004d
:09332c000000000da45e00000089
:20333500000020000000000000000000000000000003003000000000000000000000000025
:0a335500000000001a400000000014
:20335f000000000000000000000000000000000000056040000000000000000000000000a9
:09337f000000000da45a0000003a
:20338800000000000000000000000000000000000002823000000000000000000000000071
:0a33a800000000001a4000000000c1
:2033b2000000000000000000000000000000000000000000000000000000000000000000fb
:0933d2000000000da45a11900046
:2033db000000000000000000000000000000000000030c20000000000000000000000000a3
:0a33fb00000000001a410008000065
:2034050000000000000000000000000000000000000007000200000000000000000000009e
:093425000000000da45e18100067
:20342e000000000000000000000000000000000000038000002000000000000000000000db
:0a344e00000000001a410008000011
:203458000000000000000000000000000000000008040000800000000000000000000000c8
:093478000000000da44e00040048
:2034810000000000000000000000000000000000007280240800000000000000000000000d
:0a34a100000000081a4000000000bf
:2034ab00000000000000000000000000000000000802400087000000000000000000000030
:0934cb000000000da44e000001f8
:2034d4000000000000000000000000000000000000b2ee0008000000000000000000000030
:0a34f400000000001a400000000470
:2034fe000000000000000000000000000000a00008000020000000000000000000000000e6
:09351e000000000da44a98000011
:203527000000000000000000000000000000000000d21c0000000000000000000000000096
:0a354700000000001a41010000001e
:20355100000200000000000000000000000000020031c20000000000000000000000000063
:093571000000000da44a81840051
:20357a00000000000000000000000000000000000007407800000000000000000000000072
:0a359a00000000001a4101002000ab
:2035a400000000000000000000000000000000000003e00000000000000000000000000024
:0935c4000004000da45e000008e3
:2035cd00000020000000000000000000000000000003de00000000000000000000000000dd
:0a35ed00000020001a40000000005a
:2035f700000000000000000000000000000000000005e000000000000000000000000000cf
:093617000000000da45a0000009f
:203620000000000000000000000000000000000000028038000000000000000000000000d0
:0a364000000000001a400000000026
:20364a0000000000000000000000000000000000000440001000000000000000000000000c
:09366a000020000da45a0190009b
:203673000000000000000000000000000000000000024000020000000000000000000000f3
:0a369300000000001a4100080000ca
:20369d00000000000000000000000000000000000004030003000000000000000000000003
:0936bd000000000da45e181000cd
:2036c600000000000000000000000000000000000002400000200000000000000000000082
:0a36e600000000001a410008000077
:2036f0000000000000000000000000000000a00008060000100000000000100000000000ec
:093710000000000da44e000000b1
:203719000000000000000000000000000000000000f21c0002000000000000000000000080
:0a373900000000081a400000000024
:2037430000000000000000000000000000000000000003400700000000000000000000001c
:093763000000000da44e0000015d
:20376c00000000000000000000000000000000000073403800000000000000000000000052
:0a378c00000000001a4000000004d5
:2037960000000000000000000000000000000000080407a040000000000000000000000020
:0937b6000000000da44a98000077
:2037bf00000000000000000000000000000000000053400122000000000000000000000034
:0a37df00000000001a410100000084
:2037e90000020000000000000000000000000000103c070800000000000000000000000063
:093809000000000da44a818400b6
:20381200000000000000000000000000000000000007c000000000000000000000000000cf
:0a383200000000001a4101003800f8
:20383c000000000000000000000000000000014000016000000000000000000000000000ca
:09385c000000000da45e00020052
:2038650000002000000000000000000000000000000282006000000000000000000000003f
:0a388500000000001a4000000000df
:20388f000000000000000000000000000000000000060240000000000000000000000000d1
:0938af000000000da45a00000005
:2038b8000000000000000000000000000000000000030c7000000000000000000000000071
:0a38d800000000001a40000000008c
:2038e200000000000000000000000000000080000000e00640000000000000000000000020
:093902000000000da45a0191001f
:20390b000000000000000000000000000000000000024038234000000000000000000000bf
:0a392b00000000001a41000800002f
:20393500000000000000000000000000000000000007e00003000000000000000000000088
:093955000000000da45e18100032
:20395e000000000000000000000000000000000000023600002000000000000000000000f1
:0a397e00000000001a4100080000dc
:20398800000000000000000000000000000000000000000088000000000000000000000097
:0939a8000000000da44e00000017
:2039b100000000000000000000000000000000000073000008000000000002000000000079
:0a39d100000000081a40000000107a
:2039db00000000000000000000000000000000000804000087000000000000000000000039
:0939fb000000000da44e000001c3
:203a0400000000000000000000000000000000000053c0380800000000000400000000004b
:0a3a2400000000001a40000000043a
:203a2e000000000000000000000000000000800008040000000000000000000000000000ec
:093a4e000000000da44a980000dc
:203a57000000000000000000000000000000040000334000000000000000000000000000d8
:0a3a7700000000001a410100800069
:203a810000020000000000000000000000000000003c0000000000000000000000000000e7
:093aa10000800439a44a00000071
:203aaa00000000000000000000000000000000000806e42400800000000000000000000066
:0a3aca00000000a21a4100000000f5
:203ad400000000000000000000000000000000000005c040000000000000000000000000cd
:093af400000000000000000108c0
:203afd00000020000000000000000000000000c00003c03c000000000000000000000000ca
:0a3b1d00000000000000000000405e
:203b27000000000000000000000000000000000000020000000000000000a00000000000dc
:093b470000000c13c14000000055
:203b50000000000000000000000000000000000000037c380000000000000400000000009a
:0a3b7000000100003c02000000000c
:203b7a00000000000000000000000000000080000007e300000000000000000000000000c1
:093b9a0000000000000001900091
:203ba300000000000000000000000000000004000003be000000000000000000000000003d
:0a3bc3000000000000000008800070
:203bcd0000000000000000000000000000000000000047000200000000000000000000008f
:093bed00000000000000000000cf
:203bf600000000000000000000800000000000000003de41002000000000000000000000ed
:0a3c160000000000000000000000a4
:203c20000000000000000000000000000000000008040000000017d5e000000002a5732072
:093c40000400000b89595010002a
:203c4900000000000000000000000000000000000053c0000000417c30000a00000aa0efb8
:0a3c6900c20000001086cf08000022
:203c730000000000000000000000000000005c0000040000070000000000000002af329651
:093c9300000070089a4e8190c1f6
:203c9c00c00000000000000000000000000002000073403c0000000000000000000050bc4b
:0a3cbc00000000000946bf080000e8
:203cc6000000000000000000000000000000000008000782400000000000000002a57706e9
:093ce6006800300b895870e00001
:203cef000000000000000000000000000000000000d280002200000000f00000080aa0a0ff
:0a3d0f000000030210aead900000aa
:203d1900000200000000000000000000000000001039c2172000000000000000028bd81ec3
:093d3900000000089b5a10000074
:203d4200000000000000000000000000000000000003c2428400000000000000000479bc9d
:0a3d6200200000400947b0000000f7
:203d6c00000000000000000000000000000000000004000410000000000000000000001c03
:093d8c000050000b8b5880000070
:203d95000000200000000000000000000000000000030000020000000000000000000000e9
:0a3db500e02800021086f100000073
:203dbf00000000000000000000000000000010000004c240080000000000000002af3ba03a
:093ddf00b800000014e000101c03
:203de80000000000000000000000000000000000000302300200000000000000000050bf75
:0a3e0800440000a402829f2c010078
:203e1200000000000000000000000000000000000006024030000000000000000000001cfc
:093e32006000000000007980002e
:203e3b00000000000000000000000000000000010003b478014000000000000100000003f2
:0a3e5b004000040000000080001089
:203e650000000000000000000000000000000c000005c710020000000000000002af17800b
:093e8500600000089a7e1800009c
:203e8e0000000000000000000000000000000000000382200020000000900000080050bcab
:0a3eae00000000000947b00000000a
:203eb800000000000000000000000000000000400005c0008000801eb00000800000000097
:093ed800000000000000000200df
:203ee1000000000000000000000000000000000800b25c200800243c0d0000040000000012
:0a3f01000000000000000000410075
:203f0b000000000000000000000000000000010000040780a70000000001001c028e7380c3
:093f2b0000007002fd4c00b00121
:203f3400c0000000000000000000000000000000003224000d0000000000f0000000f77ce7
:0a3f540002c000803fd7c008000043
:203f5e000000000000000000000000000000000008000020000000000781000802aa7380ec
:093f7e0000023013fcca18130004
:203f8700000000000000000000000000000000c000d224010000000000008000c000f0bc77
:0a3fa700000042201ff4d00e41403c
:203fb100000200000000000000000000000020020021c700200000000000000000000000c4
:093fd1000000001be95d80a10065
:203fda0000000000000000000000000000000000000740400400000000000000000000003c
:0a3ffa00000000002bc2bb00000015
:20400400000000000000000000000000000000400005e780000000000000000000000020d0
:094024000000000b8bd881a04cb8
:20402d00000020000000000000000000000000080003e6400080000000000000000000039f
:0a404d00c00000001086f50000001e
:20405700000000000000000800000000000000000000000000000000080014000000000025
:094077000074000b037c8184003d
:2040800000000000000000000000000000000040000240380000000000f000000000000076
:0a40a00000002000314df70fa000d2
:2040aa00000000000000000000000000000001400004000000000000000040000000003e33
:0940ca00640200000000f800008f
:2040d30000000000000000000000000000000008000280000000000000000a000000000039
:0a40f3004280500000000180000030
:2040fd00000000000000000000000000000000000000400003000000000100080000000057
:09411d0000002000000000040075
:20412600000000000000000000000000000000000002c00040a000000000f0008000000067
:0a414600000102000000000000006c
:2041500000000000000000000000da44e0000000080000001081a94dc000000000aa7ea03a
:0941700004000005a45c00040138
:204179000000000000000000000101a40000000000f28000020005403870b000000aa000c5
:0a419900428000101a400000800070
:2041a30000000000000000000000da44e000001c08000068070000000000001c000000004f
:0941c30034500005a44c5000002a
:2041cc000000000000000000000001a40000000000b37c31000000000000010000000000cd
:0a41ec0003c000021a41008b00001e
:2041f60000000000000000000000da44a980a00000040780000000000000140800cc3b967e
:0942160004000015a44c500b40fb
:20421f000000000000000000000001a41010040000b340406000000000000000800ff12d76
:0a423f00c20000001a410080400098
:2042490000020000000000000000da44a81800001064070840000000000e000000000000a4
:0942690004800005a44c000008cb
:204272000000000000000000000001a4101000400007c00000000000000000000000000060
:0a429200029000001a400000a10095
:20429c0000000000000000000000da45e00001400006c000300000000380800000fa764019
:0942bc0000000015a45e50020090
:2042c5000000200000000000000001a40000000000020e02a200000000080400000a50a05a
:0a42e500000000001a400d8b0000dd
:2042ef0000000000000000000000da45a00000000003c04000000000078000000000000066
:09430f0078000005a45800a0107c
:204318000000000000000000000001a40000000000038c3000000000000000000000000021
:0a433800040000001a40001000808d
:2043420000000000000000000000da45a019800000040028100000000000000000ed52a0e8
:094362007c000005a458000008cd
:20436b000000000000000000000001a4100085c00002a4257000000000000000000ff7a651
:0a438b0043c000001a410000214069
:2043950000000000000000000000da45e189000c0001e000430000000000008800000000c7
:0943b50004000005a44a001008f0
:2043be000000000000000000000001a410018400c003ec004020000000000014c0000000c2
:0a43de0003a000001a41000f0100c7
:2043e80000000000000000000000da44e00080400800000080018426a001000000ccb7e0c0
:0944080070000005a45a18140804
:204411000000000000000000000081a40000040800f3c000080000025800a200000ff57d22
:0a443100400000081a410008214075
:20443b0000000000000000000000da44e000001c0004000087000000081a001c000000007e
:09445b0000007025a45c58b001ba
:20446400c000000000000000000001a40000040000d280380800000000f00000000000014c
:0a448400400000001a41050a000084
:20448e0000000000000000000000da44a980000008040000000000000b00480800cc77001d
:0944ae006c000001a4580001c8d3
:2044b7000000000000000000000001a4101000800033ac000000000000500800c00ff5e4c1
:0a44d700028000001a4100000040be
:2044e10000020000000000000000da44a81821010074004000000000000e000000000026d1
:094501007000000a067ad00000e7
:20450a000000000000000000000001a4101000000007c03c00000000000101800000000047
:0a452a0040080020107d9100000001
:2045340000000000000000000000da45e00000400000078000000000000000000000001e83
:0945540060000808167f00000851
:20455d000000200000000000000001a40000000800038078008000000000010000000003f2
:0a457d00e4000800204d800001401a
:2045870000000000000000000000da45a00020000001e000000000000000110000ef1bfe3b
:0945a7006000004206699810044e
:2045b0000000000000000000000001a40000f0000003043800000000000000000007f5ae6d
:0a45d00064000021107cb708008091
:2045da0000000000000000000000da45a01900000001e200000000000000000000eeb76001
:0945fa007900020a057f000000af
:204603000000000000000000000001a4100080c0000302400000000000000014000bbbbac9
:0a462300c7c8000001478000000036
:20462d0000000000000000000000da45e181210c0007e780020000000000000802a536a6c4
:09464d0078000028067900000045
:204656000000000000000000000001a41000800080036e000120000000000000c10a67e3e8
:0a467600e400000010fed300000075
:02468000000038
:02468200110322
:02468400010132
:20468600000000000000000000000000000000000000000000000000000000000000000014
:0946a6000000000000000000000b
:2046af000000000000000000000000000000000000000000000000000000000000000000eb
:0a46cf0000000000000000000000e1
:2046d9000000000000000000000000000000000000000000000000000000000000000000c1
:0946f900000000000000000000b8
:20470200000000000000000000000000000000000000000000000000000000000000000097
:0a472200000000000000000000008d
:20472c0000000000000000000000000000000000000000000000000000000000000000006d
:09474c0000000000000000000064
:20475500000000000000000000000000000000000000000000000000000000000000000044
:0a477500000000000000000000003a
:20477f0000000000000800000000000020000000000800000000000020000000000000804a
:09479f000000000000020000000f
:2047a8000000000000000000000000000000000000000000000000000000000000000000f1
:0a47c80000000000000000000000e7
:2047d2000000000000080000000000002000000000080000000000002000000000000080f7
:0947f200000000000002000000bc
:2047fb0000000000000000000000000000000000000000000000000000000000000000009e
:0a481b000000000000000000000093
:20482500000000000000000000000000000000000000000000000000000000000000000073
:094845000000000000000000006a
:20484e0000000000000000000000000000000000000000000000000000000000000000004a
:0a486e000000000000000000000040
:20487800000000000000000000000000000000000000000000000000000000000000000020
:0948980000000000000000000017
:2048a1000000000000000000000000000000000000000000000000000000000000000000f7
:0a48c10000000000000000000000ed
:2048cb000000000000000000000000000000000000000000000000000000000000000000cd
:0948eb00000000000000000000c4
:2048f4000000000000000000000000000000000000000000000000000000000000000000a4
:0a4914000000000000000000000099
:20491e00000000000000000000000000000000000035c380020000000000000000000000ff
:09493e0000000000000000000070
:204947000000000000000000000000000000010000004038002000000000000000000000b7
:0a4967000000000000000000000046
:204971000000000000000000000000000000000000380400000000000000000000000000ea
:094991000000000000000000001d
:20499a0000000000000000000000000000000000000040200000000000000000000000009d
:0a49ba0000000000000000000000f3
:2049c400000000000000000000000000000000000028234000000000000000000000000048
:0949e400000000000000000000ca
:2049ed000000000000000000000000000000000000001e000000000000000000000000008c
:0a4a0d00000000000000000000009f
:204a17000002000000000000000000000000000000382380000000000000000000000000a2
:094a37000000000000000000c0b6
:204a4000000000000000000000000000000000000000040000000000000000000000000052
:0a4a6000000000000000000000004c
:204a6a0000000000000000000000000000000000803c000000000000000000000000000070
:094a8a0000000000000000000023
:204a9300000020000000000000000000000000000007440000000000000000000000000098
:0a4ab30000000000000000000000f9
:204abd000000000000000000000000000000000003280200000000000000000000000000ac
:094add00000000000000000000d0
:204ae60000000000000000000000000000000000000004200000000000000000000000008c
:0a4b060000000000000000000000a5
:204b1000000000000000000000000000000000000b3803808000000000000000000000003f
:094b30000000000000000000007c
:204b39000000000000000000000000000000000000004000087000000000000000000000a4
:0a4b59000000000000000000000052
:204b6300000000000000000000000000000000000d2c000080000000000000000000000079
:094b8300000080000000000000a9
:204b8c000000000000000000000000000000000000004000080000000000000000000000c1
:0a4bac0000000000000000000000ff
:204bb600000000000000000000000000000000000023400023000000000000000000000059
:094bd600000000000000000000d6
:204bdf000000000000000000000000000000000000006e0204200000000000000000000022
:0a4bff0000000000000000000000ac
:204c0900000000000000000000000000000000000020030000000000000000000000000068
:094c290000000000000000000082
:204c320000000000000000000000000000000000000000040000000000000000000000005e
:0a4c52000000000000000000000058
:204c5c00000000000000000000000000000000000038000000000000000000000000000000
:094c7c000000000000000000002f
:204c850000000000000000000000000000000000000000020000000000000000000000000d
:0a4ca5000000000000000000000005
:204caf00000200000000000000000000000000000029c028000000000000000000000000d2
:094ccf00000000000000000000dc
:204cd8000000000000000000000000000000000000001c0100000000000001c000000000de
:0a4cf80000000000000000000000b2
:204d020000000000000000000000000000000800007c040000000000000000000000000009
:094d220000000000000000000088
:204d2b000000200000000000000000000000000004034422000000000000000000000000db
:0a4d4b00000000000000000000005e
:204d5500000000000000000000000000000000000f25c0000000000000000000000000004a
:094d750000000000000000000035
:204d7e000000000000000000000000000000000000804070000000000000000000000000e5
:0a4d9e00000000000000000000000b
:204da800000000000000000000000000000000000b2e400000000000000000000000000072
:094dc800000000000000000000e2
:204dd100000000000000000000000000000000000000003000700000000000000000000022
:0a4df10000000000000000000000b8
:204dfb00000000000000000000000000000000000d27c38000000000000000000000000021
:094e1b000000000000000000008e
:204e24000000000000000000000000000000000000802004000000000000000000000000ca
:0a4e44000000000000000000000064
:204e4e00000000000000000000000000000000000020000002000000000000000000000022
:094e6e000000000000000000003b
:204e77000000000000000000000000000000080000004000003000000000000000000000a3
:0a4e97000000000000000000000011
:204ea1000000000000000000000000000000000000280000000000000000000000000000c9
:094ec100000000000000000000e8
:204eca00000000000000000000000000000000000000402000000000000000000000000068
:0a4eea0000000000000000000000be
:204ef4000000000000000000000000000000000000280384000000000000000000000000ef
:094f140000000000000000000094
:204f1d0000000000000000000000000000000000000000000500000000000000000000006f
:0a4f3d00000000000000000000006a
:204f47000002000000000000000000000000000000380240200000000000000000000000ae
:094f670001000000000000000040
:204f7000000000000000000000000000000000000000040004000000000000000000000019
:0a4f900000200000000000000000f7
:204f9a0000000000000000000000000000000000002dc00008000000000000000000000002
:094fba00000000000000000000ee
:204fc300000020000000000000000000000000000806443820000000000000000000000004
:0a4fe30000000000000000000000c4
:204fed00000000000000000000000000000000000130024000000000000000000000000031
:09500d0000000000000000000892
:2050160000000000000000000000000000000000000000000000000000000000000000007a
:0a5036000000000000000000004030
:20504000000000000000000000000000000000000b2407808000000000000000000000001a
:0950600000000000000000000047
:2050690000000000000000000000000000000000000000200870000000000000000000008f
:0a508900000000000000000000001d
:20509300000000000000000000000000000000000d2443808000000000001c00000000006d
:0950b300000000000000000000f4
:2050bc000000000000000000000000000000000000801c0008000000000000000000000030
:0a50dc0000000000000000000000ca
:2050e600000000000000000000000000000000000030040003000000000000000000000073
:0951060000003000cefc30c000b6
:20510f000000000000000000000000000000000000004038052000000000000000000000e3
:0a512f00000002003316980800008b
:20513900000000000000000000000000000000000034c0002400000000000000000000003e
:0951590020004823d40070d1c0ed
:205162000000000000000000000000000000000000000070050000000000000000000000b8
:0a518200004000003d5fa0000000a7
:20518c0000000000000000000000000000000080002c200400000000000000000000000033
:0951ac0040000000000091c00069
:2051b5000000000000000000000000000000000400001620000000000000000000000000a0
:0a51d500060000000000098a000037
:2051df00000200000000000000000000000000000038c00600000000000000001033b29e1d
:0951ff003c0002003c0c00a2106f
:2052080000000000000000000000000000000000000020000000000000000000002cc53b3a
:0a522800c00004402bddf701400038
:2052320000000000000000000000000000000002007c0000000000000000000000000000de
:0952520040000000cfd8b080003c
:20525b000000200000000000004000000000080000060020000000000000000000000000a5
:0a527b0007800000330d9d81000044
:20528500000000000000000000000000000000800922c000000000000000000000331f1438
:0952a50028820002a82000f0009c
:2052ae0000000000000000000000000000000014000060000000000000000000002cc9aacd
:0a52ce0006c050002a84a001000071
:2052d800000000000000000000000000000000000936430000000000000000000000000034
:0952f80030000000cf6ff00a0045
:205301000000000000000000000000000000000000805c0404700000000000000000000137
:0a53210060000700332ff01e0000ab
:20532b00000000000000000000000000000000000138c25020403fc000000000003f9604df
:09534b0034000002a8205100000a
:205354000000000000000000000000000000000000006002010803fc00000000000c03b20e
:0a537400000000002a8e8f1e0000ca
:20537e0020000000000000000000000000000000002dc000020000000008000800000000f0
:09539e00020020000000b008002c
:2053a700c542800000000000000000000000000000000038003000000001900080000000e6
:0a53c70000000300000008080008c1
:2053d100800000000000002804000000000000100038240000000000000800500000000448
:0953f10001004000000000e00191
:2053fa000000000000000001300000000000000000005e2000000000003990080000000211
:0a541a000608000000000000040076
:205424001c0000000000000000000000000058000030030500009200900000000000002674
:095444002c000000000af0b00089
:20544d000a00000000000000000000000000020000000004000008845e0000000000000243
:0a546d0060000000294080180100d3
:20547700000000000000000000000000000000000038238000009200f0001d00000000009b
:0954970000000003f45b08801022
:2054a000000000000000000000000000000000000000042000000c845e00000800000000d2
:0a54c000000000000055e3a1008089
:2054ca0000800000000000000000000000004000803c000000009201900000000000000023
:0954ea0000000003c00d000000e9
:2054f300000000000000000000000000000002040006402000000c844a0000000000000152
:0a5513004002000083cea00e00004d
:20551d000c000000000000000000000000001c000328400000009201f1000008000f0ac274
:09553d0020003000000001a00074
:2055460004c000000000000000000000000000000000440000000c844a980000802aa72c4e
:0a556600e04002000000018a00008e
:20557000807400000000000000000000000058800b2403c080009200900c000000aa040001
:0955900000000003c009008000c6
:20559900000740000000000000000000000002100000000408700c844e001001c02aa7702d
:0a55b9000000070003cd8001001c74
:2055c300000000000000000000000000000000000d3c200080109200f900000000a7bb8062
:0955e30000000000fdcd00a00055
:2055ec000800000000000000000000000000000000001e0008000c844e500000002a4ba826
:0a560c0000000000302ef300000043
:205616002000000aa080000003000000000000000030c00003043ff6c000000000000ac071
:09563600400020003c2f10000090
:20563f0085400002aa5a00380030000000000c0000004022842003be59000000000055aceb
:0a565f0003800300aa96f81e000c59
:205669008000000a7de020000000000000000c00003ac00004000000000000000000003ed2
:095689003400000001e8100000eb
:2056920000000002a4968e00000000000000000000006000000000000000000000000002cc
:0a56b200e64000000065d80a14006d
:2056bc001c000000000000000000000000001880003fc710000000000000000000fd538034
:0956dc0038000001540c00c11457
:2056e5000b00000000000000000000000000000000003c24850000000001c000004017a0fd
:0a57050000000000aa9e10180180a9
:20570f00000200000000000000000000000000000020c013200000000008000002a00404b3
:09572f000000000165c850a0044f
:205738000000000000000000000000000000000000002c0201000000000011c0082a05a278
:0a57580060000000a9ae10180080e8
:2057620000240005f0a440000000000000000800003c040000a03fc0b71b0002020bff540f
:09578200200000016cc9000408bc
:20578b0000007002a05a260000000000000000000402c022800002bcc800a0000020453346
:0a57ab0060400000a927e180000023
:2057b5000c4000000000000003000000000000000b300400000000000d10000082017740ef
:0957d50068003003feeb0800003f
:2057de00c4870000000000000030000000000000000040b0000000000000a000002a45a190
:0a57fe0042c003003bc5d1000008c3
:20580800804000000000000000000000000000000b34000400000000000d08000a0f0a80c5
:0958280000000002bc0000801029
:20583100000600000000000000700000000000000080000080700000000010000020053c00
:0a585100000007002bc6e001009cd8
:20585b00000200000000038000000000000001400b27c34000003fd6a58b000000000000ed
:09587b003400000040ee000000c2
:205884000800000000000600000000000000000800802004000002fe5a500000000000019f
:0a58a40040000041001cd18000000c
:2058ae000000000af0b020000000000000004000002fc00202001a410008000880d8ffc457
:0958ce003e820001a410008000dc
:2058d700800000805f785e00000000000000000000003e00043009a45a001000890c0f6be4
:0a58f70066d040009a45a001000ca5
:2059010000000000000000000000000000000000002c000000001a410088000080ff56fca6
:0959210000000001a41000820046
:20592a00000000000000000000000000000000000000402000000da45a119180014ef5abe1
:0a594a0040000000da45a0194000fb
:20595400000000000000000000000000000010000030036800001a4000000000000000141a
:0959740000000001a40000a000e5
:20597d00000000000000003200000000000000000000000500000da45a00000000000003c5
:0a599d00e0000000da45a001100050
:2059a700000200000000000000000000000000000038240000001a4000000040005f000485
:0959c70028008001a4000000107a
:2059d0000000000000000000000000000000000000001e2001020da45e0000000005f7abc0
:0a59f00066c00000da45e000008008
:2059fa00000000000000000000000000000000000075e40000001a410100000000bfba025d
:095a1a002c000001a41010000092
:205a2300000030000000000000000000000000000402ae2000000da44a998000000ffb68d9
:0a5a430043000000da44a9980000b7
:205a4d0000000000000000000000000000000000012a600000001a410100010c80000ef6c1
:095a6d0078000001a410100000f3
:205a76008000000000000000000000000000000000805e0001000da44a980000c080a77dba
:0a5a960042800000da44a9800008f5
:205aa000000000000000000000000000000000000f2c038080001a40000a200080ef124063
:095ac00040000001a400000000f8
:205ac900000000000000000000000000000000040080400008700da44e001401c00ffb782b
:0a5ae90006030000da44e000001c90
:205af300000200000000000000000000000000000f20024080081a400000000000fffb4202
:095b130040000281a400f0020030
:205b1c00000000000000000000000000000000000080000008000da44e000000000efb34a5
:0a5b3c0062800000da44e800400037
:205b4600000000000000000003a01a410008000c0030042102001a41000800080000000269
:095b660000003001a410008000d1
:205b6f008400000000000000002009a45a009000c000402000220da45e181000c0000001a1
:0a5b8f00e0000200da45e181000c9d
:205b9900800000000000000000001a4100080000003ac60540001a41000800000000000061
:095bb90028000001a410088082fc
:205bc200000000000000000000000da45a0190000000403a05001da45a19900000000000e4
:0a5be20000400000da45a3990020fe
:205bec000c3000000000c00000001a40000000000038000020001a40000b000100a00a24b7
:095c0c0028000001a40000a00022
:205c1500044000000000000000000da45a00000000000c2005000da45a00000020650781d7
:0a5c3500c0470001da45a00000009e
:205c3f0000020000a034000000001a40000008000030034000001a400000000000af000091
:095c5f0000000001a40000000097
:205c680000000082fa36c07800000da45e0000000000000400000da45e00000000caf5a0b1
:0a5c880006800000da45e00000008d
:205c9200000000000000020000001a4101004000003c040400001a410100000000000000b4
:095cb2002c000001a410100002f6
:205cbb00000020000000003c00000da44a9980000106803800000da44e818000000000009a
:0a5cdb0007802000da44a81800003a
:205ce500000000000000000000001a41010000000924002100201a410180000c00ff32803c
:095d05006c000001a4101002085a
:205d0e00c00000000000000000000da44a9800040000400051000da44ad80000800eff30fd
:0a5d2e0007800000da44a980000c91
:205d3800000000000000000000001a40000000000934c3c000001a400000000000ff5f4039
:095d580000000001a4000000009d
:205d6100000000000000000000700da44e000001c0807c0000700da44e000001c00ef17453
:0a5d810000000700da44e000001cf7
:205d8b00000200000000000000081a40000000000138c24060101a4000000000000000048b
:095dab0000000105a40000000045
:205db400000000000000000000000da44e0000000000200204000da44e00000000000002a9
:0a5dd40006050001da44e00000803b
:025dde000000c3
:035de00062003f1f
:035de300720080cb
:025de6001100aa
:035de80082000036
:025deb000103b2
:085ded000000000000000000ae
:085df5000000000000000000a6
:085dfd0000000000000000009e
:085e0500000000000000000095
:0261ed000000b0
:0361ef00820080ab
:0261f2000103a7
:0861f4000000000000000000a3
:0861fc0000000000000000009b
:08620400000000000000000092
:08620c0000000000000000008a
:0265f4000000a5
:0265f600110191
:0365f8008200001e
:0265fb0001039a
:0865fd00000000000000000096
:0866050000000000000000008d
:08660d00000000000000000085
:0866150000000000000000007d
:0269fd00000098
:0369ff0082008093
:026a020001038e
:086a040000000000000000008a
:086a0c00000000000000000082
:086a140000000000000000007a
:086a1c00000000000000000072
:026e040000008c
:026e0600110277
:036e080082000005
:026e0b00010381
:086e0d0000000000000000007d
:086e1500000000000000000075
:086e1d0000000000000000006d
:086e2500000000000000000065
:02720d0000007f
:03720f008200807a
:02721200010376
:08721400000000000000000072
:08721c0000000000000000006a
:08722400000000000000000062
:08722c0000000000000000005a
:02761400000074
:0276160011035e
:03761800820000ed
:02761b00010369
:08761d00000000000000000065
:0876250000000000000000005d
:08762d00000000000000000055
:0876350000000000000000004d
:027a1d00000067
:037a1f0082008062
:027a220001035e
:087a240000000000000000005a
:087a2c00000000000000000052
:087a340000000000000000004a
:087a3c00000000000000000042
:027e240000005c
:017e26002239
:027e27003ac758
:027e2900010650
:00000001FF
